:02000004C0DE5C
:1000000080B509F085FF002080BD000010B588B0E4
:10001000002002AC8DF8070020460021182212F0C3
:10002000B7FD0948002102900DF10700069001205C
:100030000790204607F0FAFF9DF80710002848BFF8
:10004000FF21084608B010BD3F0081002DE9F04DAA
:10005000CCB000278DF80670569D8DF80700080A71
:10006000559F8DF80900549E100A0DF10708DDE92F
:1000700059BA579C8DF808108DF80B008DF80A209E
:1000800008F1080029463A468DF80C308DF80D60CD
:10009000C6198DF80E7012F075FD06F8014B5899CF
:1000A00030462246351912F06DFD4FEA1B2068706C
:1000B0004FEA1A2006F804B0E870381946AC85F803
:1000C00002A000F10D0520460021182212F060FD6B
:1000D0000A48002146900DF106004A9001204B90FD
:1000E0002046CDE9488507F0A1FF9DF806100028BD
:1000F00048BFFF2108464CB0BDE8F08D3F008300AB
:1001000010B5CCB0002146AC8DF806108DF8070074
:1001100020460021182212F03BFD0B480DF106018C
:1001200046900DF10700489001204990CDE94A1012
:100130002046002107F07AFF9DF80610002848BFEE
:10014000FF2108464CB010BD3F008500F0B5CBB094
:10015000DDE952E48DF80300200E8DF80D00200C2F
:10016000DDF850C1DDE950658DF80C00200A8DF8EE
:100170000A4045AC00278DF804108DF805208DF855
:100180000B002046002118228DF802708DF80630F1
:100190008DF807608DF808508DF809E08DF80EC0D5
:1001A00012F0F6FC0B48002145900DF1030047903A
:1001B0000C2048900DF10200499001204A90204601
:1001C00007F034FF9DF80210002848BFFF210846C1
:1001D0004BB0F0BD3F00860010B5CCB00022ADF8AA
:1001E0000600080C46AC8DF80520ADF80A00ADF805
:1001F000081020460021182212F0CAFC0B480021EA
:1002000046900DF106004890062049900DF105003A
:100210004A9001204B90204607F008FF9DF80510FA
:10022000002848BFFF2108464CB010BD3F008800A1
:100230002DE9F045CDB001AC15460E4607462046E7
:100240000021072298464FF0070A12F0A1FC8DF812
:100250000D5047AD2846002118228DF80B708DF8FF
:100260000C6012F095FC1A484AA947900DF10B005A
:100270004990032081E811042846002107F0D6FEAA
:10028000002805D49DF8040030B14DB0BDE8F085DC
:10029000FF204DB0BDE8F0859DF805209DF80630A3
:1002A0009DF807709DF8086042EA0322DDE95410CA
:1002B000A8F8002047EA06229DF80A309DF8097048
:1002C0000A8047EA0321018000204DB0BDE8F08597
:1002D0003F008A0070B5CCB0044600200DF1070540
:1002E0008DF80600681C22468DF8074012F04AFC83
:1002F000661C46AC20460021182212F049FC0A4830
:10030000002146900DF106004A9001204B902046B6
:10031000CDE9485607F08AFE9DF80610002848BF30
:10032000FF2108464CB070BD3F008E0010B588B06C
:10033000002002AC8DF8070020460021182212F0A0
:1003400027FC0948002102900DF1070006900120CA
:100350000790204607F06AFE9DF80710002848BF66
:10036000FF21084608B010BD3F00940010B5CCB086
:10037000002246AC8DF80520ADF806008DF8081077
:1003800020460021182212F003FC0C480021469060
:100390000DF106004890032049900DF105004A90A8
:1003A00001204B90204607F041FE9DF805100028E3
:1003B00048BFFF2108464CB010BD00BF3F00A5005C
:1003C00010B588B0002002AC8DF80700204600214F
:1003D000182212F0DDFB0948002102900DF1070000
:1003E000069001200790204607F020FE9DF8071098
:1003F000002848BFFF21084608B010BD3F0001019A
:100400002DE9F04DCCB004460238B0FA80F0400936
:100410000DF1040816460F4605014046002103224F
:100420009B46012C08BF02254FF0000A12F0B0FBDA
:10043000012C8DF8074003D0022C2ED1102400E0AF
:1004400002240DF10700013039462246054412F01E
:1004500099FB2E7085F801B0E51C4FF0010ABAF146
:10046000000F1ED046AC20460021182212F090FB4F
:10047000164848A946900DF1070081E821010320A4
:100480004B902046002107F0D1FD00280DD49DF8A7
:10049000040070B14CB0BDE8F08D0125BAF1000F39
:1004A000E0D147204CB0BDE8F08DFF204CB0BDE856
:1004B000F08D9DF805009DF80610549A40EA012041
:1004C000108000204CB0BDE8F08D00BF3F0002015D
:1004D0002DE9F04DCCB00446881EB0FA80F04009FA
:1004E00093460F464FEA001A012968464FF0000173
:1004F0004FF003021D4608BF4FF0020A4FF00008FC
:10050000032612F045FB012FADF806408DF8087068
:1005100003D0022F1DD1102700E002270DF10600A5
:10052000DDE95468033059463A4600EB0A0412F0FC
:1005300029FB280A60705698A6702071579884F895
:1005400003806071589807F10A064FF00108257082
:10055000A071B8F1000F1BD046AC20460021182234
:1005600012F016FB1448002146900DF10600CDE96B
:10057000480668464A9003204B90204607F056FDF7
:10058000002809D49DF8000050B14CB0BDE8F08DB2
:1005900047204CB0BDE8F08DFF204CB0BDE8F08D99
:1005A0009DF801009DF80210599A40EA0120108040
:1005B00000204CB0BDE8F08D3F00040170B5CCB018
:1005C000DDF840C11C460DF106050023ADF806001C
:1005D000ADF808108DF80A20A81D614622468DF856
:1005E00005308DF80B4012F0CDFAA61D46AC204622
:1005F0000021182212F0CCFA0A48002146900DF191
:1006000005004A9001204B902046CDE9485607F05E
:100610000DFD9DF80510002848BFFF2108464CB08D
:1006200070BD00BF3F00060110B5CCB0002146AC44
:100630008DF80510ADF8060020460021182212F0B2
:10064000A7FA0D48002146900F2047900DF10600B3
:100650004890022049900DF105004A9001204B90EE
:10066000204607F0E3FC9DF80510002848BFFF2155
:1006700008464CB010BD00BF3F000B0110B5CCB018
:10068000002146AC8DF80510ADF80600204600218B
:10069000182212F07DFA0C48002146900DF1060058
:1006A0004890022049900DF105004A9001204B909E
:1006B000204607F0BBFC9DF80510002848BFFF212D
:1006C00008464CB010BD00BF3F00250170B5CCB04E
:1006D000DDE9505C0DF106060024ADF80600ADF82A
:1006E00008108DF80A20F01D61462A468DF8054055
:1006F0008DF80B308DF80C5012F044FA46AC2046C1
:1007000000211822073512F043FA0A4800214690CA
:100710000DF105004A9001204B902046CDE9486537
:1007200007F084FC9DF80510002848BFFF2108460B
:100730004CB070BD3F00260170B5CCB00C46002116
:100740000DF107058DF806108DF80700A81C11465D
:1007500022468DF8084012F015FAA61C46AC204639
:100760000021182212F014FA0A48002146900DF1D7
:1007700006004A9001204B902046CDE9485607F0EC
:1007800055FC9DF80610002848BFFF2108464CB0D4
:1007900070BD00BF3F000C0010B5CCB0002246ACCD
:1007A0008DF806208DF807008DF8081020460021EE
:1007B000182212F0EDF90C48002146900DF10700C7
:1007C0004890022049900DF106004A9001204B907C
:1007D000204607F02BFC9DF80610002848BFFF219B
:1007E00008464CB010BD00BF3F000F0010B588B0E8
:1007F000002002AC8DF8070020460021182212F0DC
:10080000C7F94FF0031002900DF107000690012088
:1008100007902046002107F009FC9DF807100028EA
:1008200048BFFF21084608B010BD0000B0B5CCB0ED
:1008300000220DF107058DF806208DF80700681CD1
:100840001F2212F09FF946AC20460021182212F018
:100850009FF90B4800214690202049900DF1060099
:100860004A9001204B902046489507F0DFFB9DF809
:100870000610002848BFFF2108464CB0B0BD00BF9D
:100880000800090010B5CCB00024DDF838C18DF89F
:10089000054046ACADF80600ADF80810ADF80A20EA
:1008A000204600211822ADF80C30ADF80EC012F031
:1008B0006FF90D48002146900F2047900DF106007A
:1008C00048900A2049900DF105004A9001204B9074
:1008D000204607F0ABFB9DF80510002848BFFF211C
:1008E00008464CB010BD00BF3F0081010C48019C80
:1008F000784412F0F5FC0078084940F00E0009F841
:10090000010009EB0100012141700A2181700421DD
:10091000C1704FF41040216010F06CFF30480000AF
:100920000C790200F0B5CDB014460D46064611F024
:1009300077FB45AF392031462A463B4615F084FC0B
:1009400011F06EFB6D46284630211BF0E5FB4ECFC3
:1009500005F110004EC097E84E0033AF4EC0284658
:10096000394600F02FF818AE3046394600F036F818
:10097000284660211BF0DCFB384648211BF0D8FBE1
:1009800002208DF82F0006F1390128462A4600F092
:1009900031F805F1300000F037F86FF07F020028E1
:1009A000C8BF6FF05F029DF8690006F1090100F011
:1009B0001F0010448DF86900204630221BF0AFFB69
:1009C0004DB0F0BD80B50B4601463920302202F013
:1009D00075FF002808BF80BD10F00CFF80B50A46E7
:1009E00001463920012302F065FF002808BF80BDC1
:1009F00010F000FF80B5302302F088FF002808BF08
:100A000080BD10F0F7FE000080B582B0064901AB52
:100A10007944302202F072FF002802BF019802B030
:100A200080BD10F0E7FE00BFDAB8010070B58CB0F1
:100A300015461C4A0E4619F80210044600298DF886
:100A40002F3008BF08F072FD022C1AD2CEB96E46C4
:100A50000DF12F012846324608F066FEA8B1124A71
:100A60009DF800104A44301D0832FFF75BFF84B147
:100A7000109C17F01AFE206840F0100020600CB0A7
:100A800070BD4FF4D64010F0B5FE4FF4D54010F0D5
:100A9000B1FE119C07F036FF20604FF4104010F0BB
:100AA000A9FE00BFD9020000E40200002DE9F04DCC
:100AB000A2B01546614A0E4619F802108046002978
:100AC0008DF8873008BF08F031FDB8F1020F80F0D3
:100AD0008F80022E80F090800EAC0DF187012846A9
:100AE000224608F021FE002800F08F808246701E0A
:100AF000DFF84CB1B0FA80F0400909EB0B0686F83C
:100B0000950006F14C0711F08BFA211D96F89550CF
:100B10009DF838200DF1670421202346002D18BFD1
:100B200006F17505009515F06BFB04AD20462946CE
:100B300000F096F811F074FA284600F09DF8284667
:100B400028211BF0F5FA204620211BF0F1FA11F0C4
:100B500067FA3C4C3C4959F8040009EB0102D0E922
:100B60000403394600903046019305F052F80028FE
:100B70004FD059F804009DF88720D0E90401082AD5
:100B8000039102900BD3504608211AF059FF0391AC
:100B90009DF887100290A1F108008DF887009DF85C
:100BA0008710D1BBB8F1000F3FD009EB0B0000F16B
:100BB0004C072648284A2A9D48447A442B2128235A
:100BC000009711F0B7FD59F80400DDE90232D0E9D1
:100BD000040151405840014302A808BF084617F0DD
:100BE000AFFD286840F01000286022B0BDE8F08D0D
:100BF00017484146784402E016483146784411F0DF
:100C0000E5FB4FF4D64010F0F5FD4FF4D54010F061
:100C1000F1FD6FF0770010F0EDFD1048784411F011
:100C2000D5FB4FF4D54010F0E5FD2B9C07F07AFE84
:100C300020604FF4104010F0DDFD00BFD90200002D
:100C4000E4020000D4020000700800004407000025
:100C5000AEE40100E9C7010078E601009ACB01008B
:100C600080B50B4601462120202202F027FE0028F5
:100C700008BF80BD10F0BEFD80B50649024649445C
:100C80002120012302F016FE002808BF80BD10F0CD
:100C9000B1FD00BFE402000080B500F007F8024992
:100CA00049F8010080BD00BF0000000080B582B09F
:100CB00001A8042102F02EFE019802B080BD0000C0
:100CC000014859F8000070470000000080B5FFF7A8
:100CD000F7FF01460748784411F078FBFFF7F0FF73
:100CE00000F00AF800F016F82020062110F0AAFF04
:100CF00080BD00BFF2BB01000549020E09F80120CA
:100D00004944020C4A70020A8A70C870704700BFDA
:100D1000304800000348902148440171002141718E
:100D2000704700BF3048000010B500241F234FF06B
:100D3000010C07E0C25C0A55013B5A1C04F1010496
:100D400008BF10BD5FFA84FEBEF11F0F08D0BEF1D0
:100D5000000FEFD1C27F6CF39F120A70ECE700BF67
:100D6000027802F0F802CA77E6E700002DE9F04DBC
:100D7000AAB002288DF8A73080F0C6808B460229E1
:100D800080F0BE800EAD04460DF1A70110462A4644
:100D900008F0CAFC002857D08246BBF1010F03942B
:100DA00004D19DF8A7001F2840F2AA80DFF87881BF
:100DB000291D09EB08059DF8382095F895400DF19F
:100DC000870721203B4605F14C06002C18BF05F192
:100DD0007504009415F014FA04AC2120394622461B
:100DE00000F0AEF82120214600F0B4F84F485049F9
:100DF00059F8000009EB0102D0E9040331460090E4
:100E00002846019304F005FF002800F08180BBF123
:100E1000000F1DD009EB080000F1090420465146DF
:100E200020221BF07EF90DF187052046294620225D
:100E300002F080FD044604A828211BF079F9284619
:100E400020211BF075F90CB34FF4D54010F0D2FC03
:100E50000DF187050DF1670428462146FFF764FF71
:100E600004AE81202146324600F06AF881203146E6
:100E700000F070F8204620211BF05AF93046282156
:100E80001BF056F9284620211BF052F90398002840
:100E900042D0284D284A09EB0800329C00F14C074B
:100EA00009EB05007A442B212823009711F042FC1E
:100EB0000DF18707781E002109EB08020A4492F819
:100EC0002820013911F1200300F8012FF4D11B4A29
:100ED00009EB05002B307A444E212023009711F0B6
:100EE00029FCBBF1000F02D017F06EFB01E017F0F8
:100EF0003FFB206840F0100020602AB0BDE8F08D74
:100F00004FF4CE4010F076FC4FF4D64010F072FC57
:100F10006FF0770010F06EFC339C07F035FD206019
:100F20004FF4104010F066FCE4020000D402000010
:100F300070080000440700008EE301001CD301008C
:100F400080B51346202202F0B9FC002808BF80BDFE
:100F500010F050FC80B50A4604490123494402F0D0
:100F6000A9FC002808BF80BD10F044FCE40200008A
:100F7000A0B085481C467844154611F027FA8048F1
:100F800019F80000013802281AD27E4F012209EB1D
:100F9000070090F8041122EA010680F804617B48FA
:100FA0003146784411F012FA032C11D87848032105
:100FB0007844224611F00AFA4FF4D54010F01AFC9A
:100FC0008848784411F002FA46F6851010F012FCB9
:100FD000297801290CD1697801290CD195F802B042
:100FE0000BF12108A0450ED96C4841467844E0E752
:100FF0006848784401E06848784411F0E7F94FF414
:10100000D54010F0F7FBBBF1470F04D364484621ED
:1010100078445A46CEE70BF10300009009EB070035
:101020005B2106FB01000BF1170100F16006019145
:1010300000F14C0AE91C30465A461BF070F80020BB
:1010400006F80B0057485946784411F0BFF9564846
:101050003146784411F0BAF9009814222E185046FF
:1010600031461BF05CF8514814217844324611F0A7
:10107000ADF9019808212E1830461AF0E1FCCDE9AF
:1010800002014B4808217844324611F09FF902A82A
:1010900010F086FB38B94748784411F097F94FF4BF
:1010A000D54010F0A7FB0BF11F002E5C42483146E3
:1010B000784411F08BF9012E23D14048404A7844FE
:1010C0007A4441210BF1200611F080F9AE5D3D48D4
:1010D0003146784411F07AF9012E16D13A4841464A
:1010E00078442A4611F072F918AA2846414620236E
:1010F00002F0F8FB0BF12206A6420AD933487844E5
:10110000CBE733483146784477E732483146784474
:1011100073E715F8088030484146784411F056F9D5
:10112000A8F1430006280AD32F48432178444822D7
:10113000434611F04BF94FF4D54010F05BFB06EB42
:101140000800A04202D925487844A6E705AC20460D
:1011500000F058F8AA1918A92046434600F046F8AE
:1011600058B109EB070090F804110844012180F8F8
:1011700002114FF4104010F03DFB194878448CE701
:10118000DB020000E4020000D8BB010051DD0100D9
:101190001DDA010047E20100E4D001001BDA010082
:1011A000E7D101006EB40100EFD90100B5B901002B
:1011B0003CB401005CD00100BDDD0100D7C50100D9
:1011C00009E3010098D60100CFBB01002AC8010045
:1011D0004BC901000CB20100A4DF0100C3CF010024
:1011E000CAD1010028BA010077C5010080B582B0DC
:1011F0009C4613462022CDF800C002F04FFB02B0FF
:1012000080BD000080B50649034679442120412273
:1012100002F058FB002808BF80BD10F0EBFA00BFB9
:10122000BFE101009EB0DFF80CB1154609EB0B00E1
:1012300090F80411012222EA010780F804713F4866
:10124000394678441C4611F0C1F844B12E780B2E73
:1012500005D2601EC0B206F11C01814203D94FF4D1
:10126000D54010F0C7FA701C05F10108029016AACB
:101270004046202302F036FB09EB0B005B2107FB05
:10128000010A41460AF14C000AF160070190384614
:1012900032461AF046FF0020B85502981422291849
:1012A00001981AF03EFF06F11501284600F04CF8AF
:1012B0008AF86B0006F11901284600F045F81E492E
:1012C00059F80110D1E9042382F0010119431EBF2E
:1012D0000146504050EA03001BD1A01B03AC35442B
:1012E000A0F11D06204600F03BF805F11D02F3B207
:1012F00016A9204600F044F8A0B109EB0B0090F8C5
:1013000004110844012180F802114FF4104010F03C
:1013100071FA0B480091784411F058F84FF4D54019
:1013200010F068FA0748784411F050F84FF4D540AF
:1013300010F060FAE4020000D4020000B1DA01000B
:1013400053C7010063C901004218405C517893788B
:101350000904D27841EA006040EA03201044704753
:1013600080B50649034679442120412202F0AAFAB9
:10137000002808BF80BD10F03DFA00BFA4E00100C6
:1013800080B582B09C4613462022CDF800C002F002
:1013900085FA02B080BD000070B5104E0C4619F8F9
:1013A0000610002571B110F0FBF958B109EB0600E9
:1013B00000F10801204614221AF0CEFEB0FA80F0A7
:1013C000400900E0002009EB060149F80650C1E998
:1013D0000155C1E90355C1E9055570BD0400000080
:1013E00070B5A0B001281F928DF87B3006D11FA8E0
:1013F0000DF17B0100F06AF828B955E02D4859F845
:101400000000002841D02B489DF87B2009EB00010B
:101410008B88CD88D418AC420BD927484FF4D541DE
:1014200029F8001000F092F82648784410F0CEFF1A
:101430003AE009EB000659F800001F9918441AF029
:101440006EFEA0B2A842B48023D11C4D1C4809EB0B
:1014500005014844486001A800F086F8D8B101A809
:1014600000F0ECF8B8B1012409F8054009EB0500DB
:10147000416800F1080314481422784410F0A6FFD4
:1014800000F064F8FFF708FC0FE00B484FF4D6417A
:1014900008E0012409E000F059F8FFF7FDFB0648D9
:1014A0004FF4D54129F800100024204600F03CF804
:1014B00020B070BD20000000180A000004000000E9
:1014C00028000000FECD0100DACF0100B0B5144ABB
:1014D00059F802202AB100F039F812484FF4D641E9
:1014E00019E0054608780C46012803D80D484FF44A
:1014F000D54110E0286800F0E1F800F0C7F838B1F5
:101500002868023028602078023820700120B0BDA1
:10151000044846F6842129F800100020B0BD00BF21
:1015200020000000180A000080B50749002839F89B
:10153000011018BF4FF41041084600F0C5F82020F4
:10154000022110F07FFB80BD180A0000B0B5054CE9
:1015500009EB0405E88808F017FD002049F80400AD
:101560006860B0BD200000002DE9F04DA0B0324908
:101570000446794405A86C221AF0D1FD002002909F
:1015800004F10800019000F045F92A4D09EB05002F
:101590008088002843D003AE771C4FF000080DF17F
:1015A000080B00200AE000BF0020D04609EB05012F
:1015B000C246DDF808808988884530D2C0B202284A
:1015C0000AD0012824D080BB5846314600F026F9C5
:1015D00058B30120EAE700BF59F8050031464044FE
:1015E000049005A8224600F03FF9F0B19DF80D00E7
:1015F0009DF80C2008EB0001152A0291D4D059F86F
:101600000500019A5044A1EB0A0105F0F7FDCBE774
:101610005846394600F002F938B10220C5E705A85E
:1016200000F04EF920B0BDE8F08D002020B0BDE8FC
:10163000F08D00BF20000000DADE0100B0B59CB0E4
:101640000446083014A900F0F9F9217803290DD1D6
:1016500001AD284600F008FA6268637814A92846AC
:1016600000F012FA38B101201CB0B0BD0548784432
:1016700010F0ACFE03E00448784410F0A7FE002010
:101680001CB0B0BDEFC70100F5CD010010B5044698
:1016900008F066FC074949F8010010B14944CC80C4
:1016A00004E0054946F6842229F80120002818BFE5
:1016B000012010BD20000000180A000001784078C9
:1016C00040EA012080B270470349020A09F801206C
:1016D00049444870704700BF3048000001207047FF
:1016E0000120704710B582B001A900F00BF940B19C
:1016F000019CFFF7E5FA201AB0FA80F0400902B029
:1017000010BD002002B010BD10B582B001A9144672
:1017100000F0F8F801990022B1F5807F38BF01226E
:101720001040012808BF217002B010BD80B582B002
:1017300001A900F0E7F801990139B1FA81F14909ED
:10174000084002B080BD417851704168012051606D
:1017500070470000F0B581B042781F2A05D31A48BF
:101760001146784410F032FE10E0052A0AD30446F0
:1017700040680D461044011F1448042278441AF0B2
:1017800083FD30B11348784410F020FE002001B0F2
:10179000F0BD607860B100276068C65D304600F03B
:1017A000E9F860B16868C655607801378742F3D3BD
:1017B0006868617800224254012001B0F0BD0448FD
:1017C00031467844CEE700BF5EB8010064B901003D
:1017D000B8C70100F5B6010080B582B001A900F0DC
:1017E00091F801993C39B1FA81F14909084002B0F8
:1017F00080BD10B54478142C06D1426801F1080070
:10180000114614221AF08BFCA4F11400B0FA80F0F7
:10181000400910BD80B502F089F880BD10B582B0D6
:10182000D1B10C4601A900F0BDF830B10198FF28F4
:1018300009D82070012002B010BD09484FF4D541ED
:1018400029F8001008E006484FF4D54129F80010A7
:101850000448784410F0BAFD002002B010BD00BF6B
:10186000180A0000FCD90100F0B581B004460878E0
:1018700015460E46002700BFE15D814203D00C37BC
:101880006C2FF9D10DE0E119087A421C48680A7200
:1018900011F026FD08490346494430462A46984738
:1018A00010B1012001B0F0BDE15D0448784410F0B2
:1018B0008DFD002001B0F0BD0400000012B4010055
:1018C00010B5017A002201290ED100F1140300BFE6
:1018D000082A4FF0000438BF01240ED013F80C1B67
:1018E00001320129F4D000E0012402EB420210F899
:1018F00022200348784410F069FD84F0010010BDF7
:101900003DB901002DE9F04182B044780646052C2E
:1019100006D3327810482146784410F057FD13E082
:10192000C4F10400C7B20DF104080D464046394623
:101930001AF0F2FB716808EB070022461AF0EFFB81
:10194000404600F00BF828600020052C38BF01202D
:1019500002B0BDE8F08100BF3DD1010042780178BE
:1019600083781204C07842EA016141EA0321084405
:10197000704700000A4979440144497801F00302A4
:10198000022A08D04AB9490705D4A0F12D0102293D
:1019900001D35F2801D1012070470020704700BFAC
:1019A0000C6202002DE9F04D82B021B304462048BC
:1019B000226859F800700D46B95C0B0603D4296003
:1019C000206801302FE0484401F07F0B561C8088CE
:1019D00006EB0B018142266004D91648784410F0CA
:1019E000F5FC08E0ABF10100042808D31248594681
:1019F000784410F0EBFC002002B0BDE8F08DCBF194
:101A0000040A0DF10408404651461AF085FB08EB24
:101A10000A00B9195A461AF082FB4046FFF79EFFAA
:101A20002860206858442060012002B0BDE8F08D95
:101A3000200000009DCD0100A2AC010010B582B0D5
:101A40004FF0200C00910121002200230446CDF824
:101A500004C001F043FF20B9204601F03BFF02B073
:101A600010BD0FF0C7FE000080B50649034679445B
:101A70002120412201F026FF002808BF80BD0FF081
:101A8000B9FE00BF4ADA010080B582B09C46134619
:101A90002022CDF800C001F001FF02B080BD00009F
:101AA000042B0BD108430DD1104600F011F8074963
:101AB00049F801004FF410400FF09CFE4FF4CE4067
:101AC0000FF098FE4FF4D6400FF094FEE0020000B5
:101AD0004278017883781204C07842EA016141EAD1
:101AE00003210844704700002DE9F04DAAB05E487C
:101AF0009B467844154610F069FC95F800A05B48B9
:101B00005146784410F062FC0AF119065E453146F0
:101B100077D2BAF11E0F78D20DF18808202328461B
:101B2000424601F0DFFE0FAC204600F0ADF8AF19E1
:101B3000ABEB0606204641463A46334600F0B4F881
:101B4000002868D0DFF81481013509EB080630461B
:101B50002946524654461AF0E4FA002706F80A705D
:101B600046483146784410F031FC0D9640F2FF10A3
:101B700001AE0E9030461AF02FFB0104ADF8300094
:101B800053D1304614F00EFC0B900DA814F08CFBD2
:101B900014F0FEFBB04202D10B9814F003FCBDF828
:101BA0003000002858D1364805EB0A04339D7844AC
:101BB00010F00CFC09EB080707F144001422214641
:101BC0001AF0AFFA14F8140F6178A278E37840EABB
:101BD000012042EA032140EA0140B8652048002183
:101BE00009F8001028681F4B421C2A6009EB030209
:101BF000902313542868431C2B6011542AB0BDE86D
:101C0000F08D1B485A46784409E01A480AF101024F
:101C100078441E2103E01848314678443A4610F0D3
:101C2000D5FB4FF4D5400FF0E5FD0B98ADF83070C3
:101C300014F0B8FB134809EB08047844214610F06F
:101C4000C5FB46F6841049F80870A783C4E90177FC
:101C5000C4E90377C4E905770FF0CCFD1C0600004A
:101C6000DB0200003048000094CF010099CF010052
:101C7000A0CB010068D2010085CF010035C9010069
:101C8000CAD6010068C0010080B506490346794400
:101C90002120412201F016FE002808BF80BD0FF070
:101CA000A9FD00BF6BD8010080B582B09C461346E9
:101CB0002022CDF800C001F0F1FD02B080BD00008F
:101CC0002DE9F04DB0B0C0481D467844144610F0E0
:101CD0007DFB0020CDE92E00CDE92C00CDE92A00C6
:101CE000CDE9280015A84C211AF016FA032D2F462D
:101CF00040F203812678B6483146784410F066FBFE
:101D0000012E40F0FE806678B3483146784410F0EA
:101D10005DFB012E40F0F88094F802B00BF1250035
:101D2000A842029000F2F480BBF11E0F039580F0F0
:101D3000F480A24A0BF11B0109EB02070BF1170A11
:101D40000191E11C38465A465E460BF10305D04628
:101D50001AF0E5F9002007F80B00A348594678442B
:101D600010F034FBA1483946784410F02FFB661977
:101D7000142507F1440031462A461AF0D0F99C4850
:101D800029467844324610F021FB04EB0A0014F88F
:101D90000A1042788378C07841EA022143EA0020A1
:101DA00041EA004047F8580F9248042178443A46E7
:101DB00010F00CFB0198082625182846314619F02A
:101DC0003FFECDE912018C48314678442A4610F096
:101DD000FDFA12A80FF0E4FC002800F0A9800BF136
:101DE0002300275C86483946784410F0EFFA022F2A
:101DF00040F0A1808348844A78447A4441210BF121
:101E0000240510F0E3FA675D80483946784410F005
:101E1000DDFA012F40F093807D48029F78443946D7
:101E2000224610F0D3FA28AA20232046394601F092
:101E300059FD039D0BF12606AE4200F28980E75D55
:101E4000774839467844B84610F0C0FAA7F1430005
:101E5000062880F08080F019A84200F2878015AD36
:101E6000284600F0F7F8A21928A92846434600F0B2
:101E7000E5F800287DD0584600F0FCF8504A431E93
:101E8000022B494609F8020076D24C4F20BB684825
:101E900009EB07047844214610F098FA109440F2B8
:101EA000FF1004AC119020461AF096F90104ADF829
:101EB0003C0069D1204614F075FA0E9010A814F079
:101EC000F3F914F065FAA04202D10E9814F06AFA00
:101ED000BDF83C0000286FD139983A4F016809EBF2
:101EE00007024B1C03609023535401684B1C036092
:101EF0000020505430B0BDE8F08D344803217844C0
:101F000009E03448784401E034487844314619E027
:101F10003348029978443A4604E032480BF1010212
:101F200078441E2110F052FA4FF4D5400FF062FCB5
:101F30003248784422E038483946784402E037484D
:101F40003946784410F042FA4FF4D5400FF052FC75
:101F50003048784412E037484321784448224346C9
:101F600010F034FA4FF4D5400FF044FC2D4878447B
:101F700004E02D48784401E02C48784410F026FA1B
:101F80004FF4D5400FF036FC0E980025ADF83C50CC
:101F900014F008FA284809EB07047844214610F0A9
:101FA00015FA46F6841049F80750A583C4E901558F
:101FB000C4E90355C4E905550FF01CFC1C060000DC
:101FC000DB02000030480000BCCD0100CFCA010098
:101FD00034AD010035D30100A2C80100D2C1010017
:101FE000F3CA01003DC4010058A70100ADCF0100B4
:101FF0009DAC010016A90100F8A60100C2C10100B4
:1020000085D001009DB8010040D701005EC90100E4
:1020100093AE0100D6B9010017BB0100D8A301009F
:1020200047BC01009DC10100D2C3010087B401007B
:1020300005C6010049B7010008BD010080B582B0A6
:102040009C4613462022CDF800C001F027FC02B0C8
:1020500080BD000080B50649034679442120412215
:1020600001F030FC002808BF80BD0FF0C3FB00BFAB
:10207000E0D4010010B507280CD00446062811D181
:102080000B480C494844794406221AF065F868B1B7
:10209000072C07D1064808494844794407221AF01A
:1020A0005BF808B1002010BD022010BD012010BD5A
:1020B0001C060000B2A90100A5A90100B0B582B0BC
:1020C0000146244D1446002080298DF8073009F878
:1020D00005000BD0E9B90DF10701204600F046F8E4
:1020E00030B3011B044609F8051004E01A4819F83A
:1020F0000000022814D19DF80710204600F0BCF81B
:10210000B0B1164819F80000C00714D100F0F0F87B
:102110001CE01448784410F059F94FF4D64005E01B
:102120001148784410F052F94FF4D54000F088F887
:10213000002002B0B0BD0A484844C06C20B14FF442
:10214000104000F07DF801E017F072FA012002B0B3
:10215000B0BD00BF47000000D802000048000000EA
:10216000E40200008ECF0100C4B60100F0B581B0DA
:102170002C4F0D4619F8072004461AB146F6851073
:1021800000F05EF8284E022009F8070009EB06026D
:102190002046294607F0C8FA38B1044628780328B3
:1021A00009D82448784410F011F94FF4D54000F0D4
:1021B00047F8002432E0204600F058F909EB060702
:1021C000F864287804340438287000F05BF91A4960
:1021D0000026794400201A220023009600F060F9BE
:1021E0001248FB6C4844154A00F580757A4428462D
:1021F000282110F09FFA28461AF03EF802460020E7
:1022000029460023009600F04BF900F027F9084812
:1022100019F8001001F0FC0109F80010204601B087
:10222000F0BD00BFD8020000E40200004407000037
:10223000480000000FC90100A9D30100F1A6010068
:1022400010B50446B0F5104F06D0094819F8000043
:10225000800748BF16F06AFB0648210A09F80010FB
:1022600048444470202002210FF0ECFC10BD00BF58
:10227000480000003048000070B582B01A4E0D468C
:1022800009EB0602D46C8C420AD2184829467844DD
:10229000224610F09BF84FF4D540FFF7D1FF1CE029
:1022A00001464FF0000C00202A460023CDF800C064
:1022B00000F0F6F809EB0600C16C491BC1640CD1B3
:1022C00009EB06004FF0200C00F12C030120002147
:1022D0000022CDF800C000F0E3F80020AC4228BF97
:1022E000012002B070BD00BFE402000057AE010043
:1022F0002DE9F04D00F082F8A8B332482E4C784416
:10230000471C31484FF02008784483464FF0000ABC
:1023100005E0202219F007FF00F070F818B300F074
:10232000DBF800B3054600F0DDF80678B85D00077D
:1023300048BF4646B85D10F0970F05D000F0DEF8B4
:10234000067080F801A008E000F0D8F82946042DB6
:10235000DFD35A46334610F0EDF919F80400013086
:1023600009F80400D8E700F0B7F8144C18B109EBED
:102370000400C06C78B9124D19F80500800708D424
:1023800017F002F919F8050040F0020009F80500FD
:1023900001E017F023F900F031F850B909EB04001F
:1023A000C06C002808BFBDE8F08D4FF41040FFF767
:1023B00047FFBDE8F08D00BF47000000E4020000C9
:1023C00048000000845802001ECA010080B5094878
:1023D00019F80000C00709D107484844C06C10B97B
:1023E00000F00CF810B117F035F980BD17F020F9A6
:1023F00080BD00BF48000000E4020000034804491B
:102400004844007919F80110401A7047304800001C
:102410004700000080B50B4809494844C06C19F8D2
:102420000120002842F0010009F8010004D04FF417
:102430001040FFF705FF80BD17F0FAF880BD00BF20
:1024400048000000E402000080B500F007F8FFF744
:10245000D5FF002818BFFFF74BFF80BD02480021C1
:1024600009F80010704700BF440700004278017867
:1024700083781204C07842EA016141EA03210844EA
:102480007047000080B505484FF48071484401F062
:1024900031FA002808BF80BD0FF0ACF970080000C9
:1024A00010B582B00B4C9446DDF810E00A460146A8
:1024B000009309EB04006346CDF804E001F00EFA46
:1024C00028B909EB040001F005FA02B010BD0FF0C5
:1024D00091F900BF7008000080B500F019F8C0F154
:1024E000FF0080BD0348044919F80000494408442E
:1024F00005307047470000003048000080B500F00C
:1025000007F802494944084480BD00BF4407000061
:1025100080B50248484419F0AFFE80BD4407000072
:1025200070B582B08DF8073060BB1A48144619F8B0
:102530000000002818BF06F0F9FF174D0DF1070144
:1025400009EB0502204607F0EFF8F8B104469DF8C4
:1025500007003F281AD94D44069E05F12C0021465C
:10256000202219F0DEFD04F1200105F14C002022AB
:1025700019F0D7FD16F062FF306840F010003060AF
:1025800002B070BD4FF4D6400FF034F94FF4D5408F
:102590000FF030F9D8020000E40200002DE9F04508
:1025A00083B014468A4605468DF80B3013F063FE5F
:1025B000AA2840F08F80802D54D0002D40F08680D6
:1025C0005B4E19F80600002818BF06F0AFFF594807
:1025D000012709EB00020DF10B01204609F80670F6
:1025E00007F0A2F8002800F08A800446524800262E
:1025F00009EB0002514882F8C360484480F8E47057
:10260000DFF83C814F49514B09EB080049447B44BA
:10261000009602F0F6FC9DF80B00002873D094F9A8
:102620000000002811D4C7B2781E012876D82046B1
:1026300000F09CF809EB080080F83C709DF80B0056
:10264000013401388DF80B0004E009EB0800C021CB
:1026500080F83C1009EB080090F83C103E487844A4
:102660000FF0B4FEBAF1000F30D1802D04D1304804
:1026700019F80000012835D1314819F80010A1B32C
:1026800031499DF80B2059F801104844D1E9041351
:1026900081F45E711943B1FA81F14B09214602F0D0
:1026A0003BFD012805DC09D080BB4FF410400FF042
:1026B000A1F8022821D1002006F016FB0A98016833
:1026C00041F01001016003B0BDE8F0854FF4D64041
:1026D0000FF090F8244878440FF078FE46F6821008
:1026E0000FF088F81D48784401E01D4878440FF049
:1026F0006DFE46F685100FF07DF8032806D14FF4E5
:10270000D5400FF077F81248784401E01548784436
:102710000FF05CFE4FF4D5400FF06CF80D483946D1
:1027200078440FF053FE46F201500FF063F800BFFB
:10273000D8020000E40200002C0400001C06000087
:10274000EC03000070080000D4020000DB6300000E
:10275000ABC3010060B70100ACAA0100B8B301002F
:1027600070AB0100B0C40100EBC30100B0B582B092
:10277000094D0246002409EB0500002101230094C5
:10278000019401F0ABF828B909EB050001F0A2F8BB
:1027900002B0B0BD0FF02EF87008000070B5A0B008
:1027A00015460E4604468DF87F3006F0BFFE022C1B
:1027B0003DD2E6BB14AE0DF17F012846324606F04D
:1027C000B3FFC0B30FF02CFC9DF8501002AD301DCC
:1027D0002A4612F0EDFA0AAE2846314600F03EF8DD
:1027E0000FF01EFC304600F045F83046282119F065
:1027F0009FFC2846202119F09BFC0FF011FCF4B13E
:102800001348154A484400F109061248249C4844DC
:102810007A444FF48071202300960FF08BFF16F05E
:1028200025F8206840F01000206020B070BD4FF403
:10283000D6400EF0DFFF4FF4D5400EF0DBFF259CB5
:1028400006F064FE20604FF410400EF0D3FF00BF8E
:10285000E40200004407000093B6010080B50B4677
:1028600001465120202201F029F8002808BF80BD30
:102870000EF0C0FF80B506490246494451200123AD
:1028800001F018F8002808BF80BD0EF0B3FF00BFAC
:10289000E40200003D491E4619F8011015460029C2
:1028A000804618BF06F042FEA8F1010005280DD2AF
:1028B0005420B04210D1B8F1000F11D1284600F0D9
:1028C0006FF8C0B2002818BF01200AE0B8F1000F6D
:1028D00032D13420B042EED04FF4CE400EF08AFF19
:1028E0000020B8F1010F4FF002062CD058BB284F42
:1028F00000266FF0B50403E05B3406F101061FD03B
:1029000009EB0700304490F802010028F4D009EBED
:102910000700204400F581702946142219F01CFCA0
:102920000028E9D1022E0ED11C4878440FF04EFD4C
:102930004FF4D5400EF05EFF4FF4D6400EF05AFF34
:102940000226022EF0D0134C05F1140109EB04000D
:10295000E530202219F0E5FBB8F1000F08D009EBB3
:10296000040005F1340100F20510202219F0D9FB12
:1029700009EB040080F8256180F8268106480121D2
:1029800009F800104FF410400EF034FFD802000098
:10299000E40200001C060000DC0200007CC501000F
:1029A000017800291EBF012080F001007047411C02
:1029B000002200BF132A4FF0000038BF012003D0CF
:1029C0008B5C0132002BF5D080F0010070470000D5
:1029D0002DE9F04DB4B09A46DFF8A435144619F845
:1029E00003200F46002A054618BF06F09FFDBAF1E6
:1029F000000F00F09C8294F800B0ABF101000A28AF
:102A000080F09882032D09DC012D0ED0022D0FD00D
:102A1000032D40F08882012300200BE0281F0228AC
:102A200080F081820120012304E00020002301E0E6
:102A300000230120002B1A4618BF212207900028EE
:102A40004FEA8B0006D06D21052D08BFA121084457
:102A5000104402E000EB42008930504540F07282A1
:102A6000002F40F06082DFF81C050595BBF1000FD8
:102A70004FF00105089209F800B0069317D0944F63
:102A8000DFF800857F440026E9B2204600F0A0FA76
:102A9000024609EB080000EB8600426038463146EA
:102AA0000FF094FC0136B34505F10405ECD1E8B212
:102AB0002118AAEB0002204619F033FB0598DFF835
:102AC000C8240538B0FA80F04FEA501009EB020133
:102AD00081F880001ED1089809EB0207251807F13C
:102AE000A10605F16C013046202219F01AFBC1370E
:102AF00005F18C013846142219F013FB754820218A
:102B0000784432460FF062FC7348142178443A4608
:102B10000FF05CFC069804EB000A80F001075046B9
:102B200000F062FAC1B2B1FA81F14909089D394356
:102B300003D12178012940F00982000605D15046D1
:102B400006F084FD002800F004820798D0B90699A9
:102B50006019084400F13406304600F045FAC1B26D
:102B6000B1FA81F14909394304D194F8551001298A
:102B700040F0F481000605D1304606F067FD0028DC
:102B800000F0F4810FF04CFA069E0022002E314630
:102B900018BF2278002E18BF04F13501DFF8E88352
:102BA0000091DFF8E81300200AF1140509EB08078B
:102BB000019009EB010051462B46029712F082FB6F
:102BC0000798CDE9035A68B1089D8246601900F163
:102BD000340109EB08002030202219F0A2FA45F058
:102BE000540627E00FF01CFA0898002E20443044C9
:102BF00000F134014FF000004FF000023746DFF8DB
:102C0000888318BF94F85520DDF81CA0002F18BF4A
:102C100004F18A07CDE90070DC4809EB080501F1F1
:102C2000140320354844029512F04CFB08996820A3
:102C300000EB410609EB08000DF1700800F14001BE
:102C4000404610F0B9FB0B200090404600220023C4
:102C500010F0D3FB0598524605284FF0040140467A
:102C60004FF00003554608BF0222009110F0C5FB4B
:102C70002046314600F0ACF902464FF01F0A4046AC
:102C80000023CDF800A010F0B8FB311D204600F065
:102C90009FF9024640460023CDF800A010F0ADFB9E
:102CA00006F10801204600F093F9074606F10C01F1
:102CB000204600F08DF902463F2140463B460091F8
:102CC00010F09BFB55B110250027002213E000BF38
:102CD000C0B70100479F010068A7010006F110017D
:102CE000204600F075F9074606F11401204600F071
:102CF0006FF9024618250DF1700840463B463F210A
:102D0000009110F07AFB7019C6B22046314600F0EF
:102D10005FF9024640460023CDF800A04FF0000ABC
:102D200010F06BFB311D204600F052F902461621CF
:102D300040460023009110F060FB934D9C4809EB46
:102D4000050678442021324620270FF03FFB9948A2
:102D500006F12002784420210FF038FB964806F156
:102D60004002784420210FF031FB96F8800008B330
:102D700000F052F94D4405F1C10100201422002356
:102D8000CDF800A000F056F905F1600605F1A101AB
:102D9000012020223346009700F04CF995F860009E
:102DA000202100F0030085F8600084483246784412
:102DB0000FF00CFBDDF81CA0724DBAF1000F66D0CD
:102DC0000FF02EF909EB05002CAE043059463246BF
:102DD00011F0EEFF22AD3046294600F047F90FF022
:102DE0001FF909AF3846294600F04CF9284628213A
:102DF00019F09EF93046202119F09AF90FF010F9D8
:102E0000089D07F10900661906F1340841462022A1
:102E100019F0A2F90746B0FA80F04FEA501B694852
:102E2000594678440FF0D2FA0FF0FAF8594806F1F3
:102E30005C0209EB0006DDE9031004F18C03009647
:102E400012F02CF845F05801204600F0C1F8504C23
:102E50005D4A034609EB040000F580707A4428219E
:102E60000FF068FC002F46D0474841464844813067
:102E7000202219F056F9554A09EB04007A444FF420
:102E800080712023CDF800800FF054FC33E00FF068
:102E9000C7F8089D04F18C08601900F134073C481C
:102EA0007E1909EB000BDDE9031006F13C020BF182
:102EB0002B0C4346CDF800C011F0F0FF0FF0B0F836
:102EC000069806F14402384400F114010BF17A0728
:102ED0004346009711F0E2FF682000EB45012046D1
:102EE00000F076F8364A03467A4458462B210FF014
:102EF00021FC4FF0000B3C9C2348BAF1000F09D095
:102F0000484490F880105846002918BF012116F057
:102F1000FBFC01E016F06EFC206840F01000206021
:102F200034B0BDE8F08D4FF4D6400EF063FC1A4883
:102F3000784401E0194878440FF048FA4FF4D5403E
:102F40000EF058FC4FF4CE400EF054FC1448784478
:102F500006E014481421784452460BE012487844A5
:102F60000FF034FA4FF4D5400EF044FC0F48142112
:102F7000784432460FF02AFA4FF4D5400EF03AFC6E
:102F8000D8020000E40200001C06000070080000E7
:102F9000440700002C04000083BB010055B401006D
:102FA00083950100DE9301005BAB0100C493010037
:102FB0009099010032C501002AA1010000B2010070
:102FC00076940100DEAC01000295010027B00100FB
:102FD0004218405C517893780904D27841EA006045
:102FE00040EA032010447047017800291EBF0120E9
:102FF00080F001007047411C002200BF132A4FF0EF
:10300000000038BF012003D08B5C0132002BF5D0CB
:1030100080F001007047000080B505484FF48071D2
:10302000484400F067FC002808BF80BD0EF0E2FBBA
:103030007008000010B582B00B4C9446DDF810E02B
:103040000A460146009309EB04006346CDF804E00C
:1030500000F044FC28B909EB040000F03BFC02B08E
:1030600010BD0EF0C7FB00BF7008000080B50B4616
:1030700001465120202200F021FC002808BF80BD1D
:103080000EF0B8FB80B50A4601465120012300F03E
:1030900011FC002808BF80BD0EF0ACFB2DE9F0410B
:1030A000A6B01446324A0D4619F802100646002909
:1030B0008DF8973018BF06F039FA55EA06004AD164
:1030C0002C4D0DF1970109EB0502204606F02CFB73
:1030D000002844D001469DF89700202843D1264877
:1030E000DDF8B08009EB000404F12000202219F083
:1030F00018F80EF095FF09EB050010F8041B0DF110
:1031000077052A4611F054FE6E462846314600F0F7
:1031100035F80EF085FF0AAF3846314600F03AF830
:103120003046282119F004F82846202119F000F82B
:103130000EF076FF07F109012046202218F0EFFF7C
:1031400016F005FDD8F8000040F01000C8F80000A7
:1031500026B0BDE8F0814FF4D6400EF04BFB4FF4A3
:10316000D5400EF047FB4FF4CE400EF043FB00BFBE
:10317000D8020000E40200001C06000080B50B46E7
:1031800001465120202200F099FB002808BF80BD95
:103190000EF030FB80B50A4601465120012300F0B5
:1031A00089FB002808BF80BD0EF024FB10B5044643
:1031B00010B14FF4104007E00F4839F80000B0F5A7
:1031C000104F04D14FF4D4400B4929F801000A48AC
:1031D0000A4939F80000020A09F8012049444870F8
:1031E000202002210EF02EFD002C18BF10BD00F093
:1031F00093FA15F09BFB10BD180A00003048000040
:10320000B0B51949044659F80110002914BF01202E
:1032100000F04AFA154919F80110023918BF0121C6
:1032200000EA0105012D1AD1E178FF2906D059B92C
:103230002079611D13F020FC054610E02079611D06
:1032400013F05CFC05460AE062780A4878440FF007
:10325000BDF807484FF4D641002529F8001028464C
:10326000FFF7A4FF2846B0BD4C0000004900000055
:10327000180A000067B20100B0B5274959F80110DB
:10328000E9B1C178FF291ED00F292AD089BB017965
:1032900005300FF011FD044640B32148784410F08A
:1032A0001FF8C078B0FA80F14FEA511518B10FF04D
:1032B00045FF15F01FFC15F0C3FB3DBB29E0174887
:1032C00046F685111DE0431D827801791846002AD3
:1032D00018BF012203F0FAF9044680F00105ADB9E8
:1032E00017E0017905300FF0C7FD044601256DB9DF
:1032F0000FE042780B4878440FF068F807484FF425
:10330000D6410125002429F8001015B12046FFF709
:103310004DFF2046B0BD00BF4C000000180A000061
:10332000604F0200BDB10100B0B5274959F8011046
:10333000E9B1C5780446FF2D18BF0F2D1BD115F03C
:1033400037FE01281ED1B5F10F0218BF01222179E5
:10335000601D03F04DFBE1780446B1F10F0084F0ED
:10336000010118BF012040EA0105EDB91FE017482F
:1033700046F6851113E04DB9154878440FF0B0FFBB
:10338000C078B0B10125012475B910E06278114808
:10339000294678440FF01AF80C484FF4D64100241F
:1033A000012529F8001015B12046FFF7FFFE204641
:1033B000B0BD0120012515F0F3FD11F037FB0446E7
:1033C000002DF1D1F3E700BF4C000000180A000007
:1033D000824E020021B10100B0B582B028490446F6
:1033E00059F8010021798DF8071078B1254D09EBC6
:1033F00005002C3000F04EF840B909EB05004C30C8
:1034000000F048F810B90FF047FC60B11E4846F6CE
:10341000851129F80010002414B90020FFF7C6FE1A
:10342000204602B0B0BD15F0C3FD01280DD115F046
:10343000CFFD50B115F0CCFD0146144878440EF094
:10344000C5FF114846F68821E3E7601D09EB050238
:103450000DF1070106F068F90028DCD00C4878442B
:103460000FF03EFFC07828B915F0A2FD002808BF74
:1034700015F05EFB15F024FD0124002CD0D1CCE723
:103480004C000000E4020000180A00007FB10100B7
:103490009E4D0200017800291EBF012080F001002E
:1034A0007047411C002200BF1F2A4FF0000038BFA8
:1034B000012003D08B5C0132002BF5D080F001009D
:1034C000704700002DE9F045B5B00EF0A9FD00F001
:1034D00083F83E494FF0000A79440020022200237D
:1034E000CDF800A000F086F83648202209EB000550
:1034F00005F12C06002031460023CDF800A0202441
:1035000000F078F805F14C070DF1940801203946D8
:1035100020224346009400F06DF82D482021784485
:1035200032460EF053FF2B48202178443A460EF0E5
:103530004DFF0EF075FD15F8042B2DAE2120294608
:103540003346CDF800A012F05BFE0EF069FD02AD2F
:103550003046294600F06AF83046202118F0E8FD90
:10356000CDF804A00EF05CFD0CAE01AB2846414640
:10357000324600F067F82846282118F0D9FD019955
:103580001148CA074FF01C0208BF1B2209EB0004B8
:10359000890748BF023209F80020304606F00EF8CD
:1035A000902084F8410084F842A005F0BFFF20205D
:1035B00043210EF047FB15F0B9F9002035B0BDE806
:1035C000F08500BFE402000030480000BEC00100EA
:1035D000BF97010026A8010080B505484FF480710F
:1035E000484400F087F9002808BF80BD0EF002F9BA
:1035F0007008000010B582B00B4C9446DDF810E066
:103600000A460146009309EB04006346CDF804E046
:1036100000F064F928B909EB040000F05BF902B08E
:1036200010BD0EF0E7F800BF7008000080B50B4633
:1036300001462120202200F041F9002808BF80BD6A
:103640000EF0D8F810B586B01C460B46642194469F
:1036500005910DF1100E05AA20210091CDE9022E51
:1036600040F201610322CDF804C000F013F928B93B
:10367000002C1CBF0498206006B010BD0EF0BAF8F4
:1036800080B505F053FF0748692109F80010484448
:1036900085214170202002210EF0D4FA15F046F960
:1036A000002080BD30480000B0B506F04DFC402041
:1036B000082106F0A5FC154D49F80500F0B111F000
:1036C00077FA00B30FF04EFDE8B102F0D9FFD0B1A8
:1036D00015F01AFC002478B113F00AF860B159F81B
:1036E0000500142118F024FD59F8050008498461EB
:1036F000C46109F8014001242046B0BD054846F6E2
:10370000842129F800100020B0BD00BF4C0000004B
:1037100049000000180A000080B513F00DF80FF002
:103720003FFD02F0CBFF15F00FFC06F015FC03483F
:10373000002149F8001005F0F9FE80BD4C000000A2
:103740002DE9F04595B00D46DDF87080074604A9D7
:1037500028469A46144612F047FD0646E0B90498FA
:10376000202817D1DDE91D101F9E05AACDE90021F3
:1037700002903846294622465346039600F019F82F
:10378000064648B9049A05A92846434600F096F82B
:10379000064601E06FF05C0605A8402118F0C8FC61
:1037A0001EB14046282118F0C3FC304615B0BDE8D4
:1037B000F0852DE9F04D90B00DF1100ADDF8608034
:1037C000054650461E4617468B4618F005FD81B249
:1037D000ADF83C0059B10E980D460021ADF83C10F3
:1037E00012F0E0FD4021404618F0A2FC13E004A8CE
:1037F00012F0D8FD0E9019986C4660601A983A46FF
:103800001B9FA060284659463346C4F80080E760F5
:1038100012F006FD002512F0BBFD504502D10E98B6
:1038200012F0C0FDBDF83C00002802BF284610B0D1
:10383000BDE8F08D0DF0DEFFB0B590B0DDE91BEC1A
:10384000002406ADCDE90054CDE902ECFFF778FF86
:10385000044680B914ADDDF868C0DDE9184E2ECD00
:103860002020CDE9005006A8CDE9024ECDF810C0C9
:1038700000F06CF8044606A8282118F059FC2046F0
:1038800010B0B0BD03B44FF026005BE003B44FF0BE
:10389000270057E003B44FF0300053E003B44FF07B
:1038A00031004FE003B44FF032004BE003B44FF06F
:1038B000330047E003B44FF0360043E003B44FF069
:1038C00037003FE003B44FF038003BE003B44FF063
:1038D000390037E003B44FF0450033E003B44FF054
:1038E00048002FE003B44FF04A002BE003B44FF040
:1038F0004B0027E003B44FF05A0023E003B44FF02D
:103900005D001FE003B44FF061001BE003B44FF013
:10391000630017E003B44FF06E0013E003B44FF000
:1039200072000FE003B44FF073000BE003B44FF0EC
:10393000750007E003B44FF0860003E003B44FF0D6
:103940008700FFE700490847018081002DE9F04D1D
:10395000A2B0DDE92A8B0E460546DDE92C0764217D
:10396000089159469A46144618F0E2FB38465946E3
:1039700018F0DEFB08A809A922462E9CCDE900819B
:1039800002902846314653460394FFF783FF08BB55
:10399000089906A805AADDE92C5A04AFCDE9002054
:1039A00009A807AB5A460297FFF780FF01280FD1FD
:1039B000059A05EB0B000799801A18F0B0FB049AE2
:1039C0000AEB0B000699801A18F0A9FB002001E011
:1039D0006FF0770000281CBF0021216022B0BDE8F5
:1039E000F08D80B50022002300F002F880BD0000B9
:1039F0002DE9F041212907D31B484FF4D54129F87F
:103A000000100020BDE8F081804620201F461646A9
:103A10000D4606F0A5FA044658B1012E11D0F6B9AC
:103A2000C5F12006204631463A4618F07CFBF0B23C
:103A30000DE00D4846F6842129F800102046BDE827
:103A4000F0816019C5F1200118F072FB00202044BC
:103A500041462A4618F063FB2046BDE8F081024843
:103A600046F68511CBE700BF180A000080B539B1D2
:103A7000914203D190F90020002A08D4002307E0E6
:103A800005484FF4D54129F80010002080BDFF23E0
:103A90000022FFF7ADFF80BD180A000080B50122AB
:103AA0000023FFF7A5FF80BD80B5012902D1FFF7F4
:103AB00098FF80BD03484FF4D54129F8001000203D
:103AC00080BD00BF180A000080B5142902D1FFF79D
:103AD00088FF80BD03484FF4D54129F8001000202D
:103AE00080BD00BF180A000080B50246B0F5827F95
:103AF0000EDA40F20110824216D0B2F5817F17D063
:103B000040F2031082421FD1084600F08DF880BDBC
:103B100012D040F20510824212D0B2F5837F13D149
:103B2000084600F033FA80BD084600F015F880BD65
:103B3000084600F0FFF880BD084600F09EF880BD02
:103B4000084600F09DF880BD0248114678440EF00A
:103B50003DFC80BD71A401002DE9F04104462D48D3
:103B6000D4F80C804844A7305B2100F0C9F838B184
:103B70002C4878440EF02AFC00206070BDE8F081EB
:103B8000254F00267F4400BF57F826000FF0A8FB02
:103B900002788378C5784078616943EA052342EA70
:103BA000002040EA03400A788B78CD78497843EAD0
:103BB000052342EA012141EA0341884203D001364C
:103BC000032EE1D104E0F0B2032888F86C6009D13B
:103BD00062691248042178440EF0F8FB06206070F8
:103BE000BDE8F08198F86C1004204A1E022A60702B
:103BF00004D2002088F86B00BDE8F08121B90820CC
:103C000088F86B00BDE8F081054878440EF0DEFBD3
:103C1000B2E700BFE402000020BA0100FDA30100EA
:103C2000A0A201006F8B010010B50446806800223D
:103C300090F86C100020022902D062681268A53248
:103C4000E260206129B1012905D0022910D10420A8
:103C500002E0032000E0052061686077096801F157
:103C60004200212100F04CF820B1022020770420EE
:103C7000A07710BD0020A07710BD042141757047CA
:103C8000B0B5044604212177D0E9025022691649D3
:103C9000794418F0DCFA95F86C1002290FD001294C
:103CA00014D0D1B9D4E905021049794418F0CFFAFB
:103CB000D4E903020E49794418F0A6FAB0BDD4E95C
:103CC00005020D49794418F0C2FAB0BDD4E90502E5
:103CD0000849794418F0BBFAB0BD084878440EF0A2
:103CE00075FB00202077B0BDF2950100368C0100F5
:103CF000DFB5010000A80100D5A60100948E0100E7
:103D000000298C4618BF4FF0010C0FD003786BB917
:103D1000012300BF8B424FF0000C38BF4FF0010C65
:103D2000994203D0C25C0133002AF3D08CF0010029
:103D300070470000B0B50446D0E90253016912484B
:103D4000202278440EF042FB95F86C100320207579
:103D500041B102290BD001290ED12046294600F09D
:103D600017F8B0BD2046294600F0D6F8B0BD204671
:103D7000294600F03DF8B0BD044878440EF026FB1B
:103D800000202075B0BD00BF5EB501006D8B010045
:103D9000B0B588B00C4691F86B10032909DCD1B19D
:103DA000012923D1C1682046142202F059FC0420C5
:103DB0001AE0042911D0072918D1C1686D46284698
:103DC000202202F056FC04F138022846202117F088
:103DD00068FE0A2008E0012006E0C16804F1140032
:103DE000202202F046FC072084F86B0008B0B0BD2A
:103DF00070B588B00C4691F86B1003290DDC0129D1
:103E000018DC002949D0012940F08180C168204692
:103E1000142202F025FC022058E005291DDC0429AB
:103E20003DD0052973D1C06800F09EF8043060666B
:103E300003204BE0022943D0032968D10169E26DD8
:103E40002031914263D9C06800F099F8A4F8580075
:103E5000042084F86B0000202EE006293AD00729C0
:103E600055D1C16804F114052846202202F001FC56
:103E70006E4628462021324617F013FE04F1380022
:103E80003146024616F046FBB4F8600001380104E2
:103E9000A4F860000DD10A2009E0012016E0B4F872
:103EA000580001380104A4F8580002D1062084F813
:103EB0006B00B4F868000130A4F8680008B070BD69
:103EC000C06800F051F80430E065052084F86B000C
:103ED00008B070BD0169626E2031914217D9C06887
:103EE00000F04DF8B4F86810A4F86000884203D0E0
:103EF000084878440EF06AFA072084F86B00002026
:103F0000A4F8680004F13800202118F011F908B075
:103F100070BD00BFE8A6010010B591F86B20044603
:103F2000092A0BD0082A14D1E268092081F86B0015
:103F300008461146142202F093FB10BDE068C07FD2
:103F4000002818BF012081F86A000A2081F86B0060
:103F500010BD0448114678440EF038FA0020207550
:103F600010BD00BFB1870100427F017F837F120433
:103F7000C07F42EA016141EA032108447047817F22
:103F8000C07F40EA012080B27047000080B5C1695F
:103F9000042391F86C2080F83430022A05D0012ADD
:103FA00006D042B900F012F880BD00F0F5F880BDEF
:103FB00000F070F880BD002180F8341002481146EE
:103FC00078440EF003FA80BD9199010070B582B07B
:103FD00090F820200446022A1DD0012A33D0002A5E
:103FE0003FD10D4691F86A30D4E90902244E2549A3
:103FF0007E447944002B08BF314618F028F91E484A
:104000001E4B59F80000E16AD0E90406226B0090CB
:104010004B44284611E0D4E909021C49794418F0C0
:1040200016F9154A154D59F80230A068D3E904363F
:10403000E16A226B009309EB0503019601F0D0FEC3
:10404000A0B102B070BDD4E909020F49794418F05B
:10405000FEF8A168D4E90B02143118F0F8F802B0A8
:1040600070BD0B48114678440EF0B0F9002084F87A
:10407000340002B070BD00BFD40200007008000020
:10408000DAB20100DEB001003D8B0100E9A50100BC
:10409000B1840100B0B582B090F820200446012A16
:1040A0000D4613DD022A22D0032A35D0042A59D125
:1040B000D4E909023349794418F0C9F8D4E90B234B
:1040C00005F138000A2116F059FB48E092B3012AA5
:1040D00048D1D4E909022A49794418F0B8F8A1680E
:1040E000D4E90B02143118F0B2F802B0B0BDD4E933
:1040F00009022649794418F0AAF81F4ADFF87CC063
:1041000059F80230A068D3E90435E16A226B0093C4
:1041100009EB0C03019520E0D4E909021C4979441C
:1041200018F095F8D4E90B2305F11400202117F0BD
:10413000CFFC14E0D4E909021349794418F087F858
:104140000D480E4B59F80000E16AD0E9040C226BCF
:1041500000904B442846CDF804C001F041FE30B138
:1041600002B0B0BD0B48114678440EF02FF9002084
:1041700084F8340002B0B0BDD40200007008000022
:104180006093010076A00100BE8B010011A5010023
:10419000BAAA0100AF830100B0B58EB090F820201C
:1041A0000446012A0D4610DC92B3012A2AD1D4E933
:1041B00009023249794418F04AF8A168D4E90B029F
:1041C000143118F044F80EB0B0BD022A34D0032ADE
:1041D00018D1D4E909022D49794418F038F805F1CD
:1041E000380002AA0A21302316F0C8FAE8B3D4E94D
:1041F0000B01B5F86850264A02AB7A4400950EF0E0
:1042000099FA30E01E48114678440EF0DFF82CE0B1
:10421000D4E909021B49794418F019F81548164BDE
:1042200059F80000E16AD0E9040C226B00904B447D
:104230002846CDF804C013E0D4E9090212497944B4
:1042400018F005F80B4ADFF830C059F80230A068C2
:10425000D3E90435E16A226B009309EB0C03019565
:1042600001F0BEFD08B10EB0B0BD002084F83400EE
:104270000EB0B0BDD40200007008000084920100AE
:104280000F830100E28A0100C7A301003E8F0100F5
:10429000E28D01002DE9F0410F4E8046451C7E4421
:1042A0000D2400BF30460FF01BF807460F3029469B
:1042B000142217F051FF30B1013C06F12306F1D171
:1042C0000020BDE8F08108F1430039460F2217F0C5
:1042D000BEFF0120BDE8F08112B30100074819F8C4
:1042E000000038B10648484490F82601042803D855
:1042F000032801D00120704700207047DC02000035
:104300001C0600002DE9F04182B00246B0F5827F24
:104310000C4624DA40F2011082424ED0B2F5817F81
:1043200000F0AC8040F20310824240F0CA80A568E1
:10433000A34878440EF04AF82878012800F0D3808A
:10434000002840F00A816068691C0068A530E060C0
:1043500005F11600C4E9050101202077CAE062D00A
:1043600040F20510824200F09B80B2F5837F40F05E
:10437000A88094F82000E669012800F0C080002899
:1043800040F0EB80D4E909029849794417F05FFFC7
:1043900006F11605284600F049F9002800F0E080F3
:1043A000D4E90B029249794417F051FFD4E90B028A
:1043B00006F1360117F028FFF9E0A068D4F80C8068
:1043C0000068423000F01AF9002800F082807E4F29
:1043D00000267F4457F826000EF082FF027883788B
:1043E000C5784078616943EA052342EA002040EA43
:1043F00003400A788B78CD78497843EA052342EA6E
:10440000012141EA0341884200F09A800136022EE0
:10441000E0D10226022E00F098806E4878440DF01C
:10442000D5FF042098E0D4E902512269002918BF81
:104430000121002A18BF0122694878440DF0C6FF07
:10444000E06800284AD0E168002085F8420005F1C4
:10445000360014310B2217F0FAFEE0682978C07F8D
:10446000012985F8410007D12846FFF713FF0028EE
:104470001CBF012085F84200042030E0D4E902533B
:1044800021695548202278440DF0A0FF2069242896
:1044900045D004284BD1E168681C0C31142242E05D
:1044A000D4E903024F49794417F0D1FED4E905025B
:1044B0004D49794417F0CBFE0420207702B0BDE8C7
:1044C000F0814048114678440DF080FF02B0BDE80D
:1044D000F0813E4878440DF079FF3CE0062060759D
:1044E00002B0BDE8F08160680068A530E06040F28D
:1044F0000220A0830420A07702B0BDE8F08196F8E6
:104500004210D4E90902D9B33A49794417F09FFE21
:10451000D4E90B0206F1430117F099FE47E0E16888
:1045200005F11600202217F0FCFD042004E02B48C2
:1045300078440DF04BFF0020207502B0BDE8F081FB
:1045400088F80060022E7FF468AF62692048042179
:1045500078440DF03BFF0020607002B0BDE8F081B0
:1045600096F84120E76A642006F136030190284658
:104570002021009717F041FBC8B907200DF03AF948
:104580001D49794417F063FE0C4B206859F80370FD
:10459000E16A226B0368D7E90475701CCDE90075E8
:1045A00001F01EFC002804BF002084F83400042021
:1045B00084F8340002B0BDE8F08100BFD4020000EE
:1045C00093990100F79A0100EAB3010007A00100E6
:1045D0009991010018810100DB7E0100EF8101004B
:1045E00099A301006BA10100D77E01000D88010095
:1045F000A2900100F69101007B9F01000178002943
:104600001EBF012080F001007047411C002200BF46
:104610001F2A4FF0000038BF012003D08B5C01320D
:10462000002BF5D080F00100704700000178FF29D1
:104630001EBF012080F001007047411C002200BF16
:104640001F2A4FF0000038BF012003D08B5C0132DD
:10465000FF2BF5D080F001007047000080B50246C6
:10466000B0F5827F0EDA40F20110824216D0B2F528
:10467000817F17D040F2031082421FD1084600F01C
:104680008DF880BD12D040F20510824212D0B2F5F2
:10469000837F13D1084600F0B5F980BD084600F0CD
:1046A00015F880BD084600F0F7F880BD084600F018
:1046B0009DF880BD084600F09DF880BD0248114677
:1046C00078440DF083FE80BDFD9801002DE9F04196
:1046D00004462D48D4F80C804844A7305B2100F0F4
:1046E000C1F838B12C4878440DF070FE002060709D
:1046F000BDE8F081254F00267F4400BF57F8260013
:104700000EF0EEFD02788378C5784078616943EA5F
:10471000052342EA002040EA03400A788B78CD78EE
:10472000497843EA052342EA012141EA03418842EC
:1047300003D00136052EE1D104E0F0B2052888F857
:10474000366009D162691248042178440DF03EFEBA
:1047500006206070BDE8F08198F8361004208A1EAB
:10476000032A607004D2002088F83500BDE8F0818B
:10477000012904D8042088F83500BDE8F0810548F7
:1047800078440DF023FEB1E7E402000094B001008C
:10479000229601002A970100FB7F0100B0B5044674
:1047A000A268406892F836500068AA1E00F1A5037E
:1047B0000021032A4FF00402E360216103D315B105
:1047C000012D11D1032242302121627700F04AF8F5
:1047D00038B9012D02D10021A177B0BD607F013031
:1047E0006077022004212077A177B0BD04214175B4
:1047F00070470000B0B5044604212177D0E902508B
:1048000022691349794417F022FD95F83610881E65
:10481000032806D2D4E905021049794417F017FDA0
:10482000B0BD01290CD8D4E905020A49794417F032
:104830000EFDD4E903020849794417F0E5FCB0BD48
:10484000074878440DF0C2FD00202077B0BD00BFBE
:104850007E8A0100B48001005DAA0100B89C0100BD
:104860002E83010000298C4618BF4FF0010C0FD099
:1048700003786BB9012300BF8B424FF0000C38BFA7
:104880004FF0010C994203D0C25C0133002AF3D0EF
:104890008CF0010070470000B0B50446D0E9025327
:1048A00001691848202278440DF090FD95F83610E3
:1048B00003200129207508DD881E02280DD220461C
:1048C0002946012200F048F8B0BD71B1012911D18B
:1048D0002046294600F06EF8B0BD04290AD12046D2
:1048E0002946002200F038F8B0BD2046294600F0E5
:1048F0000DF8B0BD044878440DF068FD0020207527
:10490000B0BD00BFCA900100F17F0100B0B50C46F8
:1049100091F83510054603290AD0042912D1E96817
:104920002046142201F09CFE032084F83500B0BD1F
:10493000E96804F11400202201F09BFE062084F8AF
:104940003500B0BD034878440DF040FD00202875C7
:10495000B0BD00BFD97D0100B0B50C4691F835104F
:104960000546032906D001290ED0B1B9012084F8EB
:104970003500B0BDE96804F11400202201F079FE91
:10498000062084F83500B0BDE9682046142201F005
:1049900067FE032084F83500B0BD002A08BFB0BD13
:1049A000034878440DF012FD00202875B0BD00BF0B
:1049B000657D010010B591F835200446052A0BD01D
:1049C000042A14D1E268052081F835000846114612
:1049D000142201F045FE10BD0620E26881F8350082
:1049E000D07F002818BF012081F8340010BD044892
:1049F000114678440DF0EAFC0020207510BD00BF80
:104A0000157D010080B5C16991F83620931E032BF6
:104A10004FF0040380F8343002D200F0E9F880BD92
:104A2000012A03D02AB900F00FF880BD00F07CF80D
:104A300080BD002180F834100248114678440DF002
:104A4000C5FC80BD158F0100B0B582B090F8202064
:104A50000446012A0D4610DC3AB3012A1FD1D4E9DD
:104A600009022C49794417F0F2FBA168D4E90B0242
:104A7000143117F0ECFB02B0B0BD022A29D0032A92
:104A80000DD1D4E909022449794417F0E0FBD4E9B7
:104A90000B2305F11400202117F01AF82FE021480C
:104AA000114678440DF092FC2AE0D4E909021B4932
:104AB000794417F0CCFB1548154B59F80000E16A12
:104AC000D0E9040C226B00904B442846CDF804C07A
:104AD00013E0D4E909021249794417F0B8FB0B4AF4
:104AE000DFF82CC059F80230A068D3E90435E16A38
:104AF000226B009309EB0C03019501F071F910B9D9
:104B0000002084F8340002B0B0BD00BFD402000021
:104B1000700800009782010050A1010020A601004A
:104B20002D9B0100757A010070B582B090F82020AD
:104B30000446022A1DD0012A33D0002A3FD10D4657
:104B400091F83430D4E90902244E25497E44794451
:104B5000002B08BF314617F07AFB1E481E4B59F850
:104B60000000E16AD0E90406226B00904B4428461D
:104B700011E0D4E909021C49794417F068FB154A91
:104B8000154D59F80230A068D3E90436E16A226B6A
:104B9000009309EB0503019601F022F9A0B102B0E0
:104BA00070BDD4E909020F49794417F050FBA168A0
:104BB000D4E90B02143117F04AFB02B070BD0B4868
:104BC000114678440DF002FC002084F8340002B055
:104BD00070BD00BFD4020000700800007EA7010075
:104BE00082A50100E17F01008D9A01005579010045
:104BF000B0B582B090F820200446012A0D4610DCA2
:104C00003AB3012A1FD1D4E909022C49794417F09B
:104C10001EFBA168D4E90B02143117F018FB02B097
:104C2000B0BD022A29D0032A0DD1D4E909022449B2
:104C3000794417F00CFBD4E90B2305F11400202173
:104C400016F046FF2FE02148114678440DF0BEFBD8
:104C50002AE0D4E909021B49794417F0F8FA15480B
:104C6000154B59F80000E16AD0E9040C226B009062
:104C70004B442846CDF804C013E0D4E90902124998
:104C8000794417F0E4FA0B4ADFF82CC059F80230E7
:104C9000A068D3E90435E16A226B009309EB0C03A9
:104CA000019501F09DF810B9002084F8340002B09D
:104CB000B0BD00BFD4020000700800002C880100C5
:104CC000A89F0100A080010085990100CD78010016
:104CD0002DE9F04192B00246B0F5817F0C462EDD01
:104CE00040F2031082424BD040F20510824258D06D
:104CF000B2F5837F78D194F82000012800F09180EC
:104D0000002840F04081A54859F80050D4E9090234
:104D1000B449794417F09BFAA148E76A484490F8EF
:104D2000621064220192423012222B46009716F044
:104D300064FF002840F0818007200CF05BFD40F20A
:104D4000011082423ED0B2F5817F4DD1D4E9027389
:104D500021699548202278440DF038FB2569281FE9
:104D60004FEA7010052847DD08286CDDA0F10A0124
:104D70000329C0F0FF80092840F001816026EBE0A4
:104D8000A568954878440DF021FB287800280FBFCE
:104D9000062040F20220A0830420A07712B0BDE8D4
:104DA000F081D4E903028D49794417F050FAD4E92F
:104DB00005028B49794417F04AFA0420207712B093
:104DC000BDE8F081A068E5680068142200F1A50143
:104DD0007748784417F0C0F9E0B1764878440DF090
:104DE000F5FA0020287018E07048114678440DF05C
:104DF000EDFA12B0BDE8F08102287EDC002800F058
:104E00008880012800F08780022840F0B8804FF4A5
:104E10009076A1E0012028700420607012B0BDE8F7
:104E2000F081E569D4E909026F49794417F00FFA76
:104E3000D4E90B02691C17F00AFA042084F8340044
:104E400012B0BDE8F081062867D0072800F0818005
:104E5000082840F09480534D43F25D0059F8051046
:104E60000290B1F1011F4FF4616003900ED35248DC
:104E700078440DF0ABFA59F8051050484FF48032E1
:104E800078440DF0A3FA00202075387059F8050019
:104E900006AD0490002602A804212A4605964FF08C
:104EA0000408FBF73FFD4648302178442A460DF0C0
:104EB0008DFA284630212A462023FEF713FDE168AB
:104EC000284620228DF8186017F046F900285FD098
:104ED0003C4878440DF07AFAE2683B482021784457
:104EE0000DF074FA394806AA784420210DF06EFAC4
:104EF00026753E7012B0BDE8F08103283AD0042830
:104F000029D005283BD1E168781C302217F007F939
:104F100030E0802620E0E0261EE0E16807F1210075
:104F200010227D1C17F0FBF81C48216859F800007E
:104F30000B68D0E9040706A90090284630220197A3
:104F400000F04EFF10B306A92846302217F07FF973
:104F500010E0202600E03026E06800F047F8B0427C
:104F600008D003461A482946784432460DF02EFAF6
:104F7000002038700420207512B0BDE8F08115487B
:104F800078440DF023FA12B0BDE8F0810020F2E77A
:104F900084F8148012B0BDE8F08100BFD402000094
:104FA0002C040000E0020000868F0100D191010076
:104FB000CEA90100B575010082910100AD9E0100EE
:104FC000607E0100B88E0100E174010015990100B6
:104FD000D37701009F77010098920100937F010031
:104FE000A59F0100857E0100747D0100427F017F45
:104FF000837F1204C07F42EA016141EA0321084431
:1050000070472DE9F0410E46DDF8188040211C461E
:105010001546074617F080F807F1300080E83001A8
:105020000120387030467E6000F002F8BDE8F08163
:1050300080B54FF48071FEF75DFC002808BF80BD8D
:105040000CF0D8FB80B582B0816AC1B1426A0139E7
:1050500012F8013B81628DF80730437C426223B134
:10506000C168827C0131C1602AB940680DF1070135
:10507000012200F00DF89DF8070002B080BD034842
:1050800078440DF0A3F901200CF0B4FBD3830100A8
:1050900010B582B013460A464FF0000C00210446BA
:1050A000CDF800C0CDF804C0FEF718FC20B92046AA
:1050B000FEF710FC02B010BD0CF09CFBB0B504462E
:1050C000806A90421FD3154629B1626A084611468C
:1050D0002A4617F026F8607C08B1A07C20B96068E9
:1050E000616A2A46FFF7D4FF606AA16A28446062B9
:1050F000607C0028A1EB0500A06208BFB0BDE0689D
:105100002844E060B0BD034878440DF05FF9012009
:105110000CF070FB007801002DE9F0418CB0E846FE
:10512000064640461D4617460C4617F055F8010442
:10513000ADF82C0007D00A980021ADF82C1011F022
:1051400031F903250FE0684611F02CF90A9030463A
:10515000C6E90947F56200F019F8014605460A4814
:1051600078440DF033F911F013F9404502D10A9853
:1051700011F018F9BDF82C00002802BF28460CB029
:10518000BDE8F0810CF036FBB28901002DE9F04555
:1051900081B0474C47497C44794488464649074694
:1051A00079448A4607E000BF20460DF00FF9022639
:1051B0000025002D77D097F83C00C02802D139781F
:1051C0000C29F1D0022807D0012808D139780B2901
:1051D000EAD0022803D100BF39780C29E4D0C028D6
:1051E00004D13878092801D1B86AD0B3B86AD8B1E7
:1051F000787C30B9384600F097F8042818BF064686
:10520000D6D1396BB1B13846884705462C48784429
:105210000DF0DCF8022D0ED32CD0032D2CD1294813
:1052200078440DF0D3F83CE050460DF0CFF800255F
:105230000026BEE700250DB10125BAE739781F48E1
:1052400078440DF0C3F897F83C10012919D00229D1
:105250001DD0C02921D1384600F0D4F80028EBD069
:105260001FE0786B002580F8C25040460DF0AEF884
:1052700002269EE701269BE7134878440DF0A6F826
:105280000FE0384600F020F90028D5D009E0384674
:1052900000F07AF90028CFD003E00C4878440DF0F4
:1052A00095F8032684E7F0B201B0BDE8F08500BFB1
:1052B00076960100109201007D960100D0850100D4
:1052C000C89E0100419B0100489C0100519E0100C5
:1052D000B0B58CB06C460546204616F07DFF010443
:1052E000ADF82C0007D00A980021ADF82C1011F071
:1052F00059F8032507E0684611F054F80A9028464B
:10530000FFF744FF054611F043F8A04202D10A9886
:1053100011F048F8BDF82C00002802BF28460CB058
:10532000B0BD0CF067FA00002DE9F04583B00446EB
:1053300000F118052F480027784480462E480DF1CB
:1053400007067844824601E00020F8B9A06AF8B167
:105350002046FFF777FE216A4A1C21442262087624
:10536000216A2846324600F0A1FB28B19DF80700CB
:1053700038B103200127E8E7206A0528E4D1504628
:1053800000E040460DF022F80120DEE703282CD192
:10539000F8071ED004F1080104F1100302AA284600
:1053A00000F0A1FBE8B10299002000294FF00001B4
:1053B00006D1D4E9091201390132C4E909120121E7
:1053C000E06020620120A1746074042003B0BDE895
:1053D000F0850A4878440CF0F9FF002003B0BDE8DE
:1053E000F085074878440CF0F1FF032003B0BDE8D6
:1053F000F08500BF31810100DC870100AB80010036
:105400003F84010010B50446007806280CDC032810
:1054100017DC012828D0022834D003284BD120469D
:1054200000F05AF9002010BD092815DC07282ED0FD
:10543000082831D009283ED1204600F0A7FA0020E4
:1054400010BD04282DD0052830D0062833D12046A1
:1054500000F0D8F9002010BD0A3802282BD22046CF
:1054600000F06EFA002010BD204600F0F5F894F828
:105470002C00C0071CBF002010BD20780130207018
:10548000002010BD204600F0FBF8002010BD204693
:1054900000F0EAF9002010BD204600F017FA0020C5
:1054A00010BD204600F048F9002010BD204600F055
:1054B00073F9002010BD034878440CF087FF0120E9
:1054C00010BD00BFE184010010B504460078052836
:1054D0000CDC022817DD032827D004282AD0052851
:1054E0004AD1204600F028F9002010BD072813DD1E
:1054F000082824D0092827D00A283DD1204600F0CA
:10550000AFFA002010BD012823D0022834D1204654
:1055100000F0B6F8002010BD062828D007282BD1AF
:10552000204600F06FF9002010BD204600F064FA1C
:10553000002010BD204600F0CFF8002010BD20460E
:1055400000F092F9002010BD204600F0BFF90020C5
:1055500010BD204600F080F894F82C00C0071CBF56
:10556000002010BD207801302070002010BD2046A2
:1055700000F072FA002010BD024878440CF026FFBB
:10558000012010BD1F84010010B5044600780528D5
:105590000CDD082817DC062829D007282CD008287D
:1055A00051D1204600F02EF9002010BD022815DD53
:1055B000032826D0042829D0052844D1204600F00D
:1055C000BFF9002010BD092825D00A2828D00B28B3
:1055D00039D1204600F044FA002010BD012824D023
:1055E000022830D1204600F04BF8002010BD2046A4
:1055F00000F0A2F8002010BD204600F02DFA002097
:1056000010BD204600F0F8F9002010BD204600F043
:1056100063F8002010BD204600F026F9002010BDE0
:10562000204600F053F9002010BD204600F014F889
:1056300094F82C00C0071CBF002010BD207801305A
:105640002070002010BD034878440CF0BFFE0120FC
:1056500010BD00BF5183010080B5017C39B1816864
:1056600002784161511C01700021417480BD0348E2
:1056700078440CF0ABFE01200CF0BCF8AD8F0100BB
:1056800010B50446007CC8B9A068212819D2E16889
:10569000884208D9A36A421A20460021934238BFA3
:1056A0001A46FFF70BFDD4E90201814218BF10BD75
:1056B0002078013020700020607410BD04487844C8
:1056C00001E0044878440CF081FE01200CF092F8CF
:1056D000C87B01002198010010B50446007CE8B9A0
:1056E000A06821281DD2E168884209D9421AA06A1F
:1056F000616B904238BF024663312046FFF7DEFC03
:10570000D4E90201814218BF10BD616B227881F893
:105710008300501C20700020607410BD0448784441
:1057200001E0044878440CF051FE01200CF062F8CE
:1057300014910100FA71010010B50446007CE8B92B
:10574000A16821291DD2E068814209D90A1AA16AFB
:10575000636B914238BF0A4619182046FFF7AEFC2A
:10576000D4E90201814218BF10BD616B227881F833
:105770002000501C20700020607410BD0448784444
:1057800001E0044878440CF021FE01200CF032F8CE
:10579000FD950100F26F010010B50446007CF8B9D8
:1057A000A168212923D2E06881420BD9636B0A1AD0
:1057B000A16A1844914238BF0A4600F121012046EF
:1057C000FFF77CFCD4E90201814218BF10BD616B78
:1057D000227881F84100501C20700020607410BDB8
:1057E000064878440CF0F2FD01200CF003F8044860
:1057F00078440CF0EBFD01200BF0FCFFB9760100C2
:10580000688A010010B50446007CF8B9A168152922
:105810001FD2E06881420BD9636B0A1AA16A18444F
:10582000914238BF0A4600F1A5012046FFF746FC29
:10583000D4E90201814218BF10BD616B227881F862
:10584000B900501C20700020607410BD04487844DA
:1058500001E0044878440CF0B9FD01200BF0CAFFC8
:10586000F96C0100756B010010B50446007CF8B9B5
:10587000A16821291FD2E06881420BD9636B0A1A03
:10588000A16A1844914238BF0A4600F142012046FD
:10589000FFF714FCD4E90201814218BF10BD616B0F
:1058A000227881F86200501C20700020607410BDC6
:1058B0000448784401E0044878440CF087FD012056
:1058C0000BF098FFEF7901008874010010B50446D1
:1058D000184878440CF07AFD207C20BBD4E9020102
:1058E000884211D9A36A421A934238BF1A46012A44
:1058F00006D1606A007818B9606B002180F8C31087
:1059000020460021FFF7DAFBD4E90201814218BFEB
:1059100010BD094878440CF059FD20780130207002
:105920000020607410BD054878440CF04FFD012044
:105930000BF060FF68820100B6850100DA95010076
:1059400010B50446007CB8B9D4E90201884208D9F0
:10595000A36A421A20460021934238BF1A46FFF735
:10596000ADFBD4E90201814218BF10BD207801309F
:1059700020700020607410BD034878440CF026FDB0
:1059800001200BF037FF00BF3C80010010B504463A
:10599000007C10BBA168092922D2E06881420ED99F
:1059A000636B0A1AA16A1844914238BF0A4600F193
:1059B000BA012046082A28BF0822FFF77FFBD4E956
:1059C0000201814218BF10BD616B227881F8C200CC
:1059D000501C20700020607410BD0548784401E020
:1059E000044878440CF0F2FC01200BF003FF00BFE8
:1059F000BB6D0100C671010010B50446007CE8B91A
:105A0000A06821281DD2E168884209D9421AA06AFB
:105A1000616B904238BF024684312046FFF74EFB4F
:105A2000D4E90201814218BF10BD616B227881F870
:105A3000A400501C20700020607410BD04487844FD
:105A400001E0044878440CF0C1FC01200BF0D2FEC8
:105A5000FD8B0100AB75010080B5FFF79DFE80BD99
:105A600010B50446007CB8B1D4E90201884208D9D7
:105A7000A36A421A20460021934238BF1A46FFF714
:105A80001DFBD4E90201814218BF10BD207801300E
:105A900020700020607410BD034878440CF096FC20
:105AA00001200BF0A7FE00BF207401000078B82889
:105AB00016D3BF2806D8A0F1B6038B4208D8BC285D
:105AC0000AD20DE0F8280BD3A0F1F6038B4201D9DE
:105AD00000207047FC2803D300201070012070477D
