:02000004C0D06A
:1000000080B505F02DFD002080BD00000B48784430
:1000100006F0AEFE0078084901224A700A228A7072
:100020000422CA700E2303430B700198026009205A
:10003000000305F067FDC046500900202E080100AE
:10004000F0B5CFB001920C46054606F01FF93920F5
:1000500047AE29462246334608F03AF906F016F92B
:1000600002AF3025384629460CF066F93846103084
:100070001ECE1EC01ECE1EC035AC3846214600F036
:100080002DF81AAE3046214600F034F8602138468B
:100090000CF068F9482120460CF064F92F20022169
:1000A00039543146393138463A4600F02FF8303766
:1000B000384600F035F8002801DC7F2000E05F20A2
:1000C000C043717A1F220A40801870720936019865
:1000D00031462A460CF036F94FB0F0BD80B50B46DC
:1000E00001463920302202F02FF8002800D180BDCF
:1000F00005F008FD80B50A4601463920012302F0CB
:100100001DF8002800D180BD05F0FCFC80B530232F
:1001100002F050F8002800D180BD05F0F3FC00008B
:1001200080B582B006497944302201AB02F036F83E
:10013000002802D1019802B080BD05F0E3FCC04662
:100140006FC7000070B58CB015460E4604460BA86C
:1001500003701A480078002801D104F05FFE022CD9
:100160001AD2002E18D10BA96A46284604F010FFB7
:10017000002815D068460178001D114A0832FFF7A3
:100180005FFF002C11D0109C01F08EFE2068102122
:10019000014321600CB070BD6B20000205F0B2FC81
:1001A0006B200002803805F0ADFC119C04F0A0F833
:1001B00020600920000305F0A5FCC0460D020020C8
:1001C00018020020F0B5A5B015460E46074624A833
:1001D000037053480078002801D104F01FFE022F5D
:1001E0007BD2022E7DD224A911AA284604F0D0FE8B
:1001F000002800D187E00546701E41424141952408
:10020000484E315506F042F8305D0028039701D082
:100210003046753011A90A780090091D21201CAFC5
:100220003B4608F02FF807AC3846214600F08AF824
:1002300006F02CF8204600F091F8282120460CF01A
:1002400091F8202138460CF08DF806F01FF8364C56
:100250002068016940690091019037464C37334A64
:100260003046394603F08DF9002844D020680169F2
:1002700040690590049124A80078082809D3082132
:1002800028460AF09BFF249A083A24AB1A7005917D
:10029000049024A80178002931D10398002836D091
:1002A0002A9D009722482B21254A7A44282306F0CC
:1002B00041FB206802694069059B43400499514015
:1002C000194304A8002900D1084601F00BFE286854
:1002D00010210143296025B0F0BD16487844394605
:1002E00002E015487844314606F060F9D520C00197
:1002F000803005F007FC7720C04305F003FC0F4871
:10030000784406F053F9D520C00105F0FBFB2B9C87
:1003100003F0FCFF20600920000305F0F3FBC0465A
:100320000D0200201802002008020020A80700206B
:10033000DC060020E9C50000FDC50000FDC5000089
:1003400083C6000080B50B4601462120202201F023
:10035000FBFE002800D180BD05F0D4FB80B502462D
:1003600021200449012301F0E9FE002800D180BDCD
:1003700005F0C8FB18020020B0B500221F2305E0DD
:10038000C45C8C545B1E521C202A0FD0D4B21F2C8C
:1003900007D0002CF4D1C47F3F25254040350D7097
:1003A000F0E70478F8252540CD77EBE7B0BD0000F5
:1003B000F0B5ADB005462CA80370022D00D3B0E017
:1003C0000C46022900D3A8E02CA911AB10461A460E
:1003D00004F0DEFD002850D003902CA8012C03D19E
:1003E00000781F2800D898E09520564E305C0028F1
:1003F0000694059501D03046753011A90A78009011
:10040000091D212424AF20463B4607F03BFF07ADE2
:10041000204639462A4600F0A1F82046294600F039
:10042000A7F8494800680169406900910190344685
:100430004C34464A3046214603F0A3F8002875D0D4
:100440000494069800281CD03546093520242846F7
:10045000039922460BF07AFF24AF284639462246FC
:1004600001F0B4FE054607A828210BF07BFF3846B3
:1004700021460BF077FF002D21D0D520C00105F0DB
:1004800041FB24A803901CAF3946FFF775FF812478
:1004900007AD204639462A4600F060F82046294636
:1004A00000F066F82024384621460BF05BFF282137
:1004B00028460BF057FF039821460BF053FF059891
:1004C000002837D0329F04980090214D2B21214ADB
:1004D0007A4428242846234606F02CFA24A8315DC5
:1004E0000170401C641E082CF9D124A800902B3503
:1004F0004E21194A7A442023284606F01BFA069812
:10050000002802D001F0E4FC01E001F0D7FC3868DB
:100510001021014339602DB0F0BD6720000205F0C5
:10052000F1FAD520C001803005F0ECFA7720C04305
:1005300005F0E8FA339C03F00FFF20600920000368
:1005400005F0E0FA1802002008020020A8070020A9
:10055000DC0600205DC40000C9CA000080B5134657
:10056000202201F0F1FD002800D180BD05F0CAFA7B
:1005700080B50A460449012301F0E0FD002800D1BE
:1005800080BD05F0BFFAC04618020020A2B01D468B
:100590000692412084003C49085D01263746874386
:1005A0000F553B487844394606F000F8002D67D0D7
:1005B00004940596069C26780B2E61D231461C3198
:1005C000681EC0B281425BD80195701C0390601C0C
:1005D00002901AAA202301F0D5FD5B2078432A4916
:1005E0000D182F4660373846029932460BF0AEFEA2
:1005F0000020B8550398211828464C3014220BF0DF
:10060000A5FE31461531204600F048F86B216854AC
:1006100031461931204600F041F81C4909680A6941
:100620004B691146059F7940194309D01146414055
:10063000194305D000901748784405F0B7FF1FE034
:1006400007AF384600F036F832191D320198801B8A
:100650001D38C3B21AA9384600F03CF800280BD068
:1006600009490498085C081881214900059A4254F8
:100670000920000305F046FA0748784405F096FF84
:10068000D520C00105F03EFA180200200802002023
:1006900090C300001EC30000FEC20000425C1206B0
:1006A0004018417809048918827812028918C078A4
:1006B0000818704780B50346212005497944412236
:1006C00001F048FD002800D180BD05F01BFAC046AE
:1006D000D5C2000010B582B01446009320222346F4
:1006E00001F01AFD02B010BD042B0AD101430CD158
:1006F000104600F011F8074908600920000305F0D2
:1007000001FA6720000205F0FDF96B20000205F0F8
:10071000F9F9C04614020020017809064278120453
:100720005118827812028918C078081870470000A2
:10073000F0B5ABB01E4615465748784405F036FF75
:100740002C7856487844214605F030FF2746193763
:10075000B7426DD2009601941E2C6ED223AE202398
:1007600028463946324601F00DFD10AC204600F017
:10077000A3F8E9190098C71B20460C4631462246CB
:100780003B4600F0A9F800285DD0019C6E1C3E4D50
:100790002846314622460BF0D9FD00272F55434805
:1007A0007844294605F002FF38480F900E9502ACB8
:1007B00020460BF0FBFEA08500044ED102AC204683
:1007C00007F01CFE0C900EA807F0AAFD07F00AFE29
:1007D000A04202D10C9807F011FE02A8808D0028DB
:1007E00050D1319D019834183148784405F0DEFE2F
:1007F000254E30464430142221460BF0A7FDA07D43
:10080000E17D227D637D224C27701B029A1809022C
:10081000081800048018B0652868411C29601D492B
:1008200090220A542868421C2A600F542BB0F0BD55
:100830001B4878443946324609E00198421C194861
:1008400078441E2103E0184878443946224605F0D2
:10085000ADFED520C00105F055F902A887850C989A
:1008600007F0CCFD13487844294605F09FFEAF837E
:100870002F606F60AF60EF602F616F61AF61D52057
:10088000C001FC3805F03EF9B4050020FF0100006E
:100890000F0200205009002098C20000A3C20000EF
:1008A000CDC10000ECC1000012C20000D9C200009E
:1008B000CCC200002DC2000080B5034621200549AE
:1008C0007944412201F046FC002800D180BD05F0AA
:1008D00019F9C04604C2000010B582B01446009356
:1008E0002022234601F018FC02B010BDF0B5B1B0D3
:1008F0001E461546B648784405F058FE0020309054
:100900002F902E902D902C902B902A90059029902E
:1009100016A84C210BF010FD3746032E00D8F1E04D
:100920002C78AD487844214605F040FE012C00D0DB
:10093000ECE06C78AA487844214605F037FE012C9B
:1009400000D0E6E0A87801462531B14200D9E4E0C4
:10095000029104961E2800D3E5E001461B31019167
:10096000064607461737C01C00900396E91C944CB6
:10097000204632460BF0E6FC0598A0559C4878448A
:10098000314605F013FE9B487844214605F00EFEE3
:1009900000982E18204644301424314622460BF08D
:1009A000D1FC954878442146324605F0FFFDE85DCC
:1009B000E9194A78120210188A78C9780902891848
:1009C000090408187E4A906558328C4878440421FE
:1009D00005F0ECFD01982C180826204631460AF057
:1009E000EDFB15911490864878443146224605F077
:1009F000DDFD14A805F07BF8002800D19AE0039FE4
:100A0000384623302E5C80487844314605F0CEFDD0
:100A1000022E00D093E03C4624347C4878444121A7
:100A20007B4A7A4405F0C2FD2E5D7A48784431460F
:100A300005F0BCFD012E00D084E077487844029C8C
:100A400021462A4605F0B2FD29AA20232846214640
:100A500001F098FB2637049EB7427CD82C5D724883
:100A60007844214605F0A2FD20464338062877D277
:100A70003819B0427CD816AE304600F0EDF8EA19CD
:100A800029A93046234600F0DDF8002875D00398E8
:100A900000F0F2F84B490870411E0229484D71D20E
:100AA000002821D165487844294605F07FFD464855
:100AB0001390129506AC20460BF078FDA08500043B
:100AC00065D106AC204607F099FC109012A807F0FB
:100AD00027FC07F087FCA04202D1109807F08EFC9B
:100AE00006A8808D002868D1379801684A1C0260EA
:100AF000364A9023535401684B1C036005985054A8
:100B000031B0F0BD33487844032108E033487844DD
:100B100001E034487844214617E0334878443A46A7
:100B200005F044FD13E0421C304878441E2105F0D6
:100B30003DFD0CE03348784405F038FD07E03848C7
:100B4000784401E037487844314605F02FFDD52040
:100B5000C00104F0D7FF3148784405F027FDF6E7DF
:100B60003248784443214822234605F01FFDEEE732
:100B70002F48784405F01AFDE9E72E48784405F03F
:100B800015FDE4E72C48784405F010FDDFE706A8E2
:100B9000059C8485109807F031FC29487844294643
:100BA00005F004FDAC832C606C60AC60EC602C61E3
:100BB0006C61AC61D520C001FC3804F0A3FFC046D5
:100BC000B40500200F020020FF01000050090020A2
:100BD000DCC00000FFBF0000B6D1000031C0000043
:100BE0001EC200004DC000005DC0000089C00000B2
:100BF00075C0000059C200004EC2000035C200009E
:100C000029C20000EAC000002FC200003EC200005E
:100C10007EC300003CC2000055C2000048C1000075
:100C200002C1000031C1000069C200007AC10000A9
:100C3000B0C10000C7C10000D4C10000D3BF000094
:100C4000F7BE000010B582B0144600932022234660
:100C500001F062FA02B010BD80B5034621200549BB
:100C60007944412201F076FA002800D180BD04F0D9
:100C700049FFC04640C1000010B507280CD004460B
:100C8000062811D10B480C49794406220BF06EFB63
:100C900000280DD0072C07D10648084979440722BF
:100CA0000BF064FB002801D0002010BD022010BD15
:100CB000012010BDB405002009C10000FCC00000E7
:100CC00070B582B015460146214E0024347001A84B
:100CD000037080290BD000291CD101A9284600F0FF
:100CE00043F800282DD0411B3170054603E0194818
:100CF0000078022816D101A80178284600F0B2F841
:100D000000281ED0144800780124C00711D100F03B
:100D1000DFF816E01248784405F048FCD520C00101
:100D200080300CE00F48784405F040FCD520C0012D
:100D300005E00A48C06C002806D00920000300F036
:100D400077F8204602B070BD08F036FCF9E7C046DF
:100D5000000200200C0200200102002018020020E6
:100D6000AFBB0000BBC00000F0B581B00D4604462B
:100D7000D520C601274F3878002804D03046FB38EC
:100D800080B200F055F802203870234F20462946E3
:100D90003A4604F0FDF8002807D0044628780328D6
:100DA00009D82048784405F001FC304600F040F8AE
:100DB000002001B0F0BD204600F038F9F864287832
:100DC000001F287000F03EF900250095164979446F
:100DD0001A2228462B4600F043F9FB6C0F4E64366E
:100DE0002821124A7A44304605F0A4FD30460BF023
:100DF0008DFC02460095284631462B4600F030F91E
:100E000000F00EF906480178FC220A400270201D0D
:100E100001B0F0BD0C02002018020020DC0600200A
:100E20000102002067C000007AC0000035C0000049
:100E300010B5044609200003844205D00748007815
:100E4000800701D501F014F805484470210A0170AB
:100E50002020022105F080F810BDC04601020020CC
:100E60005009002070B582B00C46174EF56C8D42CB
:100E70000CD21648784421462A4605F097FBD52027
:100E8000C001FFF7D5FFA5420DD31AE001460020AF
:100E900000902246034600F0E3F8F06C001BF0647B
:100EA00004D0A5420DD2002002B070BD20200090D9
:100EB0002C36012000210A46334600F0D1F8A54225
:100EC000F1D3012002B070BD18020020A8BF0000BD
:100ED000F0B581B000F07AF8002832D02D4878447F
:100EE000471C2D4878440090274C07E020222946D3
:100EF0000BF030FA00F06AF8002822D000F0C8F8B1
:100F000000281ED0054600F0C9F80678B85D000735
:100F100000D52026B85D9721084205D000F0C8F81A
:100F200000214170067008E000F0C2F8042DDDD306
:100F30002946009A334605F0FDFC2078401C2070BD
:100F4000D8E700F0A5F8114C002802D0E06C00288A
:100F50000CD10F4D2878800706D408F0F9FA2878CC
:100F600002210143297001E008F002FB00F02EF895
:100F7000002806D1E06C002803D009200003FFF709
:100F800057FF01B0F0BDC04600020020180200204B
:100F900001020020B6B800005DBF000080B509481E
:100FA0000078C0070AD10848C06C002803D100F0BF
:100FB0000DF8002802D008F011FB80BD08F0FCFA03
:100FC00080BDC046010200201802002002480078BF
:100FD00002490979081A70470002002050090020D0
:100FE00080B50848017801220A4302700648C06CA7
:100FF000002804D009200003FFF71AFF80BD08F085
:10100000DBFA80BD010200201802002080B500F04C
:1010100007F8FFF7DBFF002801D0FFF759FF80BD7D
:101020000148002101707047DC06002001780906A4
:10103000427812045118827812028918C078081870
:101040007047000080B501200102044801F0A0F8BB
:10105000002800D180BD04F055FDC046A80700203F
:1010600010B582B014460A460146049800930190D8
:101070000648234601F080F8002804D1034801F017
:1010800075F802B010BD04F03DFDC046A807002071
:1010900080B500F015F86321081A80BD0248007879
:1010A00002490818401D7047000200205009002026
:1010B00080B500F005F80149081880BDDC06002065
:1010C00080B502480BF022FB80BDC046DC06002044
:1010D000F0B581B069460B7000282AD11546194831
:1010E0000078002801D003F099FE6E46164C284681
:1010F0003146224603F04CFF00281FD005463078C9
:101100003F281BD9069F20462C30202629463246F0
:101110000BF01CF94C3420352046294632460BF0A2
:1011200015F900F0E9FE386810210143396001B07B
:10113000F0BDD520C001803004F0E4FCD520C00112
:1011400004F0E0FC0C02002018020020F0B583B08F
:1011500014460E46054602A8037007F0C5F8AA28F3
:101160007AD1802D43D0002D72D101964F4E307828
:10117000002801D003F052FE0127377002A94C4A23
:10118000204603F005FF002800D183E00446E42058
:1011900048490F54C320484A002111540091474E3A
:1011A00047494A4B7B44304601F0DBFB02A80078FC
:1011B00000286BD0207840B200280ED4C7B2781E29
:1011C00001286BD8204600F091F83C203754029853
:1011D000401E02A90870641C02E03C20C02131546A
:1011E0003C20315C3C48784405F0E0F9019E002E3B
:1011F0002ED1802D03D12D480078012835D12F48DC
:101200000078002834D06F20C0002F4909680A698F
:10121000496942400A435342534102A80278274891
:10122000214601F029FC012806DC0AD000282AD139
:101230000920000304F066FC022822D1002003F0FC
:1012400015FA0898016810220A43026003B0F0BD45
:101250006B20000204F056FC2348784405F0A6F900
:10126000D520C001FE3804F04DFC1C48784401E054
:101270001B48784405F09AF9D520C001FB3804F0EA
:1012800041FC032806D01748784401E01048784410
:1012900005F08CF9D520C00104F034FC0D487844E9
:1012A000394605F083F9074804F02CFC0C020020B5
:1012B00018020020B4050020600300202003002055
:1012C000A807002001650000080200200532000088
:1012D0007DBB0000DABB0000B5BC00003BBC0000D9
:1012E00050BC000052BC000009BC000080B582B0B8
:1012F00002460021009101910648012300F03CFFC5
:10130000002804D1034800F031FF02B080BD04F092
:10131000F9FBC046A807002070B5A0B015460E46E0
:1013200004461FA8037003F079FD022C3AD2002E68
:1013300038D11FA914AA284603F02AFE002835D068
:1013400004F0A4FF14A80178001D02AD2A4605F0A0
:1013500009FE0AAE2846314600F03CF804F096FF3C
:10136000304600F043F8282130460AF0FBFF2021E8
:1013700028460AF0F7FF04F089FF002C1BD0249CBC
:1013800011480930009011486421114A7A44202301
:1013900005F0D0FA00F0BAFD206810210143216069
:1013A00020B070BD6B20000204F0ACFB6B2000028B
:1013B000803804F0A7FB259C03F022FD2060092063
:1013C000000304F09FFBC04618020020DC0600204A
:1013D00068BB000080B50B4601465120202200F07A
:1013E000B3FE002800D180BD04F08CFB80B502461E
:1013F00051200449012300F0A1FE002800D180BD46
:1014000004F080FB1802002082B01E4615460446F8
:1014100036480078002801D003F000FD601E052842
:101420000BD25420B0420DD1002C0FD1284600F031
:1014300067F8C0B2411E884109E0002C25D1342054
:10144000B042F1D06720000204F05CFB00200226CD
:10145000012C2BD0002829D10194B520C7430026A8
:10146000234C03E05B37761C002F13D0A119812099
:101470004000095C0029F5D0E1190818142229461A
:101480000AF074FF0028EDD105E0D520C0018030BE
:1014900004F038FB0226022E019C07D1174878443D
:1014A00005F084F8D520C00104F02CFB114F38461C
:1014B000E5302946143120220AF048FF002C07D0DD
:1014C000FF20063038183435202229460AF03EFF26
:1014D000932040003C54FF2026303E540648012112
:1014E00001700920000304F00DFBC0460C0200202F
:1014F00018020020B4050020100200205DBA000090
:10150000B0B5014600780122002810460FD1491CD1
:1015100000231C46132C03D31846132C03D106E0DA
:101520000120132C03D00D5D641C002DF2D050401F
:10153000B0BD0000F0B5BDB01F4614460D460646CE
:10154000B3480078002801D003F068FC002F00D1D8
:1015500081E22378581E0A2800D37FE20121032E5E
:101560000ADC012E0DD0022E11D0032E00D06DE228
:101570000022002909D00FE0301F02280A4602D3BA
:1015800064E200221146002906D10E9106E00020F7
:101590000A4601460029F8D021200E909800002A22
:1015A0000C9103D0052E06D06D2105E00E9949005F
:1015B0004018893003E0A12108180E994018B8425C
:1015C00000D053E2002D00D040E20A970B96109411
:1015D0000D9290480370002B15D0071D01240025A3
:1015E0008D4878440F901E46E1B2109800F080FAC2
:1015F000024604C70F98294604F0D8FF6D1C241D2D
:10160000AE42F1D101E001241E460496E0B2109FE3
:1016100039180A9A121A38460AF098FE0B9B581F7E
:101620004142414180207D4A0A901154052B20D12E
:101630000E983E1831466C31784F3D46A135202238
:101640000F9228460AF082FE8C36C13714243846A1
:10165000314622460AF07AFE714878440F992A46AC
:1016600004F0A4FF6F48784421463A46109F04F0E6
:101670009DFF0C9D78190F9000F046FAC1B24A42C6
:101680004A4101246C40224303D13978012900D01A
:10169000F0E100060D9E05D10F9803F04FFC0028E5
:1016A00000D1ECE1002E19D10E9838180C9945188C
:1016B0003435284600F028FAC1B24A424A41144360
:1016C00004D15521795C012900D0DFE1000605D164
:1016D000284603F033FC002800D1DCE104F0D6FDFD
:1016E00000200C990029024600D03A780190EE487B
:1016F0000290002901D1084601E0384635300090BB
:101700000F990B461433E948099305F0BBFE002EF0
:101710000BD00E9C39193431E34E30462030202254
:101720000AF014FE5425254320E00E9838180C9C2E
:10173000051904F0ABFD0020002C0246DA4E01D062
:1017400055217A5C343531462031019002910C9854
:10175000002801D038468A3000902B461433D348F5
:10176000294605F08FFE0E98450068353446403412
:1017700024AE3046214605F05DFB0B20009000278B
:1017800030463A463B4605F076FB042000900B9825
:101790000528089401D00D9A00E0022230463B460D
:1017A00005F069FB109C2046294600F0A1F902468D
:1017B000304605963E462F461F250095334605F0D8
:1017C0005AFB391D204600F093F902460B9500950F
:1017D0003D463746059E30463B4605F04CFB2946C4
:1017E0000831204600F084F9069029460C31204645
:1017F00000F07EF902463F20079000903046069B9D
:1018000005F039FB0D9800280ED010243B461AE055
:101810000C0200201802002043B90000B40500208B
:10182000DFB80000DEB8000029461031109C2046C9
:1018300000F05EF9064629461431204600F058F9BA
:101840003346074618240798009024AE30463A469F
:1018500005F011FB2819C4B2109D2846214600F05E
:1018600047F902460B980090002730463B4605F0AA
:1018700002FB211D284600F03BF90246162000908D
:1018800030463B4605F0F7FA914878442026314629
:10189000854D2A4604F08AFE2A4620328D48784437
:1018A000314604F083FE8C4878443146089A04F0AF
:1018B0007DFE0A98285C00281ED000F03FF90097B2
:1018C0002946C131142238463B4600F045F90096BE
:1018D0002946A1312C46603401203246234600F0CF
:1018E0003BF96020295C03220A402A547B48784453
:1018F0003146224604F05AFE0B970D98002863D01B
:1019000004F0C4FC6748001D35AD04992A4605F073
:1019100029FB2BAC2846214600F036F904F0B6FC32
:10192000109E11AF3846214600F03AF928210C915B
:1019300020460AF017FD2024284621460AF012FD11
:1019400035460E98361804F0A1FC3146343109377B
:101950003846089122460AF009FD074641424141B6
:10196000604878440B9104F021FE04F08FFC51484C
:1019700000905C362B468C330F980999324605F05F
:1019800067FB58210E980143284600F0B1F8034642
:1019900047486430544A7A440C9904F0CBFF002F36
:1019A000414D0FD0284681302024089E31462246E2
:1019B0000AF0CCFC00963E4864214C4A7A44234607
:1019C00004F0B8FF0D982DE004F060FC38482B308F
:1019D00000900E9E109CA5193435AF193A463C3242
:1019E0008C340F980999234605F032FB04F04EFC25
:1019F0002F487A3000900C9828180146143144374B
:101A00003A46234605F024FB71006831109800F037
:101A10006FF803462B21324A7A44254804F08AFFA6
:101A20000D98214D0B9A429C002807D00A98295CFA
:101A3000481E8141104600F087FA01E000F070FA7C
:101A400020681021014321603DB0F0BDD520C001C8
:101A5000803004F057F81848784401E0174878447B
:101A600004F0A4FDD520C00104F04CF8672000026A
:101A700004F048F81248784404F098FDF2E7114861
:101A8000784414210F9A04F091FDEBE70E48784456
:101A900004F08CFDE6E70D48784414212A4604F052
:101AA00085FDDFE718020020B4050020A80700200C
:101AB000DC06002060030020B3B30000B9B40000CE
:101AC000DCB4000018B5000034B5000000B500001B
:101AD0007FB700007AB700007FB7000048B700006A
:101AE000CDC50000E3B600004FC6000038B50000C9
:101AF000425C120640184178090489188278120263
:101B00008918C07808187047B0B5014600780122DE
:101B1000002810460FD1491C00231C46132C03D368
:101B20001846132C03D106E00120132C03D00D5DC1
:101B3000641C002DF2D05040B0BD000080B50120E3
:101B40000102044800F024FB002800D180BD03F00E
:101B5000D9FFC046A807002010B582B014460A4637
:101B600001460498009301900648234600F004FBC8
:101B7000002804D1034800F0F9FA02B010BD03F0C8
:101B8000C1FFC046A807002080B50B460146512082
:101B9000202200F0D9FA002800D180BD03F0B2FF66
:101BA00080B50A4601465120012300F0C7FA0028FB
:101BB00000D180BD03F0A6FFF0B5A7B014460D46D6
:101BC000064626A803702B480078002801D003F0B1
:101BD00025F9354341D126A9274E2046324603F048
:101BE000D7F900283ED0014626A8007820283DD10C
:101BF0002C9800902148203020252A460AF0A6FB88
:101C000004F044FB3178301D1EAE324605F0AAF9CF
:101C100001AC3046214600F033F804F037FB0BAF3F
:101C20003846214600F038F8282120460AF09AFB71
:101C3000304629460AF096FB04F028FB09370F4886
:101C400039462A460AF07EFB00F074F9009A1068C3
:101C500010210143116027B0F0BDD520C0018030B4
:101C600003F050FFD520C00103F04CFF67200002B5
:101C700003F048FF0C02002018020020B4050020E9
:101C800080B50B4601465120202200F05DFA002865
:101C900000D180BD03F036FF80B50A4601465120D1
:101CA000012300F04BFA002800D180BD03F02AFF89
:101CB000F0B5B7B004F0EAFA00F078F80024009428
:101CC0003749794402222046234600F07DF80094EB
:101CD000314F2C372025204639462A46234600F02E
:101CE00073F800952C4E4C36012027AB02933146F9
:101CF0002A4600F069F82B48784429463A4604F011
:101D000055FC294878442946324604F04FFC04F03B
:101D1000BDFA214802780094011D21202FAF3B46D7
:101D200006F0B0FA04F0B2FA04AE3846314600F0DC
:101D300063F8384629460AF015FB039404F0A6FA26
:101D40000EAF03AB304602993A4600F061F8282105
:101D500030460AF007FB0399C80703D01C20890707
:101D600003D403E01B20890700D5801C0B4E307084
:101D7000384603F08FF842203454412090213154EA
:101D800003F04CF84321284604F0E6F800F070F820
:101D9000204637B0F0BDC046180200205009002090
:101DA00095B3000061B3000070B3000080B501205E
:101DB0000102044800F0ECF9002800D180BD03F0D6
:101DC000A1FEC046A807002010B582B014460A46FE
:101DD00001460498009301900648234600F0CCF990
:101DE000002804D1034800F0C1F902B010BD03F08F
:101DF00089FEC046A807002080B50B460146212079
:101E0000202200F0A1F9002800D180BD03F07AFE65
:101E100010B586B01C460B466421059104A90391B8
:101E200005A902910192202100910749032200F0A7
:101E30006DF9002805D1002C01D00498206006B06F
:101E400010BD03F05FFEC0460106000080B502F041
:101E5000E5FF06488521417069210170202002219B
:101E600004F07AF800F004F8002080BD500900204A
:101E700080B506480078002801D10AF089F80449A5
:101E800079440020024609F035FC80BDAC040020F6
:101E900020D1000080B5034979440020024609F0B2
:101EA00029FC80BD24D2000080B50349794400207C
:101EB000024609F01FFC80BDD8D2000080B503495E
:101EC00079440020024609F015FC80BD90D4000042
:101ED00080B5034979440020024609F00BFC80BD1F
:101EE00094D4000080B5034979440020024609F0EB
:101EF00001FC80BD54D3000080B503497944002023
:101F0000024609F0F7FB80BDB0D6000080B503495A
:101F100079440020024609F0EDFB80BD6CDA000038
:101F200080B5034979440020024609F0E3FB80BDF7
:101F3000C0DB000080B5034979440020024609F067
:101F4000D9FB80BDA4DE000080B50A46002908D177
:101F50000C497944002A08D00B4A7A44002808D05A
:101F600008E007497944002AF6D1084A7A44002853
:101F700000D111460020024609F0BCFB80BDC046DE
:101F800078DD000046DD00005ADD00000CDD0000B9
:101F900080B5034979440020024609F0ABFB80BDBF
:101FA00020D7000080B5034979440020024609F09B
:101FB000A1FB80BDB4D70000F0B597B004931746DD
:101FC0000C46054606A9204606F042F906461C982E
:101FD0000590002E1FD1049B0699202919D1264671
:101FE00028461F9D1E991D9C03950291019407A9E7
:101FF0000091344631463A4600F01AF80646002869
:1020000009D1069A07A92046059B00F09DF80646CF
:1020100001E05C20C64307A840210AF0A3F9002E86
:1020200003D0282105980AF09DF9304617B0F0BD7D
:10203000F0B595B0089307920C46064609AF3846AE
:102040000AF0B4FAB88585B21A9F002D0BD009A802
:1020500000218185139806F0D1F9402138460AF015
:1020600081F92C4615E01D9806901C9805901B9D43
:1020700009A806F0C3F913900097019505980290FE
:102080000698039030462146079A089B06F00AF905
:10209000002406F0A7F909A9884202D1139806F096
:1020A000ADF909A8808D002802D1204615B0F0BDF9
:1020B00003F028FDF0B58FB01C9C03941B9C029488
:1020C0000024019405AC0094FFF776FF0446002835
:1020D0000ED11A98199C189D14AE4ECE202700964A
:1020E000019702950394049005A800F07FF8044638
:1020F00005A828210AF036F920460FB0F0BD0000EF
:1021000003B401486BE000000C00000003B4014878
:1021100065E000001500000003B401485FE0000026
:102120001600000003B4014859E000001700000049
:1021300003B4014853E000001800000003B4014854
:102140004DE000001B00000003B4014847E0000020
:102150001C00000003B4014841E000001D00000025
:1021600003B401483BE000001E00000003B4014836
:1021700035E000002F00000003B401482FE000000C
:102180003200000003B4014829E0000033000000E1
:1021900003B4014823E000004400000003B40148F8
:1021A0001DE000004700000003B4014817E00000F4
:1021B0004B00000003B4014811E000004D00000096
:1021C00003B401480BE000005800000003B40148CC
:1021D00005E000007000000003B40248FFE7024978
:1021E000084700007100000001001200F0B5A7B020
:1021F00006AC0EC4074664200D902E9E2D9C3046E2
:1022000021460AF0AFF82F9D284621460AF0AAF889
:102210003098059003900DA802900EA801902C987C
:102220000090384606AB0ECBFFF770FF00281AD19E
:102230000D9909A802900BA801900AA800900EA879
:102240000CAB2246FFF774FF012813D130190A9A0C
:10225000801A0C990AF076F82819099A801A0B99B5
:102260000AF070F80020002802D00021059A1160C1
:1022700027B0F0BD7720C0430028F6D1F8E7000072
:10228000F0B581B00090451C0D240E4E7E443046C2
:1022900004F06EFD07460F30142229460AF066F856
:1022A000002805D02336641EF1D1002001B0F0BD16
:1022B000009843300F2239460AF000FA012001B09D
:1022C000F0BDC04604AE0000074801780120002997
:1022D00007D093214900054A515C042902D80329FB
:1022E00000D070470020704710020020B405002085
:1022F000F0B583B00C460146FF20024604329142FD
:102300001FDC0230814251D081204000814200D147
:10231000A8E0914200D0C7E0A568A048784404F046
:1023200045F92878012800D1CDE0002800D000E14F
:102330000420A07701202077681C16356561A06114
:10234000C5E041229200914264D00630814200D122
:102350009AE083204000814200D0A5E02646203646
:102360003078E7693D464135012800D1B5E00028C5
:1023700000D0DEE00296606AA26A934979440AF0CE
:102380009DF93E461636304600F03FF9002800D150
:10239000D1E0E06A226B8D4979440AF08FF9E06A56
:1023A000226B363739460AF05FF9D1E0A068E5685C
:1023B0000068423000F010F900287BD00026794FE9
:1023C0007F44386804F0D4FC017842781202511836
:1023D0008278C078000280180004401861690A7889
:1023E0004B781B029A188B78C9780902C91809041E
:1023F0008918884200D190E03F1D761C022EE0D162
:102400000226022E00D18CE06948784404F0CEF810
:1024100004208DE0E168481E81412269501E8241FE
:10242000A5686648784404F0C1F8E068002846D002
:102430002E46413600207070E1682846363014314F
:102440000B220AF03BF9E068C07F30702878012841
:1024500006D12846FFF714FF002801D00120707034
:1024600004202DE0A568E3682169524878442022C1
:1024700004F09CF8206924283FD0042845D1E16865
:10248000681C0C3114223CE0E06822694C49794414
:102490000AF014F96069A2694A4979440AF00EF910
:1024A0000420207703B0F0BD3D48784404F07EF866
:1024B00003B0F0BD3C48784404F078F837E00620DB
:1024C000607503B0F0BD0420A0773348A083606836
:1024D0000068A530E06003B0F0BD606AA26A697868
:1024E00000293AD03A4979440AF0E8F8E06A226BC8
:1024F000433739460AF0E2F844E0E1681635202215
:10250000284609F023FF042004E02B48784404F017
:102510004DF80020207503B0F0BD2E70022E00D0C3
:1025200072E7626921487844042104F03FF80020F2
:10253000607003B0F0BD2A78E06A642100900191D8
:102540003637202130463B4608F0F3FE00281DD0E8
:1025500004200299087503B0F0BD1E4979440AF0C1
:10256000ADF8E16A226B206803680A4800680469D4
:10257000406900940190781C01F0F4F8002801D122
:10258000002030750420307503B0F0BD072003F043
:10259000B9FAC0460802002002020000CBAF0000DA
:1025A0009DAE0000B4B70000A1AD000053AD000027
:1025B00086AE000037AE0000BFAD0000DAAE00000E
:1025C0009AAE000093AE0000B9AF0000A4AF0000C7
:1025D00008C900007BD40000B0B501460078012294
:1025E000002810460FD1491C00231C461F2C03D382
:1025F00018461F2C03D106E001201F2C03D00D5DCF
:10260000641C002DF2D05040B0BDB0B5014600783A
:102610000122FF28104610D1491C00231C461F2C04
:1026200003D318461F2C03D107E001201F2C04D030
:10263000651C0C5DFF2C2C46F1D05040B0BD000055
:10264000F0B595B00C4601468120400081422DDD59
:10265000FF2002460432914249D00630814254D0D4
:1026600083204000814272D12646203630780128EE
:1026700000D18AE0002800D035E19E480568606AF4
:10268000A26AB04979440AF019F862219A48415C7B
:10269000E26A642300920193423012222B4608F032
:1026A00048FE00287DD1072003F02CFAFF220232D9
:1026B00091423AD081424AD1A768E36821699248A1
:1026C00078442026324603F071FF2569281F052132
:1026D000C841052841DD082867DD01460A3903297C
:1026E00000D2F8E0092800D0F9E06026E5E0A5680E
:1026F0009148784403F05AFF287800283BD0042002
:10270000A0777E48A08315B0F0BDE06822698B49B0
:10271000794409F0D3FF6069A2698949794409F0D5
:10272000CDFF0420207715B0F0BDA068E5680168F2
:10273000A53177487844142209F018FE00281ED0ED
:102740007448784403F032FF002060701AE06F484C
:10275000784403F02BFF15B0F0BD02287FDC002881
:1027600000D188E0012800D187E0022800D0B6E03F
:1027700009204601A1E00620A07715B0F0BD042095
:1027800060700120287015B0F0BDE569606AA26A2A
:102790006D49794409F092FFE06A226B691C09F0E7
:1027A0008DFF0420307515B0F0BD062867D00728CE
:1027B00000D182E0082800D091E0E12000010690DD
:1027C0004F480590012005044E4E3068A8420CD9B0
:1027D0005148784403F0EAFE3168504878442A466C
:1027E00003F0E4FE00203870207503970020049069
:1027F00008903068079005A8042109AE029132467E
:10280000FDF71EFC4648784430273946324603F02F
:10281000CDFE202530463946049F32462B46FFF731
:10282000B1FC3770E16830462A4609F09FFD002868
:102830005DD03C48784403F0B9FEE2683A487844F9
:102840002025294603F0B2FE3848784409AA2946D3
:1028500003F0ACFE03980770277515B0F0BD032890
:1028600039D0042828D0052839D1E168781C3022D5
:1028700009F068FD2FE080261FE0E0261DE0E168FA
:1028800038462130102209F05DFD206803681948A0
:10289000006801694069009101907D1C09A93022FE
:1028A000284600F05FFF00281FD009A930222846E3
:1028B00009F004FF04200FE03026E06800F046F83D
:1028C000B04208D003461A4878442946324603F0FD
:1028D0006DFE002038700420207515B0F0BD15483D
:1028E000784403F063FE15B0F0BD0020F4E70298D1
:1028F000F2E7C04608020020600300200202000048
:102900005D30000014020020DFAC0000F7AB0000D7
:1029100029AC00002FAC00002FAC00004FAC000031
:1029200051AC000054AC000076AC000074AC000068
:10293000FEAA0000EBA90000DBAD0000BBC900004F
:10294000DAC50000B1AC000051AD0000017F0906FE
:10295000427F12045118827F12028918C07F081822
:102960007047F0B581B01C4615460E46074640211B
:1029700009F0E2FC7D637E600698B8633C63012049
:102980003870304600F002F801B0F0BD80B501218A
:102990000902FFF7FDFB002800D180BD03F0B2F86B
:1029A00010B582B0816A002919D0426A137801AC4F
:1029B0002370491E521C42628162417C002905D06D
:1029C000C168491CC160817C002904D1406801A90B
:1029D000012200F00DF801A8007802B010BD0348F4
:1029E000784403F0E3FD012003F08CF80DAB000008
:1029F00010B582B013460A460446002100910191A9
:102A0000FFF7BAFB002804D12046FFF7AFFB02B066
:102A100010BD03F077F80000B0B50546806A90421B
:102A200020D31446002905D06A6A0846114622467A
:102A300009F08CFC687C002802D0A87C002804D116
:102A4000696A68682246FFF7D3FF686A00196862FE
:102A5000A86A001BA862687C002802D0E8680019F8
:102A6000E860B0BD0348784403F0A0FD012003F006
:102A700049F8C0469DAA0000F0B58DB000931646F7
:102A80000F46044601AD284609F090FDA8850004D4
:102A900007D001A8002181850B9805F0AFFC032425
:102AA00010E001A805F0AAFC6762A6620099E16245
:102AB0000B90204600F01AF804460B487844214653
:102AC00003F074FD05F08EFC01A9884202D10B9839
:102AD00005F094FC01A8808D002802D120460DB09D
:102AE000F0BD03F00FF8C0465DAA0000F0B585B058
:102AF000044606463C364A4878440490494878449F
:102B00000190494878440290039606E0029803F049
:102B10004DFD00252F46002D7ED03078C02802D1F3
:102B200021780C290BD0022806D001280DD121785C
:102B30000B2904D0022808D121780C2905D104984A
:102B400003F034FD02270025E5E7C02805D12078F1
:102B5000092802D1A06A002839D0A06A0028D5D05F
:102B6000607C002807D1204600F096F8042800D0A9
:102B700007460428E7D1216B002910D0204688475A
:102B800006462B48784403F011FD01200025022E53
:102B900006D325D0032E26D12648784425E00026EA
:102BA000002E039E01D00125B5E721781F48784407
:102BB00003F0FCFC317801291CD0022920D0C02967
:102BC00024D1204600F0D0F80028ECD022E0606B41
:102BD000C22100254554019803F0E8FC02279AE73A
:102BE0000746039E97E71448784403F0DFFC032769
:102BF000039E90E7204600F017F90028D3D009E0A3
:102C0000204600F06FF90028CDD003E00B4878444F
:102C100003F0CCFC032796E7F8B205B0F0BDC04640
:102C20002DAA000038AA00003CAA0000FBA9000061
:102C3000D1A90000D2A900009EA90000AEA9000001
:102C4000B0B58CB004466D46284609F0AFFCA885A7
:102C5000000407D06846002181850A9805F0CEFB64
:102C6000032407E0684605F0C9FB0A902046FFF7F9
:102C70003DFF044605F0B6FB6946884202D10A983A
:102C800005F0BCFB6846808D002802D120460CB0C0
:102C9000B0BD02F037FF0000F0B583B00446054632
:102CA000183500272C4E7E4402E00020002823D156
:102CB000A06A002822D02046FFF772FE216A4A1C33
:102CC000226261180876216A01AA284600F09CFB5E
:102CD000002806D001A80078002808D0032001278A
:102CE000E4E7206A0528E0D11C48784400E030463B
:102CF00003F05CFC0120D9E703282AD1F8071DD096
:102D0000214608312346103302AA284600F09BFBD7
:102D100000281AD0002002990029014606D1616AD4
:102D2000491E6162A16A491CA16201212062E06022
:102D3000A17401206074042003B0F0BD08487844F9
:102D400003F034FC002003B0F0BD0648784403F0E3
:102D50002DFC032003B0F0BD3CA900000EA900002B
:102D6000D6A80000D6A8000010B5044600780628B2
:102D70000CDC032817DC01283CD0022826D00328CD
:102D800049D1204600F056F9002010BD092815DC75
:102D9000072820D0082823D009283CD1204600F05D
:102DA000A5FA002010BD042830D005281DD0062823
:102DB00031D1204600F0D4F9002010BD0A38022895
:102DC00029D2204600F06CFA002010BD204600F009
:102DD00005F9002010BD204600F0F4F9002010BDD8
:102DE000204600F021FA002010BD204600F082F9B4
:102DF000002010BD204600F0DBF82C20215C0020D4
:102E0000C9070DD12178491C217010BD204600F062
:102E100041F9002010BD0348784403F0C7FB0120AE
:102E200010BDC0461CA8000010B504460078052857
:102E30000CDC022817DD032827D004282AD0052817
:102E400048D1204600F026F9002010BD072813DDE8
:102E5000082824D0092827D00A283BD1204600F092
:102E6000ADFA002010BD012823D0022832D120461F
:102E700000F0B4F8002010BD062826D0072829D17C
:102E8000204600F06DF9002010BD204600F062FAE7
:102E9000002010BD204600F0CDF8002010BD2046D7
:102EA00000F090F9002010BD204600F0BDF9002090
:102EB00010BD204600F07CF82C20215C0020C907C2
:102EC0000DD12178491C217010BD204600F072FA06
:102ED000002010BD0248784403F068FB012010BDBB
:102EE0005EA7000010B50446007805280CDD082810
:102EF00017DC062829D007282CD008284FD12046D7
:102F000000F02EF9002010BD022815DD032826D080
:102F1000042829D0052842D1204600F0C1F900201C
:102F200010BD092825D00A2828D00B2837D12046E3
:102F300000F044FA002010BD012824D002282ED130
:102F4000204600F04BF8002010BD204600F0A2F80B
:102F5000002010BD204600F02DFA002010BD2046B4
:102F600000F0F8F9002010BD204600F063F80020C2
:102F700010BD204600F026F9002010BD204600F0CC
:102F800053F9002010BD204600F012F82C20215CDF
:102F90000020C90708D12178491C217010BD0348C1
:102FA000784403F003FB012010BDC04694A6000046
:102FB00080B5017C002907D00021417481684161FE
:102FC0000178491C017080BD0348784403F0EEFA93
:102FD000012002F097FDC04687A6000010B5044608
:102FE000007C002818D1A068212818D2E168884206
:102FF00008D9401AA26A824200D302460021204624
:10300000FFF70AFDA068E168814204D100206074E6
:103010002078401C207010BD0448784401E004482A
:10302000784403F0C3FA012002F06CFD55A60000BD
:103030006AA6000010B50446007C00281CD1A068D8
:1030400021281CD2E168884209D9401AA26A82422A
:1030500000D30246616B63312046FFF7DDFCA068B8
:10306000E168814207D1616B83228854002060743B
:103070002078401C207010BD0448784401E00448CA
:10308000784403F093FA012002F03CFD2DA60000E5
:1030900043A6000010B50446007C00281CD1A0689F
:1030A00021281CD2E268904209D9616B8918801AE4
:1030B000A26A824200D302462046FFF7ADFCA06818
:1030C000E168814207D1616B20228854002060743E
:1030D0002078401C207010BD0448784401E004486A
:1030E000784403F063FA012002F00CFD07A600000B
:1030F00020A6000010B50446007C00281DD1A16860
:10310000212921D2E06881420AD9091AA26A8A4299
:1031100000D30A46616B091821312046FFF77CFC79
:10312000A068E168814207D1616B41228854002088
:1031300060742078401C207010BD0748784403F06C
:1031400035FA012002F0DEFC0448784403F02EFA40
:10315000012002F0D7FCC046E5A50000F6A500005E
:1031600010B50446007C00281DD1A16815291DD288
:10317000E06881420AD9091AA26A8A4200D30A4643
:10318000616B0918A5312046FFF746FCA068E1688D
:10319000814207D1616BB922885400206074207885
:1031A000401C207010BD0548784401E00448784474
:1031B00003F0FCF9012002F0A5FCC046BCA500000C
:1031C000CFA5000010B50446007C00281DD1A168E1
:1031D00021291DD2E06881420AD9091AA26A8A42CD
:1031E00000D30A46616B091842312046FFF714FCF0
:1031F000A068E168814207D1616B62228854002097
:1032000060742078401C207010BD0548784401E0AF
:103210000448784403F0CAF9012002F073FCC04668
:103220008CA50000A2A5000010B5044619487844FA
:1032300003F0BCF9207C002824D1A068E168884212
:1032400012D9401AA26A824200D30246012A07D14B
:10325000606A0078002803D1606BC32100234354C7
:1032600000212046FFF7D8FBA068E168814208D121
:103270000948784403F09AF9002060742078401CD3
:10328000207010BD0548784403F090F9012002F049
:1032900039FCC046A4A5000089A500005AA500007D
:1032A00010B50446007C002816D1A068E168884269
:1032B00008D9401AA26A824200D302460021204661
:1032C000FFF7AAFBA068E168814204D10020607486
:1032D0002078401C207010BD0348784403F066F944
:1032E000012002F00FFCC04635A5000010B50446D1
:1032F000007C002820D1A168092920D2E068814201
:103300000DD9091AA26A8A4200D30A46082A00D3B4
:103310000822616B0918BA312046FFF77DFBA068CF
:10332000E168814207D1616BC22288540020607439
:103330002078401C207010BD0448784401E0044807
:10334000784403F033F9012002F0DCFBF7A400001D
:1033500009A5000010B50446007C00281CD1A06817
:1033600021281CD2E168884209D9401AA26A824207
:1033700000D30246616B84312046FFF74DFBA06805
:10338000E168814207D1616BA422885400206074F7
:103390002078401C207010BD0448784401E00448A7
:1033A000784403F003F9012002F0ACFBC9A400004B
:1033B000E1A4000080B5FFF79DFE80BD10B5044676
:1033C000007C002816D0A068E168884208D9401A1D
:1033D000A26A824200D3024600212046FFF71CFB6E
:1033E000A068E168814204D1002060742078401C0C
:1033F000207010BD0348784403F0D8F8012002F093
:1034000081FBC046ABA400000078C308172B17D37C
:10341000BF2805D80346B63B8B4209D90020704728
:10342000F8280DD30346F63B8B4207D9002070479E
:10343000BC2805D30020107001207047FC28F9D269
:1034400001201070704770B5047864B2002C06D467
:1034500000201060187001240C60204670BDE6B298
:10346000B72E08D801241460007800221A70803822
:103470000860204670BDBF2E0FD800241C70B63ED9
:1034800016600278B92A10DCB82A3BD0B92A50D18C
:1034900082784078000280183DE0F72E13D801248E
:1034A000146000781C70C038E2E7BA2A2CD0BB2A1E
:1034B0003FD14278120683781B049A18C3781B0206
:1034C000D218007926E001251D70F63E16600278BC
:1034D0000024F92A08DCF82A20D0F92A29D1827898
:1034E00040780002801822E0FA2A19D0FB2A20D165
:1034F0004278120683781B049A18C3781B02D218EC
:10350000007913E0407806E04278120483781B02C9
:103510009A18C07810180860012070BD407806E045
:103520004278120483781B029A18C0781018086039
:103530002C46204670BDF0B58BB016460C460746AB
:10354000012001021046FEF723FE0025002815D1B8
:1035500002942020019003A8009009370124402301
:10356000304621463A46FEF707FE002806D103A959
:103570000C311422029808F0E5FE254628460BB0CF
:10358000F0BDF0B58BB014460D4607460120010290
:103590001046FEF7FDFD0026002817D120200190DF
:1035A00003A8009009370121402320463A46FEF740
:1035B000E3FD00280AD1119810990091019003A809
:1035C0000C302946224600F005F8064630460BB07E
:1035D000F0BD0000F0B593B00392049105460123BD
:1035E0001898014699431E224A4019990A43002718
:1035F000002A3A4619D1059306AA3324234600F03F
:103600006FF800285FD006AE3046214609F0ACF8CE
:103610003318221A30497944184609F025F8304603
:10362000214609F0A1F80246059B06A805928018DC
:103630002A4E7E44E95D0F240A092140715C4170E5
:10364000B15C0170801C7F1C142FF3D11902039F01
:103650003846FEF79DFD002100283AD12020019038
:1036600006A802900090059B2833012238460F4699
:1036700005921146029AFEF77FFD3946002828D1AF
:103680000020049F059B05E0715C059B3954401C9C
:1036900028281AD002461A404308E95C002A03D0C1
:1036A00021400929F0D902E009090929ECD906AF1E
:1036B000FB5C920004275740FB401A07715C00D561
:1036C0002039049FE1E7002103E02820002139543C
:1036D0001946084613B0F0BDADA2000094A2000048
:1036E000F0B587B002930446002001920546C7B2A8
:1036F0007B1C029883422BD2009306950A25002654
:10370000204605912A46334608F056FD0490039161
:103710002A46069D334608F06FFD019A201A302193
:103720000143D155681C0921091B3146059B99416C
:10373000049C0399DAD3C0B216542806009B07D024
:10374000D05D915DD15590557F1E761CBE42F7D35A
:103750000298834202D3002007B0F0BD012007B0D9
:10376000F0BD000070B582B014460D462A2A10D96B
:103770000799069A78266E7030262E700092019175
:10378000A91C1A46FFF726FF002802D0012002B02C
:1037900070BD044979442846224608F08FFF002076
:1037A00002B070BD43A10000F0B583B0029314468F
:1037B0000E460746012907D13878302804D10298EF
:1037C00002283DD200256FE0089BB34222D2B11CF3
:1037D0000025029801918142294645D80020F11A1E
:1037E00004D03A5C2254401C8142FAD1002B02469C
:1037F00002D02E212154421CB042114632D2331A3B
:1038000038181146067866545B1E401C491C002B74
:10381000F8D127E0D91C0025029801918142294660
:1038200022D8991B2E2060703020207000290DD0E6
:10383000A01C3022009108F08DFD0098821C06E04B
:10384000002060703020207001252DE00222002E23
:10385000114607D01146387860547F1C761E491CEB
:10386000002EF8D1002060540298019B83421BD89F
:103870008A420ED2002303E0521C9142034609D033
:10388000002B104600D01846A35C302BF4D000204B
:10389000F2E700200125002806D000212154401E17
:1038A000225C2E2A00D12154284603B0F0BD00002E
:1038B00080B53C210D48415C4A1E022A06D2A42153
:1038C0000B48415C843007F079FC80BDC02906D1EB
:1038D000406BC221415CBA3007F070FC80BD0548E6
:1038E000784402F063FE0020014680BD20030020E2
:1038F00060030020FD9F000080B502F0EDF8002875
:1039000001D10148006880BD0802002070B514464E
:103910000D460646202108F00FFD7561B46170BDAB
:1039200070B514460D460646182108F005FDF560F1
:10393000346170BD80B5202108F0FEFC80BD80B5EB
:10394000182108F0F9FC80BDF0B581B01C46154681
:103950000E460746202108F0EFFC0698FE603D6108
:103960007C61B86101B0F0BDF0B587B002930392FD
:1039700001910646382108F0DFFC164D2C46A7348D
:10398000204600F029F80027002800D03C46B4600B
:103990004C35284600F020F82021019A7254002866
:1039A00000D03D46F560FFF783FF0591049004A821
:1039B000FFF7A2FF0146304610300B2208F07EFED2
:1039C0000D9830630C98F0620298B06203987062B0
:1039D00007B0F0BD18020020B0B501460078012202
:1039E000002810460FD1491C00231C465A2C03D333
:1039F00018465A2C03D106E001205A2C03D00D5D45
:103A0000641C002DF2D05040B0BD0000F0B581B074
:103A10000E460746E4212B48012500914554726962
:103A20002B4878440424214602F0C0FD2648017842
:103A3000032906D000293DD13846314600F056F81A
:103A400005E03846314600F09DF8002800D00027F8
:103A5000002F09D01D480078002805D01D48784463
:103A600002F0A4FD002522E0002F06D01A48784479
:103A700014213A4602F09AFD19E01848784402F001
:103A800095FD174878440F4F394602F08FFDFF200F
:103A90000230314600F0EAF80546032807D3114802
:103AA0007844394602F082FD00983C542546284669
:103AB00001B0F0BD0C48784402F078FD002004F01D
:103AC0005FFCC046B40500200F0200200D0200205C
:103AD000EF9E0000DD9E0000F19E0000019F0000AF
:103AE0000A9F0000009F00006A9E0000F0B581B0B0
:103AF0000F4606461D4C254644351422294608F03B
:103B000035FC002816D17A69107851780902081816
:103B10009178D3781B02591809040818A16D8842BE
:103B200014D11748784402F041FDE42004212154C7
:103B300001B0F0BD0E48784414242146324602F00C
:103B400035FD0C48784421462A460AE00A48784464
:103B50000425294602F02AFD5834084878442946AD
:103B6000224602F023FD002004F00AFCB4050020E8
:103B7000C69F0000CC9F0000DB9F0000E19F00007B
:103B800032A00000F0B587B0059106903648784421
:103B90000290406803F0ECF84142414100285DD0BA
:103BA0000646002425460EE0019D6D1CECB20399EB
:103BB000614302984018406803F0DAF80646414233
:103BC000414100284AD001950091182003900698A1
:103BD0000028E9D003984443029800190490007A21
:103BE0000028E1D0049F0837012405984569306812
:103BF00003F0BEF801784278120251188278C0783A
:103C0000000280180004401829786A7812025118BE
:103C1000AA78EB781B029A1812045118814208D135
:103C20000498006800280ED003F0A2F8804700280E
:103C300009D106980028B7D03878611C361D844217
:103C40000C46D2D3B0E704990931064C1E22204617
:103C500008F034FDE4200421215400990120884318
:103C600007B0F0BDB405002096A00000F0B595B0F7
:103C700005469E4814909E481390E4249D4E305D66
:103C8000022807D89D48784402F090FC9948005DCE
:103C900015B0F0BD0F46FF210C460434A54216DCDA
:103CA0000846023085422CD081204000854248D011
:103CB000A54200D0A1E001919148784402F076FC41
:103CC00013A8786014A838600120B87750E041202C
:103CD0008000854229D00846063085423DD08320A9
:103CE0004000854200D088E001918648784402F087
:103CF0005DFC13A8786014A83860314644311C205C
:103D000039E001918448784402F050FCA0203861E9
:103D100030464430F86013A8B86014A87860832057
:103D2000400038801C20314625E0019177487844D6
:103D300002F03CFC13A8786014A838600120787564
:103D400016E001917048784402F030FC13A87860C6
:103D500014A83860012038750AE001916C48784455
:103D600002F024FC13A8786014A83860012038778A
:103D700031464431082039505F48017800291FD06E
:103D8000032933D102940397644F7F44787A002843
:103D90005DD039460931574808F022FC00284BD045
:103DA0000126F4B2182060433918487A00284ED012
:103DB0000931504808F014FC761C0028F1D13CE091
:103DC00012971195109604AE304608F0EFFBB085BF
:103DD00000041AD004A8002181850E9804F00EFB7F
:103DE0004F487844434902F0E1FB15E04F487844DE
:103DF00002F0DCFB002015B0F0BD464878442946AF
:103E000002F0D4FB012015B0F0BD04A804F0F6FACE
:103E10000E9010A804F084FA0294039704F0E2FADA
:103E200004A9884202D10E9804F0E8FA04A8808D13
:103E300000280CD001F066FE0024182060433818DA
:103E4000406902F095FF024628460399904735489D
:103E50007844294602F0AAFB0126029A95420EDC1C
:103E600001980230854203991CD081204000854290
:103E70002CD0954231D1887F00282AD134E04120CE
:103E800080008542039C18D001980630854227D0D7
:103E9000832040008542304626D13420205C04280F
:103EA00021D0A7E74878411E02468A4104281146DE
:103EB00000D10146084615B0F0BD617D1A4878442E
:103EC00002F074FB607D002803D10DE0087D00281E
:103ED0000AD0042807D0062805D0304615B0F0BD1A
:103EE000207F042886D1042015B0F0BDA80700204B
:103EF00060030020B40500200F020020319D000067
:103F0000659D0000859D0000B99C0000089D000093
:103F1000F39C0000959C0000DD9C00009A9E000030
:103F2000C99C0000949C0000329C0000DB9C0000B7
:103F3000F0B5FFB090B00D4604460020A0614B489C
:103F40007844214602F032FB21694948784402F066
:103F50002DFB4848784402F029FB2069002837D01F
:103F6000A0680378591E09292DD89900227B521E7A
:103F70008A4228D102950393002B0AD0471C17AD23
:103F8000039E384600F080F801C5761E3F1D002EC6
:103F9000F7D117AF04AA3846039900F080F8064617
:103FA0003421384608F0DEF9002E2AD1212004A958
:103FB000202217ABFEF7C8F800280ED017A834212E
:103FC00008F0D0F91DE02F48784402F0EFFA1CE029
:103FD0002948784402F0EAFA17E004AF4C21384649
:103FE00008F0C0F9212017AE0125394632462B468C
:103FF000FEF7A4F807463421304608F0B3F9002F45
:1040000006D004A84C2108F0ADF97FB010B0F0BD87
:104010000299086949690090019104A817A924AA86
:10402000FFF7AFFA0028C9D004A84C2108F09AF98C
:10403000216908784A78120210180B4A904200D180
:10404000891C17A808F0CCFA002804D00B48784443
:1040500002F0ACFA04E00A48784402F0A7FAA5613D
:1040600017A83421CFE7C046307800000C9F00002D
:104070001A9F0000279F0000C69E0000619E00005E
:104080006E9E00004F8F00000178090642781204EE
:104090005118827812028918C0780818704780B5C4
:1040A00000F001F880BDF0B591B014460D4606460B
:1040B00005AF384608F07AFAB88587B2002F0AD0E3
:1040C00005A8002181850F9804F098F94021204629
:1040D00008F048F90EE005A804F090F90F900027C9
:1040E00000940197029703972121384632462B46C8
:1040F00004F0D8F804F076F905A9884202D10F98A7
:1041000004F07CF905A8808D002802D1384611B052
:10411000F0BD01F0F7FC0000F0B587B00F46054692
:1041200004460E3432262046314608F005F9297B34
:10413000212905D31D48784402F038FA07B0F0BDB4
:10414000687B002812D00A21384608F00DFBC2B265
:10415000029603AE30463946174608F0F3F80020C1
:10416000F055029E06A81221017007E029792868FF
:1041700003AA06AB07F021F9002810D006A80278A0
:10418000297BA8680094019603AB07F0D2F80028B9
:1041900009D13221204608F0CFF807B0F0BD04481D
:1041A000784402F003FA07B0F0BDC046A19D0000BC
:1041B0006F9D0000F0B5B9B00D46044607AEC821AA
:1041C000304608F0B9F8A1692B22304608F076FA9B
:1041D0002A20305C0026002842D1207B20283FD8AE
:1041E000207D08283CD82179206803AA06AB07F077
:1041F000E4F800282FD006A80278217BA0684F237E
:10420000019307AB2B33009303AB07F092F8002622
:10421000002825D003AF0B223846294608F04EFA75
:1042200006A8122202702069217D3223019307AB78
:104230007A3300933B4607F07CF8002810D001F059
:104240007DFC203408480460084807A9C82208F00B
:1042500079F8012604E00648784402F0A7F9002620
:10426000304639B0F0BDC04604020020DC06002014
:10427000B79C000002490968087004F05FF8C04666
:104280000402002082B01449086000F0C7FD134802
:104290000021017012480124047001F03FFD114813
:1042A000784402F065FDC078012809D0200601900D
:1042B0000D48784402F05CFD01A9042203F0BCFF24
:1042C0000A48784402F072F9002006F0C3FE01208B
:1042D00006F0C0FE01F008F8080200200E020020DF
:1042E0000D0200209CC500008AC50000699C0000EA
:1042F00010B50449083104483024224608F022F859
:10430000204610BD1802002050090020B0B5104C06
:1043100041222270601C0F4D2946083108F012F826
:104320004220282222542046433029464C3108F0AE
:1043300009F89520285C002808D06B3475352022B8
:104340002046294607F0FEFF8B20B0BD6B20B0BD94
:10435000500900201802002028200549054A135C56
:104360000B70491C401E0828F9D120207047C04618
:10437000500900201802002010B500228B5C002B91
:1043800003D1521C082AF9D10822082A06D100219B
:104390008170302141700170022010BD89180823FE
:1043A0009C1A224606F0F2FE600010BDF0B58DB0FA
:1043B00004463C20205C002601280AD002280DD0AB
:1043C000C02829D1217808290BD0022806D001283D
:1043D00022D12178092904D002281DD120780A2869
:1043E0001AD1A068002817D0616BC32201278F540F
:1043F000042811D3B920874D285C00280CD0E06830
:1044000000284CD1A06A03280AD88548784402F0D5
:10441000CDF80320002540E03046C0B20DB0F0BD1D
:104420000497E4277C4901200390C8557D487844CF
:1044300002F09EFC407800280CD1A268616A05A8B1
:104440000290FFF763FAA53528460299FFF7DEFAD6
:104450007149C855704DE95D7348784402F0A6F87B
:10446000E85D002812D00328049F0DD32946402080
:1044700000250D54CD87042220462946FEF7CCFAAC
:10448000A0680428284608D0039D06E067487844C1
:1044900002F08CF803200025049F002DBDD0E568B4
:1044A0006348784402F064FC002D10D040785A49EB
:1044B000002804D1E420085C03283046ADD30497DB
:1044C0004020085C1F2101402020401A11E00078A4
:1044D00000285FD05848784402F04AFC4078002811
:1044E00030469AD0049740204B4900220A54CA878C
:1044F0000420A168491B814200D301460195A66AA8
:104500008E42029600D30E460391E1684B487844F0
:10451000324602F04BF840273F4DE85D29181E3126
:1045200020463246FEF778FAA068E168814208D159
:104530004348784402F03AF8002060742078401C28
:104540002070E85D8019E85503980299884201D9E6
:10455000049862E7E420285C032823D3E88F2C46E4
:104560001E344001021D05AE30462146FFF7D8F942
:10457000812040003146FFF779FB002837D000202A
:10458000E855E88F401CE8872021204607F0D4FE3C
:10459000049842E72748784402F008F8FDF77AFCCF
:1045A00003203AE70198002827D00024EC55E88F33
:1045B000411CE987194E304664308BB22821224ACB
:1045C0007A4402F0B7F9274602E00834202C0BD0D9
:1045D000F01929191E31FFF7CFFEC719182CF4D096
:1045E0003A20F0557F1CF0E7FDF7DCFC0FE01548A2
:1045F000784401F0DBFF03200FE70020E8551E356B
:1046000006480422294606F0C1FDFDF7C1FC022040
:1046100003E7C04660030020B4050020DC0600204C
:10462000319B00000EC40000FE9A0000DB9A0000DF
:104630009AC30000E199000066C300007F9A000061
:104640007B9A0000D19900001F9A000010B5044623
:1046500000F0E4FBD520C001002C04D100F00EFCDA
:10466000FDF706FC10BD01F04DFA000010B582B058
:1046700001AC214600F01EF82178012001400B4AD0
:104680001278002A06D0002904D0002004F0BCFCD7
:1046900002B010BD002901D0002003E00102422237
:1046A000034B995205F01EF802B010BD0D02002018
:1046B000B4050020F0B5A3B00C460590FFF7F8F85C
:1046C0001591149014A8FFF717F904900126069489
:1046D0002670DF48006801694069714001431CD0C1
:1046E000FFF7E6F80246DA48036818695B691C467A
:1046F0004C400546554025430FD000900193DB48C0
:1047000078440B4601F052FF00F088FB059C2046E0
:10471000FFF79CFF002C00D1D4E000F0D5F9E42095
:10472000CC49085C032866D30CAC2046FFF702F99D
:1047300000250B950A9509950895079507AF38460A
:1047400000F0DCF91297FF27043738462146FFF7BF
:104750008DFA002809D1C648784401F027FF059C4E
:104760002046FFF773FF002C62D016A8FFF7E7F88A
:104770000F9A002A56D0BF487844142101F016FF42
:104780000F9800F0DBFB1990002805D0014614318A
:10479000B948784401F00AFF109A002A10D0B748AF
:1047A0007844142101F002FF109800F0C7FB1A9022
:1047B000002805D001461431B148784401F0F6FED6
:1047C000781C16A9FFF752FA022809D8AD48784498
:1047D00001F0ECFE059C2046FFF738FF002C2BD0A3
:1047E00016A8407D0CA988770CA8807F1222062885
:1047F00004D1039263E01220039065E00CA8017FCE
:1048000001291DD002294DD1039206980570C320BD
:1048100091490D540CA8407F1B99081841218D4ADD
:1048200050544CE010980028DED0002AA3D1B3E702
:1048300001241220039043E01220039034463FE00D
:104840000392012406980470C320834F3D541198AD
:10485000002802D0129800280AD18B48784401F031
:10486000A5FE059F3846FFF7F1FE002F7A4FE0D0F6
:104870001199384642302024224607F067FD622015
:104880003C5412993846A5301424224607F05EFDA8
:10489000B9203C541998002811D0C17F03911430DD
:1048A00004900CE07948784401F080FE059C204695
:1048B000FFF7CCFE12200390002C344600D02C468B
:1048C000002C01D023B0F0BD644F387800280CD004
:1048D00063490A78002A00D0A4E00E70002804D0B2
:1048E00006980078002800D1AAE0C3205A4C205C2A
:1048F00000280ED06748784402F03AFA0078002881
:1049000007D1059D2846FFF7A1FEFDF7C3FA002D4C
:10491000D8D006980078002846D0B920205C4C49B1
:1049200009680A694B6916A900F02AF93878002845
:1049300007D016A800F048F9002807D05648784458
:1049400080E0494816A92B2207F0B8FE5348784466
:10495000454D294601F02AFE6220215C322001905B
:1049600016A8009042342046039A049B06F0E1FC0E
:1049700000285ED0387800280AD02C462B3416A99F
:10498000204607F02DFE002808D0454878441BE05B
:1049900028462B3016A94F2207F090FE2B354348AE
:1049A0007844294601F002FE16A800F02FF9387865
:1049B000002818D02C4C7A3416A9204607F010FE97
:1049C000002816D03A48784401F0F0FD3548784484
:1049D000214601F0EBFD3448784416A901F0E6FDCC
:1049E000204801F08FF820487A3016A9322207F0CB
:1049F00065FE1D4C21467A312E48784401F0D6FDE3
:104A000000F050F92146AC312B48784401F0CEFD3E
:104A100000F060F9B43429487844214601F0C6FD1D
:104A200023B0F0BD2648784401F0C0FDFF2003F01C
:104A3000A7FC2448784401F0B9FD072001F062F892
:104A40001348784401F0B2FD064801F05BF8C04617
:104A500008020020B4050020600300200D020020A1
:104A60000E02002001600000DC060020E898000033
:104A7000B0980000AD980000A2980000A798000030
:104A80009C9800009B9800002F9800000D98000053
:104A9000B896000046BF0000EE9700001298000094
:104AA0000E980000FF970000029800004798000051
:104AB00037980000349800003898000035980000BE
:104AC000A79600004397000080B582B02020019097
:104AD000084A2C320092084801210023FDF74CFBC4
:104AE000002804D10448FDF741FB02B080BD01F06D
:104AF00009F8C04618020020A8070020F0B5A7B0AA
:104B000001900024269425942494239422942194A3
:104B100020941F9415AE28273046394607F00CFC28
:104B200002AD4C21284607F007FC13480278009498
:104B3000011D21201FAC234603F0A4FB2046314673
:104B400000F0ECF82846314600F0F4F830463946DB
:104B500007F008FC2021204607F004FC074A2846FD
:104B60000199FEF7E8FC002801D027B0F0BD7720BE
:104B7000C04300F0C7FFC04618020020A80700206D
:104B800080B582B000280BD0009201930B48A5306D
:104B900032220B4BFEF7E6FD00280AD002B080BDA2
:104BA000084B7B4432220846194607F087FD02B0C5
:104BB00080BD3520400200F0A5FFC0466003002004
:104BC000A80700204CA2000070B50E490E4A7A4496
:104BD000521C0378D45C03252C40022C00D1203BCE
:104BE0000C78165D2E402546022E00D1203D9D42B8
:104BF00005D1491C401C002CEBD1002070BDE81AE7
:104C000070BDC046DC060020C67B0000F0B59BB03E
:104C100001900020199018901790169015901490FC
:104C200013901290119010900F900E900D900C9088
:104C30000B900A90099008900790069005900490B8
:104C4000039002902027144DE95D144878442A46C9
:104C500001F0ACFC4124295D2E46213610487844F1
:104C6000324601F0A3FCE95D12AF28463A4606F051
:104C7000BFFA295D0AAD30462A4606F0B9FA02AEFF
:104C800038462946324605F040F93046019900F091
:104C90005DF81BB0F0BDC046600300200E9600001A
:104CA0000C96000010B588B083210848415C633041
:104CB0006C46224606F09CFA054AAC320A210823CB
:104CC000204605F0EBF908B010BDC0466003002097
:104CD000DC06002080B582B0FEF7EAFD019100906D
:104CE000684600F0DAFE002806D001460948B430D4
:104CF000142207F0E3FC08E001990098054AB43259
:104D00001423FEF7EDFC002801D002B080BD02485C
:104D100000F0F8FEDC0600200265000080B50B46BE
:104D2000014621202022FDF70FFA002800D180BD86
:104D300000F0E8FE80B50A46014621200123FDF778
:104D4000FDF9002800D180BD00F0DCFEF0B587B091
:104D50000C460290FEF7ACFD0591049004A8FEF706
:104D6000CBFD0390254D2E4664360A216427029818
:104D700032463B4605F092F9E85D7F1C0028FBD1E6
:104D800012200090653F6423304639462A46FEF7DC
:104D90000BFD32262046314607F0CEFA0398027802
:104DA000002A0AD0411C0023E254581C302B05D89D
:104DB000CA5C002A0346F7D100E00020C1B23129C5
:104DC00002D820212154401C2A78C0B20021002A98
:104DD0000CD032280B4600D8331A26188B4205D047
:104DE00072546A185278491C002AF7D108183128E1
:104DF00001D80021215407B0F0BDC0465009002061
:104E000010B50449083104484124224607F09AFAB3
:104E1000204610BD180200205009002080B50E4821
:104E2000002101700D4801700D4801700D480322EA
:104E300002700D4801700D4801602120C1000C482E
:104E400007F07AFA0B48402107F076FA0A48C421A5
:104E500007F072FA80BDC0460D0200200C0200204F
:104E60000E0200200F020020100200201402002079
:104E700018020020200300206003002080B50449B0
:104E80004870000A08702020022101F065F880BDFA
:104E900050090020F0B581B004461648401C40215E
:104EA00007F04AFAE078212801D0042700E005271E
:104EB000E119202521282E4600D006460D48801BEA
:104EC0002130324607F042FAB81C8119C8B20019E5
:104ED000401E0078212800D1491CC9B26118212840
:104EE00000D005460348401B41302A4607F02EFA01
:104EF00001B0F0BD50090020B0B50546072028409C
:104F00000024012813D0022813D1002908D00A4810
:104F100003F042FA28060AD503F082F92046B0BD14
:104F2000FF2152310448002203F04EFA0446204685
:104F3000B0BD022000F0E6FD50090020F0B581B0C0
:104F40000090B520C74300240F4D03E05B37641C7D
:104F5000002F14D0291981204000095C0029F5D0C8
:104F6000E9190E1814223046009907F0FFF90028BD
:104F7000ECD106487844214601F018FB00E00026F9
:104F8000304601B0F0BDC046180200200693000074
:104F9000F0B581B000920D460978002911D0017852
:104FA000009A1170491E0A2902D3164878440AE073
:104FB0002978491E2970C9B2009A1278920091424C
:104FC00007D20F48784401F0F1FA0026304601B0CC
:104FD000F0BD461C009800780028F7D00098071D07
:104FE00000240021304600F00FF801C72878001F88
:104FF0002870641C361D009800788442F1D3E5E7E0
:10500000477E0000E7920000425C1206401841789B
:1050100009048918827812028918C0780818704724
:10502000F0B58FB00C46054603AF384607F0BEFA20
:105030000646B88580B200281FD0052800D123E19C
:10504000354603A8002181850D9803F0D7F9A348C0
:105050000078411E8841A2490F7807400F200003C5
:10506000304009210903884205D0032149038842C1
:1050700036D1FFF7D3FE300A37E003A803F0BEF9BC
:105080000D90944A1078E02813D0F02800D00DE15C
:105090005078072844DC022874D0042800D010E19E
:1050A0001379D178907800950194521DFCF742FA5B
:1050B00079E050780B2841DD112852DC0C2800D112
:1050C000BEE00E2800D181E0102800D0F9E013796D
:1050D000D178907800950194521DFBF705FB10E004
:1050E000FFF79CFE7005400F68302168794A5054E4
:1050F0002068801845702068801C2060002F00D038
:10510000CBE003F06FF903A9884202D10D9803F0B8
:1051100075F903A8808D002800D0B3E00FB0F0BD72
:10512000082838D00A2800D0CBE01379D1789078BD
:1051300000950194521DFCF73FFD34E0052837DD52
:10514000062800D18CE008284ED00A2800D0B8E00C
:105150001379D178907800950194521DFBF716FAD7
:10516000CFE7122800D184E0162852D0182800D0AA
:10517000A7E01379D178907800950194521DFBF740
:1051800017F9BEE71379D178907800950194521DF4
:10519000FCF7C2F807E01379D17890780095019474
:1051A000521DFCF731F90D9803F028F90FB0F0BD4E
:1051B000022837D0042800D083E01379D178907882
:1051C00000950194521DFBF7C1FF9AE78120400032
:1051D000414900230B521379D178907800950194BE
:1051E000521DFAF7AFFF8CE7812040003A490023B7
:1051F0000B5228681021014329601379D1789078E7
:10520000521DFBF75DFD002800D07AE7FFF706FE90
:1052100077E71379D178907800950194521DFBF7C8
:1052200065FB6EE7812040002B4900230B52137968
:10523000D178907800950194521DFAF7C3FF60E78A
:10524000D178002941D181204000234B00261E52F5
:105250001379907800950194521DFBF739FF50E7C0
:105260001379D178907800950194521DFAF7CEFE0B
:1052700047E71379D178907800950194521DFBF798
:1052800057FA3EE700F03EFC03A8002181850D9807
:1052900003F0B4F8052000F035FC81B2202000F0C6
:1052A0005BFE002806D10020FEF7E4FF3720400215
:1052B00000F028FC0B48784401F078F9FF2003F057
:1052C0005FF86D20000200F01DFC6B20000200F072
:1052D00019FCC04650090020180200200D020020D1
:1052E0000E020020EC8F00008EB000260D960C966A
:1052F00003E06846808D002855D16D46284607F0AA
:1053000055F9A88585B2002D23D0052D4DD0044632
:10531000684686850A9803F071F80F200003204044
:1053200009210F03B84205D003214903884232D135
:10533000FFF774FD200ABD4203D010210C9A8A4366
:105340000C920D99204A505450184470881C0D90AE
:1053500018E0684603F052F80A900DA801880D96EF
:105360000CA8007800F0F8FD0C96002825D0052840
:1053700004D315490979491D814221D10CA80DA9F1
:10538000FFF74EFE03F02EF869468842B1D10A9825
:1053900003F034F8ADE7FFF741FD6005400F6830DA
:1053A000BD42CAD1CDE700F0ADFB684686850A98BC
:1053B00003F024F8052000F0A5FB044800F0A2FB50
:1053C0000248401C00F09EFB50090020826900004A
:1053D00080B500F017FD80BDF0B581B0F84D28789C
:1053E0000C2813DD0D2868D00E2800D1ADE015285B
:1053F00012D1F448807901280ED1F1480321FFF73A
:1054000003FE000708D4052000F07CFB052800D12E
:10541000BEE00C2800D145E2EB4C0027676001207C
:105420002070204602F06EFF042002F0F5FF60605D
:10543000692800D0D4E000F089FC00F089FCC22586
:10544000FD4E7753042002F0E7FF6060002800D192
:1054500028E2972800D125E2C42404E0FFF7B8FF32
:10546000705B401C70533059002800D11AE2C820EC
:10547000305C715B814200D314E202F099FF002896
:1054800000D00FE202F0F0FEAA2804D102F02CFFB7
:10549000AA2800D006E23059715B49014018D0219A
:1054A0007158002902D088470028D9D00128D5D1C9
:1054B0003059715B49014018D0E7C34C0027676041
:1054C00001202070204602F01DFF042002F0A4FFFE
:1054D0006060002800D1E5E1692800D15FE19728EC
:1054E00000D1DFE1C425F84C04E0FFF771FFA05BB9
:1054F000401CA0536059002800D1CBE1C820205C9B
:10550000C226A15B814200D3C4E102F051FF002812
:1055100000D0BFE102F0A8FEAA2804D102F0E4FE08
:10552000AA2800D0B6E16059A15B49014018D021FA
:105530006158002902D088470028D8D00128D4D14A
:105540006059A15B49014018CFE7DE4D00266E602F
:1055500001202870284602F0D5FE042002F05CFFEE
:105560006860692800D09DE000F0F0FB00F0F0FBDF
:10557000C224D54E00203053042002F04DFF686055
:10558000002800D18EE1972800D18BE1C4255FE08F
:10559000CC4C0027676001202070204602F0B2FE4C
:1055A000042002F039FF6060002800D17AE19728DA
:1055B00000D177E1692800D033E100F0C7FB00F0AB
:1055C000C7FBC225C04E7753042002F025FF606060
:1055D000002800D166E1972800D163E1C424B4E03B
:1055E000C425B94C04E0FFF7F3FEA05B401CA053B8
:1055F0006059002800D14DE1C820205CC226A15B83
:10560000814200D346E102F0D3FE002800D041E100
:1056100002F02AFEAA2804D102F066FEAA2800D0D1
:1056200038E16059A15B49014018D0216158002937
:1056300002D088470028D8D00128D4D16059A15B76
:1056400049014018CFE7FFF7C3FE305B401C3053E1
:105650007059002800D125E1C820305C315B8142BF
:1056600000D31FE102F0A4FE002800D01AE102F0EE
:10567000FBFDAA2804D102F037FEAA2800D011E1D0
:105680007059315B49014018D0217158002902D06E
:1056900088470028D9D00128D5D17059315B4901FC
:1056A0004018D0E70446DC20874D295800290FD048
:1056B0000A46643A00D232462A50642908D8D821D2
:1056C0006958002904D0E022AA582A5000208847AF
:1056D000002C00D1E6E0972C00D1E3E0C42404E0E4
:1056E000FFF776FEA85B401CA8532859002800D17C
:1056F000E1E0C820285CC226A95B814200D3DAE041
:1057000002F056FE002800D0D5E002F0ADFDAA2838
:1057100004D102F0E9FDAA2800D0CCE02859A95B09
:1057200049014018D0216958002902D08847002833
:10573000D8D00128D4D12859A95B49014018CFE716
:10574000FFF746FE705B401C70533059002800D1B3
:10575000A8E0C820305C715B814200D3A2E002F077
:1057600027FE002800D09DE002F07EFDAA2804D18B
:1057700002F0BAFDAA2800D094E03059715B4901CB
:105780004018D0217158002902D088470028D9D06C
:105790000128D5D13059715B49014018D0E700F09C
:1057A000D5FA00F0D5FAC225474E7753042002F00F
:1057B00033FE6060002875D0972873D0C4240AE0B7
:1057C00024040020A40A0020A4040020FFF700FE07
:1057D000705B401C70533059002863D0C820305C87
:1057E000715B81425ED202F0E3FD00285AD102F0E3
:1057F0003BFDAA2803D102F077FDAA2852D13059E7
:10580000715B49014018D0217158002902D08847A6
:105810000028DDD00128D9D13059715B49014018E9
:10582000D4E7D420284C2058002803D0E978490830
:1058300000F032FBC42506E0AC040020FFF7C8FDF1
:10584000A05B401CA0536059002823D0C820205CD6
:10585000C226A15B81421DD202F0AAFD002819D107
:1058600002F002FDAA2803D102F03EFDAA2811D1C0
:105870006059A15B49014018D0216158002902D02C
:1058800088470028DCD00128D8D16059A15B4901A4
:105890004018D3E7C820205CC221615A814201D35D
:1058A00002F086FD02F084FD002801D100F052F9DB
:1058B000012001B0F0BDC820285CC221695A814294
:1058C000EED2EFE7A4040020AC04002010B58CB0A9
:1058D0006C46204606F06AFEA08500040DD002F05A
:1058E00081FD6946884202D10A9802F087FD684628
:1058F000808D002808D10CB010BD684602F07EFDF6
:105900000A90FF2002F03CFD00F0FCF80021C1707D
:105910004822827054224270452202700122416066
:105920008160C160026141617047000070B594B050
:10593000002804D08068002801D02C4908602B4D35
:105940002868002804D10EAC2046FFF7DFFF2C604A
:10595000FFF764FA41208000254900260E54254CAB
:105960002120C100204606F0E7FC02AD284606F0E3
:105970001DFEA88580B2052808D102A886850C984E
:1059800002F03CFD0C9802F039FDE9E700280BD04D
:1059900002A886850C9802F031FD0C9802F02EFDCD
:1059A000FFF794FF14B070BD02A802F027FD0C9021
:1059B00000F0B4F91048784401F0DAF9C078002812
:1059C0000AD10120000601900C48784401F0D0F97A
:1059D00001A9042202F030FC002005F03BFB01206D
:1059E00005F038FBFCF744FAFFF77EFC08020020C4
:1059F00018020020AC04002086AE000072AE000049
:105A000086B004468068002804D16D462846FFF71A
:105A10007DFFA5601148784400F0C8FD6068022849
:105A20000FD0042807D0032809D1A168E068FEF749
:105A30007FFA02F083FCA168E068FEF76DFB02F0DC
:105A40007DFCA168E068FEF7B5FB002802D0A068E5
:105A5000FEF718FCFF2002F093FCC0469B88000074
:105A600010B5044662B600F048F8002C09D00120B9
:105A700000022168814209D1606801280AD12046CC
:105A800000E00020FFF752FF002010BDFFF71EFFCF
:105A9000002010BD2046FFF7B3FF80B500F008F8E6
:105AA000002803D0006801F063F980BD002080BDAC
:105AB000B0B506C80748784441238468C568554096
:105AC0004C402C4304D05B1E1030002BF5D100203D
:105AD000B0BDC0463EA9000080B5FFF7E9FF002831
