:02000004C0DE5C
:1000000080B50BF0C3F8002080BDD4D4F0B597B014
:100010000F9315460F46044601787F200D91084046
:10002000002115900528109111910A460E4616914F
:100030000B461395149700D1B4E0208B00F0A4FA7E
:1000400000286CD02189827900201690002F119110
:100050006DD0002D6BD00E92208BE1880F9A00920C
:10006000EBB2643189B23A4600F0B4FA0026052DAD
:100070000C94129660D3E1881090884260D9208B4E
:100080000F9900916421D44A7A44032300F0A2FA24
:100090000A90690820467C181691002952D0C18820
:1000A000109F8F424FD916982A1A4CD00020149EC8
:1000B0000C9D0B921090288B0F9F009789B2169A77
:1000C000D3B2324600F086FA0646E988288B0097BC
:1000D0000B9AD3B2224600F07DFA0A9971180F18D4
:1000E000E888874208D91099012908D0002907D14A
:1000F0001698401E169003E01098149E03E0641CAE
:10010000149E0120884316990029139B1BD00C993B
:10011000C9888F4217D9321BD218CAD113E00020E8
:100120001090119002460646169003463AE0169843
:1001300010900646034635E016953446074602E021
:1001400016953446109F1094032293030C9C208B29
:1001500003400121CD03AB420AD08D03AB42129E76
:1001600033460DD1E388DD1BEB179D432B4607E09B
:100170007B08E5886D08ED1AEB179D432B46129E10
:10018000120310404A03904206D0090388420E9A97
:1001900008D12089861A05E00E9A5008C0432189AB
:1001A00049080E180F930E921296E3885808258975
:1001B00069088842024600D30A46E67AB2423246CD
:1001C000159F04D8884201D2024600E00A46781EF4
:1001D00004280DD2042F10D1002E0ED10420225E4F
:1001E0000220215E206900950EF054FC17B0F0BD8E
:1001F000062F3DD0072FEDD0C2E00D98812805DCF9
:100200000228119E08D0072806D0BBE08728119E3F
:1002100002D0822800D0B5E0072F00D02E46022061
:10022000215E0420225E60690096072F01D10E9D99
:10023000521B139D0EF02EFC002D00D1A0E014984F
:10024000002800D19CE0042F00D199E07D200D9979
:10025000014022696069012923D1217B01291346CC
:1002600000D00346012900D0104611930D901AE0EA
:100270000420205E82190220205E81192069257BDE
:100280000023012D03D0A57AAE4200D9731B646907
:10029000FF25009501930294334600F0D1FA17B080
:1002A000F0BD0D9211900220205E0B9004200C9066
:1002B000225E208BE38827890025149E0396169ED4
:1002C00004960595159E072E129E00D035467F1B7D
:1002D0000F995B1A01930297159B072B01D10E9B77
:1002E0005E421296B21800920F990B9A8B180D9ECF
:1002F0003146119F3A4600F081F9014610980028D6
:100300003ED011970C98225E208B1590E3880D96B5
:1003100020890E910021169103270B97994F7F4456
:100320000A97471B0F981B1A1298821800A88CC0B6
:100330000A9803900B98049005910E9883B2159833
:100340003146119A00F05AF90C99625E218BE388CC
:100350002489139E149FF619109FF61B641B0F9D92
:100360005B1B129DAA1800AD9CC50496169A0592B7
:1003700083B208460D99119A00F040F917B0F0BD0C
:1003800017B0F0BD1192207B012827D104200C90DA
:10039000225E0227E15F20690095119E71187500A9
:1003A0005B1B0EF077FBE15F0C98225E2089431BFC
:1003B00020690093B21833460EF06CFBE15F0C9895
:1003C000225E2089431B2069E5880093B218891BAF
:1003D0004919334667E0C046E666010004200B90E9
:1003E000225E02200C90215E60690095119E7118BA
:1003F0007700DB1B0EF04EFB0C9D615F0B98225EBD
:100400002089C31B60690093B21833460EF042FB8B
:10041000615F0B9D625F20890A97C31B6069099029
:10042000E0880093B218F343C918091809983346B5
:100430000EF030FB605F09900C9D615F2269E388DC
:10044000A07A00907118DB1B1046099A0EF022FB6F
:100450000B9FE05F0990615F206908902289E38823
:10046000A07A009071180A9D5B1B09988018421EA3
:1004700008980EF00FFB0C98215EE25F2089471B65
:10048000A37A20690097B2180EF004FB0C98215E45
:100490000B98225E2089451BA37A2069E788009586
:1004A000B218C919491E0EF0F5FA022E139D159FB8
:1004B00000D2C1E6207B012802D0A07A351A00D2F2
:1004C00000250420225E06460A9002200C90215E40
:1004D00020696369C0270097019502932F46119DFB
:1004E0006918AA182B4600F0ABF9A05F09900C9E82
:1004F000A05F0790206908906369E188A07A3022A4
:1005000000920B97019702932818079A5118091A1D
:1005100009982A1808982B4600F092F9A05F0990D4
:100520000A9EA05F07902069089063692289A07ADB
:100530000C210091019702932818079989180A1A2B
:100540000998291808982B4600F07AF9A05F0A90BC
:100550000C98215E20690C9063692089E688A77A4F
:10056000032200920B9A01920293EA198919891ABF
:100570000A9B9A1A12180C982B4600F061F9139DE9
:10058000159F59E650640100F0B581B00E4D05404D
:100590000E487844016888000D4A7A448018001F8C
:1005A0004E1C761E0DD0071F046820460CF010FD6F
:1005B0000068A8423846F4D120460CF009FD01B08D
:1005C000F0BD002001B0F0BDFF0F000092800100DF
:1005D0007E80010010B586B0002405940493039238
:1005E00002940191044B00932146224600F006F844
:1005F00080B206B010BDC04639300000F0B5A9B0D9
:100600001A91059219928D492E9A15924A40089393
:10061000594011434A424A411392002900D108919E
:10062000002900D11591FFF7AFFF002800D1F4E0B9
:100630000646329A319B30982F99159C20180790C6
:10064000089841181291317901240F9410918C402F
:100650000694189011960CE0B818E1B24018189062
:100660000F98119E169A179B521E5B1C002800D1F2
:10067000E0E0002A00D1D2E0308977791C7884420A
:100680001692179302D37189A14216D2A0090328AA
:1006900003D33F200440002506E060B2002100287B
:1006A00000D582E00D460C46159A129E10981497BC
:1006B00078436043002739463FE01497201A8400AE
:1006C00030690CF085FC0E90F0680CF081FC00198C
:1006D00040880D90F0680CF07BFC00590B90F0689E
:1006E0000CF076FC00590C90F0680CF071FC0721BE
:1006F000715600594005400F4718F0680CF068FC2F
:1007000000590A900F250B980540B0790B90F068BE
:100710000CF05EFC00594005400F2C1A0E980D9904
:1007200045180C98010AF82008400A990906090F93
:100730000B9A891A0931159A129E139B002B0AD025
:10074000012E189A88DBB818E1B24018B04283DD58
:100750000020099285E7189BFB18E4B21B19B342ED
:1007600010DD159B0C33149A15939A185218079B99
:100770009A421EDD189880B215990904081809904C
:1007800000206EE7189E002D17D00395109B029352
:1007900019AB0193069B009380B20490F019511895
:1007A0002246149B0EF05EF90EE0A00613D50F2032
:1007B00012E0089E159A002DE7D114980090059834
:1007C000314623460EF066F9169A3819861918969E
:1007D0000F98119E47E70E20FFF7D6FE002819D08C
:1007E000074600690CF0F4FB0546F8680CF0F0FBD6
:1007F000E1064C0E001940882D18F8680CF0E8FB53
:1008000000590F240440B07915990818B979421A93
:100810007F794AE70024254646E7002009E013983F
:10082000002801D0189804E0189880B2159909049E
:1008300008180990099829B0F0BDC0463930000069
:10084000F0B59DB01C92189106462398411E0246B1
:100850008A411A921493191A1391002901DC00217C
:1008600000E00121149A002A00D594E11A9A0A4066
:100870001A92249911912299149FC21B03928022EB
:100880000A400D9240220A400C9220220A400B920C
:100890000123139A9C1A069410240C400A940824ED
:1008A0000C40099404240C40089402240C40079442
:1008B00019400E911B93DD1B18994018C01B059021
:1008C000401C04900024E0431990501E0F90159492
:1008D00012960AE0510069184D1C641E1799814256
:1008E00019911497074600DB55E10E9800281694DD
:1008F00024D01A98002817D01B9C00940F983B1AFC
:100900001C9819994018421C17921198189E31464C
:100910000EF0C0F80094169CB819129E0699411862
:100920003046179A139B07E01B9800901C98199962
:100930004218304618993B460EF0ACF81998401C06
:1009400017900798002826D01A98002819D01498D4
:10095000B8420BD01B9800901C983A18039819992C
:100960004018831C119818990EF094F81B98009069
:100970001C983A18059819994018811C3046139B09
:1009800007E01B9800901C983818421E30461899B2
:10099000179B0EF07FF80898002825D01898C41BE4
:1009A0001A98002815D010951B9D00950F9EBB1B13
:1009B0001C9819994018421C0292119821460EF079
:1009C00069F80095109DA11B1298029A129E139B24
:1009D00007E01B9800901C98199942183046214650
:1009E0003B460EF057F8169C0998002826D01A9816
:1009F000002818D01498B8420CD01B980090189872
:100A000001191C983A180398199BC018831C119857
:100A10000EF040F81B980090049801191C983A18A1
:100A20003046139B08E01B980090189801191C98F9
:100A30003818421E3046179B0EF02CF80A980028F2
:100A400022D01C9804191A98002814D010951B9DC8
:100A500000950F983B1A1198189E314622460EF0C9
:100A600019F80095109DB819129E06994118304644
:100A70002246139B05E01B980090304618992246A9
:100A80003B460EF007F8169C0B98002825D01A98C4
:100A9000002819D01498B8420BD01B9800901C98CD
:100AA000C21B039819994018831C119818990DF0CE
:100AB000F1FF1B9800901C98C21B059819994018CB
:100AC000811C3046139B06E01B9800901C98C21BAB
:100AD00030461899179B0DF0DDFF0C98002823D0A5
:100AE0001C9804191898C61B1A98002812D0109543
:100AF0001B9D00950F983B1A1198314622460DF028
:100B0000C9FF0095109D0F98311A129E304622465B
:100B1000139B06E01B980090129831460646224629
:100B20003B460DF0B7FF169C0D98002825D01A986B
:100B3000002818D01498B8420CD01B980090189830
:100B400001191C98C21B0398199BC018831C11988B
:100B50000DF0A0FF1B980090049801191C98C21B6F
:100B60003046139B07E01B980090189801191C98B9
:100B7000C21B3046179B0DF08DFF791E012D3846A4
:100B800000DB0846159A521C012D159200DAA1E6E9
:100B9000159A521A9EE61DB0F0BDF0B589B08E6868
:100BA000022E20D80C460421415E08910221405EAD
:100BB00005902068069060680790E0680CF008FADD
:100BC0000546A76820690CF003FA0ECC0124B44056
:100BD0004B43534300A9B0C103900493089905AB5C
:100BE0000DCB0DF03FFF09B0F0BDD4D470B588B087
:100BF00001AE0024347002AD1822284621460BF0C5
:100C00001FFE0120079006960648029028462146BE
:100C100007F0C8FF002801D4019800E0E043C0B20B
:100C200008B070BD3F008100F0B5CFB0150A04AC2C
:100C30002571E2700A0AA2706170559DE5715499A0
:100C4000A1716371207003A90291002001900870C6
:100C500027460837569938462A460BF0EBFD579E33
:100C60007E557819471C5899384632460BF0E2FDFC
:100C70005998B855B9195A9A130ACB708A70000A54
:100C8000487049A800901822019F39460BF0D8FD02
:100C900001204E9002984D90A8190D304C904B9425
:100CA000064849900098394607F07CFF002801D497
:100CB000039800E0F843C0B24FB0F0BD3F0083009E
:100CC000F0B5CDB002AE307001AF00243C7047AD3E
:100CD0001822284621460BF0B3FD01204C904B977B
:100CE0004A904996064847902846214607F05AFF01
:100CF000002801D4019800E0E043C0B24DB0F0BD3F
:100D00003F008500F0B5CDB0559C250E02AEB57202
:100D1000250C7572250A3572F471569CF472549C38
:100D2000B471539C7471529C3471F370B2707170D1
:100D3000307001AF00243C7047AD18222846214690
:100D40000BF07EFD01204C904B970C204A90499669
:100D5000064847902846214607F024FF002801D482
:100D6000019800E0E043C0B24DB0F0BD3F00860006
:100D7000F0B5CDB00A0C02AEB2807180308001AF08
:100D800000243C7047AD1822284621460BF058FD40
:100D900001204C904B9706204A9049960648479070
:100DA0002846214607F0FEFE002801D4019800E005
:100DB000E043C0B24DB0F0BD3F008800F0B5D1B007
:100DC000009301920291044604A80390002607278D
:100DD00031463A460BF034FD06AD0198A8700298F2
:100DE00068702C704BAC1822204631460BF028FD61
:100DF0005097039F4F9703204E904D9513484B906B
:100E00002046314607F0CEFE002805D404A800781D
:100E1000002804D051B0F0BDFF2051B0F0BD781CC7
:100E20005799569A037844782402E318009C23804B
:100E30008378C4782402E318138002794079000291
:100E400080180880304651B0F0BDC0463F008A008F
:100E5000F0B5CDB0054602AF387001A8009000246F
:100E60000470781C2A460BF0E5FC47AE1822304689
:100E700021460BF0E5FC01204C9000984B90681C3B
:100E80004A904997064847903046214607F08AFE27
:100E9000002801D4019800E0E043C0B24DB0F0BD9D
:100EA0003F008E0070B588B001AE0024347002ADF2
:100EB0001822284621460BF0C3FC01200790069615
:100EC000064802902846214607F06CFE002801D40F
:100ED000019800E0E043C0B208B070BD3F0094004C
:100EE000F0B5CDB002AEB170308001AF00243C70DF
:100EF00047AD1822284621460BF0A2FC01204C9059
:100F00004B9703204A904996064847902846214629
:100F100007F048FE002801D4019800E0E043C0B289
:100F20004DB0F0BD3F00A50070B588B001AE002403
:100F3000347002AD1822284621460BF081FC0120B6
:100F400007900696064802902846214607F02AFE9A
:100F5000002801D4019800E0E043C0B208B070BDA1
:100F60003F000101F0B5CFB0019302920091064617
:100F700003A800250324294622460BF061FC04A89F
:100F80000670B11E4A424A410227012E394600D05E
:100F90001101012E02D0022E29D11027401C451824
:100FA00000993A460BF046FC019868700298287048
:100FB000FF1C0125002D1DD049AE0025182230460A
:100FC00029460BF03DFC4E9403A84D904C9704A885
:100FD0004B90104849903046294607F0E3FD002821
:100FE0000BD403A8007800280AD04FB0F0BD012729
:100FF000002DE1D147204FB0F0BDFF204FB0F0BD34
:10100000549803A94A7889780902891801802846EA
:101010004FB0F0BD3F000201F0B5D1B00493039290
:101020000C46074605A800250326294632460BF044
:1010300007FC06A884700780A11E4A424A41022785
:10104000012C394600D01101012C02D0022C1DD1F7
:101050001027C01C44185A9D599E589900915799C1
:1010600001915699029103993A460BF0E3FB0499DA
:10107000080A60702170A57166710098207101984E
:10108000E0700298A0700A3701253E46002D1BD063
:101090004BAD00241822284621460BF0D1FB03203B
:1010A000509005A84F904E9606A84D900E484B9034
:1010B0002846214607F076FD002808D405A80078C8
:1010C000002807D051B0F0BD472051B0F0BDFF203F
:1010D00051B0F0BD5B9805A94A7889780902891852
:1010E0000180204651B0F0BD3F000401F0B5CDB005
:1010F0001D4602AF7B713A717980388001A800905B
:1011000000240470B81D52991A460BF093FB47AEA9
:101110001822304621460BF093FB01204C9000989A
:101120004B90A81D4A904997064847903046214663
:1011300007F038FD002801D4019800E0E043C0B278
:101140004DB0F0BD3F000601F0B5CDB002AE30802D
:1011500001AF00243C7047AD1822284621460BF011
:101160006FFB01204C904B9702204A9049960F202C
:101170004890074847902846214607F013FD00286D
:1011800001D4019800E0E043C0B24DB0F0BDC046CC
:101190003F000B01F0B5CDB002AE308001AF0024AE
:1011A0003C7047AD1822284621460BF049FB012030
:1011B0004C904B9702204A90499607484790284602
:1011C000214607F0EFFC002801D4019800E0E0433D
:1011D000C0B24DB0F0BDC0463F002501F0B5CDB066
:1011E00002AF529DBD717B713A717980388001A840
:1011F000009000240470F81D53992A460BF01AFB46
:1012000047AE1822304621460BF01AFB01204C90C5
:1012100000984B90E81D4A90499707484790304600
:10122000214607F0BFFC002801D4019800E0E0430C
:10123000C0B24DB0F0BDC0463F002601F0B5CDB004
:101240000D4602AF7970387001A800900024047038
:10125000B81C11462A460BF0EDFA47AE182230466C
:1012600021460BF0EDFA01204C9000984B90A81C01
:101270004A904997064847903046214607F092FC2D
:10128000002801D4019800E0E043C0B24DB0F0BDA9
:101290003F000C00F0B5CDB002AE7170307001AF00
:1012A00000243C7047AD1822284621460BF0C8FAAE
:1012B00001204C904B9702204A904996064847904F
:1012C0002846214607F06EFC002801D4019800E072
:1012D000E043C0B24DB0F0BD3F000F0070B588B024
:1012E00001AE0024347002AD1822284621460BF0CE
:1012F000A7FA012007900696064802902846214644
:1013000007F050FC002801D4019800E0E043C0B28F
:1013100008B070BD03000300F0B5CDB002AE307070
:1013200001AF00243C70701C1F220BF083FA47AD04
:101330001822284621460BF083FA01204C904B9747
:1013400020204A904996074847902846214607F0B2
:1013500029FC002801D4019800E0E043C0B24DB060
:10136000F0BDC04608000900F0B5CDB002AE529CF9
:101370003481F380B2807180308001AF00243C70F2
:1013800047AD1822284621460BF05AFA01204C900E
:101390004B970A204A9049960F204890064847905C
:1013A0002846214607F0FEFB002801D4019800E002
:1013B000E043C0B24DB0F0BD3F0081010C4878441D
:1013C0000BF006FE00780E21014308484A461154EE
:1013D0001018012141700A2181700421C170019807
:1013E00001600920000309F093FFC046582B00005C
:1013F0003E980100F0B5CFB001920C4605460AF0C8
:1014000081FC392047AE2946224633460DF060FA6A
:101410000AF078FC02AF30253846294613F030F93F
:10142000384610301ECE1EC01ECE1EC035AC38460B
:10143000214600F02DF81AAE3046214600F034F86F
:101440006021384613F032F94821204613F02EF976
:101450002F20022139543146393138463A4600F0BE
:101460002FF83037384600F035F8002801DC7F20AF
:1014700000E05F20C043717A1F220A40801870721A
:101480000936019831462A4613F000F94FB0F0BDF5
:1014900080B50B4601463920302203F029F8002898
:1014A00000D180BD09F034FF80B50A4601463920DD
:1014B000012303F017F8002800D180BD09F028FFB0
:1014C00080B5302303F050F8002800D180BD09F02A
:1014D0001FFFD4D480B582B006497944302201ABD5
:1014E00003F036F8002802D1019802B080BD09F05F
:1014F0000FFFC0464E71010070B58CB015460E4608
:1015000004460BA803701B484946085C002801D11B
:1015100008F00AFE022C1CD2002E1AD10BA96A4632
:10152000284608F00DFF002817D0134849460A182E
:10153000083268460178001DFFF75CFF002C11D0CF
:10154000109C02F02DFE20681021014321600CB098
:1015500070BD6B20000209F0DBFE6B2000028038BA
:1015600009F0D6FE119C07F0CBFF20600920000394
:1015700009F0CEFEDD020000E8020000F0B5A5B0E3
:1015800015460E46044624A8037058484946085C90
:10159000002801D108F0C8FD022C00D384E0022EFF
:1015A00000D385E0039424A911AA284608F0C8FEB8
:1015B0000290002800D18DE0701E414241414C480C
:1015C0004D462E18952431550AF09CFB305D0028BD
:1015D00001D03046753011A90A780090091D2120EC
:1015E0001CAF3B460DF04EF907AC3846214600F0E3
:1015F0008FF80AF087FB204600F096F82821204655
:1016000013F054F82021384613F050F80AF07AFB12
:10161000384C2859016940690091019036482A18D0
:1016200031464C31304605F00AF900284AD0484688
:101630000059016940690590049124A800780828A0
:1016400009D30821029811F0ECFC249A083A24AB43
:101650001A700591049024A80178002936D10398C6
:1016600000283BD02A9D4E46214830184C3000902F
:10167000224830182B21254A7A4428230AF0C4FE38
:10168000305902694069059B434004995140194310
:1016900004A8002900D1084602F0A0FD2868102106
:1016A0000143296025B0F0BD15487844214602E089
:1016B0001448784431460AF0E3FCD520C00180305C
:1016C00009F026FE7720C04309F022FE0E48784438
:1016D0000AF0D6FCD520C00109F01AFE2B9C07F0B9
:1016E00021FF20600920000309F012FEDD02000046
:1016F000E8020000D8020000A80900007C080000F1
:101700003A6001003C4501004D480100956101002F
:1017100080B50B4601462120202202F0E9FE002878
:1017200000D180BD09F0F4FD80B502460548494668
:1017300009182120012302F0D5FE002800D180BD28
:1017400009F0E6FDE802000080B500F007F8024964
:101750004A46505080BDC0460400000080B582B0AB
:1017600001A8042102F006FF019802B080BDD4D484
:1017700001484946085870470400000080B5FFF74B
:10178000F7FF0146074878440AF07AFCFFF7F0FFBC
:1017900000F00AF800F016F8202006210AF0C2F83E
:1017A00080BDC04698390100010E054A4B46995448
:1017B0009918C870020A8A70000C48707047C046B9
:1017C000582B000003484946081800214171902118
:1017D00001717047582B0000B0B500221F2305E0AF
:1017E000C45C8C545B1E521C202A0FD0D4B21F2C18
:1017F00007D0002CF4D1C47F3F25254040350D7023
:10180000F0E70478F8252540CD77EBE7B0BDD4D4D8
:10181000F0B5ADB005462CA80370022D00D3BAE098
:101820000C46022900D3B2E02CA911AB10461A468F
:1018300008F086FD002855D02CA9012C03D1097889
:101840001F2900D8A3E05C4F4E46F2199521535C46
:10185000002B0694039502900596049201D013463E
:10186000753311A90A780093091D212524AC284657
:1018700023460DF007F807AE28462146324600F011
:10188000A7F82846314600F0ADF84C48059A1058A4
:101890000169406900910190494812180498014675
:1018A0004C3104F0CCFF00287AD0069800281DD0D7
:1018B0004846C4190934202620460299324612F0BF
:1018C000E9FE24AD20462946324602F06BFE04466E
:1018D00007A8282112F0EAFE2846314612F0E6FE5B
:1018E000002C21D0D520C00109F012FD24A80590BC
:1018F0001CAE3146FFF770FF812407AD204631460C
:101900002A4600F065F82046294600F06BF82024AE
:101910003046214612F0CAFE2821284612F0C6FEA3
:101920000598214612F0C2FE039800283CD0329C54
:101930004846C1194C310091224E80192B21224A70
:101940007A4428252B460AF05FFD24A84946C91988
:10195000495D0170401C6D1E082DF7D124A8009030
:10196000484680192B304E21184A7A4420230AF029
:101970004BFD0698002802D002F026FC01E002F0A0
:1019800019FC20681021014321602DB0F0BD6720B3
:10199000000209F0BDFCD520C001803009F0B8FC80
:1019A0007720C04309F0B4FC339C07F0E9FD2060C8
:1019B0000920000309F0ACFCE8020000D802000096
:1019C000A80900007C080000CD5E0100494F01001D
:1019D00080B51346202202F08BFD002800D180BD87
:1019E00009F096FC80B50A4605494B465918012373
:1019F00002F078FD002800D180BD09F089FCC046C6
:101A0000E8020000A4B01C461546884878440AF055
:101A100037FB84484946085C401E022817D2824999
:101A20004846401841218900425C01273E469643C2
:101A300046547F48784431460AF022FB032C0FD8E5
:101A40007C487844032122460AF01AFB1DE08F48A7
:101A500078440AF015FBD520C001FB3809F058FC8A
:101A6000297801290AD1697801290AD1AB78194668
:101A70002131A1420DD972487844E4E76E48784498
:101A800001E06E4878440AF0FBFAD520C00109F065
:101A90003FFC472B06D36B48784446211A460AF090
:101AA000EFFAF2E70191184617300490D81C039022
:101AB0005B207043494605935B4A89180E180296CD
:101AC0006036E91C30461A4612F0E0FD0020059908
:101AD00070545D4878440AF0D3FA5C487844314643
:101AE0000AF0CEFA029A4C32039829180391142670
:101AF0001046324612F0CAFD554878443146039AE2
:101B00000AF0BEFA0498281804900826314611F00D
:101B100088FA079106904F4878443146049A0AF0B3
:101B2000AFFA06A809F0E9FB002804D14A48784436
:101B30000AF0A6FAA9E705981F302E5C47487844BA
:101B400031460AF09DFA012E27D1059E20364448E1
:101B500078444121434A7A4404910AF091FAAE5DF7
:101B60004148784431460AF08BFA012E19D13F489A
:101B70007844019E31462A460AF082FA1CAA2023A4
:101B80002846314602F0D2FC05982230A0420CD9FA
:101B9000374878440AF074FA77E736487844314693
:101BA00071E73548784431466DE70590AE5D3348BE
:101BB000784431460AF064FA30464338062807D3A1
:101BC0002F4878444321482233460AF059FA5CE70B
:101BD00005998819A04204D92A4878440AF050FA95
:101BE00053E709AC204600F05DF805982A181CA9B7
:101BF0002046334600F04CF800280DD048460A49EC
:101C0000401804998900415C4018812149004754DB
:101C10000920000309F07CFB1B4878440AF030FAE5
:101C200033E7C046DF020000E80200006C39010023
:101C300005590100FC550100965D0100EE4C0100C4
:101C400000560100204E01005C320100D655010013
:101C50007E370100243201005C4C0100B5590100BF
:101C60009A420100026B0100E15201005539010066
:101C7000E8440100DA4501000C300100505B01002E
:101C800036420100C74B0100C24D0100F33701008D
:101C900010B582B0144600932022234602F010FCB7
:101CA00002B010BD80B50346212005497944412288
:101CB00002F024FC002800D180BD09F029FBC046B9
:101CC000AC690100A2B01D46069242494846401840
:101CD00041218C00015D012637468F4307553F485F
:101CE000784439460AF0CCF9002D6ED0049405965C
:101CF000069806780B2E68D2024631461C31681EC3
:101D0000C0B2814261D80195701C0390501C0290B2
:101D10001AAA202302F00AFC5B2078434D462D4985
:101D200069180C182746603738460299324612F077
:101D3000B1FC0020B85520464C300399069F791815
:101D4000142212F0A7FC31461531384600F04CF849
:101D50006B216054314619313C46384600F044F856
:101D60001D4969580A694B691146059F7940194315
:101D700009D011464140194305D0009018487844D5
:101D80000AF07EF921E007AF384600F039F8321941
:101D90001D320198801B1D38C3B21AA9384600F0C5
:101DA0003FF800280DD048460A4940180499415C84
:101DB000401881214900059A42540920000309F086
:101DC000A7FA084878440AF05BF9D520C00109F069
:101DD0009FFAC046E8020000D802000059560100F0
:101DE00010440100A8450100425C120640184178E9
:101DF00009048918827812028918C0780818704777
:101E000080B50346212005497944412202F076FB42
:101E1000002800D180BD09F07BFAC046916801001E
:101E200010B582B0144600932022234602F048FBEE
:101E300002B010BD70B50C460146104E4846805D9C
:101E40000025002828460FD0084609F056FA002839
:101E5000284609D04846811908311422204612F03C
:101E60002FFC01464042484149468D5189194D6039
:101E70008D60CD600D614D618D6170BD0800000009
:101E8000F0B59FB01DA90B701E92012806D11EA8A7
:101E90001DA900F069F8002805D153E02C484946F7
:101EA0000858002841D02A4C4846011988881DAAA4
:101EB00012781618CD88AE420BD9D520C00125491D
:101EC0004A46505200F092F8254878440AF0D8F873
:101ED00038E04F46395908181E9912F0D7FB3819C7
:101EE0008680B0B20124A8422DD11B4D484641192D
:101EF0001A4A80184860684600F086F8002818D012
:101F0000684600F0E5F8002813D048460121415505
:101F10004319596808331348784414220AF0B0F87A
:101F200000F064F8FFF710FC0DE0D520C001803010
:101F300005E000F05BF8FFF707FCD520C00105497C
:101F40004A4650520024204600F03EF81FB0F0BD33
:101F500028000000500B00000800000030000000C6
:101F60001F4A0100434C0100B0B50C460546144819
:101F700049460858002805D000F038F8D520C0019F
:101F8000803017E02078012802D8D520C00111E068
:101F9000286800F0E1F800F0C5F8002807D02868AC
:101FA000801C28602078801E20700120B0BDD520C4
:101FB000C001001D03494A4650520020B0BDC04632
:101FC00028000000500B000080B5002803D106480F
:101FD0004946085A01E00920000300F0C3F8202018
:101FE000022109F09FFC80BD500B000070B5054C2C
:101FF0004D462E19F08809F007F90020285170602D
:1020000070BDC04628000000F0B5A3B0044608A883
:102010002E4979446C2212F039FB00200190059082
:10202000049408340294204600F03FF9264F4846B5
:10203000C019808800283ED006A8401C0390019E4D
:10204000344605E04846C0198088059C844232D257
:10205000F0B202280CD0012825D0002830D105A8E4
:1020600006A900F027F900282AD001262546E9E72D
:102070004846C0590019079008A806A9049A00F01C
:1020800041F900281CD006A9487820180590097845
:1020900000261529D6D0411B4846C0594019029A3E
:1020A00005F0AEFECEE705A8039900F003F900287D
:1020B00006D00226C6E708A800F052F923B0F0BD0A
:1020C000019823B0F0BDC04628000000CA66010098
:1020D000B0B59CB00446083014A900F003FA21788A
:1020E00003290ED101AD284600F012FA6378626828
:1020F00014A9284600F01CFA002807D001201CB0C3
:10210000B0BD0648784409F0BBFF03E004487844BA
:1021100009F0B6FF00201CB0B0BDC046314401003C
:10212000664A010010B5044609F05AF807494A46C4
:102130005050002803D04A465118CC8003E004498F
:102140004A46044B5352411E884110BD28000000EE
:10215000500B0000846A00004178007800024018AB
:1021600080B27047010A034A4B4699549918487047
:102170007047C046582B000001207047012070476F
:1021800010B582B001A900F011F9002807D0019C18
:10219000FFF7EEFA211A4842484102B010BD002074
:1021A00002B010BD10B582B0144601A900F0FEF8CF
:1021B0000146019A130A584258410840012800D1AB
:1021C000227002B010BD80B582B001A900F0EEF817
:1021D0000199491E4A424A41104002B080BD4178EF
:1021E00051704068506001207047D4D4F0B581B080
:1021F0000C4641781F2904D31A48784409F040FF5F
:1022000010E005290AD3054640680818011F164842
:102210007844042212F06EFC002806D0144878445A
:1022200009F02EFF002001B0F0BD687800280DD025
:1022300000276868C65D304600F0F0F800280CD032
:102240006068C6557F1C68788742F2D368786168F9
:1022500000220A54012001B0F0BD04487844314600
:10226000CCE7C046BD35010035370100EC43010025
:102270007734010080B582B001A900F097F8019988
:102280003C394A424A41104002B080BD10B5447802
:10229000142C06D14368083114220846194612F05E
:1022A000F5F9143C6042604110BD80B502F074F94C
:1022B00080BDD4D4B0B582B0002400291AD00D4618
:1022C00001A900F0C3F8002805D00198FF2808D81C
:1022D000287001240EE0D520C00108494A4650521A
:1022E00008E0D520C00105494A46505204487844C8
:1022F00009F0C6FE204602B0B0BDC046500B00003B
:102300003B550100F0B581B015460E4604460878ED
:102310000027E15D814203D00C376C2FF9D10FE02B
:10232000E019017A491C017240680AF051FE034627
:1023300009484946091830462A469847002802D0DD
:10234000012001B0F0BDE15D0448784409F098FE39
:10235000002001B0F0BDC046080000008A31010035
:10236000B0B5017A012912D10346143300252A465B
:10237000082A03D32C46082A03D111E00124082A95
:102380000ED0521C19780C330129F1D001E0002243
:1023900001240C235343C25C0348784409F070FEC7
:1023A00001206040B0BDC046D4360100F0B583B016
:1023B00006464478052C0AD33278114878442146E1
:1023C00009F05EFE052C17D2012003B0F0BD0420F9
:1023D000001BC7B202AD28460191394612F050F9F0
:1023E000E8197168224612F051F9284600F00AF8FF
:1023F00001990860052CE7D3002003B0F0BDC0466A
:102400000A4D0100017809064278120451188278B9
:1024100012028918C07808187047D4D40A49794440
:1024200009184A7803231340022B0AD00021002BFD
:1024300008D1520705D402462D3A022A01D35F285B
:1024400000D101210846704736820100F0B585B001
:10245000002500293DD00E4604461F4849460B582A
:1024600021685F5C3A0603D437602068401C2EE088
:102470004A1C22607F210F400392D1194A4610184E
:102480008088814204D91548784409F0F9FD20E09C
:10249000781E042805D312487844394609F0F0FD27
:1024A00017E00420C11B029104AD2846019312F0ED
:1024B000E7F8039801990918029828183A4612F08B
:1024C000E5F82846FFF79EFF30602068C0192060BD
:1024D0000125284605B0F0BD28000000CA490100CA
:1024E000202A010010B582B00446202000910190FE
:1024F000012100222046134602F012F8002804D1E0
:10250000204602F007F802B010BD08F001FFD4D455
:1025100080B50346212005497944412201F0EEFFB0
:10252000002800D180BD08F0F3FEC04630620100F3
:1025300010B582B0144600932022234601F0C0FF5C
:1025400002B010BD042B0BD101430DD1104600F099
:1025500011F807494A4650500920000308F0D8FEF8
:102560006720000208F0D4FE6B20000208F0D0FEC5
:10257000E4020000017809064278120451188278BA
:1025800012028918C07808187047D4D4F0B5ADB0DD
:102590001E4615465D48784409F072FD2C785C486B
:1025A0007844214609F06CFD27461937B74275D2A9
:1025B000019602941E2C76D225AE20232846394659
:1025C000324601F0B3FF12AC204600F0AFF8E91933
:1025D0000198C71B20460C46314622463B4600F078
:1025E000B5F8002865D0029E4449484644186D1C41
:1025F00020462946324612F04DF80027A755484894
:102600007844214609F03CFD3D481190109404ACFB
:10261000204612F083F9A085000454D104AC204672
:102620000CF0FAF90E9010A80CF078F90CF0EAF919
:10263000A04202D10E980CF0EFF9039704A8808D08
:10264000002858D1339E02982C183648784409F057
:1026500017FD4D4629482818009044301422214681
:1026600012F018F8A07DE17D227D637D254C039F4B
:102670002F551B029A1809020818000480180099A7
:1026800088653068411C31601F49691890220A54DE
:102690003068421C32600F542DB0F0BD1D487844A4
:1026A0003946324609E00298421C1B4878441E21F4
:1026B00003E01A4878443946224609F0E1FCD52067
:1026C000C00108F025FE04A887850E980CF0A4F937
:1026D0004D460A4EAC1914487844214609F0D0FC06
:1026E000AF51A7836760A760E76027616761A76153
:1026F000D520C001FC3808F00BFEC046540700008E
:10270000FF010000DF020000582B0000614B0100B8
:102710006C4B0100E1470100524E0100494B0100A2
:10272000A045010007520100AD3C010080B5034601
:10273000212005497944412201F0E0FE002800D122
:1027400080BD08F0E5FDC0465560010010B582B0BF
:10275000144600932022234601F0B2FE02B010BDC1
:10276000F0B5B3B01F461446B948784409F088FC68
:1027700000203290319030902F902E902D902C9000
:1027800007902B9018A84C2111F07AFF3D46032F9B
:1027900000D8FCE02678B0487844314609F070FC57
:1027A000012E00D0F7E06678AD487844314609F054
:1027B00067FC012E00D0F1E0A67831462531049166
:1027C000B94200D9F0E006971E2E00D3F1E027466B
:1027D00031461B31039134461734F11C02910596A2
:1027E000974948464518F91C01972846324611F08A
:1027F0004DFF0798A8559E487844314609F040FCA3
:102800009C487844294609F03BFC02983E1828462B
:102810004430142731463A4611F038FF9648784440
:102820003946019F324609F02BFC385D39194A7848
:10283000120210188A78C978090289180904081840
:10284000A86558358D48784404212A4609F018FCBB
:1028500003983D1808262846314610F0E2FB1791F0
:1028600016908748784431462A4609F009FC16A894
:1028700008F043FD002800D1A2E0059E3046233039
:102880003D5C81487844294609F0FAFB022D00D0CE
:1028900099E0344624347D48784441217C4A7A4486
:1028A00009F0EEFB3D5D7B487844294609F0E8FBE2
:1028B000012D00D08AE078487844049D29463A46A4
:1028C00009F0DEFB2BAA20233846294601F02EFE14
:1028D00034462634069884427ED87D5D724878441A
:1028E000294609F0CDFB28464338062877D26019DF
:1028F000069988427BD818AE304600F0EDF83A19B8
:102900002BA930462B4600F0DDF8002872D0059840
:1029100000F0F2F84B494A465054411E0229484DF6
:102920006BD2002823D14846441964487844214694
:1029300009F0A6FB44481590149408AC204611F009
:10294000EDFFA085000460D108AC20460CF064F8CF
:10295000129014A80BF0E2FF0CF054F8A04202D140
:1029600012980CF059F808A8808D002866D1399883
:1029700001684A1C0260354A4B469A18902353540A
:1029800001684B1C03600798505433B0F0BD3148C8
:10299000784403210BE03148784401E03148784421
:1029A000314609F06DFB2CE02F48784404992A4603
:1029B00003E0721C2D4878441E2109F061FB20E0E1
:1029C000304878441BE03648784401E03548784484
:1029D000294609F055FB14E0304878440FE03348AD
:1029E0007844432148222B4609F04AFB09E030484D
:1029F000784404E02F48784401E02F48784409F0F7
:102A00003FFBD520C00108F083FC08A8079E8685FF
:102A100012980CF001F82F464D46EC1928487844DE
:102A2000214609F02DFBEE51A6836660A660E660A4
:102A300026616661A661D520C001FC3808F068FCFB
:102A400054070000DF020000FF010000582B0000C7
:102A50008D490100AE460100EF2A01007C4E0100C5
:102A600010450100D43D0100CE4601003D4001006B
:102A700038250100594B01005A2A0100A226010005
:102A8000D8240100C83D01006F4C010052350100FF
:102A90002C5F01009B4501000D2C0100A0360100B8
:102AA000AE370100E2210100D238010018340100E4
:102AB000B13D0100E63F01000E3201007442010009
:102AC0006739010010B582B01446009320222346D6
:102AD00001F0F6FC02B010BD80B503462120054987
:102AE0007944412201F00AFD002800D180BD08F0A0
:102AF0000FFCC046EA5C010010B507280ED0044662
:102B0000062815D10D48494608180D497944062272
:102B100011F0D6FD00280FD0072C09D107484946EF
:102B2000081808497944072211F0CAFD002801D08D
:102B3000002010BD022010BD012010BD5407000070
:102B4000852701007427010070B582B01546014643
:102B5000244E48460024845501A8037080290CD0D7
:102B600000291FD101A9284600F048F8002832D0DA
:102B7000411B4A469155054604E01B484946085CFE
:102B8000022817D101A80178284600F0C1F80028D2
:102B900021D016484946085C0124C00711D100F035
:102BA000F3F818E01348784409F06AFAD520C00118
:102BB00080300EE01048784409F062FAD520C00158
:102BC00007E00B4849460818C06C002806D00920C9
:102BD000000300F081F8204602B070BD0DF010FE39
:102BE000F9E7C0464F000000DC0200005000000082
:102BF000E80200003E4B010095330100F0B583B0C0
:102C00000D4604462D4F4846C05DD521CE01002813
:102C100004D03046FB3880B200F05EF8484602210E
:102C2000C155274FC2192046294607F089FB0028C5
:102C300007D004462878032809D82448784409F0A6
:102C40001FFA304600F048F8002003B0F0BD4846B7
:102C5000C61902964F46204600F052F9F0642878D3
:102C6000001F287000F058F9002500951849794494
:102C70001A2228462B4600F05FF912483818012125
:102C8000090246180298C36C2821124A7A44304639
:102C900009F0BAFB304611F0F9FE024600952846CD
:102CA00031462B4600F048F900F022F90648395C1D
:102CB000FC220A403A54201D03B0F0BDDC020000A3
:102CC000E80200007C08000050000000E844010019
:102CD0009D5B0100A724010010B5044609200003F4
:102CE000844206D008484946085C800701D501F0B7
:102CF00039FA200A05494A46505450184470202099
:102D0000022108F00FFE10BD50000000582B0000FB
:102D100070B582B00C460146194E48468019C56C04
:102D2000A5420CD21748784421462A4609F0A8F952
:102D3000D520C001FFF7D0FFA5420ED31CE0002034
:102D400000902246034600F0F7F848468019C16C0F
:102D5000091BC16404D0A5420ED2002002B070BD90
:102D600020200090484683192C33012000210A4678
:102D700000F0E2F8A542F0D3012002B070BDC046D9
:102D8000E8020000242C0100F0B581B000F082F8C8
:102D9000002833D030487844471C304878440090AD
:102DA0002A4C07E02022294611F078FC00F072F846
:102DB000002823D000F0DAF800281FD0054600F0E4
:102DC000DBF80678B85D000700D52026B85D9721AE
:102DD000084205D000F0DCF800214170067008E0E0
:102DE00000F0D6F8042DDDD32946009A334609F0C9
:102DF0000BFB4846015D491C0155D7E7144C00F018
:102E0000B5F8002804D048460019C06C00280ED13F
:102E1000104D4846405D800707D40DF0B9FC484688
:102E2000415D02220A43425501E00DF0C1FC00F071
:102E300031F8002808D148460019C06C002803D09A
:102E400009200003FFF748FF01B0F0BD4F0000006C
:102E5000E802000050000000BE780100D0450100EB
:102E600080B50A484946085CC0070CD10848494665
:102E70000818C06C002803D100F00CF8002802D01C
:102E80000DF0D2FC80BD0DF0BBFC80BD50000000F9
:102E9000E802000003484946085C034A891809799A
:102EA000081A70474F000000582B000080B50948F1
:102EB00049460A5C012313430B5407480818C06CA9
:102EC000002804D009200003FFF706FF80BD0DF0A5
:102ED00097FC80BD50000000E802000080B500F0C3
:102EE00007F8FFF7D7FF002801D0FFF74DFF80BD9F
:102EF0000248494600220A547047C0467C08000038
:102F00000178090642781204511882781202891851
:102F1000C07808187047D4D480B5064849460818C8
:102F20000121090201F00EFB002800D180BD08F04C
:102F3000EFF9C046A8090000B0B582B014460A46B1
:102F40000146069800930190074D484640192346D4
:102F500001F0E6FA002805D14846401901F0DAFAF6
:102F600002B0B0BD08F0D4F9A809000080B500F0A7
:102F700019F8FF21081A80BD03484946085C034A36
:102F800089180818401D70474F000000582B00009A
:102F900010B5034849460C1800F004F8201810BD7D
:102FA0007C08000080B503484946081811F06EFD02
:102FB00080BDC0467C080000F0B581B069460B704A
:102FC00000282ED114461B484946085C002801D031
:102FD00007F0AAF8184E484682196D462046294641
:102FE00007F0AEF9002821D0044628783F281DD9E3
:102FF000069F4846851928462C3020262146324611
:1030000011F048FB4C35203428462146324611F059
:1030100041FB01F0EDF8386810210143396001B03F
:10302000F0BDD520C001803008F072F9D520C00174
:1030300008F06EF9DC020000E8020000F0B583B091
:1030400014460E46054602A803700BF04DFCAA2854
:1030500000D08BE0802D51D0002D00D082E0019671
:10306000574E4846805D002801D007F05DF848467D
:10307000012787555349421802A9204607F060F9F5
:10308000002800D190E004464F4849460818E42241
:1030900087544E480A18C3200023135400934C4E03
:1030A00088194C4BC9184E4B7B4402F0B8FD02A85E
:1030B0000078002874D0207840B2002810D4C7B21D
:1030C000781E012874D8204600F09AF848468019E6
:1030D0003C2147540298401E02A90870641C04E079
:1030E000484680193C21C0224254484680193C2160
:1030F000415C3E48784408F0C3FF019E002E31D168
:10310000802D04D12E484946085C012837D130482B
:103110004946095C002935D030494A4651580B6967
:1031200049696F25ED005D400D436B426B411018FE
:1031300002A90A78214602F0FDFD012806DC0AD02A
:1031400000282AD10920000308F0E2F8022822D141
:10315000002006F0BFFB0898016810220A430260B5
:1031600003B0F0BD6B20000208F0D2F82348784489
:1031700008F086FFD520C001FE3808F0C9F81C48C9
:10318000784401E01B48784408F07AFFD520C0015C
:10319000FB3808F0BDF8032806D01748784401E052
:1031A0001048784408F06CFFD520C00108F0B0F852
:1031B0000D487844394608F063FF074808F0A8F83E
:1031C000DC020000E80200005407000030040000A8
:1031D000F0030000A809000001650000D80200000B
:1031E00031650000823F0100A63301007B28010009
:1031F000433001001329010080400100C43F010059
:1032000010B582B00246002100910191074C48465A
:103210000019012301F084F9002805D1484600195E
:1032200001F078F902B010BD08F072F8A8090000AA
:1032300070B5A0B015460E4604461FA8037006F0F0
:1032400073FF022C3ED2002E3CD11FA914AA28469F
:1032500007F076F8002839D008F054FD14A801785A
:10326000001D02AD2A460AF04FF90AAE2846314643
:1032700000F040F808F046FD304600F047F82821FD
:10328000304611F013FA2021284611F00FFA08F009
:1032900039FD002C1FD0249C1348494608180930DA
:1032A00000901248081801210902114A7A4420238B
:1032B00009F0AAF800F0A6FF206810210143216060
:1032C00020B070BD6B20000208F022F86B200002D5
:1032D000803808F01DF8259C06F014FF20600920B6
:1032E000000308F015F8C046E80200007C08000062
:1032F000CF32010080B50B4601465120202201F05B
:10330000F7F8002800D180BD08F002F880B5024629
:103310000548494609185120012301F0E3F8002827
:1033200000D180BD07F0F4FFE802000082B01E4625
:10333000154604463B484946085C002801D006F083
:10334000F3FE601E05280BD25420B0420DD1002C94
:103350000FD1284600F070F8C0B2411E884109E044
:10336000002C29D13420B042F1D06720000207F0B0
:10337000CFFF00200226012C2FD000282DD1019450
:10338000B520C7430026284C03E05B37761C002F8E
:1033900017D048460019811981204000095C002996
:1033A000F3D049460919C91908181422294611F001
:1033B00087F90028E9D105E0D520C001803007F069
:1033C000A7FF0226022E019C07D11A48784408F074
:1033D00057FED520C00107F09BFF144F4846C01987
:1033E000E53029461431202211F054F9002C09D07F
:1033F0004846C019FF21063140183435202229469D
:1034000011F048F90A48494601220A54C819932183
:1034100049004454FF21263146540920000307F097
:1034200077FFC046DC020000E802000054070000FD
:10343000E002000060410100B0B5014600780122C1
:10344000002810460FD1491C00231C46132C03D31F
:103450001846132C03D106E00120132C03D00D5D78
:10346000641C002DF2D05040B0BDD4D4F0B5BDB036
:103470001F4614460F910646BA484946085C002884
:1034800001D006F051FE002F00D1A4E22578681E7D
:103490000A2800D3A2E20123032E0ADC012E0DD05C
:1034A000022E11D0032E00D090E20022002B09D072
:1034B0000FE0301F02281A4602D387E2002213468B
:1034C000002B06D10E9306E000201A460346002B7F
:1034D000F8D021200E90A800002A03D0052E06D097
:1034E0006D2105E00E9949004018893003E0A121C3
:1034F00008180E994018B84200D077E20F980028BB
:1035000000D063E20A970B960C9310940D929649A3
:10351000484645540995002D17D048464018061DC9
:1035200001240025914878440F90099FE1B210983A
:1035300000F09EFA024604C60F98294608F0A0FD46
:103540006D1C241DAF42F1D100E00124E0B2109FB8
:1035500039180A9A121A384611F09CF80B9C601F11
:1035600041424141824A4846801880230A93C1540F
:10357000052C22D1484685182E46A13610980E9962
:10358000471839466C3120220F92304611F082F8EC
:10359000C1358C37142428463946109F224611F035
:1035A00079F8744878440F99324608F069FD7248FA
:1035B000784421462A4608F063FD0C9C38190F9088
:1035C00000F062FAC1B24A424A4101235C40224300
:1035D00003D13978012900D00CE2049300060D9E36
:1035E00005D10F9806F03EFE002800D107E2002E1C
:1035F00019D10E9838180C9945183435284600F022
:1036000043FAC1B24A424A41144304D15521795C7C
:10361000012900D0FAE1000605D1284606F022FE75
:10362000002800D1F7E108F06DFB00210C9D002D72
:103630000A4600D03A784846FB4BC31801910293E2
:10364000002D01D1294601E0394635310091F74C72
:1036500000190F990B46143308930AF0E7F9002E6E
:103660000CD04846F04E801920300E9D7919343127
:10367000202211F00FF854242C4321E00E98381822
:103680002E46451908F03EFB0020002E0246E64E6D
:1036900001D055217A5C343549468B19203301908D
:1036A00002930C98002801D038468A3000900819FF
:1036B0002B46143329460AF0B9F90E9844006834B1
:1036C00048468119403124AD284609F0F7FC0B200B
:1036D0000090002728463A463B4609F010FD04209A
:1036E00000900B98052801D00D9A00E00222284690
:1036F0003B4609F004FD109E3046214600F0B8F923
:103700000246284606953D4627461F2400942B4630
:1037100009F0F5FC391D304600F0AAF902460B9479
:1037200000943C462F46069D28463B4609F0E7FCA0
:1037300021460831304600F09BF9059021460C31B6
:10374000304600F095F902463F2007900090284649
:10375000059B09F0D4FC0D9800280FD0102006908E
:103760003B461AE0DC020000E8020000DF33010003
:1037700054070000FC1C0100012501002146103106
:10378000304600F075F9054621461431304600F008
:103790006FF92B460746182006900798009024AD35
:1037A00028463A4609F0ABFC06982018C4B23046C9
:1037B000214600F05DF902460B980090002728464C
:1037C0003B4609F09CFC211D304600F051F90246B1
:1037D0001620009028463B4609F091FC4846924C42
:1037E00006199B48784420252946324608F048FCB3
:1037F0003246203297487844294608F041FC324648
:10380000403295487844294608F03AFC0A98305CE2
:10381000002820D000F052F900974846061931469A
:10382000C131142238463B4600F058F90095314624
:10383000A1313446603401202A46234600F04EF977
:103840006020315C03220A4032548448784429467F
:10385000224608F015FC0D9800286ED049460791C5
:1038600070480C1808F04EFA201D35AD09992A460B
:1038700009F04AFE2BAC2846214600F049F908F031
:1038800041FA11AE3046214600F04EF928210C9144
:10389000204610F00BFF20242846214610F006FF9A
:1038A000109F0E983D1808F02DFA2946343109363C
:1038B00030460691224610F003FF099041424141F3
:1038C000684878440B9108F0DBFB5A48079E34188F
:1038D00008F018FA00945C353B468C330F98089931
:1038E0002A4609F087FE58210E980143384600F019
:1038F000BFF803464E48301804990C0200195A4A82
:103900007A440C9908F080FD0998002812D04E46A0
:103910004548301881302025069F39462A4610F048
:10392000B9FE009742483018504A7A4421462B4647
:1039300008F06AFD0B9D0D9F32E03D4849460C188A
:1039400009942B3408F0DEF90094109C0E980B9724
:10395000271834373E1832463C328C340F98089979
:10396000234609F047FE099D7A3508F0CBF900950A
:103970000C9838180B9D0D9F014614314436324681
:10398000234609F037FE0E9841006831109800F088
:103990006FF803462B21324A7A44099808F034FD27
:1039A000429C002F204909D0484640180A99415CA2
:1039B000481E8141284600F043FC01E000F02CFC49
:1039C00020681021014321603DB0F0BDD520C00129
:1039D000803007F09DFC1848784401E0174878448F
:1039E00008F04EFBD520C00107F092FC67200002D2
:1039F00007F08EFC1248784408F042FBF2E71148C9
:103A0000784414210F9A08F03BFBEBE70E4878440A
:103A100008F036FBE6E70D48784414212A4608F002
:103A20002FFBDFE7E802000054070000A8090000B0
:103A30007C080000300400004C37010043300100D6
:103A400055130100CA110100D0270100B211010075
:103A5000141701006B400100A21E0100302E01006E
:103A60005C12010063290100F4120100512C0100D5
:103A7000425C1206401841780904891882781202C3
:103A80008918C07808187047B0B50146007801223F
:103A9000002810460FD1491C00231C46132C03D3C9
:103AA0001846132C03D106E00120132C03D00D5D22
:103AB000641C002DF2D05040B0BDD4D480B506486F
:103AC000494608180121090200F03CFD002800D1F8
:103AD00080BD07F01DFCC046A8090000B0B582B04B
:103AE00014460A460146069800930190074D484641
:103AF0004019234600F014FD002805D1484640191E
:103B000000F008FD02B0B0BD07F002FCA8090000FB
:103B100080B50B4601465120202200F0E9FC002828
:103B200000D180BD07F0F4FB80B50A460146512064
:103B3000012300F0D7FC002800D180BD07F0E8FB8E
:103B4000F0B5A9B014460D46064628A803702E48C5
:103B50004946085C002801D006F0E6FA354346D114
:103B60002A4E4846821928A9204606F0E9FB00287B
:103B700042D0014628A80078202841D12E980290F2
:103B800023484C4620180190203020252A4610F06A
:103B900081FD08F0B7F8A15DA019001D20AE3246E6
:103BA00009F0B2FC03AC3046214600F033F808F0CF
:103BB000A9F80DAF3846214600F038F828212046F4
:103BC00010F074FD3046294610F070FD08F09AF8A8
:103BD0000937019839462A4610F058FD00F026FBB7
:103BE000029A106810210143116029B0F0BDD52060
:103BF000C001803007F08CFBD520C00107F088FBA6
:103C00006720000207F084FBDC020000E8020000ED
:103C10005407000080B50B4601465120202200F0D9
:103C200067FC002800D180BD07F072FB80B50A4612
:103C300001465120012300F055FC002800D180BD31
:103C400007F066FB10B5044609200003002C06D1DE
:103C50000E494A46515A814204D1352040020B494F
:103C60004A46505209484946085A020A084BCA5463
:103C7000C91848702020022107F054FE002C03D1FF
:103C800000F054FB00F06EFA10BDC046500B00006F
:103C9000582B0000B0B5044619484946085800287A
:103CA00001D0012001E000F003FB16494A46515CB7
:103CB0008D1E691E8D410540012D1BD1E178FF2924
:103CC00007D000290BD12079611D0BF055FA05466C
:103CD00010E02079611D0BF09BFA05460AE062783E
:103CE0000A48784408F0CCF96B20000206494A469D
:103CF000505200252846FFF7A5FF2846B0BDC04614
:103D00005400000051000000500B0000D82E0100AC
:103D1000B0B528494A46515800291FD0C178FF291B
:103D200021D00F292CD0002930D10179401D08F075
:103D300019FE0446002834D02148784409F048F997
:103D4000C07845424541002803D009F05FF80DF0E6
:103D500073F80DF019F8002D26D128E016484946D1
:103D6000164A0A521CE08278511E8A410179401D90
:103D700003F0B6FA044601254540002D14D116E0A3
:103D80000179401D08F0C6FE04460AE042780D485D
:103D9000784408F075F96B20000207494A465052F2
:103DA00000240125002D02D02046FFF74BFF2046BE
:103DB000B0BDC04654000000500B000085690000F3
:103DC000C26E01002A2E0100B0B5054628484946BA
:103DD0000858002817D0EC78FF2C19D00F2C17D0DA
:103DE000002C2CD12548784409F0F2F8C078012540
:103DF000002839D101200DF087FA09F0CFF90446E7
:103E0000002D2BD12DE01B4849461B4A0A5221E0C8
:103E10000DF082FA012826D10F3C601E84412979D9
:103E2000681D224603F0FAFB0446E8780F38411E6D
:103E30008841012565400543002D0FD111E06A78C6
:103E40000F487844214608F01BF96B20000209490D
:103E50004A46505200240125002D02D02046FFF78B
:103E6000F1FE2046B0BD01252C46002DF9D0F5E726
:103E700054000000500B000085690000166E010020
:103E8000782D0100B0B582B00446007901A9087010
:103E9000294849460858002812D0284D484640195C
:103EA0002C3000F057F800280AD1484640194C3011
:103EB00000F050F8002803D108F044FD00280CD091
:103EC0001F4849461F4A0A520024002C02D10020F4
:103ED000FFF7B8FE204602B0B0BD0DF01DFA012874
:103EE0000ED10DF029FA00280AD00DF025FA01466E
:103EF0001648784408F0C4F811484946124AE2E7E7
:103F000048464219601D01A906F01AFA0028DBD0C4
:103F10000F48784409F05CF8C078002805D10DF00E
:103F2000FBF9002801D10CF0A7FF0DF07BF901246B
:103F3000002CCFD1CBE7C04654000000E8020000BF
:103F4000500B000085690000886A0000D52D010033
:103F5000EA6C0100B0B50146007801220028104645
:103F60000FD1491C00231C461F2C03D318461F2CBD
:103F700003D106E001201F2C03D00D5D641C002D31
:103F8000F2D05040B0BDD4D4F0B5B9B007F0BAFE0D
:103F900000F080F8002400943B4979440222204636
:103FA000234600F087F800943549484604904718A6
:103FB00003972C372025204639462A46234600F011
:103FC00079F80095039E4C36012029AB02933146C7
:103FD0002A4600F06FF82D48784429463A4608F002
:103FE0004FF82B4878442946324608F049F807F044
:103FF00089FE23490498425C00940398011D212006
:1040000031AF3B460AF03EFC07F07CFE06AE384678
:10401000314600F069F838460395294610F046FB12
:10402000059407F06FFE10AF05AB304602993A4693
:1040300000F066F82821304610F038FB0599C807D3
:1040400003D01C20890703D403E01B20890700D577
:10405000801C0C4D049E7055384606F0A7F8701968
:104060004221445441219022425406F05DF84321FC
:10407000039807F057FC00F075F8204639B0F0BD02
:10408000E8020000582B00008C4801001B150100BD
:104090006724010080B50648494608180121090235
:1040A00000F050FA002800D180BD07F031F9C04679
:1040B000A8090000B0B582B014460A460146069829
:1040C00000930190074D48464019234600F028FA16
:1040D000002805D14846401900F01CFA02B0B0BDD6
:1040E00007F016F9A809000080B50B46014621200B
:1040F000202200F0FDF9002800D180BD07F008F96A
:1041000010B586B01C460B466421059104A90391A5
:1041100005A902910192202100910749032200F094
:10412000C9F9002805D1002C01D00498206006B000
:1041300010BD07F0EDF8C0460106000080B505F09F
:10414000F3FF0748494669220A540818852141703F
:104150002020022107F0E6FB00F004F8002080BDDB
:10416000582B000080B507484946085C002801D15B
:104170000FF0A8FF04497944002002460FF078FAB6
:1041800080BDC046400600000A4F010080B50349CB
:104190007944002002460FF06BFA80BDA050010068
:1041A00080B503497944002002460FF061FA80BDD2
:1041B0002851010080B503497944002002460FF0E0
:1041C00057FA80BD9852010080B503497944002018
:1041D00002460FF04DFA80BD9C52010080B50349A4
:1041E0007944002002460FF043FA80BD945101004B
:1041F00080B503497944002002460FF039FA80BDAA
:104200000C55010080B503497944002002460FF0A7
:104210002FFA80BD5858010080B503497944002029
:1042200002460FF025FA80BD5059010080B50349C0
:104230007944002002460FF01BFA80BD085C0100A3
:1042400080B50A46002908D10C497944002A08D0D3
:104250000B4A7A44002808D008E007497944002A2C
:10426000F6D1084A7A44002800D1114600200246BF
:104270000FF0FEF980BDC046085B0100D65A010070
:10428000EA5A01009C5A010080B503497944002094
:1042900002460FF0EDF980BD2055010080B50349BD
:1042A0007944002002460FF0E3F980BDB4550100C7
:1042B000B0B506F089FF4020082106F0DBFF174D5E
:1042C00049464851002822D0002409F027F8002848
:1042D0001BD008F0B3FD002817D002F0D7FF00284C
:1042E00013D00CF0C3FF00280FD00AF065FD0028A2
:1042F0000BD04C466059142110F0D8F90848002121
:10430000215460598161C16101242046B0BD054836
:104310004946054A0A520020B0BDC046540000007C
:1043200051000000500B0000846A000080B50AF0C4
:104330006DFD08F0A3FD02F0CBFF0CF0B7FF06F017
:104340004BFF0348494600220A5005F0EDFE80BDB0
:1043500054000000F0B597B0049317460C4605468C
:1043600006A920460AF076FA06461C980590002E0B
:104370001FD1049B0699202919D1264628461F9D46
:104380001E991D9C03950291019407A90091344642
:1043900031463A4600F01AF80646002809D1069A36
:1043A00007A92046059B00F0A3F8064601E05C2023
:1043B000C64307A8402110F079F9002E03D0282128
:1043C000059810F073F9304617B0F0BDF0B595B010
:1043D000089307920C46064609AF384610F09EFA3D
:1043E000B88585B21A9F002D0BD009A800218185C0
:1043F00013980AF011FB4021384610F057F92C466B
:1044000015E01D9806901C9805901B9D09A80AF0C0
:1044100003FB13900097019505980290069803906E
:1044200030462146079A089B0AF03CFA00240AF01D
:10443000E9FA09A9884202D113980AF0EDFA09A80D
:10444000808D002802D1204615B0F0BD06F060FF37
:10445000F0B58FB01C9C03941B9C02940024019423
:1044600005AC0094FFF776FF044600280ED11A9899
:10447000199C189D14AE4ECE2027009601970295E8
:104480000394049005A800F09DF8044605A828218F
:1044900010F00CF920460FB0F0BDD4D403B401489D
:1044A00089E000002600000003B4014883E000001A
:1044B0002700000003B401487DE000003000000048
:1044C00003B4014877E000003100000003B4014864
:1044D00071E000003200000003B401486BE000000E
:1044E0003300000003B4014865E00000360000001E
:1044F00003B401485FE000003700000003B4014846
:1045000059E000003800000003B4014853E0000007
:104510003900000003B401484DE0000045000000F0
:1045200003B4014847E000004800000003B401481C
:1045300041E000004A00000003B401483BE00000F5
:104540004B00000003B4014835E000005A000000B1
:1045500003B401482FE000005D00000003B40148EF
:1045600029E000006100000003B4014823E00000DE
:104570006300000003B401481DE000006E0000006D
:1045800003B4014817E000007200000003B40148C2
:1045900011E000007300000003B401480BE00000CC
:1045A0007500000003B4014805E00000860000002B
:1045B00003B40248FFE702490847000087000000F3
:1045C00001002100F0B5A7B006AC0EC40746642078
:1045D0000D902E9E2D9C3046214610F067F82F9DA1
:1045E0002846214610F062F83098059003900DA8F7
:1045F00002900EA801902C980090384606AB0ECB86
:10460000FFF758FF00281AD10D9909A802900BA8AE
:1046100001900AA800900EA80CAB2246FFF75CFFA1
:10462000012813D130190A9A801A0C9910F02EF82B
:104630002819099A801A0B9910F028F800200028F0
:1046400002D00021059A116027B0F0BD7720C04349
:104650000028F6D1F8E780B50022134600F002F8F2
:1046600080BDD4D4F0B583B0212906D31B48FB30DC
:1046700019494A465052002426E016460D46019339
:1046800002902027384606F0ABFD044600280BD0E8
:10469000012E0FD0002E1AD17E1B20463146019AE2
:1046A0000FF0FCFFF0B20AE00C48FF300A494A461E
:1046B000505209E06019791B0FF0F8FF0020201814
:1046C00002992A460FF0E2FF204603B0F0BD0248EF
:1046D0004946024A0A52CEE7500B000085690000A5
:1046E00080B5002907D0914203D1027852B2002A46
:1046F00008D4002307E0D520C00105494A4650529E
:10470000002080BDFF230022FFF7ACFF80BDC04624
:10471000500B000080B501220023FFF7A3FF80BDEE
:1047200080B5012902D1FFF796FF80BDD520C001D9
:1047300002494A465052002080BDC046500B00003E
:1047400080B5142902D1FFF786FF80BDD520C001B6
:1047500002494A465052002080BDC046500B00001E
:1047600080B50246FF20034604339A420CDC023037
:10477000824218D081204000824218D09A4222D131
:10478000084600F08BF880BD41239B009A4212D06E
:104790000630824213D083204000824213D1084663
:1047A00000F01CFA80BD084600F016F880BD0846EF
:1047B00000F0F0F880BD084600F097F880BD08468C
:1047C00000F096F880BD03487844114607F058FC85
:1047D00080BDC046C31E0100F0B581B004462A4822
:1047E00049460818A730E5685B2100F0BBF80028AF
:1047F00005D02948784407F043FC00202DE06B35B4
:104800000026224F7F44386808F0E2FB01784278A6
:10481000120251188278C0780002801800044018F3
:1048200061690A784B781B029A188B78C97809025B
:10483000C91809048918884204D03F1D761C032E2C
:10484000E1D103E06E70F0B2032809D1626910482B
:104850007844042107F014FC0620607001B0F0BD1C
:10486000042060706978481E022801D2002002E00E
:10487000002903D10820287001B0F0BD0548784414
:1048800007F0FEFBB9E7C046E80200003040010037
:10489000511E0100041D010013070100B0B50446BC
:1048A00080686C21405C00250228294602D061689E
:1048B0000968A531E1602561002805D0012805D0EF
:1048C000022810D1042002E0032000E005206077D8
:1048D000606800684230212100F044F8002802D0CE
:1048E000022020770425A577B0BD042141757047CB
:1048F000B0B5044604202077A568E0682269144911
:10490000794410F09DF86C20295C02290AD0012915
:104910000FD0002914D16069A2690E49794410F0C2
:104920008FF8B0BD6069A2690C49794410F088F82D
:10493000B0BD6069A2690849794410F081F8B0BD42
:104940000748784407F09CFB00202077B0BDC046A4
:10495000BF11010011060100A12201000521010083
:10496000580A0100B0B54B1E0A469A4100290ED0E4
:104970000378002B0BD101231C468C421A4600D32E
:104980000022A14203D0055D641C002DF5D001205A
:104990005040B0BDB0B504468568C368016912488F
:1049A0007844202207F06CFB032020756C20295CE2
:1049B000002908D002290BD001290ED12046294612
:1049C00000F016F8B0BD2046294600F0CFF8B0BD83
:1049D0002046294600F03EF8B0BD0448784407F070
:1049E0004FFB00202075B0BDD02E01005A070100FA
:1049F00070B588B00C466B21615C03290ADC002984
:104A00001BD0012924D1C1681422204602F02EFCBB
:104A100004201BE0042912D0072919D1C1686D4672
:104A200020262846324602F02AFC22463832284602
:104A300031460EF027FB0A2008E0012006E0C1689D
:104A400020461430202202F01AFC07206B3420701C
:104A500008B070BDF0B589B00C466B21615C27468B
:104A6000583703290CDC012919DC002947D001291A
:104A700077D1C1681422204602F0F8FB02203FE003
:104A800005291DDC04293ED005296AD1C06800F043
:104A900093F80321F974001D606609B0F0BD022986
:104AA0003DD003295DD1E16D026920328A4258D997
:104AB000C06800F08CF80421F974388000202BE0E5
:104AC000062935D007294CD1C16825461435202642
:104AD0002846324602F0D3FB6A4628463146154640
:104AE0000EF0D0FA38342046294622460DF050F810
:104AF0003889401E388100040CD10A2009E00120C9
:104B0000F87409B0F0BD3888401E3880000401D127
:104B10000620F874388A401C388209B0F0BDC0689D
:104B200000F04AF80521F974001DE06509B0F0BDF8
:104B3000616E026920328A4213D9C06800F047F8DA
:104B40003881398A884203D00748784407F098FAB8
:104B5000002038820720F8743834202120460FF0D6
:104B6000A5FD09B0F0BDC0469C21010010B504466A
:104B70006B200A5C08466A30092A0AD0082A10D13C
:104B800009224270E36814220846194602F06EFBBF
:104B900010BDE168C97F0A2242704A1E914101702E
:104BA00010BD04487844114607F06AFA00202075C9
:104BB00010BDC04693030100017F0906427F120425
:104BC0005118827F12028918C07F08187047C17F70
:104BD000807F0002401880B27047D4D480B5342161
:104BE00004224254C1696C228A5C022A06D0012A3E
:104BF00007D0002A08D100F013F880BD00F0F6F8C5
:104C000080BD00F071F880BD343000210170034890
:104C10007844114607F034FA80BDC0469314010071
:104C2000F0B583B00D4604462020215C2646203690
:104C300002290AD001291BD0002927D16A20285C2B
:104C4000002828D02449794427E0606AA26A2449D0
:104C500079440FF0F5FE1D484B4618580569476921
:104C6000A068E16A226B00950197194C1B1924E09A
:104C7000606AA26A194979440FF0E2FEE06A226B89
:104C8000A16814310FF0DCFE03B0F0BD1548784484
:104C900007F0F6F915E00F497944606AA26A0FF04F
:104CA000CFFE0A484B46185807694069E16A226BF3
:104CB0000097019006481B18284601F0B1FE002815
:104CC00001D10020307503B0F0BDC046D80200000D
:104CD000A8090000022C0100CC2A01003D070100B8
:104CE000C120010003010100F0B583B00D46044668
:104CF0002020215C26462036012913DD022923D0FD
:104D0000032934D0042958D1606AA26A324979440F
:104D10000FF096FEE26A236B38350A2128460DF023
:104D20005FF846E0002930D0012946D1606AA26AC6
:104D3000284979440FF084FEE06A226BA16814319F
:104D40000FF07EFE03B0F0BD606AA26A2449794488
:104D50000FF076FE1D484B46185805694769A06854
:104D6000E16A226B00950197194C1B191FE0606ADC
:104D7000A26A1C4979440FF063FEE26A236B143582
:104D8000202128460EF096F913E0606AA26A1349C2
:104D900079440FF055FE0D484B4618580769406995
:104DA000E16A226B0097019009481B18284601F020
:104DB00037FE002805D003B0F0BD0B48784407F05B
:104DC0005FF90020307503B0F0BDC046D802000086
:104DD000A80900000F0F0100B41A01007E070100AE
:104DE000C31F0100C2240100D5FF0000F0B58FB041
:104DF0000D4604462020215C26462036012911DC80
:104E0000002932D001292BD1606AA26A3049794445
:104E10000FF016FEE06A226BA16814310FF010FE4D
:104E20000FB0F0BD022933D0032919D1606AA26AFC
:104E30002B4979440FF004FE284638300A2103AA92
:104E400030230CF0CDFF00283AD068202A5AE06ABF
:104E5000216B0092234A7A4403AB07F0D5FA2DE088
:104E60001C48784407F00CF92AE0606AA26A1A49E3
:104E700079440FF0E5FD14484B461858076940691E
:104E8000E16A226B0097019010481B18284611E038
:104E9000606AA26A114979440FF0D2FD0A484B4674
:104EA000185805694769A068E16A226B0095019767
:104EB000064C1B1901F0B4FD002801D00FB0F0BD65
:104EC000002030750FB0F0BDD8020000A809000026
:104ED000330E01002FFF00009E0601007B1E010023
:104EE000490B01007D090100F0B581B00090451C1F
:104EF0000D240E4E7E44304608F06AF807460F3007
:104F0000142229460FF0DCFB002805D02336641E4E
:104F1000F1D1002001B0F0BD009843300F22394696
:104F20000FF08EFD012001B0F0BDC0464C390100EC
:104F300009484946095C0120002909D007494A4629
:104F4000511893225200895C042902D8032900D009
:104F5000704700207047C046E00200005407000080
:104F6000F0B583B00C460146FF2002460432914260
:104F70001FDC0230814251D081204000814200D1AB
:104F8000A8E0914200D0C7E0A568A048784407F0A7
:104F900077F82878012800D1CDE0002800D000E182
:104FA0000420A07701202077681C16356561A06178
:104FB000C5E041229200914264D00630814200D186
:104FC0009AE083204000814200D0A5E026462036AA
:104FD0003078E7693D464135012800D1B5E0002829
:104FE00000D0DEE00296606AA26A934979440FF02D
:104FF00027FD3E461636304600F03FF9002800D126
:10500000D1E0E06A226B8D4979440FF019FDE06A26
:10501000226B363739460FF0DFFCD1E0A068E56837
:105020000068423000F010F900287BD00026794F4C
:105030007F44386807F0CCFF01784278120251189B
:105040008278C078000280180004401861690A78EC
:105050004B781B029A188B78C9780902C918090481
:105060008918884200D190E03F1D761C022EE0D1C5
:105070000226022E00D18CE06948784407F000F83F
:1050800004208DE0E168481E81412269501E824162
:10509000A5686648784406F0F3FFE068002846D02B
:1050A0002E46413600207070E168284636301431B3
:1050B0000B220FF0C5FCE068C07F30702878012813
:1050C00006D12846FFF710FF002801D0012070709C
:1050D00004202DE0A568E368216952487844202225
:1050E00006F0CEFF206924283FD0042845D1E1688E
:1050F000681C0C3114223CE0E06822694C49794478
:105100000FF09EFC6069A2694A4979440FF098FC4F
:105110000420207703B0F0BD3D48784406F0B0FF8E
:1051200003B0F0BD3C48784406F0AAFF37E0062003
:10513000607503B0F0BD0420A0773348A083606899
:105140000068A530E06003B0F0BD606AA26A6978CB
:1051500000293AD03A4979440FF072FCE06A226B98
:10516000433739460FF06CFC45E0E16816352022E4
:1051700028460FF08FFA042004E02B48784406F00C
:105180007FFF0020207503B0F0BD2E70022E00D0EE
:1051900072E7626921487844042106F071FF00201B
:1051A000607003B0F0BD2A78E06A6421009001913C
:1051B0003637202130463B460EF005F800281ED039
:1051C00004200299087503B0F0BD1E4979440FF020
:1051D00037FC0C484946085805694069E16A226B6A
:1051E00023681B6800950190781C01F019FC0028C9
:1051F00001D1002030750420307503B0F0BD0720C8
:1052000006F086F8D8020000020200001C1401001B
:10521000711501001C3A0100BC1A0100A80C010024
:1052200034FD00001BFB0000D3FD0000181E010030
:10523000570D010015FB0000D5030100490C0100CA
:10524000040D0100381A0100B0B5014600780122B2
:10525000002810460FD1491C00231C461F2C03D3E5
:1052600018461F2C03D106E001201F2C03D00D5D32
:10527000641C002DF2D05040B0BDB0B5014600789E
:105280000122FF28104610D1491C00231C461F2C68
:1052900003D318461F2C03D107E001201F2C04D094
:1052A000651C0C5DFF2C2C46F1D05040B0BDD4D411
:1052B00080B50246FF20034604339A420CDC0230DC
:1052C000824218D081204000824218D09A4222D1D6
:1052D000084600F089F880BD41239B009A4212D015
:1052E0000630824213D083204000824213D1084608
:1052F00000F09CF980BD084600F016F880BD084615
:1053000000F0E4F880BD084600F094F880BD08463F
:1053100000F094F880BD03487844114606F0B0FED2
:1053200080BDC04673130100F0B581B00446294822
:1053300049460818A730E5685B2100F0AFF800285F
:1053400005D02848784406F09BFE00202DE0353536
:105350000026214F7F44386807F03AFE01784278F2
:10536000120251188278C078000280180004401898
:1053700061690A784B781B029A188B78C978090200
:10538000C91809048918884204D03F1D761C052ECF
:10539000E1D103E06E70F0B2052809D162690F48CF
:1053A0007844042106F06CFE0620607001B0F0BD68
:1053B0000420607069788A1E032A01D2002001E06F
:1053C000012902D8287001B0F0BD0548784406F0E4
:1053D00057FEBAE7E8020000C8360100C710010016
:1053E000B6110100C3FB000070B50446002505613D
:1053F0004068A16800680246A532E26036228E5CF1
:10540000B21E0421032A04D3002E02D0012E0FD194
:10541000032161774230212100F040F8002804D1B7
:10542000012E05D0607F401C607702202077042584
:10543000A57770BD042141757047D4D4B0B504463A
:1054400004202077A568E0682269104979440FF0AC
:10545000F7FA3620295C881E032806D26069A26903
:105460000C4979440FF0ECFAB0BD012906D8606907
:10547000A269074979440FF0E3FAB0BD06487844C1
:1054800006F0FEFD00202077B0BDC0467306010087
:10549000B9FA0000771701001CFF0000B0B54B1EE1
:1054A0000A469A4100290ED00378002B0BD1012324
:1054B0001C468C421A4600D30022A14203D0055D4F
:1054C000641C002DF5D001205040B0BDB0B504469D
:1054D0008568C368016916487844202206F0D0FD2B
:1054E000032020753620295C012904DD881E02284E
:1054F0000AD201220BE000290ED0012911D1204649
:10550000294600F06DF8B0BD04290AD100222046DA
:10551000294600F037F8B0BD2046294600F00CF8C7
:10552000B0BD0448784406F0ABFD00202075B0BD46
:10553000EA0B010012FC0000B0B504463520085CFF
:105540000D46353503280AD0042812D1E368142209
:105550000846194601F08AFE03202870B0BDE368B2
:10556000143120220846194601F089FE06202870D1
:10557000B0BD0348784406F083FD00202075B0BD1F
:10558000DBF90000B0B5044635200B5C0D4635351F
:10559000032B06D0012B0ED0002B15D10120287033
:1055A000B0BDE368143120220846194601F067FEB9
:1055B00006202870B0BDE36814220846194601F0A1
:1055C00055FE03202870B0BD002A06D00348784459
:1055D000194606F055FD00202075B0BD69F90000A0
:1055E00010B5044635200A5C08463430052A0AD036
:1055F000042A10D105224270E36814220846194695
:1056000001F034FE10BD06214170E168C97F4A1ED9
:105610009141017010BD04487844114606F030FDF8
:105620000020207510BDC0461FF9000080B5342150
:1056300004224254C16936228A5C931E032B02D293
:1056400000F0E8F880BD012A04D0002A05D100F05E
:105650000FF880BD00F07AF880BD34300021017071
:1056600002487844114606F00BFD80BD410A010056
:10567000F0B583B00D4604462020215C2646203636
:10568000012911DC002926D001291FD1606AA26AF4
:10569000294979440FF0D4F9E06A226BA1681431EA
:1056A0000FF0CEF903B0F0BD022927D003290DD1A8
:1056B000606AA26A214979440FF0C2F9E26A236B59
:1056C0001435202128460DF0F5FC2BE01E487844C7
:1056D00006F0D6FC28E0606AA26A194979440FF006
:1056E000AFF913484B46185807694069E16A226BC5
:1056F000009701900F481B18284611E0606AA26AC3
:10570000104979440FF09CF909484B46185805692F
:105710004769A068E16A226B00950197054C1B1947
:1057200001F07EF9002801D10020307503B0F0BDF2
:10573000D8020000A80900007FFE0000801B0100C5
:10574000362001000F160100C3F60000F0B583B04B
:105750000D4604462020215C2646203602290AD028
:1057600001291BD0002927D13420285C002828D00B
:105770002449794427E0606AA26A244979440FF0F9
:105780005FF91D484B46185805694769A068E16AEA
:10579000226B00950197194C1B1924E0606AA26ADC
:1057A000194979440FF04CF9E06A226BA168143171
:1057B0000FF046F903B0F0BD1548784406F060FCE0
:1057C00015E00F497944606AA26A0FF039F90A4876
:1057D0004B46185807694069E16A226B00970190AF
:1057E00006481B18284601F01BF9002801D10020AB
:1057F000307503B0F0BDC046D8020000A809000013
:10580000D6200100A01F010011FC00009515010029
:10581000D7F50000F0B583B00D4604462020215C8A
:1058200026462036012911DC002926D001291FD166
:10583000606AA26A294979440FF002F9E06A226B92
:10584000A16814310FF0FCF803B0F0BD022927D095
:1058500003290DD1606AA26A214979440FF0F0F85A
:10586000E26A236B1435202128460DF023FC2BE03F
:105870001E48784406F004FC28E0606AA26A1949D0
:1058800079440FF0DDF813484B4618580769406912
:10589000E16A226B009701900F481B18284611E01F
:1058A000606AA26A104979440FF0CAF809484B4669
:1058B000185805694769A068E16A226B009501974D
:1058C000054C1B1901F0ACF8002801D100203075FF
:1058D00003B0F0BDD8020000A80900000B040100CD
:1058E000DC1901008EFC00006B1401001FF50000A4
:1058F000F0B595B00C4601468120400081422FDD75
:10590000FF200246043291424BD00630814256D0ED
:1059100083204000814274D1264620363078012809
:1059200000D18DE0002800D03CE1A1484F463D5811
:10593000606AA26AB24979440FF082F89D4838182B
:105940006221415CE26A6423009201934230122298
:105950002B460DF038FC00287ED1072005F0D8FC3E
:10596000FF22023291423AD081424AD1A768E368CD
:105970002169944878442026324606F081FB256947
:10598000281F0521C841052841DD082868DD01469A
:105990000A39032900D2FDE0092800D0FEE0602684
:1059A000EAE0A5689348784406F06AFB2878002866
:1059B0003CD00420A0778048A08315B0F0BDE068FB
:1059C00022698D4979440FF03BF86069A2698B49DF
:1059D00079440FF035F80420207715B0F0BDA068A9
:1059E000E5680168A5317948784414220EF068FE14
:1059F00000281FD07648784406F042FB00206070F3
:105A00001BE07148784406F03BFB15B0F0BD02285E
:105A100000DD82E0002800D18BE0012800D18AE07F
:105A2000022800D0BAE009204601A5E00620A077B0
:105A300015B0F0BD042060700120287015B0F0BDD5
:105A4000E569606AA26A6F4979440EF0F9FFE06A7D
:105A5000226B691C0EF0F4FF0420307515B0F0BD08
:105A600006286AD0072800D186E0082800D095E0F3
:105A7000E1200001069051480590514E484680595A
:105A800001210D04A8420DD95248784406F0F8FAD5
:105A900048468159504878442A4606F0F1FA0020D9
:105AA000387020750397002004900890484680596C
:105AB000079005A8042109AE02913246FBF79AFC33
:105AC0004648784430273946324606F0D9FA202530
:105AD00030463946049F32462B46FEF727FD377085
