:02000004C0D06A
:100000008CB0044662B600F083FC6D46284601F0D1
:1000100045F9A88585B2002D0ED1684600F0BCFEDA
:100020000A90002C1CD020680E49884202D06168DA
:1000300000F016FC00F08EFE6C460020A0850A98A9
:1000400000F0AAFE08487844294600F097FC00F02A
:1000500097FEA042EED10A9800F09EFE00F07AFED4
:1000600000F042FCFF0100004B15000003B4014802
:100070000BE000003200000003B4014805E000007E
:100080004400000003B40248FFE7024908470000AB
:100090007100000001001200F0B593B003920491CA
:1000A000054601231898014699431E224A40199992
:1000B0000A430027002A3A4619D1059306AA332499
:1000C000234600F06FF800285FD006AE3046214688
:1000D00001F07EF93318221A30497944184601F0AC
:1000E000F7F83046214601F073F90246059B06A851
:1000F000059280182A4E7E44E95D0F240A092140AA
:10010000715C4170B15C0170801C7F1C142FF3D1B5
:100110001902039F3846FFF7AFFF002100283AD1AC
:100120002020019006A802900090059B2833012210
:1001300038460F4605921146029AFFF797FF394657
:10014000002828D10020049F059B05E0715C059BD9
:100150003954401C28281AD002461A404308E95C4A
:10016000002A03D021400929F0D902E00909092910
:10017000ECD906AFFB5C920004275740FB401A07FE
:10018000715C00D52039049FE1E7002103E02820BD
:10019000002139541946084613B0F0BD161300006B
:1001A000FD120000F0B587B00293044600200192D2
:1001B0000546C7B27B1C029883422BD2009306955A
:1001C0000A250026204605912A46334600F03AFECD
:1001D000049003912A46069D334600F053FE019A8F
:1001E000201A30210143D155681C0921091B3146D1
:1001F000059B9941049C0399DAD3C0B21654280692
:10020000009B07D0D05D915DD15590557F1E761C27
:10021000BE42F7D30298834202D3002007B0F0BD5C
:10022000012007B0F0BDF0B583B0029314460E462E
:100230000746012907D13878302804D102980228CE
:100240003DD200256FE0089BB34222D2B11C0025AD
:10025000029801918142294645D80020F11A04D024
:100260003A5C2254401C8142FAD1002B024602D053
:100270002E212154421CB042114632D2331A381872
:100280001146067866545B1E401C491C002BF8D1B1
:1002900027E0D91C0025029801918142294622D8E5
:1002A000991B2E2060703020207000290DD0A01CDA
:1002B0003022009100F0CAFE0098821C06E0002067
:1002C00060703020207001252DE00222002E1146A2
:1002D00007D01146387860547F1C761E491C002ECA
:1002E000F8D1002060540298019B83421BD88A42B7
:1002F0000ED2002303E0521C9142034609D0002B8A
:10030000104600D01846A35C302BF4D00020F2E752
:1003100000200125002806D000212154401E225C27
:100320002E2A00D12154284603B0F0BDF0B58BB081
:1003300014460A46202901D900263AE01D46014606
:1003400000260A960996089607960696059604963C
:10035000039603AFB81A203000F070FE2021384613
:1003600000F056F8002809D0022D22D327497944FD
:1003700020462A4600F0D6FF01261AE0002003A9F5
:100380000A5A52BA0A52801C2028F8D103A8202108
:1003900000F03EF84742474100280DD02E46A119F3
:1003A000AD1B20462A4600F04DFE00206055012678
:1003B0007E4030460BB0F0BD0095002DF7D0009E7A
:1003C000019402960024204603AD295B00044618E0
:1003D0000A273046394600F0EDFC28534743F01B0E
:1003E000A41C202CF0D130210843029E761E019CD3
:1003F000A05503A8202100F00BF8474247410028F0
:1004000002D1002EDDD1D2E7009DC8E79C1000008C
:10041000B0B54B1E0A469A4100290ED00378002B36
:100420000BD101231C468C421A4600D30022A14264
:1004300003D0055D641C002DF5D001205040B0BDF7
:10044000F0B59DB0039302920D46074604AC6426B6
:100450002046314600F0ECFD384629462246334618
:10046000FFF764FF00282CD0239C229D04A8642160
:1004700000F0AEFF01900B21039800F0A9FF0746A2
:10048000C6B2A642224600D832462846039900F05A
:10049000D5FD002E02D02020A8557F1C0298009088
:1004A000F8B22A18C04303190198C1B204A8FFF793
:1004B000BAFE002803D06119491E00220A701DB03F
:1004C000F0BD00201DB0F0BD80B5142A00D3142269
:1004D000891A203100F0B6FD80BD80B5202A00D3F6
:1004E000202200F0AFFD80BDB0B504460A48A083CD
:1004F000A069A56829462031142200F0AFFD04212F
:10050000A1773435E560002802D003206077B0BDC4
:1005100002206077B0BDC04602020000B0B582B0D4
:1005200004460078062827D12069592805D819489B
:10053000784400F023FA00201FE0E5685A2128469D
:1005400000F076FD606900F02FF81349794402222B
:1005500001AB00F0D7FB00280AD05535019828716F
:10056000010A0DD1C1B202290DD22870042004E085
:100570000A48784400F002FA0120607002B0B0BD71
:1005800007487844D5E70748784400F0F7F9002099
:10059000F3E7C046DC0E0000E0100000D30E0000C0
:1005A000DF0E0000060F00000178090642781204F1
:1005B0005118827812028918C07808187047000014
:1005C000B0B504468568C36801690C4878442022A8
:1005D00000F0D4F9042020755920295C01290CD0A1
:1005E000002904D12046294600F00CF8B0BD04488B
:1005F000784400F0C3F900202075B0BDDD0E000086
:10060000EA0E000070B504465820085C0E465636C7
:10061000002806D020693288121D904244D1002063
:10062000B0700D4655352A78012A0CDD022A18D003
:10063000032A22D0042A30D10120B0702870208AE9
:100640003C30308070BD002A1ED0012A25D1E368DD
:100650003431142208461946FFF736FF052028706A
:1006600070BDE3682031142208461946FFF72CFFBD
:100670000120B0700420287070BDE06800F018F808
:1006800030800220287070BDE36820220846194699
:10069000FFF723FF0320287070BD044878441146FB
:1006A00000F06CF90020207570BDC046600E00009F
:1006B000C17F807F0002401880B27047B0B5044609
:1006C0008068E16805465335002909D0C97F297043
:1006D000E168483014310B2200F024FE012000E0D4
:1006E0000020042161756870B0BD0000B0B50446FB
:1006F0008568C06822690C49794400F013FE5920CE
:10070000295C002906D00A48784400F037F9002017
:100710002077B0BD6069A2690449794400F002FE07
:1007200004202077B0BDC0461D0E00000D0E000055
:10073000240E000070B50446C569406AA16A00F045
:1007400077FCE06A216B00F073FC2020205C2646D9
:100750002036022807D001280AD000280DD12046D3
:1007600000F018F80EE02046294600F059F809E09C
:100770002046294600F02CF804E00548784400F0B3
:10078000FDF80020411E88418000307570BDC046D4
:10079000D20D000010B582B00446406AA26A0A4930
:1007A000794400F0BFFD606800686221415CE26A44
:1007B000236B0092019342301222044B7B44FFF7DB
:1007C0003FFE02B010BDC046CF0D0000B80D0000C6
:1007D000B0B582B00D460446406AA26A0F4979441A
:1007E00000F0A0FD5320285C294653314978E26A85
:1007F000236B00920193002904D02C464834002931
:1008000003D003E01034002900D11220C2B220210D
:1008100028462346FFF714FE02B0B0BD9A0D000033
:10082000B0B582B00C460546406AAA6A0B497944C5
:1008300000F078FDE86A30210170E86A78214170A3
:1008400028680268E86A0021009101912034811C27
:100850002046FFF721FC02B0B0BDC046570D000096
:1008600080B5002912D00246FF20034604339A4285
:1008700011DC023082421DD08120400082421DD016
:100880009A4227D10846FFF72FFE80BD15487844CD
:1008900000F074F880BD41239B009A4212D00630CC
:1008A000824213D083204000824213D10846FFF7D2
:1008B00041FF80BD0846FFF731FE80BD0846FFF7C7
:1008C0007FFE80BD0846FFF7F9FE80BD0846FFF7B2
:1008D0000DFF80BD02487844114600F04FF880BDFE
:1008E000E50C0000430D000080B586B000200590A7
:1008F0000490064878440190012003900002029081
:1009000001A800F019FA06B080BDC046BE0C000078
:1009100080B5002000F040FA80BD0000044670461B
:1009200000F00EF8024605487844214600F026F80B
:1009300000F026FA214600F0BDFCC046C30C0000C2
:1009400003497944401A0149401870470000DEC04D
:10095000BBF6FFFFB0B582B00C46054601A881701A
:100960005F210170210A4170032100F0FDF9A1B25D
:10097000284600F0F9F902B0B0BD000083B0F0B530
:100980008CB011AC0EC4002800D1A7E1074611A815
:1009900006903878002800D1A0E10120019004E001
:1009A000BF193878002800D198E10026B85D0028EA
:1009B00003D0252801D0761CF8E738463146FFF7EA
:1009C000C9FFB85D2528EBD1B819471C00232024A6
:1009D0000593184601E0104619D139787F1C002292
:1009E0002D29F8DD472937DC0A46303A0A2A1CD27D
:1009F000039430221D460B4653402C462B4300D017
:100A0000039A0A2363435B18303B1446E5E7252924
:100A10005AD02A2900D0F0E03878732800D0ECE0D2
:100A20000699081D0690022013E02E2900D0E4E06C
:100A300038782A2800D0E0E07878482804D0732855
:100A400002D0682800D0D8E07F1C0699081D0690C7
:100A5000012009680591C0E767290ADDA24D7D44A0
:100A6000722910DD732931D0752933D0782910D03F
:100A7000C3E0622916DC482900D1A7E0582900D03C
:100A8000BBE0012006E0682900D1A4E0702900D075
:100A9000B3E0002004900698011D069100680B90B9
:100AA00010251FE0632900D1ABE0642900D0A4E049
:100AB0000698011D069100680B900A25002800D5B4
:100AC000F7E0002004900DE0781EA0E01C4602979D
:100AD000002183E00698011D069100680B9000201C
:100AE00004900A250198064602970B9905918D42BC
:100AF000039402D90746024616E05A1E0B98059049
:100B0000284607461446002128463A460B4600F080
:100B1000B9F94A1E9141059A904202D8621E0029F5
:100B2000EFD02346019A039C30465040191A002EFC
:100B300002D0002614460BE0E2B20026302A3446EA
:100B400006D107AA1C462D23137023460126019CBB
:100B50008A1E0D2A0FD8491E0DD04042009007A8CA
:100B60008019039AD2B2039300F070FA03983018F8
:100B700000994018461E002C03D107A82D2181554D
:100B8000761C002F1CD05D487844039012E0039C33
:100B90000598394600F00EF9294600F047F9605CE7
:100BA00007A988553846294600F004F9761CBD424D
:100BB000074605D804980028E9D1514C7C44E7E762
:100BC00007A83146FFF7C6FE029FEAE61C460297D9
:100BD000474D7D4401E01C4602970199069A131D7A
:100BE0000693C0B21768002815D001281AD0022831
:100BF00038D138780028029F61D03C4878440521DC
:100C000006E00698011D069100680B900BA80121D3
:100C1000FFF7A0FEC5E600203A5C401C002AFBD18D
:100C2000401E0590002920D0059C002C2AD00021D0
:100C30000E4607E007A81146FFF78CFE0021761C40
:100C4000B4421DD0B85D0209AA5C07AB5A545A18C9
:100C50000F230340E85C50708A1CC81C1028E9D29E
:100C60001146ECE705960029DED13846059D294658
:100C7000FFF770FE22462C46029FA24210D890E653
:100C8000224601E0002211460029029F05D007A854
:100C90001446FFF75FFE2246059CA24200D880E67C
:100CA000A41A154878440121FFF754FE641CF8D3B8
:100CB00077E640420B9000260496019814E72546FB
:100CC0000598441C0B4878440121FFF743FE641E3D
:100CD000F8D134462A46A242E2D862E60CB0F0BC13
:100CE00001BC03B00047C046AD0B0000080800007F
:100CF000490A00004309000065090000930A00004A
:100D00004F0A0000B0B5002A07D000240D688542C4
:100D100005D0091D641CA242F8D10020B0BD0120FD
:100D2000002BFBD01C60B0BD01DF002900D1704753
:100D30000846FFF7F3FD000080B584B00021029162
:100D40000190034801A9FFF7EFFF04B080BDC04642
:100D50000D67006082B00020019002486946FFF7ED
:100D6000E3FFFFDE8D68006080B584B001910090E4
:100D700002486946FFF7D8FF04B080BD8183006058
:100D800080B582B00020019002486946FFF7CCFF91
:100D900002B080BDB187006080B584B000210291AF
:100DA0000190034801A9FFF7BFFF04B080BDC04612
:100DB000060B0160002934D00123002210B48842C0
:100DC0002CD301242407A14204D2814202D209017A
:100DD0001B01F8E7E400A14204D2814202D249009B
:100DE0005B00F8E7884201D3401A1A434C08A0423E
:100DF00002D3001B5C0822438C08A04202D3001BD4
:100E00009C082243CC08A04202D3001BDC082243EA
:100E1000002803D01B0901D00909E3E7100010BC2A
:100E2000704701B5002000F00BF802BD0029F8D092
:100E300003B5FFF7C1FF0EBC4243891A1847C046ED
:100E40007047C046002B11D1002A0FD1002900D1D4
:100E5000002802D00021C943080007B4024802A1BB
:100E60004018029003BDC046D9FFFFFF03B4684697
:100E700001B5029800F02AF8019B9E4602B00CBC16
:100E80007047C046F7B5019383B29C460600030C39
:100E900060460D00614697B27843140C5F4363438C
:100EA0004C43010C8C46E4196444A74202D98021CA
:100EB00049025B1801996A437143270CFB1824040B
:100EC000C91880B22018891803B0F0BDF0B506002B
:100ED0000F0015001C0085B08B4263D801D18242FF
:100EE00060D82100280000F079F839000090300027
:100EF00000F074F8009B21001B1A1A0028000393CD
:100F000000F060F800900191B94245D801D1B0429B
:100F100042D8009B019C01200021039AF61AA741A8
:100F200000F050F804000D00039B002B2BD0019B18
:100F3000009ADB0750081843019B5908039B9C4605
:100F4000B9422CD801D1B04229D832003B00121A44
:100F50008B41012692185B410027B6185F4101239F
:100F60005B429C446346002BEAD130003900039A6F
:100F700000F01CF8039AA4197D4106000F0000F050
:100F800021F8241A8D410A9B002B01D01E605F605E
:100F90002000290005B0F0BD00240025C4E7B619E3
:100FA0007F41DCE700240025EDE70000D0400B0086
:100FB000D1409C46203AD340184352426346934066
:100FC000184370479140030090409C46203A93405C
:100FD000194352426346D3401943704710B5002964
:100FE00003D100F007F8203002E0080000F002F81A
:100FF00010BDC0461C2101231B04984201D3000CE4
:1010000010391B0A984201D3000A08391B0998427B
:1010100001D30009043902A2105C40187047C04691
:1010200004030202010101010000000000000000B1
:1010300010B5002200F00AF810BDC04610B500F04F
:1010400031F810BD10B500F07FF810BD0B0010B5E1
:1010500011001A0000F0CEF810BDC04630B5032ACA
:101060000CD903000B439B0719D103680C68A342FA
:1010700015D1043A04300431032AF6D8551E002A4B
:101080000BD0002303E05A1C9D4206D01300C25C23
:10109000CC5CA242F7D0101B00E0002030BD551EF2
:1010A000EFE7C046F0B5C64600B50F2A41D9032781
:1010B0000D003E0005430C0003002E402F423DD1A1
:1010C0001500103D2D09A8462D01AC468444276823
:1010D0001D001F6067685F60A7689F60E768103445
:1010E000DF6010336545F2D145460F230C240135EE
:1010F0002D01491913404519144222D08C59AC5185
:1011000004369C1B032CF9D8043B9B0801339B003D
:10111000ED18C91803231A40561E002A06D00023D2
:10112000CC5C1A00EC5401339642F9D180BCB8462D
:10113000F0BD0500561E002AF1D1F7E70500561E46
:10114000EDE71A00F6E7C046F0B588420AD98B18D9
:10115000984207D2531E002A03D0CA5CC254013BF6
:10116000FBD2F0BD0F2A0BD80500561E002AF8D07E
:101170000023CC5C1A00EC5401339642F9D1F0E71D
:1011800003270D003E0005430C0003002E402F42B4
:101190002BD11500103D2D09AC462F013F182568B5
:1011A0001D6065685D60A5689D60E5681034DD6060
:1011B0001D001033BD42F2D165460F230C240135CA
:1011C0002D01491913404519144211D08C59AC51C5
:1011D00004369C1B032CF9D8043B9B0801339B006D
:1011E000ED18C91803231A40BFE70500561EBFE7D4
:1011F0001A00BAE7F0B50500830749D0541E002A4B
:1012000045D003000326CAB202E00135013C3ED3BB
:1012100001332A703342F8D1032C30D9FF220A401F
:10122000150215432A0415430F2C34D92700103F0B
:101230003F093E01B4461E001A0010366644156090
:1012400055609560D5601032B242F8D101373F0148
:10125000DB190F270C22274022403C00002A0ED029
:101260003E1FB608B400A4461A001C1D644420C2E8
:10127000A242FCD103240136B6009B193C40002C4D
:1012800005D0C9B21C19197001339C42FBD1F0BDC5
:1012900003001400C0E72700E2E7C046F0C0414663
:1012A0004A4653465C466D4676467EC02838F0C8AE
:1012B0000020704710307CC890469946A246AB4645
:1012C000B54608C82838F0C8080000D101201847E2
:1012D00070B5002A1FD00300851802E00133AB422D
:1012E00002D01C78002CF9D11E1A951BB24213D0E3
:1012F0000C780A00002C0AD0012D02D01C70013D90
:10130000013354780132002CF6D1521AB61800225B
:101310001A70300070BD0026080000F02BF8361857
:10132000F7E7C046F0B50500002A13D0501E012A89
:1013300019D000234F1C6E1C02E00133984216D0D6
:10134000F418A446CC5CFA18EC54002CF5D1501AD1
:101350000138F0BD0A00130001335C1E24781A0026
:10136000002CF9D1F3E70A0000232B70F3E7654660
:10137000FAE7C04610B583070AD00300032102E054
:1013800001330B4205D01A78002AF9D1181A10BD82
:10139000030019680C4A0D4C8A188A4322420FD167
:1013A0005968094A04338A188A43224208D1596885
:1013B000054A04338A188A432242F1D000E00133FF
:1013C0001A78002AFBD1E1E7FFFEFEFE80808080D4
:1013D00010B503004418002903D109E001339C42F1
:1013E00004D01A78002AF9D1181A10BD201AFCE787
:1013F0000020FAE730780030313233343536373870
:1014000039616263646566004552524F5200300094
:10141000506C7567696E20706172616D657465727C
:1014200073207374727563747572652069732062BA
:101430006967676572207468616E20616C6C6F7794
:1014400065642073697A650A004572726F723A208A
:1014500073656C6563746F72206E6F7420666F7550
:101460006E64210A004572726F723A206F7665725F
:10147000666C6F77206465746563746564206F6E55
:101480002073656C6563746F7220696E6465782182
:101490000A004D697373696E672073656C656374C8
:1014A0006F72496E6465783A2025640A00706C7525
:1014B00067696E2070726F76696465207061726111
:1014C0006D657465723A206F666673657420256475
:1014D0000A42797465733A20252E2A480A0053651A
:1014E0006C6563746F7220496E646578206E6F74EA
:1014F00020737570706F727465643A2025640A00F9
:10150000506172616D206E6F7420737570706F72B0
:101510007465643A2025640A00506C7567696E42F0
:101520006F696C6572706C617465005377617000EF
:1015300053656C6563746F7220696E6465783A20D8
:101540002564206E6F7420737570706F727465649B
:101550000A00526563656976656420616E20696E74
:1015600076616C69642073637265656E496E64654B
:10157000780A0053656E64004554480052656365FF
:10158000697665204D696E2E0042656E65666963F9
:10159000696172790045786974696E6720666F6C5D
:1015A0006C6F77696E6720657863657074696F6EBC
:1015B0003A2025640A00457468657265756D0055AA
:1015C0006E68616E646C6564206D657373616765D8
:1015D0002025640A005265636569766564206E752E
:1015E0006C6C20706172616D65746572730A006560
:1015F0007863657074696F6E5B3078253034585D40
:101600003A204C523D3078253038580A00200030BE
:101610003132333435363738396162636465663068
:101620003132333435363738394142434445460048
:10163000B56AF37F4242371300000000000000004B
:101640000111506C7567696E426F696C6572706CE0
:101650006174650205312E302E300329010000002F
:1016600000FFFFFF00FFFFFFFFFFFF3FFF3FFF0700
:10167000F807F807F81FE01FE007F8C7F8C7F8FFFA
:10168000FFFFFFFFFF040A01028000002C80000022
:011690003C1D
:04000005C0D0000166
:00000001FF
