:02000004C0DE5C
:100000008CB0044662B600F083FC6D46284601F0D1
:10001000E3F9A88585B2002D0ED1684600F0B8FE40
:100020000A90002C1CD020680E49884202D06168DA
:1000300000F016FC00F08EFE6C460020A0850A98A9
:1000400000F0A6FE08487844294600F097FC00F02E
:1000500095FEA042EED10A9800F09AFE00F07AFEDA
:1000600000F042FCFF010000E916000003B4014863
:100070000BE000004800000003B4014805E0000068
:100080005A00000003B40248FFE702490847000095
:100090008700000001002100F0B593B003920491A5
:1000A000054601231898014699431E224A40199992
:1000B0000A430027002A3A4619D1059306AA332499
:1000C000234600F06FF800285FD006AE3046214688
:1000D00001F02AFA3318221A30497944184601F0FF
:1000E00095F93046214601F01FFA0246059B06A805
:1000F000059280182A4E7E44E95D0F240A092140AA
:10010000715C4170B15C0170801C7F1C142FF3D1B5
:100110001902039F3846FFF7AFFF002100283AD1AC
:100120002020019006A802900090059B2833012210
:1001300038460F4605921146029AFFF797FF394657
:10014000002828D10020049F059B05E0715C059BD9
:100150003954401C28281AD002461A404308E95C4A
:10016000002A03D021400929F0D902E00909092910
:10017000ECD906AFFB5C920004275740FB401A07FE
:10018000715C00D52039049FE1E7002103E02820BD
:10019000002139541946084613B0F0BD451500003A
:1001A00012150000F0B587B00293044600200192BA
:1001B0000546C7B27B1C029883422BD2009306955A
:1001C0000A250026204605912A46334600F07AFE8D
:1001D000049003912A46069D334600F093FE019A4F
:1001E000201A30210143D155681C0921091B3146D1
:1001F000059B9941049C0399DAD3C0B21654280692
:10020000009B07D0D05D915DD15590557F1E761C27
:10021000BE42F7D30298834202D3002007B0F0BD5C
:10022000012007B0F0BDF0B583B0029314460E462E
:100230000746012907D13878302804D102980228CE
:100240003DD200256FE0089BB34222D2B11C0025AD
:10025000029801918142294645D80020F11A04D024
:100260003A5C2254401C8142FAD1002B024602D053
:100270002E212154421CB042114632D2331A381872
:100280001146067866545B1E401C491C002BF8D1B1
:1002900027E0D91C0025029801918142294622D8E5
:1002A000991B2E2060703020207000290DD0A01CDA
:1002B0003022009100F05AFF0098821C06E00020D6
:1002C00060703020207001252DE00222002E1146A2
:1002D00007D01146387860547F1C761E491C002ECA
:1002E000F8D1002060540298019B83421BD88A42B7
:1002F0000ED2002303E0521C9142034609D0002B8A
:10030000104600D01846A35C302BF4D00020F2E752
:1003100000200125002806D000212154401E225C27
:100320002E2A00D12154284603B0F0BDF0B58BB081
:1003300014460A46202901D900263AE01D46014606
:1003400000260A960996089607960696059604963C
:10035000039603AFB81A203000F000FF2021384682
:1003600000F056F8002809D0022D22D327497944FD
:1003700020462A4601F07EF801261AE0002003A953
:100380000A5A52BA0A52801C2028F8D103A8202108
:1003900000F03EF84742474100280DD02E46A119F3
:1003A000AD1B20462A4600F0DDFE002060550126E8
:1003B0007E4030460BB0F0BD0095002DF7D0009E7A
:1003C000019402960024204603AD295B00044618E0
:1003D0000A273046394600F0E9FC28534743F01B12
:1003E000A41C202CF0D130210843029E761E019CD3
:1003F000A05503A8202100F00BF8474247410028F0
:1004000002D1002EDDD1D2E7009DC8E77B120000AB
:10041000B0B54B1E0A469A4100290ED00378002B36
:100420000BD101231C468C421A4600D30022A14264
:1004300003D0055D641C002DF5D001205040B0BDF7
:10044000F0B59DB0039302920D46074604AC6426B6
:100450002046314600F07CFE384629462246334687
:10046000FFF764FF00282CD0239C229D04A8642160
:1004700001F05AF801900B21039801F055F8074656
:10048000C6B2A642224600D832462846039900F05A
:1004900065FE002E02D02020A8557F1C02980090F7
:1004A000F8B22A18C04303190198C1B204A8FFF793
:1004B000BAFE002803D06119491E00220A701DB03F
:1004C000F0BD00201DB0F0BD80B5142A00D3142269
:1004D000891A203100F046FE80BD80B5202A00D365
:1004E000202200F03FFE80BDB0B504460A48A0833C
:1004F000A069A56829462031142200F03FFE04219E
:10050000A1773435E560002802D003206077B0BDC4
:1005100002206077B0BDC04602020000B0B582B0D4
:1005200004460078062827D12069592805D819489B
:10053000784400F023FA00201FE0E5685A2128469D
:1005400000F006FE606900F02FF81349794402229A
:1005500001AB00F0D7FB00280AD05535019828716F
:10056000010A0DD1C1B202290DD22870042004E085
:100570000A48784400F002FA0120607002B0B0BD71
:1005800007487844D5E70748784400F0F7F9002099
:10059000F3E7C04620100000401200005210000097
:1005A00002110000C8110000017809064278120407
:1005B0005118827812028918C07808187047D4D46C
:1005C000B0B504468568C36801690C4878442022A8
:1005D00000F0D4F9042020755920295C01290CD0A1
:1005E000002904D12046294600F00CF8B0BD04488B
:1005F000784400F0C3F900202075B0BD2011000040
:100600003210000070B504465820085C0E4656367D
:10061000002806D020693288121D904244D1002063
:10062000B0700D4655352A78012A0CDD022A18D003
:10063000032A22D0042A30D10120B0702870208AE9
:100640003C30308070BD002A1ED0012A25D1E368DD
:100650003431142208461946FFF736FF052028706A
:1006600070BDE3682031142208461946FFF72CFFBD
:100670000120B0700420287070BDE06800F018F808
:1006800030800220287070BDE36820220846194699
:10069000FFF723FF0320287070BD044878441146FB
:1006A00000F06CF90020207570BDC0464F0F0000AF
:1006B000C17F807F0002401880B27047B0B5044609
:1006C0008068E16805465335002909D0C97F297043
:1006D000E168483014310B2200F0CCFE012000E02C
:1006E0000020042161756870B0BDD4D4B0B5044653
:1006F0008568C06822690C49794400F0BBFE592026
:10070000295C002906D00A48784400F037F9002017
:100710002077B0BD6069A2690449794400F0AAFE5F
:1007200004202077B0BDC04625100000A50E0000B3
:10073000810E000070B50446C569406AA16A00F0E8
:1007400007FDE06A216B00F003FD2020205C2646B7
:100750002036022807D001280AD000280DD12046D3
:1007600000F018F80EE02046294600F059F809E09C
:100770002046294600F02CF804E00548784400F0B3
:10078000FDF80020411E88418000307570BDC046D4
:10079000350F000010B582B00446406AA26A0A49CB
:1007A000794400F067FE606800686221415CE26A9B
:1007B000236B0092019342301222044B7B44FFF7DB
:1007C0003FFE02B010BDC0460B0E0000480E0000F8
:1007D000B0B582B00D460446406AA26A0F4979441A
:1007E00000F048FE5320285C294653314978E26ADC
:1007F000236B00920193002904D02C464834002931
:1008000003D003E01034002900D11220C2B220210D
:1008100028462346FFF714FE02B0B0BDD20D0000FB
:10082000B0B582B00C460546406AAA6A0B497944C5
:1008300000F020FEE86A30210170E86A78214170FA
:1008400028680268E86A0021009101912034811C27
:100850002046FFF721FC02B0B0BDC0462C0E0000C0
:1008600080B5002912D00246FF20034604339A4285
:1008700011DC023082421DD08120400082421DD016
:100880009A4227D10846FFF72FFE80BD15487844CD
:1008900000F074F880BD41239B009A4212D00630CC
:1008A000824213D083204000824213D10846FFF7D2
:1008B00041FF80BD0846FFF731FE80BD0846FFF7C7
:1008C0007FFE80BD0846FFF7F9FE80BD0846FFF7B2
:1008D0000DFF80BD02487844114600F04FF880BDFE
:1008E0006E0D0000440E000080B586B0002005901B
:1008F0000490064878440190012003900002029081
:1009000001A800F019FA06B080BDC046EC0C00004A
:1009100080B5002000F03CFA80BDD4D40446704677
:1009200000F00EF8024605487844214600F026F80B
:1009300000F024FA214600F05BFDC0463E0D0000A9
:1009400003497944401A0149401870470000DEC04D
:10095000BBF6FFFFB0B582B00C46054601A881701A
:100960005F210170210A4170032100F0FBF9A1B25F
:10097000284600F0F7F902B0B0BDD4D483B0F0B58A
:100980008CB011AC0EC4002800D1A7E1074611A815
:1009900006903878002800D1A0E10120019004E001
:1009A000BF193878002800D198E10026B85D0028EA
:1009B00003D0252801D0761CF8E738463146FFF7EA
:1009C000C9FFB85D2528EBD1B819471C00232024A6
:1009D0000593184601E0104619D139787F1C002292
:1009E0002D29F8DD472937DC0A46303A0A2A1CD27D
:1009F000039430221D460B4653402C462B4300D017
:100A0000039A0A2363435B18303B1446E5E7252924
:100A10005AD02A2900D0F0E03878732800D0ECE0D2
:100A20000699081D0690022013E02E2900D0E4E06C
:100A300038782A2800D0E0E07878482804D0732855
:100A400002D0682800D0D8E07F1C0699081D0690C7
:100A5000012009680591C0E767290ADDA24D7D44A0
:100A6000722910DD732931D0752933D0782910D03F
:100A7000C3E0622916DC482900D1A7E0582900D03C
:100A8000BBE0012006E0682900D1A4E0702900D075
:100A9000B3E0002004900698011D069100680B90B9
:100AA00010251FE0632900D1ABE0642900D0A4E049
:100AB0000698011D069100680B900A25002800D5B4
:100AC000F7E0002004900DE0781EA0E01C4602979D
:100AD000002183E00698011D069100680B9000201C
:100AE00004900A250198064602970B9905918D42BC
:100AF000039402D90746024616E05A1E0B98059049
:100B0000284607461446002128463A460B4600F080
:100B1000F9F94A1E9141059A904202D8621E0029B5
:100B2000EFD02346019A039C30465040191A002EFC
:100B300002D0002614460BE0E2B20026302A3446EA
:100B400006D107AA1C462D23137023460126019CBB
:100B50008A1E0D2A0FD8491E0DD04042009007A8CA
:100B60008019039AD2B2039300F000FB0398301867
:100B700000994018461E002C03D107A82D2181554D
:100B8000761C002F1CD05D487844039012E0039C33
:100B90000598394600F00AF9294600F08DF9605CA5
:100BA00007A988553846294600F000F9761CBD4251
:100BB000074605D804980028E9D1514C7C44E7E762
:100BC00007A83146FFF7C6FE029FEAE61C460297D9
:100BD000474D7D4401E01C4602970199069A131D7A
:100BE0000693C0B21768002815D001281AD0022831
:100BF00038D138780028029F61D03C4878440521DC
:100C000006E00698011D069100680B900BA80121D3
:100C1000FFF7A0FEC5E600203A5C401C002AFBD18D
:100C2000401E0590002920D0059C002C2AD00021D0
:100C30000E4607E007A81146FFF78CFE0021761C40
:100C4000B4421DD0B85D0209AA5C07AB5A545A18C9
:100C50000F230340E85C50708A1CC81C1028E9D29E
:100C60001146ECE705960029DED13846059D294658
:100C7000FFF770FE22462C46029FA24210D890E653
:100C8000224601E0002211460029029F05D007A854
:100C90001446FFF75FFE2246059CA24200D880E67C
:100CA000A41A154878440121FFF754FE641CF8D3B8
:100CB00077E640420B9000260496019814E72546FB
:100CC0000598441C0B4878440121FFF743FE641E3D
:100CD000F8D134462A46A242E2D862E60CB0F0BC13
:100CE00001BC03B00047C0460D0D00001D0A000006
:100CF000A90B0000F708000019090000F30B000021
:100D0000AF0B0000B0B5002A07D000240D68854263
:100D100005D0091D641CA242F8D10020B0BD0120FD
:100D2000002BFBD01C60B0BD01DF002900D1704753
:100D30000846FFF7F3FDD4D480B582B000210191BD
:100D4000009003486946FFF7EFFF02B080BDC04640
:100D50006700000182B00020019068206946FFF71B
:100D6000E3FFFFDE80B582B0019100900248694642
:100D7000FFF7DAFF02B080BD8300000280B582B0C9
:100D80000020019087206946FFF7CEFF02B080BDAA
:100D900080B582B000210191009003486946FFF7B9
:100DA000C3FF02B080BDC0460B0100010022430812
:100DB0008B4274D303098B425FD3030A8B4244D323
:100DC000030B8B4228D3030C8B420DD3FF22090265
:100DD00012BA030C8B4202D31212090265D0030B24
:100DE0008B4219D300E0090AC30B8B4201D3CB031A
:100DF000C01A5241830B8B4201D38B03C01A52415C
:100E0000430B8B4201D34B03C01A5241030B8B425D
:100E100001D30B03C01A5241C30A8B4201D3CB0248
:100E2000C01A5241830A8B4201D38B02C01A52412D
:100E3000430A8B4201D34B02C01A5241030A8B4230
:100E400001D30B02C01A5241CDD2C3098B4201D348
:100E5000CB01C01A524183098B4201D38B01C01AC6
:100E6000524143098B4201D34B01C01A524103093D
:100E70008B4201D30B01C01A5241C3088B4201D3EC
:100E8000CB00C01A524183088B4201D38B00C01A99
:100E9000524143088B4201D34B00C01A5241411AC0
:100EA00000D20146524110467047FFE701B50020CD
:100EB00000F006F802BDC0460029F7D076E770477B
:100EC0007047C046002B11D1002A0FD1002900D154
:100ED000002802D00021C943081C07B4024802A11F
:100EE0004018029003BDC046D9FFFFFF03B4684617
:100EF00001B5029800F030F8019B9E4602B00CBC90
:100F00007047C046F0B5CE46474615042D0C2E005E
:100F100080B50704140C3F0C9946030C7E435D43D7
:100F2000674363437F19340CE4199C46A54203D9F7
:100F300080235B029846C4444B4643435143250CEF
:100F400036046544360C2404A4195B195918200092
:100F50000CBC90469946F0BDF0B557464E46454606
:100F6000DE46E0B5040083B00D00924699468B4200
:100F700030D82DD04946504600F0C0F82900060070
:100F8000200000F0BBF8331A9846203B9B4633D430
:100F90005A465346934042461F00534693401E0014
:100FA000AF423AD8AF4200D17BE05B46A41BBD41C3
:100FB000002B00DA78E00022002300920193012345
:100FC0005A4693400193012342469340009328E000
:100FD0008242CFD900220023009201930C9B002B68
:100FE00001D01C605D600098019903B03CBC904644
:100FF0009946A246AB46F0BD424620239B1A524674
:10100000DA40414613004A468A40170042461F43D1
:10101000534693401E00AF42C4D9002200230092E1
:1010200001934346002BD9D0FB079C4661467208CA
:101030000A437B0846460EE0AB4201D1A2420CD8DF
:10104000A41A9D41012024196D410021013E24185C
:101050004D41002E06D0AB42EED9013E24196D4120
:10106000002EF8D1009801995B4600196941002BC8
:1010700025DB2B005A464446D3402A00E2401C00A0
:101080005B461500002B2BDB26005F46BE4033007D
:1010900026004746BE403200801A994100900191D7
:1010A0009CE7A342B9D880E74246202300219B1A3F
:1010B0000022009101920122DA40019283E7424628
:1010C00020239B1A2A0046469A402300F3404446B8
:1010D00013432A00E2401C005B461500002BD3DAC4
:1010E0002023424626009B1ADE402F00B446464687
:1010F000B74066463B003343CAE7C04610B50029F7
:1011000003D100F007F8203002E0081C00F002F8DC
:1011100010BDC0461C2101231B04984201D3000CC2
:1011200010391B0A984201D3000A08391B0998425A
:1011300001D30009043902A2105C40187047C04670
:101140000403020201010101000000000000000090
:1011500010B5002200F00AF810BDC04610B500F02E
:1011600035F810BD10B500F085F810BD130010B5AE
:101170000A00190000F0DCF810BDC04630B5032AA3
:101180000CD903000B439B071CD103680C68A342D6
:1011900018D1043A04300431032AF6D8551E002A27
:1011A0000ED002780C7894420ED10135012301391A
:1011B00004E0C25C0133CC5CA24205D1AB42F8D161
:1011C000002030BD551EECE7101BFAE7F0B5C6460F
:1011D00000B50F2A43D90B00032603431E400C0021
:1011E0000300002E40D11500103D2D09AC462D0105
:1011F000A846804400E03B00676825685F60E768B8
:101200001D60DF601F00A56810379D6010344345E6
:10121000F1D165460F230C2401352D0149191340E6
:101220004519144223D08C59AC5104369C1B032C15
:10123000F9D80324043B9B0801339B002240ED189E
:10124000C918561E002A07D0002300E02300CA5CFC
:101250005C1CEA549E42F9D104BC9046F0BD0500E6
:10126000561E002AF0D1F7E7561E0500ECE71A00DB
:10127000F6E7C046F0B5C64600B588420CD98B18D3
:10128000984209D2531E002A03D0CA5CC254013BC3
:10129000FBD204BC9046F0BD0F2A0CD80500561EA8
:1012A000002AF6D0002300E02300CA5C5C1CEA544C
:1012B0009E42F9D1EDE70B00032603431E400C00CC
:1012C0000300002E2ED11500103D2D09AC462D0136
:1012D000A846804400E02B001D00276810351F60E1
:1012E00067685F60A7689F60E7681034DF60434508
:1012F000F1D165460F230C2401352D014919134006
:101300004519144211D08C59AC5104369C1B032C46
:10131000F9D80324043B9B0801339B00ED18C9183E
:101320002240BCE7561E0500BCE71A00B7E7C046DE
:10133000F0B5050083074AD0541E002A44D0CEB22F
:101340000300032202E00135013C3DD301332E703E
:101350001342F8D1032C2FD9FF220A40150215435E
:101360002A0415430F2C35D92700103F3F093E01B1
:10137000B4461E001A00103666441560556095602C
:10138000D5601032B242F8D10F260C2201373F014E
:101390002640DB193700224217D03E1FB608B400A2
:1013A000A4461A001C1D644420C2A242FCD103249E
:1013B0000136B6009B193C40002C05D0C9B21C195F
:1013C000197001339C42FBD1F0BD3400F4E71400E6
:1013D0000300BFE72700E0E7F0C041464A46534616
:1013E0005C466D4676467EC02838F0C800207047BF
:1013F00010307CC890469946A246AB46B54608C810
:101400002838F0C8081C00D10120184770B5002A00
:101410002AD00378002B29D08418030002E01D781D
:10142000002D18D00133A342F9D1261A921B16D0F1
:101430000D780B00002D0AD0012A02D02570013A48
:10144000013401331D78002DF6D15B1AF618002304
:101450002370300070BD1C00261A921BE8D10800D2
:1014600000F02EF83618F4E70026F8E7040000260E
:10147000DEE7C046F0B5002A13D0013A002A19D0A1
:1014800000234F1C461C02E001339A4216D0F51887
:10149000AC46CD5CFC18C554002DF5D1601A01385E
:1014A000F0BD0C00230001335A1E12781C00002AE4
:1014B000F9D1F3E70C0000230370F3E76046FAE785
:1014C00010B5830727D00378002B26D00300032113
:1014D00002E01A78002A1CD001330B42F9D11968B6
:1014E0000F4A104C8A188A4322420FD104331968DC
:1014F0000B4A8A188A43224208D104331968084AE1
:101500008A188A432242F1D000E001331A78002A77
:10151000FBD1181A10BD0300E1E70020FAE7C0462E
:10152000FFFEFEFE8080808010B500290BD003787E
:10153000002B0CD04418030002E01A78002A04D0D3
:101540000133A342F9D1080010BD191AFBE70021AD
:10155000F9E7C046506C7567696E20706172616D05
:101560006574657273207374727563747572652027
:10157000697320626967676572207468616E2061B3
:101580006C6C6F7765642073697A650A0053656CCB
:101590006563746F7220696E6465783A20256420F3
:1015A0006E6F7420737570706F727465640A005387
:1015B000656E640052656365697665204D696E2EBF
:1015C00000200053776170004572726F723A207389
:1015D000656C6563746F72206E6F7420666F756ED4
:1015E00064210A00457468657265756D00300050AD
:1015F0006172616D206E6F7420737570706F72749C
:1016000065643A2025640A0045544800303132337D
:101610003435363738396162636465660045525245
:101620004F520030780053656C6563746F722049C7
:101630006E646578206E6F7420737570706F72744D
:1016400065643A2025640A00556E68616E646C65B5
:1016500064206D6573736167652025640A004265C7
:101660006E65666963696172790065786365707437
:10167000696F6E5B3078253034585D3A204C523DAE
:101680003078253038580A004572726F723A206FF0
:10169000766572666C6F77206465746563746564E3
:1016A000206F6E2073656C6563746F7220696E6461
:1016B0006578210A00526563656976656420616E0C
:1016C00020696E76616C69642073637265656E492A
:1016D0006E6465780A005265636569766564206E9C
:1016E000756C6C20706172616D65746572730A004F
:1016F000706C7567696E2070726F766964652070B2
:101700006172616D657465723A206F6666736574A7
:101710002025640A42797465733A20252E2A480AE6
:1017200000506C7567696E426F696C6572706C61B0
:1017300074650045786974696E6720666F6C6C6FBC
:1017400077696E6720657863657074696F6E3A209B
:1017500025640A004D697373696E672073656C6553
:1017600063746F72496E6465783A2025640A0030AC
:101770003132333435363738396162636465663007
:10178000313233343536373839414243444546D413
:10179000B56AF37F42423713D4D4D4D4D4D4D4D44A
:1017A000D4D4D4D4D4D4D4D4D4D4D4D4D4D4D4D4F9
:1017B000D4D4D4D4D4D4D4D4D4D4D4D4D4D4D4D4E9
:1017C000D4D4D4D4D4D4D4D4D4D4D4D4D4D4D4D4D9
:1017D000D4D4D4D4D4D4D4D4D4D4D4D4D4D4D4D4C9
:1017E000D4D4D4D4D4D4D4D4D4D4D4D4D4D4D4D4B9
:1017F000D4D4D4D4D4D4D4D4D4D4D4D4D4D4D4D4A9
:101800000111506C7567696E426F696C6572706C1E
:101810006174650205312E302E3003220100000074
:1018200000FFFFFF0000000000068001FC03FFC076
:101830003FC03FF00FFFC039700E00000000040AE7
:0A18400001028000002C8000003C33
:04000005C0DE000158
:00000001FF
