:02000004C0DE5C
:100000008CB0044662B600F09FFC6D46284601F0B5
:10001000B7F881B2ADF82C0071B9684600F0C8FE9F
:100020000A90F4B1206840F2FF11884202D0616862
:1000300000F036FC00F09EFE0A980C460021ADF858
:100040002C1000F0B5FE08482146784400F0B4FCBE
:1000500000F0A4FEA842EDD10A9800F0A9FE00F03D
:1000600089FE00F05DFC00BFC513000003B44FF033
:10007000470007E003B44FF0590003E003B44FF02A
:100080008600FFE700490847018080002DE9F04520
:100090008FB092460C46DDE91621054622F0010399
:1000A00083F01E030B4318D102AF10463A463323A8
:1000B00000F06AF8D8B33846332101F0AFF8304980
:1000C0003B18C0F133027944184601F067F838460E
:1000D000332101F0A3F8074600E000270DF10808DE
:1000E000284E07EB080002387E444FF0FF3100BF76
:1000F0006A18527801311309F35C02F00F02B25C06
:1001000000F8023F13294270F2D150464FF480713B
:10011000FFF7B0FF58B9202007F12803019050469F
:1001200001214246CDF80080FFF7A0FF18B1002062
:100130000FB0BDE8F08500204FF0040C0DE000BFCB
:1001400018F803108CEA8703D940B25C090748BF4E
:10015000203A2254013028280BD04308E95C10F0E3
:10016000010701F00F0208BF0A09092AE8D8B25CAA
:10017000EFE7002084F8280001200FB0BDE8F085EB
:1001800039120000001200002DE9F04D9846924609
:100190000F460646002200BFD5B26C1C44452FD244
:1001A0009346304639460A22002300F00FFED6F16E
:1001B00009024FF00002BA4100EB8002A6EB4202B6
:1001C00042F030020AF805200BF1010206460F4604
:1001D000E2D3D0B200215FEA0B620AF800100FD020
:1001E0004FF0FF300AEB00014A781AF805300AF8A0
:1001F00005204B70811C013DA94200F10100F1D3A3
:100200000020444538BF0120BDE8F08D2DE9F04DB8
:100210009B4614460E46012907460FD138783028F0
:100220000CD1BBF1020F4FF0000038BFBDE8F08DDC
:100230003021217060700120BDE8F08DDDF820C014
:10024000B44505D206F1020EDE4507D9002040E094
:100250000CF1030ADA4513D9002072E0B6EB0C0268
:100260001ED0ACEB06034FF0FF3200BFB918A51843
:1002700001324978981801306970F7D1531C10E0A9
:100280003020BCEB060820704FF02E00607048D084
:10029000A01C4146302200F02EFF08F1020C42E083
:1002A0000023BCF1000F9C461EBF03F1010C2E2061
:1002B000E054B34260460AD2D819471EF31A624688
:1002C00017F8011F501CA154013B0246F8D1002130
:1002D0002154DE4584BF0020BDE8F08D0023844515
:1002E0004FF0000111D24242ACF10100002100BFE9
:1002F00027187F780130002908BF0146302F02EB14
:10030000000718BF19460137F2D1002993D0481EC3
:10031000235C00222E2B625408BF22540120BDE82A
:10032000F08D4FF0020C60464EB1791E634600BF5F
:1003300011F8012F581CE254013E0346F8D1002168
:100340002154DA4584BF0020BDE8F08DC6E70000E7
:100350002DE9F04589B092460A460146202A4FF021
:1003600000003CD801AECDE90700CDE90500CDE99C
:100370000300CDE90100B01A2030984600F0B7FE26
:100380003046202100F066F830B1B8F1020F29D2D2
:10039000002009B0BDE8F085002000BF36F810103D
:1003A00009BA090C26F8101001301028F6D101AE58
:1003B0003046202100F04EF8B0FA80F14FEA511497
:1003C000D0B14746A8EB07050AEB070150462A467D
:1003D00000F08FFE00200AF8050084F0010009B04B
:1003E000BDE8F0851A4950467944424600F0F9FECE
:1003F000012009B0BDE8F085B8F1000FEDD0134D34
:10040000474600BF0020002136F8102042EA014193
:10041000A1FB0523DA0802EB820326F81020013045
:100420001028A1EB4301EFD1013F41F030000AF861
:1004300007003046202100F00DF8B0FA80F10028C6
:100440004FEA5114BED1002FDCD1C6E7CDCCCCCCC5
:10045000E10E000000298C4618BF4FF0010C0FD0B0
:1004600003786BB9012300BF8B424FF0000C38BFFB
:100470004FF0010C994203D0C25C0133002AF3D043
:100480008CF0010070472DE9F04D9AB001AC0D469B
:100490000746204664211E46924600F025FE384657
:1004A000294622466423FFF753FF80B3DDE9228B00
:1004B00001A8642100F0B2FE074630460B2100F08F
:1004C000ADFEC4B205462246404631465C4588BF73
:1004D0005A4600F00CFE002C1EBF0135202008F803
:1004E0000400E8B208EB0002C043F9B200EB0B03D2
:1004F00001A8CDF800A0FFF789FE00281EBF0BEB76
:100500000801002201F8012C1AB0BDE8F08D00208E
:100510001AB0BDE8F08D80B5142A28BF1422891ABC
:10052000203100F0E6FD80BD80B5202A28BF2022C2
:1005300000F0DFFD80BDB0B5044640F20220A568A2
:10054000A083A06905F12001142200F0D9FD032148
:10055000002805F1340008BF0221E0600420617723
:10056000A077B0BDB0B582B004460078062828D187
:100570002069592805D81948784400F01DFA002050
:1005800020E0E5685A21284600F0AEFD606900F0E1
:100590002FF8134901AB7944022200F0C1FB60B18E
:1005A0000198B0F5807F85F859000ED2C1B20229BA
:1005B0000ED285F85500042004E00A48784400F083
:1005C000FBF90120607002B0B0BD07487844D4E761
:1005D0000648784400F0F0F90020F3E7B80C00007A
:1005E000D60E0000E80C0000980D00005E0E000022
:1005F0004278017883781204C07842EA016141EAC6
:100600000321084470470000B0B50446D0E9025306
:1006100001690C482022784400F0CEF995F8591071
:1006200004200129207508BFB0BD21B92046294604
:1006300000F00CF8B0BD0448784400F0BDF900208B
:100640002075B0BDB60D0000CA0C0000B0B50C4658
:1006500091F85810054649B1B4F85600296904309C
:10066000814218BFB0BD002084F8580094F855109E
:1006700001290FDD02291AD0032925D0042935D1FB
:10068000288A3C30A4F85600012084F8580084F8E9
:100690005500B0BD09B3012928D1E96804F134003F
:1006A0001422FFF738FF052084F85500B0BDE96833
:1006B00004F120001422FFF72EFF042084F85500D7
:1006C000012084F85800B0BDE86800F019F8A4F8DB
:1006D0005600022084F85500B0BDE968204620226B
:1006E000FFF722FF032084F85500B0BD034878448B
:1006F00000F062F900202875B0BD00BFDD0B0000DE
:10070000817FC07F40EA012080B27047B0B50446C7
:10071000C068A56858B1C07FE16885F8530005F14D
:10072000480014310B2200F05CFD012000E00020A5
:1007300085F8540004206075B0BD0000B0B50446D3
:10074000D0E9025022690B49794400F04AFD95F83E
:10075000591031B10948784400F02EF90020207773
:10076000B0BDD4E905020449794400F03AFD042003
:100770002077B0BDB50C0000370B0000130B000054
:10078000B0B50446C569406AA16A00F0ADFCD4E981
:100790000B0100F0A9FC94F82000022806D00128E3
:1007A00009D068B9204600F019F80EE02046294625
:1007B00000F056F809E02046294600F02DF804E044
:1007C0000548784400F0F8F80020002818BF0420FD
:1007D00084F83400B0BD00BFCF0B000010B582B06C
:1007E0000446406AA26A0A49794400F0FAFC60684B
:1007F000E26A0068246B90F862100092054B423068
:100800007B4412220194FFF73EFE02B010BD00BFF0
:10081000A30A0000E40A0000B0B582B00446406AB2
:10082000A26A0D460D49794400F0DBFC95F85400AE
:1008300005F1480395F85310002808BF04F1100390
:10084000D4E90B0408BF12210090CAB22846202127
:100850000194FFF718FE02B0B0BD00BF6A0A0000A5
:10086000B0B582B00446406AA26A0D460B4979448D
:1008700000F0B7FCE06A30210170E06A7821417035
:100880002168E36A0A6805F12000991C0023CDE97C
:100890000033FFF7FBFB02B0B0BD00BFCC0A000085
:1008A00080B591B10246B0F5827F13DA40F20110B3
:1008B00082421BD0B2F5817F1CD040F203108242ED
:1008C00024D10846FFF737FE80BD1448784400F075
:1008D00073F880BD12D040F20510824212D0B2F5FA
:1008E000837F13D10846FFF74BFF80BD0846FFF713
:1008F00039FE80BD0846FFF787FE80BD0846FFF73A
:1009000005FF80BD0846FFF719FF80BD024811466C
:10091000784400F051F880BD140A0000E60A000097
:1009200080B586B00748784401904FF480700290FB
:10093000012003900020CDE9040001A800F00CFA8A
:1009400006B080BD9A09000080B5002000F030FAA2
:1009500080BD00000446704600F00EF802460548CF
:100960002146784400F028F800F018FA214600F0FB
:100970000DFC00BFE40900000349024A7944401A13
:10098000104470470000DEC081F6FFFFB0B582B0B2
:1009900005465F208DF80400080A0C468DF8050016
:1009A0008DF8061001A8032100F0ECF9A1B2284649
:1009B00000F0E8F902B0B0BD83B02DE9F04D89B088
:1009C000CDE91112139320B10446007811A90391C7
:1009D00058B909B0BDE8F04D03B0704741466C1EF0
:1009E000FFF7D4FF20780028F3D00026A05D18B1CF
:1009F000252801D00136F9E720463146A519FFF731
:100A0000C5FFA05D2C462528ECD1691C00274FF0BE
:100A1000200C4FF0000800204D1C15F8011C01357A
:100A20002D2915DC4FF00000F7D0252974D02A2994
:100A300040F00281294611F8010D732840F0FC8036
:100A40000398021D0392D0F800800220E4E700BF63
:100A5000472929DCA1F130020A2A0DD281F03002A7
:100A60003A4307EB870201EB420108BF4FF0300C1D
:100A7000A1F13007691ECFE72E2940F0DD8015F87F
:100A8000010C2A2840F0D8802878482804D0732800
:100A900002D0682840F0D0800399081D0390D1F857
:100AA000008001202946B7E7672908DD722910DD9B
:100AB000732933D0752936D0782910D0BCE062294B
:100AC00016DC482900F0A280582940F0B5800124A6
:100AD00006E0682900F09D80702940F0AD80002478
:100AE00003981026011D039100680890012022E060
:100AF000632900F0A580642940F09E800398011DC1
:100B000003910068B0F1FF3F089011DC404208906B
:100B100000200A2600240EE0A81E97E07A497944B6
:100B20008A46002179E00398011D0391006808902E
:100B3000002401200A26DDF820A0564502D94FF0F6
:100B4000010B10E0DDF820A07B1E31468B46A6FB92
:100B50000112002A18BF012251451F4603D8002A5E
:100B6000A7F10103F2D018B14FF0000801230DE006
:100B70005FFA8CF1302906D12D2101234FF00108B5
:100B80008DF8101002E000234FF0000880F0010003
:100B9000391A8A1E0D2A11D801390FD0404201900E
:100BA00004A840445FFA8CF2029300F0A4FA019981
:100BB00008EB0700029B0844A0F10108002B04A8E1
:100BC00002BF2D2100F8081008F10108BBF1000F49
:100BD0003FF404AF5049A8F101077944BAFBFBF296
:100BE000002CB2FBF6F303FB16224C4B7B4408BFF0
:100BF0000B469A5C5E45BBFBF6FB00EB070307F177
:100C000001075A70EAD907F10108E7E63F4979443C
:100C100001E03C4979448A460121039AC0B2131D80
:100C20000393D2F800B0B0B101281CD002283DD106
:100C30009BF80000002857D031480521784406E091
:100C40000398011D03910068089008A80121FFF78F
:100C50009DFE6C1EC6E600201BF800200130002A15
:100C6000FAD1A0F1010821B3B8F1000F27D000217B
:100C7000002604AF03E000BF0136B0451CD01BF8CE
:100C800006007B18020900F00F001AF800001AF89D
:100C900002205870C81C7A54102801F102015446F1
:100CA000EAD33846FFF772FE0021E5E7B046002997
:100CB000DAD15846414606E0474619B905E0002713
:100CC000002111B104A8FFF761FE4745A5F1010419
:100CD0007FF688AEA8EB07050E4801217844FFF7A0
:100CE00055FE0135F8D37DE608F1010408480121DD
:100CF0007844FFF74BFE013CF8D1B046E5E700BF72
:100D0000BD060000370800002D0900004D08000056
:100D1000AD050000C1050000710800006F0800006B
:100D200080B54AB14FF0000C51F82CE0864505D053
:100D30000CF1010C6245F7D1002080BD1BB10120F0
:100D4000C3F800C080BD012080BD01DF002900D1B3
:100D500070470846FFF7FEFD80B582B00090002086
:100D6000019003486946FFF7F0FF02B080BD00BF65
:100D70006700000182B00020019069466820FFF7FB
:100D8000E4FFFFDE80B582B0CDE90001024869468C
:100D9000FFF7DBFF02B080BD8300000280B582B0A8
:100DA0000020019069468720FFF7CFFF02B080BD89
:100DB00080B582B000900020019003486946FFF79B
:100DC000C4FF02B080BD00BF0B01000153B94AB996
:100DD000002908BF00281CBF4FF0FF314FF0FF3043
:100DE00000F00CB8ADF1080C6DE904CE00F008F885
:100DF000DDF804E0DDE9022304B07047704700BF6E
:100E00002DE9F04F099E0D4604460F46002B47D1B1
:100E10008A4294465FD9B2FA82F343B1C3F120010A
:100E20009F4002FA03FC9C4020FA01F10F434FEA75
:100E30001C451FFA8CFE220CB7FBF5F105FB117760
:100E400001FB0EF042EA0742904208D91CEB020275
:100E500001F1FF3702D2904200F234813946121A72
:100E6000A4B2B2FBF5F005FB102200FB0EFE44EA33
:100E70000244A64508D91CEB040400F1FF3202D25B
:100E8000A64500F21981104640EA0140A4EB0E0489
:100E900000211EB1DC400023C6E90043BDE8F08F0D
:100EA0008B4208D9002E00F0FB800021C6E9000526
:100EB0000846BDE8F08FB3FA83F100294BD1AB426D
:100EC000C0F0F180824240F2EE800846002EE5D06C
:100ED000C6E90047E2E702B9FFDEB2FA82F3002B6F
:100EE00040F09D808D1A4FEA124E97B20121B5FB5A
:100EF000FEF20EFB1250250C45EA004507FB02F0FE
:100F0000A8420FD91CEB050502F1FF382CBF4FF0AA
:100F100001094FF00009A84203D9B9F1000F00F010
:100F2000CE8042462D1AA4B2B5FBFEF00EFB105542
:100F300000FB07F744EA0544A74208D91CEB040468
:100F400000F1FF3502D2A74200F2B3802846E41B2D
:100F500040EA02409DE7C1F120078B4005FA01F409
:100F600022FA07FCFD408A404CEA030C20FA07F302
:100F70004FEA1C491C431FFA8CFE00FA01F3200CB7
:100F8000B5FBF9F809FB185540EA054508FB0EF0DA
:100F9000A8420FD91CEB050508F1FF3A2CBF4FF012
:100FA000010B4FF0000BA84203D9BBF1000F00F07A
:100FB0008C80D0462D1AA4B2B5FBF9F009FB105570
:100FC00000FB0EFE44EA0545AE4507D91CEB0505BE
:100FD00000F1FF3401D2AE457ED8204640EA0840F9
:100FE000A5EB0E05A0FB029845454C46C64602D32C
:100FF00006D14B4504D20138B9EB020468EB0C0E64
:10100000002E6FD01A1B65EB0E0522FA01F305FACC
:1010100007F7CD4000211F43C6E900753EE702FAFD
:1010200003FCC3F1200001FA03F24FEA1C4EC14059
:1010300024FA00F51FFA8CF79C401543B1FBFEF033
:101040002A0C0EFB101142EA014200FB07F191420B
:101050000ED91CEB020200F1FF382CBF4FF0010942
:101060004FF00009914202D9B9F1000F31D040464A
:10107000521AADB2B2FBFEF10EFB112245EA024557
:1010800001FB07F2AA4207D91CEB050501F1FF3865
:1010900001D2AA4223D84146AD1A41EA004126E7CF
:1010A00031463046FAE6841A65EB030301201F46F9
:1010B0000CE7644402384AE764440238E4E6023A42
:1010C00065442FE702396244C9E6A8F10208654485
:1010D00070E702386244CBE7023865447EE70239A4
:1010E0006544D9E73146D9E6002200F004B800F0A3
:1010F00017B800F022B813460A46194600F037B870
:101100000139024410B5904201D1002005E0037876
:1011100011F8014FA34201D0181B10BD0130F2E7B6
:101120000A44431E914200D1704710B511F8014B9B
:10113000914203F8014FF9D110BD884210B501EB7F
:10114000020402D98442234607D8431EA14208D094
:1011500011F8012B03F8012FF8E7024401468A42F7
:1011600000D110BD13F8014D02F8014DF7E702441C
:101170000346934200D1704703F8011BF9E70000D2
:10118000EC46A0E8F05F4FF000007047B0E8F05F79
:10119000E546080008BF0120704700BF70B504464F
:1011A000084616192146B1420B4606D11C1B121BDC
:1011B00008D100F02BF8204470BD1D780131002DBE
:1011C000F1D1F3E70646314616F8015B15B9081A66
:1011D0001D70F0E7012A1CBF02F1FF3203F8015B2A
:1011E000F1E70B4610B562B1013A08D013F8014B94
:1011F00000F8014B002CF7D1581A013810BD00221D
:10120000027013F8012B002AFBD1F5E7034613F80F
:10121000012B002AFBD1181A0138704702460144FD
:1012200010B58A42134603D01C780132002CF8D145
:10123000181A10BD506C7567696E20706172616D0F
:10124000657465727320737472756374757265204A
:10125000697320626967676572207468616E2061D6
:101260006C6C6F7765642073697A650A0053656CEE
:101270006563746F7220696E6465783A2025642016
:101280006E6F7420737570706F727465640A0053AA
:10129000656E640052656365697665204D696E2EE2
:1012A00000200053776170004572726F723A2073AC
:1012B000656C6563746F72206E6F7420666F756EF7
:1012C00064210A00457468657265756D00300050D0
:1012D0006172616D206E6F7420737570706F7274BF
:1012E00065643A2025640A004554480030313233A1
:1012F0003435363738396162636465660045525269
:101300004F520030780053656C6563746F722049EA
:101310006E646578206E6F7420737570706F727470
:1013200065643A2025640A00556E68616E646C65D8
:1013300064206D6573736167652025640A004265EA
:101340006E6566696369617279006578636570745A
:10135000696F6E5B3078253034585D3A204C523DD1
:101360003078253038580A004572726F723A206F13
:10137000766572666C6F7720646574656374656406
:10138000206F6E2073656C6563746F7220696E6484
:101390006578210A00526563656976656420616E2F
:1013A00020696E76616C69642073637265656E494D
:1013B0006E6465780A005265636569766564206EBF
:1013C000756C6C20706172616D65746572730A0072
:1013D000706C7567696E2070726F766964652070D5
:1013E0006172616D657465723A206F6666736574CB
:1013F0002025640A42797465733A20252E2A480A0A
:1014000000506C7567696E426F696C6572706C61D3
:1014100074650045786974696E6720666F6C6C6FDF
:1014200077696E6720657863657074696F6E3A20BE
:1014300025640A004D697373696E672073656C6576
:1014400063746F72496E6465783A2025640A0030CF
:10145000313233343536373839616263646566302A
:10146000313233343536373839414243444546000A
:10147000B56AF37F4242371300000000000000000D
:10148000000000000000000000000000000000005C
:10149000000000000000000000000000000000004C
:1014A000000000000000000000000000000000003C
:1014B000000000000000000000000000000000002C
:1014C000000000000000000000000000000000001C
:1014D000000000000000000000000000000000000C
:1014E00000000000000000000000000000000000FC
:1014F00000000000000000000000000000000000EC
:1015000000000000000000000000000000000000DB
:1015100000000000000000000000000000000000CB
:1015200000000000000000000000000000000000BB
:1015300000000000000000000000000000000000AB
:10154000000000000000000000000000000000009B
:10155000000000000000000000000000000000008B
:10156000000000000000000000000000000000007B
:10157000000000000000000000000000000000006B
:10158000000000000000000000000000000000005B
:10159000000000000000000000000000000000004B
:1015A000000000000000000000000000000000003B
:1015B000000000000000000000000000000000002B
:1015C000000000000000000000000000000000001B
:1015D000000000000000000000000000000000000B
:1015E00000000000000000000000000000000000FB
:1015F00000000000000000000000000000000000EB
:101600000111506C7567696E426F696C6572706C20
:101610006174650205312E302E3003220100000076
:1016200000FFFFFF0000000000068001FC03FFC078
:101630003FC03FF00FFFC039700E00000000040AE9
:0A16400001028000002C8000003C35
:04000005C0DE000158
:00000001FF
