:02000004C0DE5C
:1000000080B509F003F9002080BD00002DE9F04D16
:1000100090B090F800A004460AF07F05052DCDE9C8
:100020000E210CD100200B900020099000200C9094
:1000300000204FF0000C4FF0000E0A901FE0208BC4
:100040001F46934600F0B4FA68B180790F9A0C907D
:100050002089002A4FF0000C099018BFBBF1000F57
:100060006DD1002206E00020099000204FF0000C26
:1000700000220C9000204FF0000E0A900B92E388B3
:100080002689E77A58087108B0EB560F0A4638BF40
:100090005A08BA42B84603D888422CBF88468046E0
:1000A000681E042812D2042D08BF002F14D0BAF104
:1000B000810FCDF820E00D9519DCDDF838B0BAF1EC
:1000C000020F1DD0BAF1070F1AD042E1062D00F041
:1000D000A880072DE7D02FE02069B4F90210B4F909
:1000E000042000960CF0CCFC10B0BDE8F08DDDF8DB
:1000F00038B0BAF1870F03D0BAF1820F40F02981EE
:100100000D9F6069B4F90210B4F90420072F0C9F09
:1001100008BFD21B099F08BF3E46009665460CF0FB
:10012000AFFCDDF83CC0AE460D98BBF1000F18BF28
:10013000BCF1000F40F0818010B0BDE8F08DE18887
:10014000208B64315FFA8BF389B2009700F054FA88
:10015000BBF1050FCDF81CA0C0F0E780E188884214
:1001600040F2E3800646208BF54A64217A4403235B
:10017000009700F041FA0F9A0B9000204FEA5B0CB9
:10018000B0EB5B0F02EB5B0A00F0DC81E1883046EC
:100190008E4240F2D881BBEB0C0600F0D4810A9766
:1001A000DDF8288000270D95208B89B25FFA8CF34B
:1001B000E346CDF8008000F01FFA228BE188054667
:1001C000F3B210465246CDF8008000F015FA0B99B4
:1001D000E28829440844904207D9012F0AD05FB928
:1001E000DC460F9AABF1010C08E00F9ADC46DDE922
:1001F0000D5B08E00AF1010A0F9ADC46DDE90D5BB0
:10020000012121EA0707BCF1000F00F09C81E18881
:10021000884240F29881A2EB0A0313EB0B06C3D18C
:1002200091E1B4F90210B4F90420237B2069394428
:10023000012B3A447DD1002380E004283FF47CAFB9
:100240005046D4F810B0D4F814800AF07D0001288C
:1002500006D1207B0128584604BF4046D846834635
:10026000B4F902100A9F089E0D9D7B18B2460C99A6
:10027000208BB4F90420072D08BFC1F1000AE188E2
:100280005244C91B2789073D18BF35467F1BCDE95E
:10029000002102A9002681E8805059464246059671
:1002A00000F0C2F90B9A002A3FF446AFB4F90420DB
:1002B000CDF82480B4F818E083B20AEB0200E68897
:1002C00027894246DDF82880B8497F1B4FF0030C90
:1002D0007944A6EB08068DE8C100CDE9031C704601
:1002E00059460027059700F09FF9E3882689B4F95D
:1002F0000410A3EB080783B2701BDDE90E650AEB5F
:1003000001022E440B9D218BCDE9002702AA761B0A
:1003100061C2099A4FF0000C08465946CDF814C046
:1003200000F082F910B0BDE8F08DDC464FF0000A15
:1003300009E1A37A9F428CBFFB1A00236669FF255F
:10034000CDE900533B46029600F068FA10B0BDE8D4
:10035000F08D207B6546012827D1B4F90210206971
:10036000B4F904204144A3EB480300960CF088FB49
:10037000B4F9042023892069B4F902104244A3EBA4
:100380004807434600970CF07BFBB4F90220E18854
:10039000B4F9043027892069A2EB0802114408EB64
:1003A0000302A7EB4807434662E0B4F90210606914
:1003B000B4F904204144A3EB480300960CF060FB21
:1003C000B4F9042023896069B4F902104244A3EB14
:1003D0004807434600970CF053FBB4F902306FEA2C
:1003E0000802E188B4F904701A4423896069114451
:1003F00008EB0702A3EB4807434600970CF040FBCD
:10040000B4F90210E3882069B4F90420A77A4144C2
:10041000A3EB480300970CF033FBB4F904202389C5
:10042000B4F902101A44E3882069A77A4144013ADA
:10043000A3EB480300970CF023FBB4F904202789B1
:100440002069B4F90210A37A4244A7EB4807009749
:100450000CF016FBE188B4F90220B4F904302789C6
:100460002069114408EB0302A37A0139A7EB48077E
:1004700000970CF005FBDDF83CC0B8F1020FAE466A
:10048000FFF452AE207BCDF81CA001284FF0000AEB
:1004900004D0A07AB8EB000028BF8246B4F902105D
:1004A000B4F90420D4E90407C02341444244CDE90F
:1004B000003A4346029700F0B1F9E188A27AB4F914
:1004C0000230B4F90470206919444244666930234B
:1004D000891A08EB0702CDE9003A4346029600F07C
:1004E0009DF9B4F904202389A77AB4F902101A44BB
:1004F00008EB070320696769D21A0C234144CDE950
:10050000003A4346029700F089F9E188A27AB4F9EB
:100510000230B4F90470194442442389891ABA1A82
:10052000206967691A440323CDE9003A43460297DC
:1005300000F074F9DDF83CC0DDF81CA0F3E500BF65
:10054000CC3F01003046238B03F44041B1F5004F0E
:1005500008D05246DDF81CA0B1F5804F0CD1E188DF
:10056000091A06E0E18852464908A1EB5001DDF87E
:100570001CA021EAE17100E000210A9103F440503F
:10058000B0F5005F07D0B0F5805F0BD120890C99E2
:10059000A0EB010E72E50C9920896FEA510101EB85
:1005A000500E6BE54FF0000E68E500BF683E01009D
:1005B000F0B581B00E490F4E7944044608687E4478
:1005C0006FF31F3480B106EB800151F8045C471EC5
:1005D00028460AF0D3FC0068A0423846F2D12846EB
:1005E0000AF0CCFC01B0F0BD002001B0F0BD00BFAE
:1005F000CC5E0100BA5E010080B586B09C464FF02B
:10060000000E43F23903CDE90031CDE902E20021C9
:10061000002243F23903CDF814E0CDF810C000F009
:1006200003F880B206B080BD2DE9F04DA0B0289E41
:1006300043F239071D467B40774053EA070408BF61
:1006400026460F9608BF25460692CDE91021FFF7F2
:10065000AFFF002800F0D2808046DDE92910B4FA0F
:1006600084F229440E910F9952090D9298F80420B2
:100670000844DDE92B3B0A90012090400992089044
:10068000059506E0254401200028ABF1010B00F0A0
:10069000C080BBF1000F00F0B38013F8017BB8F805
:1006A000081098F805608F4203D3B8F80A00B842E2
:1006B00012D2C02F06D307F03F0400274FF0000AE4
:1006C00024E000BF78B2B0F1FF3F40DD00270024F6
:1006D0004FF0000A1AE000BFD8F810007F1A0C9300
:1006E0000AF04CFCD8F80C10044608460AF046FC08
:1006F00000EB87004188D8F80C0004EB010A0AF0EF
:100700003DFC0C9B10F8274098F807700F9A0D9845
:1007100050B10E980028B5D00E9928198842B1D949
:1007200000200B95B0E700BF0E992819884239DDEB
:100730000F99314408460F9188190A9988422FDD94
:100740000F99A8B240EA01400B9000209CE7B80640
:100750004FF00F0007950C9358BF0E20FFF728FFAE
:10076000002843D0054600690AF008FCE968044601
:1007700008460AF003FC07F01F0600EB86004188DC
:10078000E86804EB010A0AF0F9FB10F8264098F833
:1007900006000F9AA9796E791044421A00272AE0C0
:1007A000059D0F9ABAF1000F14D00C97099F089974
:1007B00006FB07F06043009110A90191CDE903A069
:1007C0002846114622469A46334602970CF03EF9D7
:1007D0000C9807E0069829469A46234600960CF0A6
:1007E0004FF938462044534605444CE70F9A0027FA
:1007F00000244FF0000A0C9B079D88E7002007E0CB
:100800000D9808B10B9504E00F99A8B240EA014099
:100810000B900B9820B0BDE8F08D00002DE9F04D55
:1008200098B01792219A16909E1A002A104618BF67
:1008300001200027002E1296C8BF0127002B13931A
:10084000149100F17581139E20990740C6F10100B3
:10085000129B119001F001000F90581E079001F0BB
:100860000200089001F004000E9001F008000D90C5
:1008700001F010000C9001F020000B9001F04000FE
:100880000A9001F0800009901498911B1044801B7D
:100890000291C3F10101CDE90410013003904FF042
:1008A000000B4FF0FF3001254FF000081590109716
:1008B00020E000BF1498534600EB0B011798821BF1
:1008C000169800950CF0DCF808F10108119A701EDA
:1008D0004146012AACBF091A304602EB4101013101
:1008E000ABF1010B8245139606461191CDF854A049
:1008F00080F21E810F98F0B1A7B117981599149F37
:100900000844441C07983946331A22982246009519
:100910000CF0B6F80499F019109F01441698129B38
:10092000224605E0179815993346421816981499EF
:1009300000950CF0A5F808980028159800F1010A18
:1009400021D0BFB11398B0420AD017981599321828
:10095000029800950844831C229814990CF090F892
:1009600005981599129B0844811C179832181698FF
:1009700006E000BF179814993044421E169853465B
:1009800000950CF07DF80E9840B314985546A0EBF6
:100990000604BFB117981599DDF81CA00844471C40
:1009A00022984FF0010CA6EB0A0321463A46CDF8F7
:1009B00000C00CF065F816983A46109F129BA4EB05
:1009C0000A0105E0179815993346421816982146F2
:1009D000012400940CF054F8AA4601250D9810B398
:1009E000B7B11398B0420CD01498159B00EB0B01D3
:1009F00017980095321802981844831C22980CF01E
:100A00003FF80398129B00EB0B011798321806E091
:100A10001498534600EB0B0117983044421E169869
:100A200000950CF02DF80C9810B3CDF818A0DDF857
:100A30005CA0169CDA448FB10798149F331A229851
:100A400039465246012500950CF01AF80499F01920
:100A5000109F129B01442046524603E01499204601
:100A600052463346012500950CF00AF8DDF818A02F
:100A70000B98F8B1B7B11398B0420AD017981599EE
:100A8000821B029800950844831C229814990BF04D
:100A9000F7FF05981599129B0844811C1798821B33
:100AA000169804E017981499821B169853460095DF
:100AB0000BF0E6FF0A9808B31498002FA0EB060489
:100AC000179800EB0B0711D0079D22984FF0010CEF
:100AD000731B21463A46CDF800C00BF0D1FF1698A3
:100AE000129B611B01253A4604E000BF169821467F
:100AF0003A46334600950BF0C3FF109F0998002833
:100B00003FF4E2AE002F3FF4D5AE1398B0420CD0C4
:100B10001498159B00EB0B0117980095821B029807
:100B20001844831C22980BF0ABFF0398129BC3E67A
:100B300018B0BDE8F08D2DE9F04D88B00E468968FB
:100B4000022926D8B0F90220B0F9040007920690D5
:100B5000F0680122D6E9007B02FA01F80AF00EFAE9
:100B60003169D6F808A0054608460AF007FA044697
:100B7000B168D6E900025B46484350430490DDE982
:100B800006103A46CDE90085CDF808A003940BF095
:100B90005DFF08B0BDE8F08D0C48019C78440AF078
:100BA000EDF90078084940F00E0009F8010009EB62
:100BB0000100012141700A2181700421C1704FF4AC
:100BC0001040216008F0E8FBB8280000607E0100BA
:100BD000F0B5CDB014460D46064609F07FF845AF96
:100BE000392031462A463B460BF07EFE09F076F866
:100BF0006D462846302111F055FD4ECF05F110000D
:100C00004EC097E84E0033AF4EC02846394600F03C
:100C10002FF818AE3046394600F036F828466021E5
:100C200011F04CFD3846482111F048FD02208DF8A6
:100C30002F0006F1390128462A4600F031F805F167
:100C4000300000F037F86FF07F020028C8BF6FF067
:100C50005F029DF8690006F1090100F01F001044D1
:100C60008DF869002046302211F01FFD4DB0F0BD17
:100C700080B50B4601463920302203F013F80028D6
:100C800008BF80BD08F088FB80B50A4601463920C0
:100C9000012303F003F8002808BF80BD08F07CFBA7
:100CA00080B5302303F026F8002808BF80BD08F087
:100CB00073FB000080B582B0064901AB7944302255
:100CC00003F010F8002802BF019802B080BD08F0C0
:100CD00063FB00BFCC57010070B58CB015461C4AB1
:100CE0000E4619F80210044600298DF82F3008BF6F
:100CF00007F088FA022C1AD2CEB96E460DF12F01F8
:100D00002846324607F07CFBA8B1124A9DF8001035
:100D10004A44301D0832FFF75BFF84B1109C02F09B
:100D200037FE206840F0100020600CB070BD4FF41A
:100D3000D64008F031FB4FF4D54008F02DFB119C54
:100D400006F04CFC20604FF4104008F025FB00BF7B
:100D50005D000000680000002DE9F04DA2B01546CE
:100D6000614A0E4619F80210804600298DF8873036
:100D700008BF07F047FAB8F1020F80F08F80022E0B
:100D800080F090800EAC0DF187012846224607F0D6
:100D900037FB002800F08F808246701EDFF84CB1D0
:100DA000B0FA80F0400909EB0B0686F8950006F1D1
:100DB0004C0708F093FF211D96F895509DF83820B8
:100DC0000DF1670421202346002D18BF06F175059B
:100DD00000950BF065FD04AD2046294600F096F81D
:100DE00008F07CFF284600F09DF82846282111F0E5
:100DF00065FC2046202111F061FC08F06FFF3C4C9F
:100E00003C4959F8040009EB0102D0E904033946D2
:100E100000903046019305F0DCF800284FD059F8D7
:100E200004009DF88720D0E90401082A039102906C
:100E30000BD35046082110F049F903919DF8871013
:100E40000290A1F108008DF887009DF88710D1BBB2
:100E5000B8F1000F3FD009EB0B0000F14C0726481A
:100E6000284A2A9D48447A442B212823009709F0D8
:100E7000BFFA59F80400DDE90232D0E9040151401B
:100E80005840014302A808BF084602F09FFD2868A9
:100E900040F01000286022B0BDE8F08D17484146B0
:100EA000784402E016483146784409F0EDF84FF4F2
:100EB000D64008F071FA4FF4D54008F06DFA6FF0A3
:100EC000770008F069FA1048784409F0DDF84FF42B
:100ED000D54008F061FA2B9C06F090FB20604FF49F
:100EE000104008F059FA00BF5D00000068000000E3
:100EF0005800000008070000E0050000C0400100A5
:100F000036280100D7410100BB2A010080B50B46FD
:100F100001462120202202F0C5FE002808BF80BD26
:100F200008F03AFA80B506490246494421200123D7
:100F300002F0B4FE002808BF80BD08F02DFA00BF03
:100F40006800000080B500F007F8024949F8010088
:100F500080BD00BF0000000080B582B001A8042160
:100F600002F0CCFE019802B080BD0000014859F8A3
:100F7000000070470000000080B5FFF7F7FF014652
:100F80000748784409F080F8FFF7F0FF00F00AF80E
:100F900000F016F82020062108F0BCFC80BD00BF40
:100FA000B11D01000549020E09F801204944020C57
:100FB0004A70020A8A70C870704700BFB8280000E3
:100FC000034890214844017100214171704700BFDE
:100FD000B828000010B500241F234FF0010C07E0D3
:100FE000C25C0A55013B5A1C04F1010408BF10BD44
:100FF0005FFA84FEBEF11F0F08D0BEF1000FEFD1E3
:10100000C27F6CF39F120A70ECE700BF027802F017
:10101000F802CA77E6E700002DE9F04DAAB00228F1
:101020008DF8A73080F0C6808B46022980F0BE8004
:101030000EAD04460DF1A70110462A4607F0E0F96F
:10104000002857D08246BBF1010F039404D19DF8CC
:10105000A7001F2840F2AA80DFF87881291D09EB3C
:1010600008059DF8382095F895400DF18707212057
:101070003B4605F14C06002C18BF05F175040094A1
:101080000BF00EFC04AC21203946224600F0AEF8ED
:101090002120214600F0B4F84F48504959F800008B
:1010A00009EB0102D0E90403314600902846019380
:1010B00004F08FFF002800F08180BBF1000F1DD0ED
:1010C00009EB080000F1090420465146202211F0E6
:1010D000EEFA0DF1870520462946202202F01AFE7D
:1010E000044604A8282111F0E9FA2846202111F02D
:1010F000E5FA0CB34FF4D54008F04EF90DF1870531
:101100000DF1670428462146FFF764FF04AE8120F5
:101110002146324600F06AF88120314600F070F82E
:101120002046202111F0CAFA3046282111F0C6FAD3
:101130002846202111F0C2FA0398002842D0284DF9
:10114000284A09EB0800329C00F14C0709EB050026
:101150007A442B212823009709F04AF90DF18707DB
:10116000781E002109EB08020A4492F82820013970
:1011700011F1200300F8012FF4D11B4A09EB0500FF
:101180002B307A444E212023009709F031F9BBF12E
:10119000000F02D002F010FC01E002F003FC206816
:1011A00040F0100020602AB0BDE8F08D4FF4CE4032
:1011B00008F0F2F84FF4D64008F0EEF86FF0770040
:1011C00008F0EAF8339C06F04BFA20604FF4104028
:1011D00008F0E2F86800000058000000080700006E
:1011E000E0050000ED3E0100FB30010080B5134634
:1011F000202202F057FD002808BF80BD08F0CCF87F
:1012000080B50A4604490123494402F047FD0028FD
:1012100008BF80BD08F0C0F868000000A0B0854895
:101220001C467844154608F02FFF804819F8000046
:10123000013802281AD27E4F012209EB070090F8EC
:10124000041122EA010680F804617B4831467844A3
:1012500008F01AFF032C11D878480321784422465D
:1012600008F012FF4FF4D54008F096F8884878440B
:1012700008F00AFF46F6851008F08EF82978012953
:101280000CD1697801290CD195F802B00BF1210835
:10129000A0450ED96C4841467844E0E76848784458
:1012A00001E06848784408F0EFFE4FF4D54008F0BC
:1012B00073F8BBF1470F04D36448462178445A467B
:1012C000CEE70BF10300009009EB07005B2106FB62
:1012D00001000BF1170100F16006019100F14C0AC9
:1012E000E91C30465A4611F0E0F9002006F80B00E0
:1012F00057485946784408F0C7FE56483146784466
:1013000008F0C2FE009814222E185046314611F003
:10131000CCF9514814217844324608F0B5FE0198C2
:1013200008212E1830460FF0D1FECDE902014B48BE
:1013300008217844324608F0A7FE02A808F020F8F9
:1013400038B94748784408F09FFE4FF4D54008F07C
:1013500023F80BF11F002E5C42483146784408F018
:1013600093FE012E23D14048404A78447A444121DB
:101370000BF1200608F088FEAE5D3D48314678440A
:1013800008F082FE012E16D13A48414678442A469A
:1013900008F07AFE18AA28464146202302F096FC5F
:1013A0000BF12206A6420AD933487844CBE73348EA
:1013B0003146784477E732483146784473E715F888
:1013C000088030484146784408F05EFEA8F14300AA
:1013D00006280AD32F48432178444822434608F080
:1013E00053FE4FF4D54007F0D7FF06EB0800A042AC
:1013F00002D925487844A6E705AC204600F058F805
:10140000AA1918A92046434600F046F858B109EB3E
:10141000070090F804110844012180F802114FF4EC
:10142000104007F0B9FF194878448CE75F000000CE
:1014300068000000171D0100D339010024370100A6
:10144000A63D0100982E010022370100C62F0100A1
:1014500083160100F6360100461B010051160100FB
:10146000102E0100133A0100032501004C51010028
:1014700011340100BD1C0100172701000B280100D9
:101480007A140100B63B0100772D0100702F010096
:10149000B91B0100A324010080B582B09C4613460D
:1014A0002022CDF800C002F0EDFB02B080BD0000AC
:1014B00080B50649034679442120412202F0F6FB1B
:1014C000002808BF80BD07F067FF00BF0250010081
:1014D0009EB0DFF80CB1154609EB0B0090F8041133
:1014E000012222EA010780F804713F483946784416
:1014F0001C4608F0C9FD44B12E780B2E05D2601EA3
:10150000C0B206F11C01814203D94FF4D54007F067
:1015100043FF701C05F10108029016AA40462023E3
:1015200002F0D4FB09EB0B005B2107FB010A4146EB
:101530000AF14C000AF1600701903846324611F07A
:10154000B6F80020B855029814222918019811F015
:10155000AEF806F11501284600F04CF88AF86B0049
:1015600006F11901284600F045F81E4959F8011006
:10157000D1E9042382F0010119431EBF0146504006
:1015800050EA03001BD1A01B03AC3544A0F11D069B
:10159000204600F03BF805F11D02F3B216A92046E3
:1015A00000F044F8A0B109EB0B0090F804110844D6
:1015B000012180F802114FF4104007F0EDFE0B48B6
:1015C0000091784408F060FD4FF4D54007F0E4FE48
:1015D0000748784408F058FD4FF4D54007F0DCFE8A
:1015E0006800000058000000333701001326010096
:1015F000B02701004218405C517893780904D278F2
:1016000041EA006040EA03201044704780B5064973
:10161000034679442120412202F048FB002808BFFC
:1016200080BD07F0B9FE00BFE74E010080B582B073
:101630009C4613462022CDF800C002F023FB02B0E6
:1016400080BD000070B5104E0C4619F8061000253C
:1016500071B107F095FE58B109EB060000F10801E1
:101660002046142211F030F8B0FA80F0400900E072
:10167000002009EB060149F80650C1E90155C1E90E
:101680000355C1E9055570BD0400000070B5A0B058
:1016900001281F928DF87B3006D11FA80DF17B0128
:1016A00000F06AF828B955E02D4859F800000028E4
:1016B00041D02B489DF87B2009EB00018B88CD8819
:1016C000D418AC420BD927484FF4D54129F8001063
:1016D00000F092F82648784408F0D6FC3AE009EB8E
:1016E000000659F800001F99184410F0DEFFA0B260
:1016F000A842B48023D11C4D1C4809EB0501484485
:10170000486001A800F086F8D8B101A800F0ECF814
:10171000B8B1012409F8054009EB0500416800F162
:10172000080314481422784408F0AEFC00F064F872
:10173000FFF708FC0FE00B484FF4D64108E0012406
:1017400009E000F059F8FFF7FDFB06484FF4D541DA
:1017500029F800100024204600F03CF820B070BDAD
:1017600020000000B0080000040000002800000075
:10177000DD2B0100F12D0100B0B5144A59F802200B
:101780002AB100F039F812484FF4D64119E0054665
:1017900008780C46012803D80D484FF4D54110E0D5
:1017A000286800F0E1F800F0C7F838B12868023086
:1017B00028602078023820700120B0BD044846F629
:1017C000842129F800100020B0BD00BF20000000D7
:1017D000B008000080B50749002839F8011018BF8B
:1017E0004FF41041084600F0C5F82020022108F00F
:1017F00091F880BDB0080000B0B5054C09EB0405B8
:10180000E88807F03FFD002049F804006860B0BD9B
:10181000200000002DE9F04DA0B032490446794483
:1018200005A86C2210F041FF0020029004F108008E
:10183000019000F045F92A4D09EB05008088002849
:1018400043D003AE771C4FF000080DF1080B0020C9
:101850000AE000BF0020D04609EB0501C246DDF8D2
:1018600008808988884530D2C0B202280AD0012871
:1018700024D080BB5846314600F026F958B30120E9
:10188000EAE700BF59F8050031464044049005A836
:10189000224600F03FF9F0B19DF80D009DF80C20B4
:1018A00008EB0001152A0291D4D059F80500019ADD
:1018B0005044A1EB0A0105F067FECBE758463946D4
:1018C00000F002F938B10220C5E705A800F04EF992
:1018D00020B0BDE8F08D002020B0BDE8F08D00BF45
:1018E000200000001E4D0100B0B59CB00446083039
:1018F00014A900F0F9F9217803290DD101AD28468A
:1019000000F008FA6268637814A9284600F012FA19
:1019100038B101201CB0B0BD0548784408F0B4FBD4
:1019200003E00448784408F0AFFB00201CB0B0BDD1
:10193000F72501000C2C010010B5044607F08EFCC1
:10194000074949F8010010B14944CC8004E0054939
:1019500046F6842229F80120002818BF012010BD76
:1019600020000000B00800000178407840EA012023
:1019700080B270470349020A09F8012049444870BF
:10198000704700BFB8280000012070470120704751
:1019900010B582B001A900F00BF940B1019CFFF72E
:1019A000E5FA201AB0FA80F0400902B010BD00201C
:1019B00002B010BD10B582B001A9144600F0F8F8CD
:1019C00001990022B1F5807F38BF01221040012823
:1019D00008BF217002B010BD80B582B001A900F02F
:1019E000E7F801990139B1FA81F14909084002B0DB
:1019F00080BD4178517041680120516070470000FE
:101A0000F0B581B042781F2A05D31A4811467844B0
:101A100008F03AFB10E0052A0AD3044640680D4658
:101A20001044011F14480422784410F0E5FE30B140
:101A30001348784408F028FB002001B0F0BD60781E
:101A400060B100276068C65D304600F0E9F860B11B
:101A50006868C655607801378742F3D36868617853
:101A600000224254012001B0F0BD044831467844C0
:101A7000CEE700BFFD180100711A0100B625010074
:101A8000D117010080B582B001A900F091F8019949
:101A90003C39B1FA81F14909084002B080BD10B566
:101AA0004478142C06D1426801F108001146142232
:101AB00010F0FBFDA4F11400B0FA80F0400910BD55
:101AC00080B502F023F980BD10B582B0D1B10C46CB
:101AD00001A900F0BDF830B10198FF2809D82070A5
:101AE000012002B010BD09484FF4D54129F800107B
:101AF00008E006484FF4D54129F80010044878441E
:101B000008F0C2FA002002B010BD00BFB00800000B
:101B10005B350100F0B581B00446087815460E46E5
:101B2000002700BFE15D814203D00C376C2FF9D153
:101B30000DE0E119087A421C48680A7209F01EFAA1
:101B400008490346494430462A46984710B10120C7
:101B500001B0F0BDE15D0448784408F095FA00203A
:101B600001B0F0BD040000000015010010B5017ABD
:101B7000002201290ED100F1140300BF082A4FF002
:101B8000000438BF01240ED013F80C1B01320129C8
:101B9000F4D000E0012402EB420210F822200348B6
:101BA000784408F071FA84F0010010BDF9190100C1
:101BB0002DE9F04182B044780646052C06D33278F0
:101BC00010482146784408F05FFA13E0C4F104009D
:101BD000C7B20DF104080D464046394610F062FDCB
:101BE000716808EB0700224610F05FFD404600F0E8
:101BF0000BF828600020052C38BF012002B0BDE89A
:101C0000F08100BF442E01004278017883781204ED
:101C1000C07842EA016141EA0321084470470000AC
:101C20000A4979440144497801F00302022A08D0A4
:101C30004AB9490705D4A0F12D01022901D35F2833
:101C400001D1012070470020704700BF5A68010091
:101C50002DE9F04D82B021B304462048226859F89E
:101C600000700D46B95C0B0603D429602068013072
:101C70002FE0484401F07F0B561C808806EB0B01D7
:101C80008142266004D91648784408F0FDF908E03E
:101C9000ABF10100042808D312485946784408F0F3
:101CA000F3F9002002B0BDE8F08DCBF1040A0DF18C
:101CB00004084046514610F0F5FC08EB0A00B9193B
:101CC0005A4610F0F2FC4046FFF79EFF286020685D
:101CD00058442060012002B0BDE8F08D20000000D3
:101CE000162B0100570E010010B582B04FF0200CEA
:101CF00000910121002200230446CDF804C001F028
:101D0000E1FF20B9204601F0D9FF02B010BD07F075
:101D100043FB000080B50649034679442120412257
:101D200001F0C4FF002808BF80BD07F035FB00BFED
:101D30008E48010080B582B09C4613462022CDF823
:101D400000C001F09FFF02B080BD0000042B0BD14A
:101D500008430DD1104600F011F8074949F8010079
:101D60004FF4104007F018FB4FF4CE4007F014FB7F
:101D70004FF4D64007F010FB640000004278017871
:101D800083781204C07842EA016141EA03210844E1
:101D9000704700002DE9F04DAAB05E489B4678449C
:101DA000154608F071F995F800A05B485146784453
:101DB00008F06AF90AF119065E45314677D2BAF1A0
:101DC0001E0F78D20DF1880820232846424601F0E4
:101DD0007DFF0FAC204600F0ADF8AF19ABEB060667
:101DE000204641463A46334600F0B4F8002868D011
:101DF000DFF81481013509EB0806304629465246C2
:101E0000544610F054FC002706F80A704648314644
:101E1000784408F039F90D9640F2FF1001AE0E90AB
:101E2000304610F091FC0104ADF8300053D130463B
:101E30000AF0E6FD0B900DA80AF07CFD0AF0D6FD35
:101E4000B04202D10B980AF0DBFDBDF8300000284B
:101E500058D1364805EB0A04339D784408F014F94C
:101E600009EB080707F144001422214610F01FFC7B
:101E700014F8140F6178A278E37840EA012042EA6E
:101E8000032140EA0140B8652048002109F800100C
:101E900028681F4B421C2A6009EB0302902313544D
:101EA0002868431C2B6011542AB0BDE8F08D1B48F4
:101EB0005A46784409E01A480AF1010278441E2182
:101EC00003E01848314678443A4608F0DDF84FF40C
:101ED000D54007F061FA0B98ADF830700AF090FD2C
:101EE000134809EB08047844214608F0CDF846F67B
:101EF000841049F80870A783C4E90177C4E903771F
:101F0000C4E9057707F048FAB80400005F00000054
:101F1000B82800009B2C0100A02C01001929010009
:101F2000BE2E01005E2C01004C2701002932010069
:101F3000B51E010080B5064903467944212041229F
:101F400001F0B4FE002808BF80BD07F025FA00BFED
:101F5000AF46010080B582B09C4613462022CDF8E2
:101F600000C001F08FFE02B080BD00002DE9F04DF1
:101F7000B0B0C0481D467844144608F085F80020EB
:101F8000CDE92E00CDE92C00CDE92A00CDE92800CD
:101F900015A84C2110F086FB032D2F4640F203813B
:101FA0002678B6483146784408F06EF8012E40F0A5
:101FB000FE806678B3483146784408F065F8012E13
:101FC00040F0F88094F802B00BF12500A84202908E
:101FD00000F2F480BBF11E0F039580F0F480A24A5A
:101FE0000BF11B0109EB02070BF1170A0191E11C30
:101FF00038465A465E460BF10305D04610F055FBB5
:10200000002007F80B00A3485946784408F03CF834
:10201000A1483946784408F037F86619142507F1C5
:10202000440031462A4610F040FB9C48294678443B
:10203000324608F029F804EB0A0014F80A10427836
:102040008378C07841EA022143EA002041EA004057
:1020500047F8580F9248042178443A4608F014F89B
:10206000019808262518284631460FF02FF8CDE9AB
:1020700012018C48314678442A4608F005F812A827
:1020800007F07EF9002800F0A9800BF12300275CFF
:1020900086483946784407F0F7FF022F40F0A180C8
:1020A0008348844A78447A4441210BF1240507F09F
:1020B000EBFF675D80483946784407F0E5FF012F64
:1020C00040F093807D48029F78443946224607F0CD
:1020D000DBFF28AA20232046394601F0F7FD039DA7
:1020E0000BF12606AE4200F28980E75D774839465B
:1020F0007844B84607F0C8FFA7F14300062880F0EF
:102100008080F019A84200F2878015AD284600F0C3
:10211000F7F8A21928A92846434600F0E5F8002858
:102120007DD0584600F0FCF8504A431E022B494629
:1021300009F8020076D24C4F20BB684809EB07042F
:102140007844214607F0A0FF109440F2FF1004AC41
:102150001190204610F0F8FA0104ADF83C0069D166
:1021600020460AF04DFC0E9010A80AF0E3FB0AF09E
:102170003DFCA04202D10E980AF042FCBDF83C00A2
:1021800000286FD139983A4F016809EB07024B1CC0
:1021900003609023535401684B1C0360002050548B
:1021A00030B0BDE8F08D34480321784409E034486C
:1021B000784401E034487844314619E033480299C4
:1021C00078443A4604E032480BF1010278441E217B
:1021D00007F05AFF4FF4D54007F0DEF83248784454
:1021E00022E038483946784402E037483946784496
:1021F00007F04AFF4FF4D54007F0CEF83048784456
:1022000012E03748432178444822434607F03CFF18
:102210004FF4D54007F0C0F82D48784404E02D482D
:10222000784401E02C48784407F02EFF4FF4D54065
:1022300007F0B2F80E980025ADF83C500AF0E0FB2C
:10224000284809EB07047844214607F01DFF46F6AD
:10225000841049F80750A583C4E90155C4E9035522
:10226000C4E9055507F098F8B80400005F000000C5
:10227000B8280000C32A0100D6270100C50E0100BE
:10228000942E0100A4260100861F0100FA270100F8
:10229000E32101006D0901002F2C01002E0E010029
:1022A000CB0A01000D090100761F0100DB2C0100A3
:1022B000C917010084450100D7260100810F0100E4
:1022C000C3180100D719010046060100071B0100D1
:1022D000511F010078210100D41401001C240100C9
:1022E00075160100551B010080B582B09C4613464F
:1022F0002022CDF800C001F0C5FC02B080BD000076
:1023000080B50649034679442120412201F0CEFCE4
:10231000002808BF80BD07F03FF800BF244301003C
:1023200010B507280CD00446062811D10B480C49DB
:1023300048447944062210F0C7F968B1072C07D148
:102340000648084948447944072210F0BDF908B10D
:10235000002010BD022010BD012010BDB8040000F7
:10236000430B0100360B0100B0B582B00146244D8D
:102370001446002080298DF8073009F805000BD09D
:10238000E9B90DF10701204600F046F830B3011B12
:10239000044609F8051004E01A4819F8000002285C
:1023A00014D19DF80710204600F0BCF8B0B11648D3
:1023B00019F80000C00714D100F0F0F81CE0144830
:1023C000784407F061FE4FF4D64005E011487844A8
:1023D00007F05AFE4FF4D54000F088F8002002B014
:1023E000B0BD0A484844C06C20B14FF4104000F022
:1023F0007DF801E00CF0B8F9012002B0B0BD00BFDB
:10240000470000005C000000480000006800000079
:10241000A02B0100E5150100F0B581B02C4F0D4651
:1024200019F8072004461AB146F6851000F05EF848
:10243000284E022009F8070009EB0602204629462B
:1024400005F0DEFF38B104462878032809D824486F
:10245000784407F019FE4FF4D54000F047F8002407
:1024600032E0204600F058F909EB0607F8642878B6
:1024700004340438287000F05BF91A4900267944C6
:1024800000201A220023009600F060F91248FB6C2D
:102490004844154A00F580757A442846282107F0FB
:1024A000A7FF284610F0A0F9024600202946002385
:1024B000009600F04BF900F027F9084819F80010D1
:1024C00001F0FC0109F80010204601B0F0BD00BF8A
:1024D0005C00000068000000E0050000480000000B
:1024E00016260100ED410100B008010010B50446B8
:1024F000B0F5104F06D0094819F80000800748BF12
:1025000001F028FA0648210A09F8001048444470EE
:102510002020022107F0FEF910BD00BF4800000096
:10252000B828000070B582B01A4E0D4609EB0602BD
:10253000D46C8C420AD2184829467844224607F0C7
:10254000A3FD4FF4D540FFF7D1FF1CE001464FF04B
:10255000000C00202A460023CDF800C000F0F6F859
:1025600009EB0600C16C491BC1640CD109EB0600E4
:102570004FF0200C00F12C03012000210022CDF8A7
:1025800000C000F0E3F80020AC4228BF012002B0F8
:1025900070BD00BF68000000640F01002DE9F04D20
:1025A00000F082F8A8B332482E4C7844471C3148DA
:1025B0004FF02008784483464FF0000A05E02022BF
:1025C00010F077F800F070F818B300F0DBF800B303
:1025D000054600F0DDF80678B85D000748BF4646BE
:1025E000B85D10F0970F05D000F0DEF8067080F8A7
:1025F00001A008E000F0D8F82946042DDFD35A46A0
:10260000334607F0F5FE19F80400013009F804001C
:10261000D8E700F0B7F8144C18B109EB0400C06C0F
:1026200078B9124D19F80500800708D40CF064F849
:1026300019F8050040F0020009F8050001E00CF06F
:102640006BF800F031F850B909EB0400C06C0028B9
:1026500008BFBDE8F08D4FF41040FFF747FFBDE81D
:10266000F08D00BF47000000680000004800000037
:10267000D25E0100A026010080B5094819F80000CB
:10268000C00709D107484844C06C10B900F00CF8E5
:1026900010B10CF07DF880BD0CF066F880BD00BF75
:1026A00048000000680000000348044948440079DD
:1026B00019F80110401A7047B828000047000000C0
:1026C00080B50B4809494844C06C19F8012000281E
:1026D00042F0010009F8010004D04FF41040FFF768
:1026E00005FF80BD0CF040F880BD00BF4800000031
:1026F0006800000080B500F007F8FFF7D5FF00285C
:1027000018BFFFF74BFF80BD0248002109F80010F9
:10271000704700BFE005000042780178837812041A
:10272000C07842EA016141EA032108447047000091
:1027300080B505484FF48071484401F0CFFA002875
:1027400008BF80BD06F028FE0807000010B582B063
:102750000B4C9446DDF810E00A460146009309EB65
:1027600004006346CDF804E001F0ACFA28B909EBA7
:10277000040001F0A3FA02B010BD06F00DFE00BF88
:102780000807000080B500F019F8C0F1FF0080BD17
:102790000348044919F800004944084405307047CB
:1027A00047000000B828000080B500F007F8024993
:1027B0004944084480BD00BFE005000080B50248E0
:1027C000484410F011F880BDE005000070B582B0FB
:1027D0008DF8073060BB1A48144619F8000000282D
:1027E00018BF05F00FFD174D0DF1070109EB0502AC
:1027F000204605F005FEF8B104469DF807003F2885
:102800001AD94D44069E05F12C00214620220FF0D6
:102810004EFF04F1200105F14C0020220FF047FF8C
:1028200001F0DEF8306840F01000306002B070BD9A
:102830004FF4D64006F0B0FD4FF4D54006F0ACFDA5
:102840005C000000680000002DE9F04583B01446EC
:102850008A4605468DF80B300AF052F8AA2840F057
:102860008F80802D54D0002D40F086805B4E19F86B
:102870000600002818BF05F0C5FC5948012709EBE0
:1028800000020DF10B01204609F8067005F0B8FDB5
:10289000002800F08A8004465248002609EB000216
:1028A000514882F8C360484480F8E470DFF83C8106
:1028B0004F49514B09EB080049447B44009602F014
:1028C00080FD9DF80B00002873D094F900000028CB
:1028D00011D4C7B2781E012876D8204600F09CF8A3
:1028E00009EB080080F83C709DF80B0001340138BA
:1028F0008DF80B0004E009EB0800C02180F83C10C3
:1029000009EB080090F83C103E48784407F0BCFB07
:10291000BAF1000F30D1802D04D1304819F80000F1
:10292000012835D1314819F80010A1B331499DF87B
:102930000B2059F801104844D1E9041381F45E7169
:102940001943B1FA81F14B09214602F0C5FD012876
:1029500005DC09D080BB4FF4104006F01DFD0228B5
:1029600021D1002005F02CF80A98016841F01001EF
:10297000016003B0BDE8F0854FF4D64006F00CFDD1
:102980002448784407F080FB46F6821006F004FDE8
:102990001D48784401E01D48784407F075FB46F671
:1029A000851006F0F9FC032806D14FF4D54006F057
:1029B000F3FC1248784401E01548784407F064FBC2
:1029C0004FF4D54006F0E8FC0D483946784407F04E
:1029D0005BFB46F2015006F0DFFC00BF5C0000002C
:1029E00068000000B0010000B804000070010000A1
:1029F0000807000058000000074E0000B220010048
:102A000068150100B90B0100781201002C0C0100BF
:102A100089210100F2200100B0B582B0094D0246C3
:102A2000002409EB0500002101230094019401F02A
:102A300049F928B909EB050001F040F902B0B0BD31
:102A400006F0AAFC0807000070B5A0B015460E46B7
:102A500004468DF87F3005F0D5FB022C3DD2E6BB55
:102A600014AE0DF17F012846324605F0C9FCC0B313
:102A700007F034F99DF8501002AD301D2A4608F0D9
:102A800053FD0AAE2846314600F03EF807F026F91D
:102A9000304600F045F8304628210FF00FFE28465A
:102AA00020210FF00BFE07F019F9F4B11348154A75
:102AB000484400F109061248249C48447A444FF4E3
:102AC00080712023009607F093FC00F093FF2068AC
:102AD00040F01000206020B070BD4FF4D64006F0EA
:102AE0005BFC4FF4D54006F057FC259C05F07AFBC3
:102AF00020604FF4104006F04FFC00BF680000005B
:102B0000E00500009B14010080B50B4601465120F2
:102B1000202201F0C7F8002808BF80BD06F03CFC69
:102B200080B50649024649445120012301F0B6F818
:102B3000002808BF80BD06F02FFC00BF6800000021
:102B40003D491E4619F8011015460029804618BF58
:102B500005F058FBA8F1010005280DD25420B04221
:102B600010D1B8F1000F11D1284600F06FF8C0B2B3
:102B7000002818BF01200AE0B8F1000F32D134203C
:102B8000B042EED04FF4CE4006F006FC0020B8F183
:102B9000010F4FF002062CD058BB284F00266FF0D3
:102BA000B50403E05B3406F101061FD009EB070012
:102BB000304490F802010028F4D009EB07002044CB
:102BC00000F58170294614220FF07EFD0028E9D11E
:102BD000022E0ED11C48784407F056FA4FF4D54027
:102BE00006F0DAFB4FF4D64006F0D6FB0226022EA2
:102BF000F0D0134C05F1140109EB0400E53020225C
:102C00000FF055FDB8F1000F08D009EB040005F1F5
:102C1000340100F2051020220FF049FD09EB0400F9
:102C200080F8256180F826810648012109F8001006
:102C30004FF4104006F0B0FB5C000000680000009C
:102C4000B804000060000000D221010001780029D2
:102C50001EBF012080F001007047411C002200BF10
:102C6000132A4FF0000038BF012003D08B5C0132E3
:102C7000002BF5D080F00100704700002DE9F04DE9
:102C8000B4B09A46DFF8A435144619F803200F466D
:102C9000002A054618BF05F0B5FABAF1000F00F09A
:102CA0009C8294F800B0ABF101000A2880F0988271
:102CB000032D09DC012D0ED0022D0FD0032D40F085
:102CC0008882012300200BE0281F022880F08182E7
:102CD0000120012304E00020002301E00023012063
:102CE000002B1A4618BF2122079000284FEA8B00BC
:102CF00006D06D21052D08BFA1210844104402E033
:102D000000EB42008930504540F07282002F40F0C5
:102D10006082DFF81C050595BBF1000F4FF001053F
:102D2000089209F800B0069317D0944FDFF8008599
:102D30007F440026E9B2204600F0A0FA024609EBE3
:102D4000080000EB860042603846314607F09CF9E7
:102D50000136B34505F10405ECD1E8B22118AAEB20
:102D6000000220460FF0A3FC0598DFF8C8240538C0
:102D7000B0FA80F04FEA501009EB020181F88000B0
:102D80001ED1089809EB0207251807F1A10605F1E5
:102D90006C01304620220FF08AFCC13705F18C010E
:102DA000384614220FF083FC7548202178443246BF
:102DB00007F06AF97348142178443A4607F064F939
:102DC000069804EB000A80F00107504600F062FA12
:102DD000C1B2B1FA81F14909089D394303D1217883
:102DE000012940F00982000605D1504605F09AFA03
:102DF000002800F004820798D0B9069960190844A9
:102E000000F13406304600F045FAC1B2B1FA81F162
:102E10004909394304D194F85510012940F0F4814F
:102E2000000605D1304605F07DFA002800F0F48157
:102E300006F054FF069E0022002E314618BF22786D
:102E4000002E18BF04F13501DFF8E8830091DFF8A8
:102E5000E81300200AF1140509EB0807019009EBBB
:102E6000010051462B46029708F0E8FD0798CDE98E
:102E7000035A68B1089D8246601900F1340109EBDC
:102E80000800203020220FF012FC45F0540627E005
:102E900006F024FF0898002E2044304400F134014D
:102EA0004FF000004FF000023746DFF8888318BF6C
:102EB00094F85520DDF81CA0002F18BF04F18A07F4
:102EC000CDE90070DC4809EB080501F11403203559
:102ED0004844029508F0B2FD0899682000EB4106CD
:102EE00009EB08000DF1700800F14001404608F0C0
:102EF000BDF80B20009040460022002308F0D7F8D0
:102F00000598524605284FF0040140464FF0000353
:102F1000554608BF0222009108F0C9F82046314604
:102F200000F0ACF902464FF01F0A40460023CDF8EE
:102F300000A008F0BCF8311D204600F09FF90246C1
:102F400040460023CDF800A008F0B1F806F10801D2
:102F5000204600F093F9074606F10C01204600F0E8
:102F60008DF902463F2140463B46009108F09FF80C
:102F700055B110250027002213E000BF9F15010066
:102F8000D80001002408010006F11001204600F0DD
:102F900075F9074606F11401204600F06FF9024664
:102FA00018250DF1700840463B463F21009108F07E
:102FB0007EF87019C6B22046314600F05FF902462D
:102FC00040460023CDF800A04FF0000A08F06FF84B
:102FD000311D204600F052F90246162140460023DA
:102FE000009108F064F8934D9C4809EB050678447D
:102FF00020213246202707F047F8994806F12002A1
:103000007844202107F040F8964806F140027844C1
:10301000202107F039F896F8800008B300F052F943
:103020004D4405F1C101002014220023CDF800A079
:1030300000F056F905F1600605F1A10101202022FA
:103040003346009700F04CF995F86000202100F01D
:10305000030085F8600084483246784407F014F88D
:10306000DDF81CA0724DBAF1000F66D006F036FEF6
:1030700009EB05002CAE04305946324608F054FAEC
:1030800022AD3046294600F047F906F027FE09AF89
:103090003846294600F04CF9284628210FF00EFB4F
:1030A000304620210FF00AFB06F018FE089D07F1BC
:1030B0000900661906F13408414620220FF004FB8E
:1030C0000746B0FA80F04FEA501B694859467844E9
:1030D00006F0DAFF06F002FE594806F15C0209EB41
:1030E0000006DDE9031004F18C03009608F092FA63
:1030F00045F05801204600F0C1F8504C5D4A0346A7
:1031000009EB040000F580707A44282107F070F97B
:10311000002F46D0474841464844813020220FF0D6
:10312000C6FA554A09EB04007A444FF48071202313
:10313000CDF8008007F05CF933E006F0CFFD089D84
:1031400004F18C08601900F134073C487E1909EB42
:10315000000BDDE9031006F13C020BF12B0C43469A
:10316000CDF800C008F056FA06F0B8FD069806F152
:103170004402384400F114010BF17A0743460097EA
:1031800008F048FA682000EB4501204600F076F888
:10319000364A03467A4458462B2107F029F94FF066
:1031A000000B3C9C2348BAF1000F09D0484490F82A
:1031B00080105846002918BF012100F039FC01E0B9
:1031C00000F022FC206840F01000206034B0BDE820
:1031D000F08D4FF4D64006F0DFF81A48784401E04D
:1031E0001948784406F050FF4FF4D54006F0D4F863
:1031F0004FF4CE4006F0D0F81448784406E0144866
:103200001421784452460BE01248784406F03CFF03
:103210004FF4D54006F0C0F80F48142178443246E8
:1032200006F032FF4FF4D54006F0B6F85C0000001F
:1032300068000000B804000008070000E005000076
:10324000B00100008A180100FB11010098F700008E
:103250004CF600001B0A010032F6000045FB00009E
:103260009120010006020100FE0F0100E4F60000BB
:103270009E0B010070F700002F0E01004218405C09
:10328000517893780904D27841EA006040EA03203B
:1032900010447047017800291EBF012080F0010012
:1032A0007047411C002200BF132A4FF0000038BFB6
:1032B000012003D08B5C0132002BF5D080F001009F
:1032C0007047000080B505484FF48071484400F015
:1032D00005FD002808BF80BD06F05EF80807000065
:1032E00010B582B00B4C9446DDF810E00A4601465A
:1032F000009309EB04006346CDF804E000F0E2FC23
:1033000028B909EB040000F0D9FC02B010BD06F0AA
:1033100043F800BF0807000080B50B460146512066
:10332000202200F0BFFC002808BF80BD06F034F862
:1033300080B50A4601465120012300F0AFFC002869
:1033400008BF80BD06F028F82DE9F041A6B014466C
:10335000324A0D4619F80210064600298DF89730BA
:1033600018BF04F04FFF55EA06004AD12C4D0DF16D
:10337000970109EB0502204605F042F8002844D0E9
:1033800001469DF89700202843D12648DDF8B080FB
:1033900009EB000404F1200020220FF088F906F068
:1033A0009DFC09EB050010F8041B0DF177052A467A
:1033B00008F0BAF86E462846314600F035F806F0B7
:1033C0008DFC0AAF3846314600F03AF830462821E5
:1033D0000FF074F9284620210FF070F906F07EFCFA
:1033E00007F10901204620220FF05FF900F016FBDB
:1033F000D8F8000040F01000C8F8000026B0BDE882
:10340000F0814FF4D64005F0C7FF4FF4D54005F0EA
:10341000C3FF4FF4CE4005F0BFFF00BF5C000000CB
:1034200068000000B804000080B50B46014651203A
:10343000202200F037FC002808BF80BD05F0ACFF5B
:1034400080B50A4601465120012300F027FC0028E0
:1034500008BF80BD05F0A0FF10B5044610B14FF4C1
:10346000104007E00F4839F80000B0F5104F04D1C4
:103470004FF4D4400B4929F801000A480A4939F8A9
:103480000000020A09F80120494448702020022166
:1034900006F040FA002C18BF10BD00F035FB00F01C
:1034A00059FA10BDB0080000B8280000B0B519499D
:1034B000044659F80110002914BF012000F0ECFA6D
:1034C000154919F80110023918BF012100EA010558
:1034D000012D1AD1E178FF2906D059B92079611D53
:1034E00009F014FE054610E02079611D09F050FE38
:1034F00005460AE062780A48784406F0C5FD0748A8
:103500004FF4D641002529F800102846FFF7A4FF04
:103510002846B0BD4C00000049000000B008000083
:103520007E100100B0B5274959F80110E9B1C17802
:10353000FF291ED00F292AD089BB0179053007F059
:1035400009FA044640B32148784407F017FDC078D3
:10355000B0FA80F14FEA511518B107F03DFC0BF0BD
:1035600025FC0BF0C9FB3DBB29E0174846F6851149
:103570001DE0431D827801791846002A18BF0122F8
:1035800003F084FA044680F00105ADB917E0017933
:10359000053007F0BFFA044601256DB90FE0427807
:1035A0000B48784406F070FD07484FF4D6410125DA
:1035B000002429F8001015B12046FFF74DFF2046E2
:1035C000B0BD00BF4C000000B0080000B4540100C2
:1035D000D40F0100B0B5274959F80110E9B1C578F9
:1035E0000446FF2D18BF0F2D1BD10BF03DFE012807
:1035F0001ED1B5F10F0218BF01222179601D03F021
:10360000D7FBE1780446B1F10F0084F0010118BF47
:10361000012040EA0105EDB91FE0174846F6851183
:1036200013E04DB91548784407F0A8FCC078B0B154
:103630000125012475B910E06278114829467844C3
:1036400006F022FD0C484FF4D6410024012529F84C
:10365000001015B12046FFF7FFFE2046B0BD012047
:1036600001250BF0F9FD07F09DFD0446002DF1D179
:10367000F3E700BF4C000000B0080000D653010083
:10368000380F0100B0B582B02849044659F801004E
:1036900021798DF8071078B1254D09EB05002C3004
:1036A00000F04EF840B909EB05004C3000F048F846
:1036B00010B907F03FF960B11E4846F6851129F8A8
:1036C0000010002414B90020FFF7C6FE204602B007
:1036D000B0BD0BF0C9FD01280DD10BF0D5FD50B1E7
:1036E0000BF0D2FD01461448784406F0CDFC114899
:1036F00046F68821E3E7601D09EB05020DF107019D
:1037000004F07EFE0028DCD00C48784407F036FC3C
:10371000C07828B90BF0A8FD002808BF0BF064FBA7
:103720000BF02AFD0124002CD0D1CCE74C00000086
:1037300068000000B0080000810F0100F252010093
:10374000017800291EBF012080F001007047411C54
:10375000002200BF1F2A4FF0000038BF012003D015
:103760008B5C0132002BF5D080F001007047000027
:103770002DE9F045B5B006F0B1FA00F083F83E4906
:103780004FF0000A7944002002220023CDF800A067
:1037900000F086F83648202209EB000505F12C06DA
:1037A000002031460023CDF800A0202400F078F856
:1037B00005F14C070DF194080120394620224346BB
:1037C000009400F06DF82D4820217844324606F030
:1037D0005BFC2B48202178443A4606F055FC06F065
:1037E0007DFA15F8042B2DAE212029463346CDF85D
:1037F00000A009F055F806F071FA02AD30462946EE
:1038000000F06AF8304620210EF058FFCDF804A0F1
:1038100006F064FA0CAE01AB28464146324600F091
:1038200067F8284628210EF049FF01991148CA0778
:103830004FF01C0208BF1B2209EB0004890748BF98
:10384000023209F80020304604F024FD902084F86C
:10385000410084F842A004F0D5FC2020432106F06A
:1038600059F800F077F8002035B0BDE8F08500BFCA
:1038700068000000B8280000022F0100ADF8000029
:103880005106010080B505484FF48071484400F0AE
:1038900025FA002808BF80BD05F07EFD080700005E
:1038A00010B582B00B4C9446DDF810E00A46014694
:1038B000009309EB04006346CDF804E000F002FA3F
:1038C00028B909EB040000F0F9F902B010BD05F0C9
:1038D00063FD00BF0807000080B50B4601462120AC
:1038E000202200F0DFF9002808BF80BD05F054FD5C
:1038F00010B586B01C460B466421944605910DF127
:10390000100E05AA20210091CDE9022E40F201619E
:103910000322CDF804C000F0B1F928B9002C1CBF77
:103920000498206006B010BD05F036FD80B504F0A7
:1039300069FC0748692109F8001048448521417055
:103940002020022105F0E6FF00F004F8002080BDF1
:10395000B828000080B5074819F80000002808BF03
:103960000EF02AFC04490020794400220DF000FFEB
:1039700080BD00BFA80300003435010080B50349B5
:103980000020794400220DF0F3FE80BDCA3601000C
:1039900080B503490020794400220DF0E9FE80BD86
:1039A0005237010080B503490020794400220DF010
:1039B000DFFE80BDC238010080B503490020794494
:1039C00000220DF0D5FE80BDC638010080B5034948
:1039D0000020794400220DF0CBFE80BDBE370100EF
:1039E00080B503490020794400220DF0C1FE80BD5E
:1039F000363B010080B503490020794400220DF0D8
:103A0000B7FE80BD823E010080B5034900207944A5
:103A100000220DF0ADFE80BD7A3F010080B5034964
:103A20000020794400220DF0A3FE80BD3242010047
:103A300010B50B4A0B4B00290B4C0C497A447B44C4
:103A400079447C441CBF1346214600284FF00000F7
:103A50004FF0000208BF19460DF08AFE10BD00BFEE
:103A60001C410100DE4001003E410100FC4001001C
:103A700080B503490020794400220DF079FE80BD15
:103A8000523B010080B503490020794400220DF02B
:103A90006FFE80BDE63B0100B0B505F0D3FB4020D2
:103AA000082105F02BFC154D49F80500F0B107F091
:103AB0003BFC00B307F0A4F9E8B102F0C1FFD0B1BC
:103AC0000BF07EFB002478B109F05CF960B159F885
:103AD000050014210EF0F2FD59F805000849846133
:103AE000C46109F8014001242046B0BD054846F6EE
:103AF000842129F800100020B0BD00BF4C00000058
:103B000049000000B008000080B509F05FF907F037
:103B100095F902F0B3FF0BF073FB05F09BFB034834
:103B2000002149F8001004F06DFB80BD4C0000003E
:103B30002DE9F04595B00D46DDF87080074604A9E3
:103B400028469A46144608F093FE0646E0B90498C3
:103B5000202817D1DDE91D101F9E05AACDE90021FF
:103B600002903846294622465346039600F019F83B
:103B7000064648B9049A05A92846434600F092F83B
:103B8000064601E06FF05C0605A840210EF096FDA8
:103B90001EB1404628210EF091FD304615B0BDE81B
:103BA000F0852DE9F04D90B00DF1100ADDF8608040
:103BB000054650461E4617468B460EF0C5FD81B29F
:103BC000ADF83C0059B10E980D460021ADF83C10FF
:103BD00008F016FF402140460EF070FD13E004A8E7
:103BE00008F00EFF0E9019986C4660601A983A46DD
:103BF0001B9FA060284659463346C4F80080E76002
:103C000008F05EFE002508F0F1FE504502D10E9846
:103C100008F0F6FEBDF83C00002802BF284610B0B0
:103C2000BDE8F08D05F0B8FBB0B590B0DDE91BEC58
:103C3000002406ADCDE90054CDE902ECFFF778FF92
:103C4000044680B914ADDDF868C0DDE9184E2ECD0C
:103C50002020CDE9005006A8CDE9024ECDF810C0D5
:103C600000F064F8044606A828210EF027FD20463F
:103C700010B0B0BD03B44FF0260053E003B44FF0D2
:103C80002F004FE003B44FF030004BE003B44FF08F
:103C9000310047E003B44FF0320043E003B44FF08B
:103CA00035003FE003B44FF036003BE003B44FF083
:103CB000370037E003B44FF0380033E003B44FF07F
:103CC00044002FE003B44FF047002BE003B44FF063
:103CD000490027E003B44FF04A0023E003B44FF05B
:103CE00059001FE003B44FF05C001BE003B44FF039
:103CF000600017E003B44FF0620013E003B44FF02C
:103D00006D000FE003B44FF072000BE003B44FF00E
:103D1000740007E003B44FF0850003E003B44FF0F4
:103D20008600FFE700490847018080002DE9F04D3B
:103D3000A2B0DDE92A8B0E460546DDE92C07642199
:103D4000089159469A4614460EF0B8FC3846594632
:103D50000EF0B4FC08A809A922462E9CCDE90081EA
:103D600002902846314653460394FFF787FF08BB6D
:103D7000089906A805AADDE92C5A04AFCDE9002070
:103D800009A807AB5A460297FFF784FF01280FD115
:103D9000059A05EB0B000799801A0EF086FC049A31
:103DA0000AEB0B000699801A0EF07FFC002001E060
:103DB0006FF0770000281CBF0021216022B0BDE811
:103DC000F08D80B50022002300F002F880BD0000D5
:103DD0002DE9F041212907D31B484FF4D54129F89B
:103DE00000100020BDE8F081804620201F461646C6
:103DF0000D4605F033FA044658B1012E11D0F6B93C
:103E0000C5F12006204631463A460EF052FCF0B28B
:103E10000DE00D4846F6842129F800102046BDE843
:103E2000F0816019C5F120010EF048FC002020440B
:103E300041462A460EF039FC2046BDE8F081024892
:103E400046F68511CBE700BFB008000080B539B158
:103E5000914203D190F90020002A08D4002307E002
:103E600005484FF4D54129F80010002080BDFF23FC
:103E70000022FFF7ADFF80BDB008000080B5012231
:103E80000023FFF7A5FF80BD80B5012902D1FFF710
:103E900098FF80BD03484FF4D54129F80010002059
:103EA00080BD00BFB008000080B5142902D1FFF723
:103EB00088FF80BD03484FF4D54129F80010002049
:103EC00080BD00BFB008000080B50246B0F5827F1B
:103ED0000EDA40F20110824216D0B2F5817F17D07F
:103EE00040F2031082421FD1084600F08DF880BDD9
:103EF00012D040F20510824212D0B2F5837F13D166
:103F0000084600F02BFA80BD084600F015F880BD89
:103F1000084600F0F7F880BD084600F09EF880BD26
:103F2000084600F09DF880BD02481146784406F02E
:103F3000ABF880BD3B0101002DE9F04104462D485E
:103F4000D4F80C804844A7305B2100F0C1F838B1A8
:103F50002C48784406F098F800206070BDE8F081A5
:103F6000254F00267F4400BF57F8260007F006F8CB
:103F700002788378C5784078616943EA052342EA8C
:103F8000002040EA03400A788B78CD78497843EAEC
:103F9000052342EA012141EA0341884203D0013668
:103FA000032EE1D104E0F0B2032888F86C6009D157
:103FB000626912480421784406F066F806206070B1
:103FC000BDE8F08198F86C1004204A1E022A607047
:103FD00004D2002088F86B00BDE8F08121B90820E8
:103FE00088F86B00BDE8F0810548784406F04CF88D
:103FF000B2E700BF6800000030270100C7000100E1
:1040000074FF0000F0EB000010B504468068002249
:1040100090F86C100020022902D062681268A53264
:10402000E260206129B1012905D0022910D10420C4
:1040300002E0032000E0052061686077096801F173
:104040004200212100F044F820B102202077042012
:10405000A07710BD0020A07710BD042141757047E6
:10406000B0B5044604212177D0E9025022691349F2
:1040700079440EF0A4FB95F86C10022909D00129AF
:104080000ED0A1B9D4E905020D4979440EF097FB91
:10409000B0BDD4E905020C4979440EF090FBB0BDE7
:1040A000D4E90502074979440EF089FBB0BD074801
:1040B000784405F0E9FF00202077B0BD7AF50000D4
:1040C000DEEA0000EF04010053030100ABEE000044
:1040D00000298C4618BF4FF0010C0FD003786BB944
:1040E000012300BF8B424FF0000C38BF4FF0010C92
:1040F000994203D0C25C0133002AF3D08CF0010056
:1041000070470000B0B50446D0E902530169124877
:104110002022784405F0B8FF95F86C100320207534
:1041200041B102290BD001290ED12046294600F0C9
:1041300017F8B0BD2046294600F0D6F8B0BD20469D
:10414000294600F03DF8B0BD0448784405F09CFFD6
:1041500000202075B0BD00BF8E0F010001EC0000F3
:10416000B0B588B00C4691F86B10032909DCD1B1C9
:10417000012923D1C1682046142202F051FC0420F9
:104180001AE0042911D0072918D1C1686D462846C4
:10419000202202F04EFC04F13802284620210CF0C7
:1041A000C6FF0A2008E0012006E0C16804F11400FF
:1041B000202202F03EFC072084F86B0008B0B0BD5E
:1041C00070B588B00C4691F86B1003290DDC0129FD
:1041D00018DC002949D0012940F08180C1682046BF
:1041E000142202F01DFC022058E005291DDC0429E0
:1041F0003DD0052973D1C06800F09EF80430606698
:1042000003204BE0022943D0032968D10169E26D04
:104210002031914263D9C06800F099F8A4F85800A1
:10422000042084F86B0000202EE006293AD00729EC
:1042300055D1C16804F114052846202202F0F9FB8B
:104240006E462846202132460CF071FF04F13800FA
:10425000314602460BF0A4FCB4F8600001380104BA
:10426000A4F860000DD10A2009E0012016E0B4F89E
:10427000580001380104A4F8580002D1062084F83F
:104280006B00B4F868000130A4F8680008B070BD95
:10429000C06800F051F80430E065052084F86B0038
:1042A00008B070BD0169626E2031914217D9C068B3
:1042B00000F04DF8B4F86810A4F86000884203D00C
:1042C0000848784405F0E0FE072084F86B000020E1
:1042D000A4F8680004F1380020210EF0EFF908B0CE
:1042E00070BD00BFC603010010B591F86B200446F5
:1042F000092A0BD0082A14D1E268092081F86B0042
:1043000008461146142202F08BFB10BDE068C07F06
:10431000002818BF012081F86A000A2081F86B008C
:1043200010BD04481146784405F0AEFE002020750B
:1043300010BD00BF4CE80000427F017F837F120464
:10434000C07F42EA016141EA032108447047817F4E
:10435000C07F40EA012080B27047000080B5C1698B
:10436000042391F86C2080F83430022A05D0012A09
:1043700006D042B900F012F880BD00F0F5F880BD1B
:1043800000F070F880BD002180F83410024811461A
:10439000784405F079FE80BD5AF7000070B582B010
:1043A00090F820200446022A1DD0012A33D0002A8A
:1043B0003FD10D4691F86A30D4E90902244E2549CF
:1043C0007E447944002B08BF31460EF0F8F91E48B0
:1043D0001E4B59F80000E16AD0E90406226B0090F8
:1043E0004B44284611E0D4E909021C4979440EF0F7
:1043F000E6F9154A154D59F80230A068D3E904369C
:10440000E16A226B009309EB0503019601F0C8FEF7
:10441000A0B102B070BDD4E909020F4979440EF091
:10442000CEF9A168D4E90B0214310EF0C8F902B03C
:1044300070BD0B481146784405F026FE002084F834
:10444000340002B070BD00BF580000000807000033
:104450000A0D0100CC0B010058EB0000C70201005F
:10446000A2E50000B0B582B090F820200446012AF1
:104470000D4613DD022A22D0032A35D0042A59D151
:10448000D4E90902334979440EF099F9D4E90B23B0
:1044900005F138000A210BF0B7FC48E092B3012A7D
:1044A00048D1D4E909022A4979440EF088F9A16873
:1044B000D4E90B0214310EF082F902B0B0BDD4E998
:1044C0000902264979440EF07AF91F4ADFF87CC0C8
:1044D00059F80230A068D3E90435E16A226B0093F1
:1044E00009EB0C03019520E0D4E909021C49794449
:1044F0000EF065F9D4E90B2305F1140020210CF02E
:104500002DFE14E0D4E90902134979440EF057F95D
:104510000D480E4B59F80000E16AD0E9040C226BFB
:1045200000904B442846CDF804C001F039FE30B16C
:1045300002B0B0BD0B481146784405F0A5FD00203F
:1045400084F8340002B0B0BD580000000807000035
:1045500089F2000006FD000088EB0000EF01010079
:104560006F060100A0E40000B0B58EB090F82020E6
:104570000446012A0D4610DC92B3012A2AD1D4E95F
:104580000902324979440EF01AF9A168D4E90B0204
:1045900014310EF014F90EB0B0BD022A34D0032A43
:1045A00018D1D4E909022D4979440EF008F905F132
:1045B000380002AA0A2130230BF026FCE8B3D4E924
:1045C0000B01B5F86850264A02AB7A44009505F015
:1045D0000FFF30E01E481146784405F055FD2CE0F1
:1045E000D4E909021B4979440EF0E9F81548164B45
:1045F00059F80000E16AD0E9040C226B00904B44AA
:104600002846CDF804C013E0D4E9090212497944E0
:104610000EF0D5F80B4ADFF830C059F80230A06828
:10462000D3E90435E16A226B009309EB0C03019591
:1046300001F0B6FD08B10EB0B0BD002084F8340022
:104640000EB0B0BD5800000008070000ADF100003A
:1046500000E40000ACEA0000A500010027EF000024
:104660005DED00002DE9F0410F4E8046451C7E4473
:104670000D2400BF304606F081FC07460F30294666
:1046800014220EF021F830B1013C06F12306F1D1DD
:104690000020BDE8F08108F1430039460F220EF0FA
:1046A0008EF80120BDE8F08132200100074819F89A
:1046B000000038B10648484490F82601042803D881
:1046C000032801D0012070470020704760000000DF
:1046D000B80400002DE9F04182B00246B0F5827FB7
:1046E0000C4624DA40F2011082424ED0B2F5817FAE
:1046F00000F0AC8040F20310824240F0CA80A5680E
:10470000A348784405F0C0FC2878012800F0D38045
:10471000002840F00A816068691C0068A530E060EC
:1047200005F11600C4E9050101202077CAE062D036
:1047300040F20510824200F09B80B2F5837F40F08A
:10474000A88094F82000E669012800F0C0800028C5
:1047500040F0EB80D4E90902984979440EF02FF833
:1047600006F11605284600F049F9002800F0E0801F
:10477000D4E90B02924979440EF021F8D4E90B02F6
:1047800006F136010DF0F8FFF9E0A068D4F80C80CE
:104790000068423000F01AF9002800F082807E4F55
:1047A00000267F4457F8260006F0E8FB027883785D
:1047B000C5784078616943EA052342EA002040EA6F
:1047C00003400A788B78CD78497843EA052342EA9A
:1047D000012141EA0341884200F09A800136022E0D
:1047E000E0D10226022E00F098806E48784405F051
:1047F0004BFC042098E0D4E902512269002918BF3B
:104800000121002A18BF01226948784405F03CFCC8
:10481000E06800284AD0E168002085F8420005F1F0
:10482000360014310B220DF0CAFFE0682978C07FF2
:10483000012985F8410007D12846FFF713FF00281A
:104840001CBF012085F84200042030E0D4E9025367
:10485000216955482022784405F016FC2069242857
:1048600045D004284BD1E168681C0C31142242E089
:10487000D4E903024F4979440DF0A1FFD4E90502C0
:104880004D4979440DF09BFF0420207702B0BDE82C
:10489000F08140481146784405F0F6FB02B0BDE8CF
:1048A000F0813E48784405F0EFFB3CE0062060755F
:1048B00002B0BDE8F08160680068A530E06040F2B9
:1048C0000220A0830420A07702B0BDE8F08196F812
:1048D0004210D4E90902D9B33A4979440DF06FFF87
:1048E000D4E90B0206F143010DF069FF47E0E168EE
:1048F00005F1160020220DF0DAFE042004E02B481A
:10490000784405F0C1FB0020207502B0BDE8F081BD
:1049100088F80060022E7FF468AF626920480421A5
:10492000784405F0B1FB0020607002B0BDE8F08172
:1049300096F84120E76A642006F136030190284684
:10494000202100970CF09FFCC8B9072004F024FD3B
:104950001D4979440DF033FF0C4B206859F8037062
:10496000E16A226B0368D7E90475701CCDE9007514
:1049700001F016FC002804BF002084F83400042055
:1049800084F8340002B0BDE8F08100BF5800000098
:10499000BCF60000D1F700000A210100FAFC00007B
:1049A000A1EF000009E2000025E000008AE200001B
:1049B000EEFF000062F0000021E0000028E80000A7
:1049C000CBEF000003F000006EFC0000017800292E
:1049D0001EBF012080F001007047411C002200BF73
:1049E0001F2A4FF0000038BF012003D08B5C01323A
:1049F000002BF5D080F00100704700000178FF29FE
:104A00001EBF012080F001007047411C002200BF42
:104A10001F2A4FF0000038BF012003D08B5C013209
:104A2000FF2BF5D080F001007047000080B50246F2
:104A3000B0F5827F0EDA40F20110824216D0B2F554
:104A4000817F17D040F2031082421FD1084600F048
:104A50008DF880BD12D040F20510824212D0B2F51E
:104A6000837F13D1084600F0ADF980BD084600F001
:104A700015F880BD084600F0EFF880BD084600F04C
:104A80009DF880BD084600F09DF880BD02481146A3
:104A9000784405F0F9FA80BDD7F500002DE9F04122
:104AA00004462D48D4F80C804844A7305B2100F020
:104AB000B9F838B12C48784405F0E6FA0020607067
:104AC000BDE8F081254F00267F4400BF57F826003F
:104AD00006F054FA02788378C5784078616943EA31
:104AE000052342EA002040EA03400A788B78CD781B
:104AF000497843EA052342EA012141EA0341884219
:104B000003D00136052EE1D104E0F0B2052888F883
:104B1000366009D1626912480421784405F0B4FA7C
:104B200006206070BDE8F08198F8361004208A1ED7
:104B3000032A607004D2002088F83500BDE8F081B7
:104B4000012904D8042088F83500BDE8F081054823
:104B5000784405F099FAB1E768000000B41D01003F
:104B600029F300000EF400008CE00000B0B504460C
:104B7000A268406892F836500068AA1E00F1A503AA
:104B80000021032A4FF00402E360216103D315B131
:104B9000012D11D1032242302121627700F042F829
:104BA00038B9012D02D10021A177B0BD607F01305D
:104BB0006077022004212077A177B0BD04214175E0
:104BC00070470000B0B5044604212177D0E90250B7
:104BD0002269104979440DF0F2FD95F83610881ECF
:104BE000032806D2D4E905020C4979440DF0E7FD0B
:104BF000B0BD012906D8D4E90502074979440DF072
:104C0000DEFDB0BD0648784405F03EFA002020776E
:104C1000B0BD00BF16EA00006CDF0000ABF9000079
:104C200055E3000000298C4618BF4FF0010C0FD04F
:104C300003786BB9012300BF8B424FF0000C38BFE3
:104C40004FF0010C994203D0C25C0133002AF3D02B
:104C50008CF0010070470000B0B50446D0E9025363
:104C6000016918482022784405F00EFA95F83610AC
:104C700003200129207508DD881E02280DD2204658
:104C80002946012200F048F8B0BD71B1012911D1C7
:104C90002046294600F06EF8B0BD04290AD120460E
:104CA0002946002200F038F8B0BD2046294600F021
:104CB0000DF8B0BD0448784405F0E6F900202075F1
:104CC000B0BD00BFA3EE000095E00000B0B50C46FB
:104CD00091F83510054603290AD0042912D1E96854
:104CE0002046142201F09CFE032084F83500B0BD5C
:104CF000E96804F11400202201F09BFE062084F8EC
:104D00003500B0BD0348784405F0BEF90020287591
:104D1000B0BD00BF84DE0000B0B50C4691F8351080
:104D20000546032906D001290ED0B1B9012084F827
:104D30003500B0BDE96804F11400202201F079FECD
:104D4000062084F83500B0BDE9682046142201F041
:104D500067FE032084F83500B0BD002A08BFB0BD4F
:104D60000348784405F090F900202875B0BD00BFD5
:104D700010DE000010B591F835200446052A0BD04E
:104D8000042A14D1E268052081F83500084611464E
:104D9000142201F045FE10BD0620E26881F83500BE
:104DA000D07F002818BF012081F8340010BD0448CE
:104DB0001146784405F068F90020207510BD00BF49
:104DC000C0DD000080B5C16991F83620931E032B29
:104DD0004FF0040380F8343002D200F0E9F880BDCF
:104DE000012A03D02AB900F00FF880BD00F07CF84A
:104DF00080BD002180F8341002481146784405F047
:104E000043F980BDEEEC0000B0B582B090F82020F0
:104E10000446012A0D4610DC3AB3012A1FD1D4E919
:104E200009022C4979440DF0CAFCA168D4E90B02AF
:104E300014310DF0C4FC02B0B0BD022A29D0032AFF
:104E40000DD1D4E90902244979440DF0B8FCD4E924
:104E50000B2305F1140020210CF080F92FE02148EC
:104E60001146784405F010F92AE0D4E909021B49FB
:104E700079440DF0A4FC1548154B59F80000E16A7F
:104E8000D0E9040C226B00904B442846CDF804C0B6
:104E900013E0D4E90902124979440DF090FC0B4A61
:104EA000DFF82CC059F80230A068D3E90435E16A74
:104EB000226B009309EB0C03019501F071F910B915
:104EC000002084F8340002B0B0BD00BF58000000DC
:104ED0000807000071E2000015FD00001E0101003E
:104EE0001BF8000076DB000070B582B090F820203F
:104EF0000446022A1DD0012A33D0002A3FD10D4694
:104F000091F83430D4E90902244E25497E4479448D
:104F1000002B08BF31460DF052FC1E481E4B59F8BD
:104F20000000E16AD0E90406226B00904B44284659
:104F300011E0D4E909021C4979440DF040FC154AFE
:104F4000154D59F80230A068D3E90436E16A226BA6
:104F5000009309EB0503019601F022F9A0B102B01C
:104F600070BDD4E909020F4979440DF028FCA1680D
:104F7000D4E90B0214310DF022FC02B070BD0B48D5
:104F80001146784405F080F8002084F8340002B01F
:104F900070BD00BF5800000008070000BE010100FE
:104FA000800001000CE000007BF7000056DA0000F2
:104FB000B0B582B090F820200446012A0D4610DCDE
:104FC0003AB3012A1FD1D4E909022C4979440DF0E2
:104FD000F6FBA168D4E90B0214310DF0F0FB02B02E
:104FE000B0BD022A29D0032A0DD1D4E909022449EF
:104FF00079440DF0E4FBD4E90B2305F114002021E2
:105000000CF0ACF82FE021481146784405F03CF84C
:105010002AE0D4E909021B4979440DF0D0FB154878
:10502000154B59F80000E16AD0E9040C226B00909E
:105030004B442846CDF804C013E0D4E909021249D4
:1050400079440DF0BCFB0B4ADFF82CC059F8023054
:10505000A068D3E90435E16A226B009309EB0C03E5
:10506000019501F09DF810B9002084F8340002B0D9
:10507000B0BD00BF580000000807000065E7000051
:105080006DFB00007AE0000073F60000CED900004E
:105090002DE9F04192B00246B0F5817F0C462EDD3D
:1050A00040F2031082424BD040F20510824258D0A9
:1050B000B2F5837F78D194F82000012800F0918028
:1050C000002840F04081A54859F80050D4E9090271
:1050D000B44979440DF073FBA148E76A484490F85D
:1050E000621064220192423012222B4600970CF08B
:1050F000CAF8002840F08180072004F04DF940F202
:10510000011082423ED0B2F5817F4DD1D4E90273C5
:10511000216995482022784404F0B6FF2569281FAC
:105120004FEA7010052847DD08286CDDA0F10A0160
:105130000329C0F0FF80092840F001816026EBE0E0
:10514000A5689548784404F09FFF287800280FBF91
:10515000062040F20220A0830420A07712B0BDE810
:10516000F081D4E903028D4979440DF028FBD4E99C
:1051700005028B4979440DF022FB0420207712B000
:10518000BDE8F081A068E5680068142200F1A5017F
:10519000774878440DF098FAE0B17648784404F006
:1051A00073FF0020287018E070481146784404F01E
:1051B0006BFF12B0BDE8F08102287EDC002800F011
:1051C0008880012800F08780022840F0B8804FF4E2
:1051D0009076A1E0012028700420607012B0BDE834
:1051E000F081E569D4E909026F4979440DF0E7FAE5
:1051F000D4E90B02691C0DF0E2FA042084F83400B3
:1052000012B0BDE8F081062867D0072800F0818041
:10521000082840F09480534D43F25D0059F8051082
:105220000290B1F1011F4FF4616003900ED3524818
:10523000784404F029FF59F8051050484FF48032A3
:10524000784404F021FF00202075387059F80500DB
:1052500006AD0490002602A804212A4605964FF0C8
:105260000408FBF7B5FC4648302178442A4604F090
:105270000BFF284630212A462023FEF727FDE16850
:10528000284620228DF818600DF01EFA00285FD005
:105290003C48784404F0F8FEE2683B48202178441A
:1052A00004F0F2FE394806AA7844202104F0ECFE0E
:1052B00026753E7012B0BDE8F08103283AD004286C
:1052C00029D005283BD1E168781C30220DF0EDF99A
:1052D00030E0802620E0E0261EE0E16807F12100B2
:1052E00010227D1C0DF0E1F91C48216859F80000DE
:1052F0000B68D0E9040706A90090284630220197E0
:1053000000F04EFF10B306A9284630220DF057FAE0
:1053100010E0202600E03026E06800F047F8B042B8
:1053200008D003461A4829467844324604F0ACFEB9
:10533000002038700420207512B0BDE8F0811548B7
:10534000784404F0A1FE12B0BDE8F0810020F2E73D
:1053500084F8148012B0BDE8F08100BF580000004E
:10536000B001000064000000BFEC0000BBEE0000D4
:10537000FE1601000FD700006CEE00001BFA0000C3
:105380003ADE0000CFEB00003BD600007AF50000CB
:105390007ED800004AD8000082EF00006DDF0000D8
:1053A00013FB0000B0DE00009FDD0000427F017FA4
:1053B000837F1204C07F42EA016141EA032108446D
:1053C00070472DE9F0410E46DDF8188040211C465B
:1053D000154607460DF066F907F1300080E8300108
:1053E0000120387030467E6000F002F8BDE8F081A0
:1053F00080B54FF48071FEF771FC002808BF80BDB6
:1054000003F0CAFF80B582B0816AC1B1426A013936
:1054100012F8013B81628DF80730437C426223B170
:10542000C168827C0131C1602AB940680DF1070171
:10543000012200F00DF89DF8070002B080BD03487E
:10544000784404F021FE012003F0A6FF0CE30000E5
:1054500010B582B013460A464FF0000C00210446F6
:10546000CDF800C0CDF804C0FEF72CFC20B92046D2
:10547000FEF724FC02B010BD03F08EFFB0B5044669
:10548000806A90421FD3154629B1626A08461146C8
:105490002A460DF00CF9607C08B1A07C20B9606848
:1054A000616A2A46FFF7D4FF606AA16A28446062F5
:1054B000607C0028A1EB0500A06208BFB0BDE068D9
:1054C0002844E060B0BD0348784404F0DDFD0120CD
:1054D00003F062FFA4D800002DE9F0418CB0E8464B
:1054E000064640461D4617460C460DF02DF90104B0
:1054F000ADF82C0007D00A980021ADF82C1007F069
:105500007FFA03250FE0684607F07AFA0A903046E2
:10551000C6E90947F56200F019F8014605460A4850
:10552000784404F0B1FD07F061FA404502D10A98D1
:1055300007F066FABDF82C00002802BF28460CB020
:10554000BDE8F08103F028FF5EE700002DE9F0459B
:1055500081B0474C47497C447944884646490746D0
:1055600079448A4607E000BF204604F08DFD0226FC
:105570000025002D77D097F83C00C02802D139785B
:105580000C29F1D0022807D0012808D139780B293D
:10559000EAD0022803D100BF39780C29E4D0C02812
:1055A00004D13878092801D1B86AD0B3B86AD8B123
:1055B000787C30B9384600F097F8042818BF0646C2
:1055C000D6D1396BB1B13846884705462C48784466
:1055D00004F05AFD022D0ED32CD0032D2CD12948D6
:1055E000784404F051FD3CE0504604F04DFD0025A8
:1055F0000026BEE700250DB10125BAE739781F481E
:10560000784404F041FD97F83C10012919D0022993
:105610001DD0C02921D1384600F0D4F80028EBD0A5
:105620001FE0786B002580F8C250404604F02CFD46
:1056300002269EE701269BE71348784404F024FDE8
:105640000FE0384600F020F90028D5D009E03846B0
:1056500000F07AF90028CFD003E00C48784404F039
:1056600013FD032684E7F0B201B0BDE8F08500BF6A
:10567000DBF20000A2EE0000E2F20000DDE3000039
:10568000C6F90000AFF600008AF700004FF90000ED
:10569000B0B58CB06C46054620460DF055F80104B7
:1056A000ADF82C0007D00A980021ADF82C1007F0B7
:1056B000A7F9032507E0684607F0A2F90A902846F3
:1056C000FFF744FF054607F091F9A04202D10A987E
:1056D00007F096F9BDF82C00002802BF28460CB050
:1056E000B0BD03F059FE00002DE9F04583B004463B
:1056F00000F118052F480027784480462E480DF108
:1057000007067844824601E00020F8B9A06AF8B1A3
:105710002046FFF777FE216A4A1C21442262087660
:10572000216A2846324600F0A1FB28B19DF8070007
:1057300038B103200127E8E7206A0528E4D1504664
:1057400000E0404604F0A0FC0120DEE703282CD155
:10575000F8071ED004F1080104F1100302AA28463C
:1057600000F0A1FBE8B10299002000294FF00001F0
:1057700006D1D4E9091201390132C4E90912012123
:10578000E06020620120A1746074042003B0BDE8D1
:10579000F0850A48784404F077FC002003B0BDE8A7
:1057A000F0850748784404F06FFC032003B0BDE89F
:1057B000F08500BF6AE0000088E50000E4DF00003B
:1057C0004CE2000010B50446007806280CDC0328E3
:1057D00017DC012828D0022834D003284BD12046DA
:1057E00000F05AF9002010BD092815DC07282ED03A
:1057F000082831D009283ED1204600F0A7FA002021
:1058000010BD04282DD0052830D0062833D12046DD
:1058100000F0D8F9002010BD0A3802282BD220460B
:1058200000F06EFA002010BD204600F0F5F894F864
:105830002C00C0071CBF002010BD20780130207054
:10584000002010BD204600F0FBF8002010BD2046CF
:1058500000F0EAF9002010BD204600F017FA002001
:1058600010BD204600F048F9002010BD204600F091
:1058700073F9002010BD0348784404F005FC0120B2
:1058800010BD00BFBAE2000010B50446007805283C
:105890000CDC022817DD032827D004282AD005288D
:1058A0004AD1204600F028F9002010BD072813DD5A
:1058B000082824D0092827D00A283DD1204600F006
:1058C000AFFA002010BD012823D0022834D1204691
:1058D00000F0B6F8002010BD062828D007282BD1EC
:1058E000204600F06FF9002010BD204600F064FA59
:1058F000002010BD204600F0CFF8002010BD20464B
:1059000000F092F9002010BD204600F0BFF9002001
:1059100010BD204600F080F894F82C00C0071CBF92
:10592000002010BD207801302070002010BD2046DE
:1059300000F072FA002010BD0248784404F0A4FB85
:10594000012010BDF8E1000010B5044600780528DC
:105950000CDD082817DC062829D007282CD00828B9
:1059600051D1204600F02EF9002010BD022815DD8F
:10597000032826D0042829D0052844D1204600F049
:10598000BFF9002010BD092825D00A2828D00B28EF
:1059900039D1204600F044FA002010BD012824D05F
:1059A000022830D1204600F04BF8002010BD2046E0
:1059B00000F0A2F8002010BD204600F02DFA0020D3
:1059C00010BD204600F0F8F9002010BD204600F080
:1059D00063F8002010BD204600F026F9002010BD1D
:1059E000204600F053F9002010BD204600F014F8C6
:1059F00094F82C00C0071CBF002010BD2078013097
:105A00002070002010BD0348784404F03DFB0120C5
:105A100010BD00BF2AE1000080B5017C39B181686A
:105A200002784161511C01700021417480BD03481E
:105A3000784404F029FB012003F0AEFC8FEC000059
:105A400010B50446007CC8B9A068212819D2E168C5
:105A5000884208D9A36A421A20460021934238BFDF
:105A60001A46FFF70BFDD4E90201814218BF10BDB1
:105A70002078013020700020607410BD0448784404
:105A800001E00448784404F0FFFA012003F084FCAC
:105A900070DB000063F3000010B50446007CE8B939
:105AA000A06821281DD2E168884209D9421AA06A5B
:105AB000616B904238BF024663312046FFF7DEFC3F
:105AC000D4E90201814218BF10BD616B227881F8D0
:105AD0008300501C20700020607410BD044878447E
